:100000000080001029010000F5000000F70000004A
:10001000F9000000FB000000FD00000000000000EF
:10002000000000000000000000000000FF000000D1
:1000300001010000000000000301000005010000B4
:100040006901000069010000690100006901000008
:1000500069010000D90A0000650C0000F90D0000DC
:10006000B90F000069010000E94300009548000055
:10007000594D00006901000069010000690100009C
:1000800069010000690100006901000069010000C8
:1000900069010000690100006901000069010000B8
:1000A00069010000690100006901000069010000A8
:1000B0006901000069010000690100006901000098
:1000C0006901000069010000690100002052000080
:1000D00000000010580000002052000000C007205F
:1000E00000000000580000109005000000C007202C
:1000F00000000000FEE7FEE7FEE7FEE7FEE7FEE7A2
:10010000FEE7FEE7FEE710B5002302E01C585C5056
:1001100004339342FAD310BD002302E000221A50A8
:1001200004338B42FAD3704710B50C4C05E02068BD
:100130006168A2680C34FFF7E6FF094B9C42F6D3D6
:1001400004E0206861680834FFF7E6FF054B9C4235
:10015000F7D300F0ADF905F061F8FEE7CC00000040
:10016000E4000000F4000000FEE700BFFFFFFFFF17
:10017000FFFFFFFFFFFFFFFFFFFFFFFFFFFFFFFF8F
:10018000FFFFFFFFFFFFFFFFFFFFFFFFFFFFFFFF7F
:10019000FFFFFFFFFFFFFFFFFFFFFFFFFFFFFFFF6F
:1001A000FFFFFFFFFFFFFFFFFFFFFFFFFFFFFFFF5F
:1001B000FFFFFFFFFFFFFFFFFFFFFFFFFFFFFFFF4F
:1001C000FFFFFFFFFFFFFFFFFFFFFFFFFFFFFFFF3F
:1001D000FFFFFFFFFFFFFFFFFFFFFFFFFFFFFFFF2F
:1001E000FFFFFFFFFFFFFFFFFFFFFFFFFFFFFFFF1F
:1001F000FFFFFFFFFFFFFFFFFFFFFFFFFFFFFFFF0F
:10020000FFFFFFFFFFFFFFFFFFFFFFFFFFFFFFFFFE
:10021000FFFFFFFFFFFFFFFFFFFFFFFFFFFFFFFFEE
:10022000FFFFFFFFFFFFFFFFFFFFFFFFFFFFFFFFDE
:10023000FFFFFFFFFFFFFFFFFFFFFFFFFFFFFFFFCE
:10024000FFFFFFFFFFFFFFFFFFFFFFFFFFFFFFFFBE
:10025000FFFFFFFFFFFFFFFFFFFFFFFFFFFFFFFFAE
:10026000FFFFFFFFFFFFFFFFFFFFFFFFFFFFFFFF9E
:10027000FFFFFFFFFFFFFFFFFFFFFFFFFFFFFFFF8E
:10028000FFFFFFFFFFFFFFFFFFFFFFFFFFFFFFFF7E
:10029000FFFFFFFFFFFFFFFFFFFFFFFFFFFFFFFF6E
:1002A000FFFFFFFFFFFFFFFFFFFFFFFFFFFFFFFF5E
:1002B000FFFFFFFFFFFFFFFFFFFFFFFFFFFFFFFF4E
:1002C000FFFFFFFFFFFFFFFFFFFFFFFFFFFFFFFF3E
:1002D000FFFFFFFFFFFFFFFFFFFFFFFFFFFFFFFF2E
:1002E000FFFFFFFFFFFFFFFFFFFFFFFFFFFFFFFF1E
:1002F000FFFFFFFFFFFFFFFFFFFFFFFFFFFFFFFF0E
:1003000080B400AF4CF22003C2F209031B684CF228
:100310002003C2F209034FF000021A604CF22003DE
:10032000C2F209034CF22002C2F20902126842F042
:10033000F0521A60BD4680BC704700BF80B400AF69
:100340004CF24003C2F209031B684CF24003C2F2B4
:1003500009034FF000021A60BD4680BC704700BF21
:1003600080B582B000AF4FF000037B604FF0000318
:100370007B6005E000F01CF87B6803F101037B6003
:100380007A6840F2E7339A42F4DD4FF002004FF40E
:10039000E13100F0DBFE00F09BFA00F0C9FAFFF754
:1003A000AFFFFFF7CBFF07F10807BD4680BD00BFD9
:1003B00080B483B000AF4FF000037B604FF00003C8
:1003C0007B6003E07B6803F101037B607B68632B48
:1003D000F8D907F10C07BD4680BC704780B500AF67
:1003E00000F066F800F058F9FFF7BAFF4CF240034E
:1003F000C2F209035B6903F48063002B07D14CF25E
:100400002003C2F209034FF000729A6106E04CF239
:100410002003C2F209034FF00072DA614CF240038C
:10042000C2F209035B6903F40063002B07D14CF2AD
:100430002003C2F209034FF080629A6106E04CF299
:100440002003C2F209034FF08062DA614CF24003EC
:10045000C2F209035B6903F48053002B07D14CF20D
:100460002003C2F209034FF000629A6106E04CF2E9
:100470002003C2F209034FF00062DA614CF240033C
:10048000C2F209035B6903F40053002B07D14CF25D
:100490002003C2F209034FF080529A61A6E74CF2A2
:1004A0002003C2F209034FF08052DA619EE700BFD9
:1004B00080B483B000AF4FF000037B604FF4404343
:1004C000C4F20F034FF02002C3F8A02100BF4FF485
:1004D0004043C4F20F03D3F8A03103F04003002BD4
:1004E000F5D04FF44043C4F20F034FF00202C3F8BB
:1004F00004214FF44043C4F20F034FF00002C3F84D
:10050000A8214FF44043C4F20F034FF00002C3F898
:10051000AC214FF44043C4F20F034FF00102C3F883
:100520000C214FF44043C4F20F034FF05902C0F2C4
:100530000502C3F884204FF44043C4F20F034FF088
:100540000102C3F880204FF44043C4F20F034FF080
:10055000AA02C3F88C204FF44043C4F20F034FF0BB
:100560005502C3F88C204FF44043C4F20F03D3F874
:100570000C31022B0BD000BF4FF44043C4F20F03E9
:10058000D3F8883003F08063002BF5D00AE04FF0F9
:1005900000037B6003E07B6803F101037B607B6801
:1005A000642BF8D94FF44043C4F20F034FF0030219
:1005B000C3F880204FF44043C4F20F034FF0AA0267
:1005C000C3F88C204FF44043C4F20F034FF05502A0
:1005D000C3F88C204FF44043C4F20F034FF02302C2
:1005E000C3F8A4204FF44043C4F20F034FF00102BC
:1005F000C3F8A0204FF44043C4F20F034FF0AA0207
:10060000C3F8AC204FF44043C4F20F034FF055023F
:10061000C3F8AC2000BF4FF44043C4F20F03D3F83B
:10062000A83003F48063002BF5D04FF44043C4F2AC
:100630000F034FF00302C3F8A0204FF44043C4F26D
:100640000F034FF0AA02C3F8AC204FF44043C4F2AA
:100650000F034FF05502C3F8AC204FF44043C4F2EF
:100660000F0348F2DE72C0F22842C3F8C4204FF4F0
:100670004043C4F20F034FF00002C3F8C8214FF407
:100680004043C4F20F0343F23A021A6007F10C0729
:10069000BD4680BC704700BF80B400AF4FF44043FC
:1006A000C4F20F03D3F888304FEA136303F0030357
:1006B000032B40F0B2804FF44043C4F20F03D3F851
:1006C0000C3103F00303032B00F2FD8001A252F86A
:1006D00023F000BFE50600004D070000B70700004B
:1006E000E50600004FF44043C4F20F03D3F888300E
:1006F0004FEA43434FEA534303F101034FEA4302F6
:100700004FF44043C4F20F03D3F888304FEA134349
:1007100003F0FF0303F10103B2FBF3F24FF41063A4
:10072000C0F23D0303FB02F24FF44043C4F20F0357
:10073000D3F8043103F0FF0303F10103B2FBF3F23A
:1007400040F20003C1F200031A60BDE04FF44043E1
:10075000C4F20F03D3F888304FEA43434FEA5343C0
:1007600003F101034FEA43024FF44043C4F20F0385
:10077000D3F888304FEA134303F0FF0303F101037A
:10078000B2FBF3F24FF4D853C0F2B70303FB02F20B
:100790004FF44043C4F20F03D3F8043103F0FF03D6
:1007A00003F10103B2FBF3F240F20003C1F20003D4
:1007B0001A6000BF88E04FF44043C4F20F03D3F83F
:1007C00088304FEA43434FEA534303F101034FEAB2
:1007D00043024FF44043C4F20F03D3F888304FEA8A
:1007E000134303F0FF0303F10103B2FBF3F34FF4F0
:1007F000FA4202FB03F24FF44043C4F20F03D3F872
:10080000043103F0FF0303F10103B2FBF3F240F202
:100810000003C1F200031A6056E04FF44043C4F2F3
:100820000F03D3F80C3103F00303032B4CD801A2C0
:1008300052F823F045080000710800009D080000F0
:10084000450800004FF44043C4F20F03D3F80431CD
:1008500003F0FF0303F101024FF41063C0F23D0304
:10086000B3FBF2F240F20003C1F200031A602BE086
:100870004FF44043C4F20F03D3F8043103F0FF03F5
:1008800003F101024FF4D853C0F2B703B3FBF2F205
:1008900040F20003C1F200031A6015E04FF4404338
:1008A000C4F20F03D3F8043103F0FF0303F1010393
:1008B0004FF4FA42B2FBF3F240F20003C1F200033C
:1008C0001A6000BF00E000BFBD4680BC704700BF9B
:1008D00080B500AF00F002F880BD00BF80B500AF6A
:1008E00040F2E023C1F200034FF04E021A7040F2D2
:1008F000E023C1F200034FF045025A7040F2E023BA
:10090000C1F200034FF058029A7040F2E023C1F2A6
:1009100000034FF03802DA704FF0020040F2E0219D
:10092000C1F200014FF0040200F08AFE80BD00BF5A
:1009300080B500AF40F2E023C1F200034FF04E0259
:100940001A7040F2E023C1F200034FF045025A70E2
:1009500040F2E023C1F200034FF058029A7040F2D7
:10096000E023C1F200034FF03102DA7040F2E023DD
:10097000C1F200034FF080021A714FF0020040F202
:10098000E021C1F200014FF0050200F059FE40F2F3
:10099000E023C1F200034FF04E021A7040F2E02350
:1009A000C1F200034FF045025A7040F2E023C1F259
:1009B00000034FF058029A7040F2E023C1F20003A6
:1009C0004FF03202DA7040F2E023C1F200034FF040
:1009D00080021A714FF0020040F2E021C1F20001E2
:1009E0004FF0050200F02CFE80BD00BF80B483B044
:1009F00000AF0346FB714FF46143CEF2000397F959
:100A000007204FEA5212F97901F01F014FF001005F
:100A100000FA01F143F8221007F10C07BD4680BC33
:100A2000704700BF80B483B000AF03463960FB71EC
:100A300097F90730002B10DA4FF46D43CEF2000324
:100A4000FA7902F00F02A2F104013A68D2B24FEA39
:100A5000C202D2B25B181A760DE04FF46143CEF2B7
:100A6000000397F907103A68D2B24FEAC202D2B235
:100A70005B1883F8002307F10C07BD4680BC704764
:100A800080B483B000AF0346FB7197F90730002BA9
:100A90000FDA4FF46D43CEF20003FA7902F00F0241
:100AA000A2F104029B181B7EDBB24FEAD303DBB238
:100AB0000CE04FF46143CEF2000397F907209B1836
:100AC00093F80033DBB24FEAD303DBB2184607F1E9
:100AD0000C07BD4680BC704780B582B000AF4FF4B4
:100AE0004043C4F200039B68BB71BB794FEA5303D8
:100AF000BB71BB7903F00703BB71BB79032B4DD1ED
:100B00004FF44043C4F200035B697B717B7903F0CF
:100B10009E03002B0CD07A7940F26033C1F20003BF
:100B20001A604FF44043C4F200031B68FB7194E069
:100B30007B7903F00103DBB2002B00F08E804FF4D1
:100B40004043C4F200031B68DAB240F21C23C1F236
:100B500000031A7040F21C23C1F200031B78DBB2C1
:100B6000184600F017FE40F26003C1F200031B6854
:100B700003F1010240F26003C1F200031A6040F287
:100B80006003C1F200031B68402B66D140F2600392
:100B9000C1F200034FF000021A605EE0BB79022B45
:100BA0002ED14FF44043C4F200031B68DAB240F286
:100BB0001C23C1F200031A7040F21C23C1F200038F
:100BC0001B78DBB2184600F0E5FD40F26003C1F28D
:100BD00000031B6803F1010240F26003C1F200034D
:100BE0001A6040F26003C1F200031B68402B34D14D
:100BF00040F26003C1F200034FF000021A602CE0E3
:100C0000BB79062B0CD140F26033C1F200031B68A4
:100C100043F4807240F26033C1F200031A601CE0BA
:100C2000BB79012B19D14FF44043C4F200035B6937
:100C30007B717B7903F02003002B07D040F2040383
:100C4000C1F200034FF001021A7006E040F2040303
:100C5000C1F200034FF000021A7007F10807BD4609
:100C600080BD00BF80B582B000AF4FF00003C4F27A
:100C700001039B68BB71BB794FEA5303BB71BB791E
:100C800003F00703BB71BB79032B4FD14FF0000377
:100C9000C4F201035B697B717B7903F09E03002B37
:100CA0000CD07A7940F29C23C1F200031A604FF015
:100CB0000003C4F201031B68FB7198E07B7903F029
:100CC0000103DBB2002B00F092804FF00003C4F26E
:100CD00001031B68DAB240F2D413C1F200031A70A8
:100CE00040F2D413C1F200031B78DBB24FF00100D5
:100CF000194600F013FE40F26403C1F200031B68C2
:100D000003F1010240F26403C1F200031A6040F2F1
:100D10006403C1F200031B68402B68D140F26403F6
:100D2000C1F200034FF000021A6060E0BB79022BB1
:100D300030D14FF00003C4F201031B68DAB240F275
:100D4000D413C1F200031A7040F2D413C1F20003AD
:100D50001B78DBB24FF00100194600F0DFFD40F2D6
:100D60006403C1F200031B6803F1010240F2640353
:100D7000C1F200031A6040F26403C1F200031B6871
:100D8000402B34D140F26403C1F200034FF0000263
:100D90001A602CE0BB79062B0CD140F29C23C1F2E7
:100DA00000031B6843F4807240F29C23C1F20003ED
:100DB0001A601CE0BB79012B19D14FF00003C4F27B
:100DC00001035B697B717B7903F02003002B07D063
:100DD00040F20503C1F200034FF001021A7006E071
:100DE00040F20503C1F200034FF000021A7007F150
:100DF0000807BD4680BD00BF80B483B000AF4FF48C
:100E00000043C4F209039B68BB71BB794FEA5303EB
:100E1000BB71BB7903F00703BB71BB79032B5AD1BC
:100E20004FF40043C4F209035B697B717B7903F0E3
:100E30009E03002B0CD07A7940F21423C1F20003F8
:100E40001A604FF40043C4F209031B68FB71ADE064
:100E50007B7903F00103DBB2002B00F0A78040F2A6
:100E60006803C1F200031A684FF40043C4F2090397
:100E70001B68D9B240F2CC03C1F20003995402F1CD
:100E8000010240F26803C1F200031A6040F28103DC
:100E9000C1F200031B78DBB21A4640F26803C1F2CC
:100EA00000031B689A4240F0818040F26803C1F25F
:100EB00000034FF000021A6040F28103C1F2000308
:100EC0004FF000021A7040F28003C1F200034FF0AD
:100ED00001021A706AE0BB79022B3AD140F2680332
:100EE000C1F200031A684FF40043C4F209031B68FF
:100EF000D9B240F2CC03C1F20003995402F10102CD
:100F000040F26803C1F200031A6040F28103C1F2AB
:100F100000031B78DBB21A4640F26803C1F20003FB
:100F20001B689A4242D140F26803C1F200034FF0BD
:100F300000021A6040F28103C1F200034FF0000288
:100F40001A7040F28003C1F200034FF001021A70E0
:100F50002CE0BB79062B0CD140F21423C1F2000324
:100F60001B6843F4807240F21423C1F200031A603C
:100F70001CE0BB79012B19D14FF40043C4F20903E3
:100F80005B697B717B7903F02003002B07D040F273
:100F90000603C1F200034FF001021A7006E040F2AE
:100FA0000603C1F200034FF000021A7007F10C07AC
:100FB000BD4680BC704700BF80B582B000AF4FF423
:100FC0004043C4F209039B68BB71BB794FEA5303EA
:100FD000BB71BB7903F00703BB71BB79032B4FD106
:100FE0004FF44043C4F209035B697B717B7903F0E2
:100FF0009E03002B0CD07A7940F26033C1F20003DB
:101000001A604FF44043C4F209031B68FB7198E077
:101010007B7903F00103DBB2002B00F092804FF4E8
:101020004043C4F209031B68DAB240F2A023C1F2C4
:1010300000031A7040F2A023C1F200031B78DBB258
:101040004FF00300194600F069FC40F26C03C1F256
:1010500000031B6803F1010240F26C03C1F20003BC
:101060001A6040F26C03C1F200031B68402B68D188
:1010700040F26C03C1F200034FF000021A6060E01E
:10108000BB79022B30D14FF44043C4F209031B68F3
:10109000DAB240F2A023C1F200031A7040F2A0239A
:1010A000C1F200031B78DBB24FF00300194600F0D9
:1010B00035FC40F26C03C1F200031B6803F101022E
:1010C00040F26C03C1F200031A6040F26C03C1F2FB
:1010D00000031B68402B34D140F26C03C1F20003C3
:1010E0004FF000021A602CE0BB79062B0CD140F2C5
:1010F0001823C1F200031B6843F4807240F21823E6
:10110000C1F200031A601CE0BB79012B19D14FF426
:101110004043C4F209035B697B717B7903F02003D0
:10112000002B07D040F20703C1F200034FF0010289
:101130001A7006E040F20703C1F200034FF000020C
:101140001A7007F10807BD4680BD00BF80B586B0A4
:1011500000AF786039604FF000033B617B68002B83
:1011600040F086804FF44043C4F202034FF4404203
:10117000C4F20202126822F0F0021A604FF44043F7
:10118000C4F202034FF44042C4F20202126842F079
:1011900050021A604FF44043C4F20F03D3F8A83151
:1011A0004FEA931303F00303FB60FB68022B13D099
:1011B000032B1AD0012B08D040F20003C1F2000328
:1011C0001B684FEA93037B6118E040F20003C1F211
:1011D00000031B687B6111E040F20003C1F20003D1
:1011E0001B684FEA53037B6108E040F20003C1F241
:1011F00000031B684FEAD3037B6100BF4FF44043F9
:10120000C4F200034FF08302DA607B694FEA1312E5
:101210003B68B2FBF3F3BB604FF44043C4F20003FE
:10122000BA684FEA12225A604FF44043C4F20003F6
:10123000BA6802F0FF021A604FF44043C4F20003A0
:101240004FF00302DA604FF44043C4F200034FF062
:1012500007029A604FF00500FFF7C8FB4FF44043C8
:10126000C4F200034FF005025A604FF00103E2E1BF
:101270007B68012B40F09E804FF44043C4F2020390
:101280004FF44042C4F20202126822F040421A6057
:101290004FF44043C4F202034FF44042C4F202024E
:1012A000126842F080421A604FF44043C4F20203D5
:1012B0004FF44042C4F20202526822F003025A6024
:1012C0004FF44043C4F202034FF44042C4F202021E
:1012D000526842F001025A604FF44043C4F20F03D7
:1012E000D3F8A8314FEA132303F00303FB60FB6834
:1012F000022B13D0032B1AD0012B08D040F200038D
:10130000C1F200031B684FEA93037B6118E040F2CF
:101310000003C1F200031B687B6111E040F200038F
:10132000C1F200031B684FEA53037B6108E040F2FF
:101330000003C1F200031B684FEAD3037B6100BFC7
:101340004FF00003C4F201034FF08302DA607B69BF
:101350004FEA13123B68B2FBF3F3BB604FF000039C
:10136000C4F20103BA684FEA12225A604FF0000338
:10137000C4F20103BA6802F0FF021A604FF00003E2
:10138000C4F201034FF00302DA604FF00003C4F22D
:1013900001034FF007029A604FF00600FFF726FBAB
:1013A0004FF00003C4F201034FF005025A604FF002
:1013B000010340E17B68022B40F094804FF44043EE
:1013C000C4F20F034FF44042C4F20F02D2F8C4201B
:1013D00042F08072C3F8C4204FF44043C4F20203C9
:1013E0004FF44042C4F20202126822F470021A6002
:1013F0004FF44043C4F202034FF44042C4F20202ED
:10140000126842F4A0021A604FF44043C4F20F0382
:10141000D3F8AC314FEA134303F00303FB60FB68DE
:10142000022B13D0032B1AD0012B08D040F200035B
:10143000C1F200031B684FEA93037B6118E040F29E
:101440000003C1F200031B687B6111E040F200035E
:10145000C1F200031B684FEA53037B6108E040F2CE
:101460000003C1F200031B684FEAD3037B6100BF96
:101470004FF40043C4F209034FF08302DA607B6942
:101480004FEA13123B68B2FBF3F3BB604FF4004327
:10149000C4F20903BA684FEA12225A604FF40043BB
:1014A000C4F20903BA6802F0FF021A604FF4004365
:1014B000C4F209034FF00302DA604FF40043C4F2B0
:1014C00009034FF007029A604FF00700FFF78EFA0A
:1014D0004FF40043C4F209034FF005025A604FF085
:1014E0000103A8E07B68032B40F0A3804FF4404346
:1014F000C4F20F034FF44042C4F20F02D2F8C420EA
:1015000042F00072C3F8C4204FF44043C4F2020317
:101510004FF44042C4F20202126822F00F021A6035
:101520004FF44043C4F202034FF44042C4F20202BB
:10153000126842F00A021A604FF44043C4F20F03EB
:10154000D3F8AC314FEA934303F00303FB60FB682D
:10155000022B13D0032B1AD0012B08D040F200032A
:10156000C1F200031B684FEA93037B6118E040F26D
:101570000003C1F200031B687B6111E040F200032D
:10158000C1F200031B684FEA53037B6108E040F29D
:101590000003C1F200031B684FEAD3037B6100BF65
:1015A0004FF44043C4F209034FF08302DA607B69D1
:1015B0004FEA13123B68B2FBF3F3BB604FF44043B6
:1015C000C4F20903BA684FEA12225A604FF440434A
:1015D000C4F20903BA6802F0FF021A604FF44043F4
:1015E000C4F209034FF00302DA604FF44043C4F23F
:1015F00009034FF007029A604FF00800FFF740FA26
:1016000038614FF008004FF00101FFF70BFA4FF07F
:101610000800FFF7EBF94FF00800FFF7E7F94FF488
:101620004043C4F209034FF005025A604FF0010332
:1016300001E04FF00003184607F11807BD4680BDD2
:1016400080B485B000AFF860B9607A60FB68002BA9
:1016500024D11FE000BF4FF44043C4F200035B6994
:1016600003F04003002BF6D04FF44043C4F20003D4
:10167000BA6812781A6040F20403C1F200034FF016
:1016800000021A70BB6803F10103BB607B6803F1C1
:10169000FF337B607B68002BDCD176E0FB68012B9D
:1016A00024D11FE000BF4FF00003C4F201035B69C7
:1016B00003F04003002BF6D04FF00003C4F2010307
:1016C000BA6812781A6040F20503C1F200034FF0C5
:1016D00000021A70BB6803F10103BB607B6803F171
:1016E000FF337B607B68002BDCD14EE0FB68022B74
:1016F00024D11FE000BF4FF40043C4F209035B692B
:1017000003F04003002BF6D04FF40043C4F209036A
:10171000BA6812781A6040F20603C1F200034FF073
:1017200000021A70BB6803F10103BB607B6803F120
:10173000FF337B607B68002BDCD126E0FB68032B4A
:1017400023D11FE000BF4FF44043C4F209035B699B
:1017500003F04003002BF6D04FF44043C4F20903DA
:10176000BA6812781A6040F20703C1F200034FF022
:1017700000021A70BB6803F10103BB607B6803F1D0
:10178000FF337B607B68002BDCD107F11407BD467B
:1017900080BC704780B483B000AF0346FB7140F259
:1017A0009303C1F200031B78DBB203F10103DAB249
:1017B00040F29303C1F200031A7040F27433C1F295
:1017C00000031B78DBB2002B17D1FB79242B14D13B
:1017D00040F27F33C1F200034FF001021A7040F271
:1017E000E133C1F200034FF000021A7040F292039D
:1017F000C1F200034FF000021A7040F27F33C1F2D1
:1018000000031B78DBB2002B30D040F2E133C1F291
:1018100000031B78DBB21A4640F20043C1F200031A
:10182000F979995440F2E033C1F200034FF001021C
:101830001A7040F27F33C1F200034FF000021A70B9
:1018400040F27433C1F200034FF001021A7040F20B
:10185000E133C1F200031B78DBB203F10103DAB21A
:1018600040F2E133C1F200031A7051E040F2E0337C
:10187000C1F200031B78DBB2002B49D040F2E13308
:10188000C1F200031B78DBB21A4640F20043C1F2FA
:101890000003F9799954FB790A2B2BD140F2E133FB
:1018A000C1F200031B78DBB203F1FF3240F20043C8
:1018B000C1F200039B5CDBB20D2B1BD140F2E13384
:1018C000C1F200034FF000021A7040F2E033C1F29F
:1018D00000034FF000021A7040F27433C1F20003AB
:1018E0004FF001021A7040F28203C1F200034FF080
:1018F00001021A7040F2E133C1F200031B78DBB23F
:1019000003F10103DAB240F2E133C1F200031A70CD
:1019100007F10C07BD4680BC704700BF80B584B09E
:1019200000AF02460B46FA71BB714FF00003FB7328
:1019300040F20803C1F200031B78092B0CD140F2DE
:101940007503C1F20003BA791A7040F27703C1F24D
:1019500000034FF001021A7040F20803C1F20003C5
:101960001B78082B0CD140F27403C1F20003BA7942
:101970001A7040F20803C1F200034FF009021A7016
:1019800040F20803C1F200031B78072B0CD140F290
:101990007303C1F20003BA791A7040F20803C1F26E
:1019A00000034FF008021A7040F20803C1F200036E
:1019B0001B78062B0CD140F27203C1F20003BA79F6
:1019C0001A7040F20803C1F200034FF007021A70C8
:1019D00040F20803C1F200031B78052B6CD140F2E2
:1019E0007003C1F200031B78DBB21E2B1BD1BB7945
:1019F000002B18D0BB79202B15D840F27603C1F20A
:101A000000031B78DBB2002B0DD140F27203C1F250
:101A10000003BA791A7040F27603C1F200034FF066
:101A200001021A7048E040F27603C1F200031B780D
:101A3000DBB2012B0ED140F20803C1F200034FF0DC
:101A400001021A7040F27603C1F200034FF0000267
:101A50001A7031E040F27003C1F200031B78DBB270
:101A6000812B07D040F27003C1F200031B78DBB278
:101A7000822B0DD140F27103C1F20003BA791A70C2
:101A800040F20803C1F200034FF006021A7013E09F
:101A900040F27703C1F200034FF001021A7040F2E6
:101AA0007103C1F20003BA791A7040F20803C1F25F
:101AB00000034FF005021A7040F20803C1F2000360
:101AC0001B78042B0CD140F27003C1F20003BA79E9
:101AD0001A7040F20803C1F200034FF005021A70B9
:101AE00040F20803C1F200031B78032B11D1BB792C
:101AF000582B07D140F20803C1F200034FF0040253
:101B00001A7006E040F20803C1F200034FF0010230
:101B10001A7040F20803C1F200031B78022B11D1A6
:101B2000BB79452B07D140F20803C1F200034FF007
:101B300003021A7006E040F20803C1F200034FF0FE
:101B400001021A7040F20803C1F200031B78012B56
:101B500009D1BB794E2B06D140F20803C1F2000334
:101B60004FF002021A7040F27703C1F200031B78B3
:101B7000DBB2002B02F0338440F27003C1F20003A9
:101B80001B78DBB203F1FF33FB2B02F2078401A2C7
:101B900052F823F0851F00002F2000009D43000015
:101BA000D92000008321000089280000BF28000000
:101BB000F52800002B290000AD2A00009D430000FD
:101BC0009D4300009D4300009D4300009D43000095
:101BD0005D2D0000992F0000D53100009D430000CD
:101BE0009D4300009D4300009D4300009D43000075
:101BF0009D4300009D4300009D4300009D43000065
:101C00009D4300009D4300009D4300009D43000054
:101C100011340000AB34000045350000DF35000012
:101C2000B33600009D4300009D4300009D4300002B
:101C30009D4300009D4300009D4300009D43000024
:101C40009D4300009D4300009D4300009D43000014
:101C50009D4300009D4300009D4300009D43000004
:101C60009D4300009D4300009D4300009D430000F4
:101C70009D4300009D4300009D4300009D430000E4
:101C80009D4300009D4300009D4300009D430000D4
:101C90009D4300009D4300009D4300009D430000C4
:101CA0009D4300009D4300009D4300009D430000B4
:101CB0009D4300009D4300009D4300009D430000A4
:101CC0009D4300009D4300009D4300009D43000094
:101CD0009D4300009D4300009D4300009D43000084
:101CE0009D4300009D4300009D4300009D43000074
:101CF0009D4300009D4300009D4300009D43000064
:101D00009D4300009D4300009D4300009D43000053
:101D10009D4300009D4300009D4300009D43000043
:101D20009D4300009D4300009D4300009D43000033
:101D30009D4300009D4300009D4300009D43000023
:101D40009D4300009D4300009D4300009D43000013
:101D50009D4300009D4300009D4300009D43000003
:101D60009D4300009D4300009D4300009D430000F3
:101D70009D4300009D4300009D4300009D430000E3
:101D80009D4300009D4300009D4300009D430000D3
:101D90009D4300009D4300009D4300009D430000C3
:101DA0009D4300009D4300009D4300009D430000B3
:101DB0009D4300009D4300009D4300009D430000A3
:101DC000ED3900009D4300009D4300009D4300004D
:101DD000FF390000273A0000AD3A0000A33B0000A5
:101DE000973C00007F3D0000973D0000AF3D0000A4
:101DF000013F0000273F0000C13F00005B400000A2
:101E00009D4300009D4300009D4300009D43000052
:101E10009D4300009D4300009D4300009D43000042
:101E20009D4300009D4300009D4300009D43000032
:101E30009D4300009D430000F54000008F410000DD
:101E40009D4300009D4300009D4300009D43000012
:101E50009D4300009D4300009D4300009D43000002
:101E60009D4300009D4300009D4300009D430000F2
:101E70009D4300009D4300009D4300009D430000E2
:101E80009D4300009D4300009D4300009D430000D2
:101E90009D4300009D4300009D4300009D430000C2
:101EA0009D4300009D4300009D4300009D430000B2
:101EB0009D4300009D4300009D4300009D430000A2
:101EC0009D4300009D4300009D4300009D43000092
:101ED0009D4300009D4300009D4300009D43000082
:101EE0009D4300009D4300009D4300009D43000072
:101EF0009D4300009D4300009D4300009D43000062
:101F00009D4300009D4300009D4300009D43000051
:101F10009D4300009D4300009D4300009D43000041
:101F20009D4300009D4300009D4300009D43000031
:101F30009D4300009D4300009D4300009D43000021
:101F40009D4300009D4300009D4300009D43000011
:101F50009D4300009D4300009D4300009D43000001
:101F60009D4300009D4300009D4300009D430000F1
:101F70009D4300009D43000029420000A54200004F
:101F80002143000040F25C23C1F200034FF04602FF
:101F90001A7040F25C23C1F200034FF042025A7003
:101FA00040F25C23C1F200034FF044029A7040F209
:101FB0007003C1F200031B78DAB240F25C23C1F275
:101FC0000003DA7040F27103C1F200031B78DAB249
:101FD00040F25C23C1F200031A7140F27103C1F2B6
:101FE00000031B78DBB203F1FF3240F20C03C1F2B5
:101FF00000039A5C40F25C23C1F200035A7140F284
:102000007803C1F200034FF006021A70FA7940F229
:102010007803C1F200031B78DBB2104640F25C216A
:10202000C1F200011A46FFF70BFB02F0CAB940F2F9
:102030005C23C1F200034FF046021A7040F25C23A9
:10204000C1F200034FF042025A7040F25C23C1F229
:1020500000034FF044029A7040F27003C1F2000393
:102060001B78DAB240F25C23C1F20003DA7040F26E
:102070007103C1F200031B78DAB240F25C23C1F2B3
:1020800000031A7140F27103C1F200031B78DBB246
:1020900003F1FF3240F21C03C1F200039A5C40F2EC
:1020A0005C23C1F200035A7140F27803C1F20003CD
:1020B0004FF006021A70FA7940F27803C1F2000379
:1020C0001B78DBB2104640F25C21C1F200011A46D7
:1020D000FFF7B6FA02F075B940F25C23C1F20003D3
:1020E0004FF046021A7040F25C23C1F200034FF039
:1020F00042025A7040F25C23C1F200034FF04402E6
:102100009A7040F27003C1F200031B78DAB240F219
:102110005C23C1F20003DA7040F27103C1F20003E4
:102120001B78DAB240F25C23C1F200031A7140F26C
:102130007103C1F200031B78DBB203F1FF3240F2FE
:102140001403C1F200039A5C40F25C23C1F2000365
:102150005A7140F27803C1F200034FF006021A7080
:10216000FA7940F27803C1F200031B78DBB2104623
:1021700040F25C21C1F200011A46FFF761FA02F059
:1021800020B940F27103C1F200031B78DBB2012BCE
:102190005BD140F25C23C1F200034FF046021A709B
:1021A00040F25C23C1F200034FF042025A7040F249
:1021B0005C23C1F200034FF044029A7040F27003B6
:1021C000C1F200031B78DAB240F25C23C1F20003D3
:1021D000DA7040F27103C1F200031B78DAB240F208
:1021E0005C23C1F200031A714FF00003FB7311E08E
:1021F000FB7B03F10502F97B40F20C03C1F2000303
:10220000595C40F25C23C1F200039954FB7B03F15B
:102210000103FB73FB7B072BEAD940F27803C1F281
:1022200000034FF00D021A70FA7940F27803C1F200
:1022300000031B78DBB2104640F25C21C1F20001C2
:102240001A46FFF7FDF902F0BCB840F27103C1F283
:1022500000031B78DBB2022B5BD140F25C23C1F29E
:1022600000034FF046021A7040F25C23C1F20003F3
:102270004FF042025A7040F25C23C1F200034FF06B
:1022800044029A7040F27003C1F200031B78DAB284
:1022900040F25C23C1F20003DA7040F27103C1F234
:1022A00000031B78DAB240F25C23C1F200031A711A
:1022B0004FF00003FB7311E0FB7B03F10502F97B98
:1022C00040F21C03C1F20003595C40F25C23C1F2EE
:1022D00000039954FB7B03F10103FB73FB7B072B8A
:1022E000EAD940F27803C1F200034FF00D021A70F0
:1022F000FA7940F27803C1F200031B78DBB2104692
:1023000040F25C21C1F200011A46FFF799F902F090
:1023100058B840F27103C1F200031B78DBB2042B02
:102320005BD140F25C23C1F200034FF046021A7009
:1023300040F25C23C1F200034FF042025A7040F2B7
:102340005C23C1F200034FF044029A7040F2700324
:10235000C1F200031B78DAB240F25C23C1F2000341
:10236000DA7040F27103C1F200031B78DAB240F276
:102370005C23C1F200031A714FF00003FB7311E0FC
:10238000FB7B03F10502F97B40F21403C1F2000369
:10239000595C40F25C23C1F200039954FB7B03F1CA
:1023A0000103FB73FB7B072BEAD940F27803C1F2F0
:1023B00000034FF00D021A70FA7940F27803C1F26F
:1023C00000031B78DBB2104640F25C21C1F2000131
:1023D0001A46FFF735F901F0F4BF40F27103C1F27C
:1023E00000031B78DBB2052B5BD140F25C23C1F20A
:1023F00000034FF046021A7040F25C23C1F2000362
:102400004FF042025A7040F25C23C1F200034FF0D9
:1024100044029A7040F27003C1F200031B78DAB2F2
:1024200040F25C23C1F20003DA7040F27103C1F2A2
:1024300000031B78DAB240F25C23C1F200031A7188
:102440004FF00003FB7311E0FB7B03F10502F97B06
:1024500040F22403C1F20003595C40F25C23C1F254
:1024600000039954FB7B03F10103FB73FB7B052BFA
:10247000EAD940F27803C1F200034FF00B021A7060
:10248000FA7940F27803C1F200031B78DBB2104600
:1024900040F25C21C1F200011A46FFF7D1F801F0C9
:1024A00090BF40F27103C1F200031B78DBB2062B30
:1024B0005BD140F25C23C1F200034FF046021A7078
:1024C00040F25C23C1F200034FF042025A7040F226
:1024D0005C23C1F200034FF044029A7040F2700393
:1024E000C1F200031B78DAB240F25C23C1F20003B0
:1024F000DA7040F27103C1F200031B78DAB240F2E5
:102500005C23C1F200031A714FF00003FB7311E06A
:10251000FB7B03F10502F97B40F22C03C1F20003BF
:10252000595C40F25C23C1F200039954FB7B03F138
:102530000103FB73FB7B052BEAD940F27803C1F260
:1025400000034FF00B021A70FA7940F27803C1F2DF
:1025500000031B78DBB2104640F25C21C1F200019F
:102560001A46FFF76DF801F02CBF40F27103C1F27B
:1025700000031B78DBB2072B5BD140F25C23C1F276
:1025800000034FF046021A7040F25C23C1F20003D0
:102590004FF042025A7040F25C23C1F200034FF048
:1025A00044029A7040F27003C1F200031B78DAB261
:1025B00040F25C23C1F20003DA7040F27103C1F211
:1025C00000031B78DAB240F25C23C1F200031A71F7
:1025D0004FF00003FB7311E0FB7B03F10502F97B75
:1025E00040F23403C1F20003595C40F25C23C1F2B3
:1025F00000039954FB7B03F10103FB73FB7B052B69
:10260000EAD940F27803C1F200034FF00B021A70CE
:10261000FA7940F27803C1F200031B78DBB210466E
:1026200040F25C21C1F200011A46FFF709F801F0FF
:10263000C8BE40F27103C1F200031B78DBB2082B65
:102640005BD140F25C23C1F200034FF046021A70E6
:1026500040F25C23C1F200034FF042025A7040F294
:102660005C23C1F200034FF044029A7040F2700301
:10267000C1F200031B78DAB240F25C23C1F200031E
:10268000DA7040F27103C1F200031B78DAB240F253
:102690005C23C1F200031A714FF00003FB7311E0D9
:1026A000FB7B03F10502F97B40F24803C1F2000312
:1026B000595C40F25C23C1F200039954FB7B03F1A7
:1026C0000103FB73FB7B0F2BEAD940F27803C1F2C5
:1026D00000034FF015021A70FA7940F27803C1F244
:1026E00000031B78DBB2104640F25C21C1F200010E
:1026F0001A46FEF7A5FF01F064BE40F27103C1F275
:1027000000031B78DBB2092B5AD140F25C23C1F2E3
:1027100000034FF046021A7040F25C23C1F200033E
:102720004FF042025A7040F25C23C1F200034FF0B6
:1027300044029A7040F27003C1F200031B78DAB2CF
:1027400040F25C23C1F20003DA7040F27103C1F27F
:1027500000031B78DAB240F25C23C1F200031A7165
:1027600040F28403C1F200031B68DAB240F25C233A
:10277000C1F200035A7140F28403C1F200031B68E6
:102780004FEA1323DAB240F25C23C1F200039A71DC
:1027900040F27803C1F200034FF007021A70FA7991
:1027A00040F27803C1F200031B78DBB2104640F21E
:1027B0005C21C1F200011A46FEF742FF01F001BEA2
:1027C00040F27103C1F200031B78DBB20A2B41F027
:1027D000E78540F25C23C1F200034FF046021A7015
:1027E00040F25C23C1F200034FF042025A7040F203
:1027F0005C23C1F200034FF044029A7040F2700370
:10280000C1F200031B78DAB240F25C23C1F200038C
:10281000DA7040F27103C1F200031B78DAB240F2C1
:102820005C23C1F200031A7140F28803C1F2000375
:102830001B68DAB240F25C23C1F200035A7140F225
:102840008803C1F200031B684FEA1323DAB240F297
:102850005C23C1F200039A7140F27803C1F20003D5
:102860004FF007021A70FA7940F27803C1F20003C0
:102870001B78DBB2104640F25C21C1F200011A461F
:10288000FEF7DEFE01F09DBD40F27103C1F20003D0
:102890001B78DAB240F28F03C1F200031A7040F2E3
:1028A0009A03C1F200034FF001021A7040F29B0339
:1028B000C1F200034FF001021A7001F082BD40F234
:1028C0007103C1F200031B78DAB240F29003C1F247
:1028D00000031A7040F29A03C1F200034FF00102A4
:1028E0001A7040F29B03C1F200034FF002021A700B
:1028F00001F067BD40F27103C1F200031B78DAB248
:1029000040F29103C1F200031A7040F29A03C1F23F
:1029100000034FF001021A7040F29B03C1F2000362
:102920004FF003021A7001F04CBD40F27103C1F286
:1029300000031B78DBB2012B0FD140F29403C1F2EC
:1029400000034FF001021A7040F29703C1F2000336
:102950004FF001021A7001F034BD40F27103C1F270
:1029600000031B78DBB2022B0FD140F29403C1F2BB
:1029700000034FF001021A7040F29703C1F2000306
:102980004FF000021A7001F01CBD40F27103C1F259
:1029900000031B78DBB2032B0FD140F29503C1F289
:1029A00000034FF001021A7040F29803C1F20003D5
:1029B0004FF001021A7001F004BD40F27103C1F240
:1029C00000031B78DBB2042B0FD140F29503C1F258
:1029D00000034FF001021A7040F29803C1F20003A5
:1029E0004FF000021A7001F0ECBC40F27103C1F22A
:1029F00000031B78DBB2052B0FD140F29603C1F226
:102A000000034FF001021A7040F29903C1F2000373
:102A10004FF001021A7001F0D4BC40F27103C1F210
:102A200000031B78DBB2062B0FD140F29603C1F2F4
:102A300000034FF001021A7040F29903C1F2000343
:102A40004FF000021A7001F0BCBC40F27103C1F2F9
:102A500000031B78DBB2072B0FD14CF22003C2F22C
:102A600009034FF000529A6140F28E03C1F2000355
:102A70004FF001021A7001F0A4BC40F27103C1F2E0
:102A800000031B78DBB2082B41F08C844CF220034E
:102A9000C2F209034FF00052DA6140F28E03C1F234
:102AA00000034FF000021A7001F08BBC40F271037A
:102AB000C1F200031B78DBB2012B4DD140F25C2345
:102AC000C1F200034FF046021A7040F25C23C1F2DB
:102AD00000034FF042025A7040F25C23C1F200033F
:102AE0004FF044029A7040F27003C1F200031B7869
:102AF000DAB240F25C23C1F20003DA7040F27103F3
:102B0000C1F200031B78DAB240F25C23C1F2000389
:102B10001A7140F29703C1F200031B78DAB240F257
:102B20005C23C1F200035A7140F27803C1F2000342
:102B30004FF006021A70FA7940F27803C1F20003EE
:102B40001B78DBB2104640F25C21C1F200011A464C
:102B5000FEF776FD01F035BC40F27103C1F20003CF
:102B60001B78DBB2022B4DD140F25C23C1F2000393
:102B70004FF046021A7040F25C23C1F200034FF09E
:102B800042025A7040F25C23C1F200034FF044024B
:102B90009A7040F27003C1F200031B78DAB240F27F
:102BA0005C23C1F20003DA7040F27103C1F200034A
:102BB0001B78DAB240F25C23C1F200031A7140F2D2
:102BC0009803C1F200031B78DAB240F25C23C1F231
:102BD00000035A7140F27803C1F200034FF006027D
:102BE0001A70FA7940F27803C1F200031B78DBB265
:102BF000104640F25C21C1F200011A46FEF720FDAA
:102C000001F0DFBB40F27103C1F200031B78DBB2BD
:102C1000032B4DD140F25C23C1F200034FF046027A
:102C20001A7040F25C23C1F200034FF042025A7066
:102C300040F25C23C1F200034FF044029A7040F26C
:102C40007003C1F200031B78DAB240F25C23C1F2D8
:102C50000003DA7040F27103C1F200031B78DAB2AC
:102C600040F25C23C1F200031A7140F29903C1F2F1
:102C700000031B78DAB240F25C23C1F200035A7100
:102C800040F27803C1F200034FF006021A70FA799D
:102C900040F27803C1F200031B78DBB2104640F229
:102CA0005C21C1F200011A46FEF7CAFC01F089BBA3
:102CB00040F27103C1F200031B78DBB2042B41F038
:102CC000738340F25C23C1F200034FF046021A7096
:102CD00040F25C23C1F200034FF042025A7040F20E
:102CE0005C23C1F200034FF044029A7040F270037B
:102CF000C1F200031B78DAB240F25C23C1F2000398
:102D0000DA7040F27103C1F200031B78DAB240F2CC
:102D10005C23C1F200031A7140F28E03C1F200037A
:102D20001A7840F25C23C1F200035A7140F2780332
:102D3000C1F200034FF006021A70FA7940F27803EC
:102D4000C1F200031B78DBB2104640F25C21C1F2F5
:102D500000011A46FEF774FC01F033BB40F2710328
:102D6000C1F200031B78DBB2012B56D140F25C2389
:102D7000C1F200034FF046021A7040F25C23C1F228
:102D800000034FF042025A7040F25C23C1F200038C
:102D90004FF044029A7040F27003C1F200031B78B6
:102DA000DAB240F25C23C1F20003DA7040F2710340
:102DB000C1F200031B78DAB240F25C23C1F20003D7
:102DC0001A7140F22403C1F200031A7840F25C2326
:102DD000C1F200035A7140F22403C1F200035A7891
:102DE00040F25C23C1F200039A7140F27803C1F211
:102DF00000034FF007021A70FA7940F27803C1F22B
:102E000000031B78DBB2104640F25C21C1F20001E6
:102E10001A46FEF715FC01F0D4BA40F27103C1F274
:102E200000031B78DBB2022B56D140F25C23C1F2C7
:102E300000034FF046021A7040F25C23C1F2000317
:102E40004FF042025A7040F25C23C1F200034FF08F
:102E500044029A7040F27003C1F200031B78DAB2A8
:102E600040F25C23C1F20003DA7040F27103C1F258
:102E700000031B78DAB240F25C23C1F200031A713E
:102E800040F22403C1F200039A7840F25C23C1F2BD
:102E900000035A7140F22403C1F20003DA7840F2D1
:102EA0005C23C1F200039A7140F27803C1F200037F
:102EB0004FF007021A70FA7940F27803C1F200036A
:102EC0001B78DBB2104640F25C21C1F200011A46C9
:102ED000FEF7B6FB01F075BA40F27103C1F20003D0
:102EE0001B78DBB2032B41F0618240F25C23C1F21C
:102EF00000034FF046021A7040F25C23C1F2000357
:102F00004FF042025A7040F25C23C1F200034FF0CE
:102F100044029A7040F27003C1F200031B78DAB2E7
:102F200040F25C23C1F20003DA7040F27103C1F297
:102F300000031B78DAB240F25C23C1F200031A717D
:102F400040F22403C1F200031A7940F25C23C1F27B
:102F500000035A7140F22403C1F200035A7940F28F
:102F60005C23C1F200039A7140F27803C1F20003BE
:102F70004FF007021A70FA7940F27803C1F20003A9
:102F80001B78DBB2104640F25C21C1F200011A4608
:102F9000FEF756FB01F015BA40F27103C1F20003CF
:102FA0001B78DBB2012B56D140F25C23C1F2000347
:102FB0004FF046021A7040F25C23C1F200034FF05A
:102FC00042025A7040F25C23C1F200034FF0440207
:102FD0009A7040F27003C1F200031B78DAB240F23B
:102FE0005C23C1F20003DA7040F27103C1F2000306
:102FF0001B78DAB240F25C23C1F200031A7140F28E
:103000002C03C1F200031A7840F25C23C1F20003E2
:103010005A7140F22C03C1F200035A7840F25C234B
:10302000C1F200039A7140F27803C1F200034FF03D
:1030300007021A70FA7940F27803C1F200031B7894
:10304000DBB2104640F25C21C1F200011A46FEF7E5
:10305000F7FA01F0B6B940F27103C1F200031B7830
:10306000DBB2022B56D140F25C23C1F200034FF0D9
:1030700046021A7040F25C23C1F200034FF0420294
:103080005A7040F25C23C1F200034FF044029A7080
:1030900040F27003C1F200031B78DAB240F25C2305
:1030A000C1F20003DA7040F27103C1F200031B7831
:1030B000DAB240F25C23C1F200031A7140F22C0331
:1030C000C1F200039A7840F25C23C1F200035A7106
:1030D00040F22C03C1F20003DA7840F25C23C1F223
:1030E00000039A7140F27803C1F200034FF0070227
:1030F0001A70FA7940F27803C1F200031B78DBB250
:10310000104640F25C21C1F200011A46FEF798FA1F
:1031100001F057B940F27103C1F200031B78DBB232
:10312000032B41F0458140F25C23C1F200034FF0D4
:1031300046021A7040F25C23C1F200034FF04202D3
:103140005A7040F25C23C1F200034FF044029A70BF
:1031500040F27003C1F200031B78DAB240F25C2344
:10316000C1F20003DA7040F27103C1F200031B7870
:10317000DAB240F25C23C1F200031A7140F22C0370
:10318000C1F200031A7940F25C23C1F200035A71C4
:1031900040F22C03C1F200035A7940F25C23C1F2E1
:1031A00000039A7140F27803C1F200034FF0070266
:1031B0001A70FA7940F27803C1F200031B78DBB28F
:1031C000104640F25C21C1F200011A46FEF738FABF
:1031D00001F0F7B840F27103C1F200031B78DBB2D3
:1031E000012B56D140F25C23C1F200034FF046029E
:1031F0001A7040F25C23C1F200034FF042025A7091
:1032000040F25C23C1F200034FF044029A7040F296
:103210007003C1F200031B78DAB240F25C23C1F202
:103220000003DA7040F27103C1F200031B78DAB2D6
:1032300040F25C23C1F200031A7140F23403C1F280
:1032400000031A7840F25C23C1F200035A7140F285
:103250003403C1F200035A7840F25C23C1F2000348
:103260009A7140F27803C1F200034FF007021A701E
:10327000FA7940F27803C1F200031B78DBB2104602
:1032800040F25C21C1F200011A46FEF7D9F901F0C3
:1032900098B840F27103C1F200031B78DBB2022B35
:1032A00056D140F25C23C1F200034FF046021A707F
:1032B00040F25C23C1F200034FF042025A7040F228
:1032C0005C23C1F200034FF044029A7040F2700395
:1032D000C1F200031B78DAB240F25C23C1F20003B2
:1032E000DA7040F27103C1F200031B78DAB240F2E7
:1032F0005C23C1F200031A7140F23403C1F20003EF
:103300009A7840F25C23C1F200035A7140F2340310
:10331000C1F20003DA7840F25C23C1F200039A7133
:1033200040F27803C1F200034FF007021A70FA79F5
:1033300040F27803C1F200031B78DBB2104640F282
:103340005C21C1F200011A46FEF77AF901F039B8A2
:1033500040F27103C1F200031B78DBB2032B41F092
:10336000298040F25C23C1F200034FF046021A703C
:1033700040F25C23C1F200034FF042025A7040F267
:103380005C23C1F200034FF044029A7040F27003D4
:10339000C1F200031B78DAB240F25C23C1F20003F1
:1033A000DA7040F27103C1F200031B78DAB240F226
:1033B0005C23C1F200031A7140F23403C1F200032E
:1033C0001A7940F25C23C1F200035A7140F23403CF
:1033D000C1F200035A7940F25C23C1F200039A71F2
:1033E00040F27803C1F200034FF007021A70FA7935
:1033F00040F27803C1F200031B78DBB2104640F2C2
:103400005C21C1F200011A46FEF71AF900F0D9BF9B
:1034100040F25C23C1F200034FF046021A7040F202
:103420005C23C1F200034FF042025A7040F25C2369
:10343000C1F200034FF044029A7040F27003C1F2EF
:1034400000031B78DAB240F25C23C1F20003DA70A9
:1034500040F27103C1F200031B78DAB240F25C2340
:10346000C1F200031A7140F23C03C1F200031A7862
:1034700040F25C23C1F200035A7140F27803C1F2BA
:1034800000034FF006021A70FA7940F27803C1F295
:1034900000031B78DBB2104640F25C21C1F2000150
:1034A0001A46FEF7CDF800F08CBF40F25C23C1F263
:1034B00000034FF046021A7040F25C23C1F2000391
:1034C0004FF042025A7040F25C23C1F200034FF009
:1034D00044029A7040F27003C1F200031B78DAB222
:1034E00040F25C23C1F20003DA7040F27103C1F2D2
:1034F00000031B78DAB240F25C23C1F200031A71B8
:1035000040F23C03C1F200035A7840F25C23C1F25E
:1035100000035A7140F27803C1F200034FF0060233
:103520001A70FA7940F27803C1F200031B78DBB21B
:10353000104640F25C21C1F200011A46FEF780F805
:1035400000F03FBF40F25C23C1F200034FF046029F
:103550001A7040F25C23C1F200034FF042025A702D
:1035600040F25C23C1F200034FF044029A7040F233
:103570007003C1F200031B78DAB240F25C23C1F29F
:103580000003DA7040F27103C1F200031B78DAB273
:1035900040F25C23C1F200031A7140F23C03C1F215
:1035A00000039A7840F25C23C1F200035A7140F2A2
:1035B0007803C1F200034FF006021A70FA7940F264
:1035C0007803C1F200031B78DBB2104640F25C21A5
:1035D000C1F200011A46FEF733F800F0F2BE40F2E5
:1035E0007103C1F200031B78DBB2002B40F0E486CC
:1035F00040F25C23C1F200034FF046021A7040F221
:103600005C23C1F200034FF042025A7040F25C2387
:10361000C1F200034FF044029A7040F27003C1F20D
:1036200000031B78DAB240F25C23C1F20003DA70C7
:1036300040F27103C1F200031B78DAB240F25C235E
:10364000C1F200031A7140F23C03C1F200031A7880
:1036500040F25C23C1F200035A7140F23C03C1F214
:1036600000035A7840F25C23C1F200039A7140F2E1
:103670003C03C1F200039A7840F25C23C1F20003DC
:10368000DA7140F27803C1F200034FF008021A70B9
:10369000FA7940F27803C1F200031B78DBB21046DE
:1036A00040F25C21C1F200011A46FDF7C9FF00F0AB
:1036B00088BE40F25C23C1F200034FF046021A704C
:1036C00040F25C23C1F200034FF042025A7040F214
:1036D0005C23C1F200034FF044029A7040F2700381
:1036E000C1F200031B78DAB240F25C23C1F200039E
:1036F000DA7040F27103C1F200031B78DAB240F2D3
:103700005C23C1F200031A714FF00003FB7311E058
:10371000FB7B03F10502F97B40F20C03C1F20003CD
:10372000595C40F25C23C1F200039954FB7B03F126
:103730000103FB73FB7B072BEAD940F27803C1F24C
:1037400000034FF005021A704FF00003FB7311E005
:10375000FB7B03F10D02F97B40F21C03C1F2000375
:10376000595C40F25C23C1F200039954FB7B03F1E6
:103770000103FB73FB7B072BEAD940F27803C1F20C
:1037800000031B78DBB203F10D03DAB240F27803D9
:10379000C1F200031A704FF00003FB7311E0FB7BD2
:1037A00003F11502F97B40F21403C1F20003595CE6
:1037B00040F25C23C1F200039954FB7B03F1010347
:1037C000FB73FB7B072BEAD940F27803C1F20003BD
:1037D0001B78DBB203F11503DAB240F27803C1F2D1
:1037E00000031A704FF00003FB7311E0FB7B03F141
:1037F0001D02F97B40F22403C1F20003595C40F240
:103800005C23C1F200039954FB7B03F10103FB73BA
:10381000FB7B052BEAD940F27803C1F200031B7849
:10382000DBB203F11D03DAB240F27803C1F2000308
:103830001A704FF00003FB7311E0FB7B03F12302CE
:10384000F97B40F22C03C1F20003595C40F25C2387
:10385000C1F200039954FB7B03F10103FB73FB7B73
:10386000052BEAD940F27803C1F200031B78DBB2E2
:1038700003F12303DAB240F27803C1F200031A70B5
:103880004FF00003FB7311E0FB7B03F12902F97B8E
:1038900040F23403C1F20003595C40F25C23C1F2F0
:1038A00000039954FB7B03F10103FB73FB7B052BA6
:1038B000EAD940F27803C1F200031B78DBB203F1CE
:1038C0002903DAB240F27803C1F200031A7040F221
:1038D0008403C1F200031B68DAB240F25C23C1F238
:1038E000000383F82F2040F28403C1F200031B6819
:1038F0004FEA1323DAB240F25C23C1F2000383F8EB
:10390000302040F27803C1F200031B78DBB203F1F0
:103910002F03DAB240F27803C1F200031A7040F2CA
:103920008803C1F200031B68DAB240F25C23C1F2E3
:10393000000383F8312040F28803C1F200031B68C2
:103940004FEA1323DAB240F25C23C1F2000383F89A
:10395000322040F27803C1F200031B78DBB203F19E
:103960003103DAB240F27803C1F200031A704FF06B
:103970000003FB7311E0FB7B03F13302F97B40F2A0
:103980003C03C1F20003595C40F25C23C1F2000326
:103990009954FB7B03F10103FB73FB7B022BEAD9F8
:1039A00040F27803C1F200031B78DBB203F133036A
:1039B000DAB240F27803C1F200031A7040F27803E1
:1039C000C1F200034FF036021A70FA7940F2780320
:1039D000C1F200031B78DBB2104640F25C21C1F259
:1039E00000011A46FDF72CFE00F0EBBC40F28C0300
:1039F000C1F200034FF001021A7000F0E2BC40F285
:103A00007103C1F200031B78DAB240F26433C1F2F1
:103A100000031A7040F28D03C1F200034FF001025F
:103A20001A7000F0CEBC40F25C23C1F200034FF0EC
:103A300046021A7040F25C23C1F200034FF04202CA
:103A40005A7040F25C23C1F200034FF044029A70B6
:103A500040F27003C1F200031B78DAB240F25C233B
:103A6000C1F20003DA7040F26433C1F200031B7844
:103A7000DAB240F25C23C1F200031A7140F278031B
:103A8000C1F200034FF005021A70FA7940F2780390
:103A9000C1F200031B78DBB2104640F25C21C1F298
:103AA00000011A46FDF7CCFD00F08BBC40F26C33F0
:103AB000C1F200031A6840F27C03C1F200031A60ED
:103AC00040F25C23C1F200034FF046021A7040F24C
:103AD0005C23C1F200034FF042025A7040F25C23B3
:103AE000C1F200034FF044029A7040F27003C1F239
:103AF00000031B78DAB240F25C23C1F20003DA70F3
:103B000040F25C23C1F200034FF000021A7140F250
:103B10007C03C1F200031B684FEA1363DAB240F280
:103B20005C23C1F200035A7140F27C03C1F200032E
:103B30001B684FEA2343DAB240F25C23C1F2000370
:103B40009A7140F27C03C1F200031B684FEA232301
:103B5000DAB240F25C23C1F20003DA7140F27C0376
:103B6000C1F200031B68DAB240F25C23C1F2000329
:103B70001A7240F27803C1F200034FF009021A7082
:103B8000FA7940F27803C1F200031B78DBB21046E9
:103B900040F25C21C1F200011A46FDF751FD00F030
:103BA00010BC40F26833C1F200031A6840F27C0393
:103BB000C1F200031A6040F25C23C1F200034FF02F
:103BC00046021A7040F25C23C1F200034FF0420239
:103BD0005A7040F25C23C1F200034FF044029A7025
:103BE00040F27003C1F200031B78DAB240F25C23AA
:103BF000C1F20003DA7040F25C23C1F200034FF01F
:103C000000021A7140F27C03C1F200031B684FEA04
:103C10001363DAB240F25C23C1F200035A7140F23E
:103C20007C03C1F200031B684FEA2343DAB240F27F
:103C30005C23C1F200039A7140F27C03C1F20003DD
:103C40001B684FEA2323DAB240F25C23C1F200037F
:103C5000DA7140F27C03C1F200031B68DAB240F271
:103C60005C23C1F200031A7240F27803C1F2000330
:103C70004FF009021A70FA7940F27803C1F200039A
:103C80001B78DBB2104640F25C21C1F200011A46FB
:103C9000FDF7D6FC95E340F27103C1F200031B78F7
:103CA000DBB2012B0ED140F25B03C1F200034FF0F7
:103CB00001021A7040F25A03C1F200034FF00102F0
:103CC0001A707EE340F27103C1F200031B78DBB28D
:103CD000022B0ED140F25B03C1F200034FF002024F
:103CE0001A7040F25A03C1F200034FF001021A7039
:103CF00067E340F27103C1F200031B78DBB2032BD0
:103D00000ED140F25B03C1F200034FF004021A70BF
:103D100040F25A03C1F200034FF001021A7050E35F
:103D200040F27103C1F200031B78DBB2042B0ED109
:103D300040F25B03C1F200034FF003021A7040F23D
:103D40005A03C1F200034FF001021A7039E340F246
:103D50007103C1F200031B78DBB2062B40F02E8307
:103D600040F25B03C1F200034FF006021A7040F20A
:103D70005A03C1F200034FF001021A7021E340F22E
:103D80007103C1F200031B78DAB240F25803C1F2AA
:103D900000031A7015E340F27103C1F200031B78AF
:103DA000DAB240F25903C1F200031A7009E340F29B
:103DB0007103C1F200031B78DBB2012B4BD140F23F
:103DC0005C23C1F200034FF046021A7040F25C23FC
:103DD000C1F200034FF042025A7040F25C23C1F27C
:103DE00000034FF044029A7040F27003C1F20003E6
:103DF0001B78DAB240F25C23C1F20003DA7040F2C1
:103E00007103C1F200031B78DAB240F25C23C1F205
:103E100000031A7140F24403C1F200031A7840F221
:103E20005C23C1F200035A7140F27803C1F200032F
:103E30004FF006021A70FA7940F27803C1F20003DB
:103E40001B78DBB2104640F25C21C1F200011A4639
:103E5000FDF7F6FBB5E240F27103C1F200031B78F7
:103E6000DBB2022B40F0AC8240F25C23C1F20003D3
:103E70004FF046021A7040F25C23C1F200034FF08B
:103E800042025A7040F25C23C1F200034FF0440238
:103E90009A7040F27003C1F200031B78DAB240F26C
:103EA0005C23C1F20003DA7040F27103C1F2000337
:103EB0001B78DAB240F25C23C1F200031A7140F2BF
:103EC0004503C1F200031A7840F25C23C1F20003FB
:103ED0005A7140F27803C1F200034FF006021A70E3
:103EE000FA7940F27803C1F200031B78DBB2104686
:103EF00040F25C21C1F200011A46FDF7A1FB60E22D
:103F000040F25C03C1F200034FF001021A7040F26C
:103F10007103C1F200031B78DAB240F25D03C1F213
:103F200000031A704DE240F25C23C1F200034FF02F
:103F300046021A7040F25C23C1F200034FF04202C5
:103F40005A7040F25C23C1F200034FF044029A70B1
:103F500040F27003C1F200031B78DAB240F25C2336
:103F6000C1F20003DA7040F27103C1F200031B7862
:103F7000DAB240F25C23C1F200031A7140F25D0331
:103F8000C1F200031B78DAB240F25C23C1F20003F5
:103F90005A7140F27803C1F200034FF006021A7022
:103FA000FA7940F27803C1F200031B78DBB21046C5
:103FB00040F25C21C1F200011A46FDF741FB00E22C
:103FC00040F25C23C1F200034FF046021A7040F247
:103FD0005C23C1F200034FF042025A7040F25C23AE
:103FE000C1F200034FF044029A7040F27003C1F234
:103FF00000031B78DAB240F25C23C1F20003DA70EE
:1040000040F27103C1F200031B78DAB240F25C2384
:10401000C1F200031A7140F25803C1F200031B7889
:10402000DAB240F25C23C1F200035A7140F2780325
:10403000C1F200034FF006021A70FA7940F27803D9
:10404000C1F200031B78DBB2104640F25C21C1F2E2
:1040500000011A46FDF7F4FAB3E140F25C23C1F225
:1040600000034FF046021A7040F25C23C1F20003D5
:104070004FF042025A7040F25C23C1F200034FF04D
:1040800044029A7040F27003C1F200031B78DAB266
:1040900040F25C23C1F20003DA7040F27103C1F216
:1040A00000031B78DAB240F25C23C1F200031A71FC
:1040B00040F25903C1F200031B78DAB240F25C23EC
:1040C000C1F200035A7140F27803C1F200034FF0CD
:1040D00006021A70FA7940F27803C1F200031B78E5
:1040E000DBB2104640F25C21C1F200011A46FDF736
:1040F000A7FA66E140F25C23C1F200034FF04602EA
:104100001A7040F25C23C1F200034FF042025A7071
:1041100040F25C23C1F200034FF044029A7040F277
:104120007003C1F200031B78DAB240F25C23C1F2E3
:104130000003DA7040F27103C1F200031B78DAB2B7
:1041400040F25C23C1F200031A7140F28F03C1F206
:1041500000031B78DAB240F25C23C1F200035A710B
:1041600040F27803C1F200034FF006021A70FA79A8
:1041700040F27803C1F200031B78DBB2104640F234
:104180005C21C1F200011A46FDF75AFA19E140F22A
:104190005C23C1F200034FF046021A7040F25C2328
:1041A000C1F200034FF042025A7040F25C23C1F2A8
:1041B00000034FF044029A7040F27003C1F2000312
:1041C0001B78DAB240F25C23C1F20003DA7040F2ED
:1041D0007103C1F200031B78DAB240F25C23C1F232
:1041E00000031A7140F29003C1F200031B78DAB2A7
:1041F00040F25C23C1F200035A7140F27803C1F22D
:1042000000034FF006021A70FA7940F27803C1F207
:1042100000031B78DBB2104640F25C21C1F20001C2
:104220001A46FDF70DFACCE040F25C23C1F2000320
:104230004FF046021A7040F25C23C1F200034FF0C7
:1042400042025A7040F25C23C1F200034FF0440274
:104250009A7040F27003C1F200031B78DAB240F2A8
:104260005C23C1F20003DA7040F25C23C1F2000368
:104270004FF080021A7140F27803C1F200034FF050
:1042800005021A70FA7940F27803C1F200031B7834
:10429000DBB2104640F25C21C1F200011A46FDF784
:1042A000CFF98EE040F25C23C1F200034FF04602EA
:1042B0001A7040F25C23C1F200034FF042025A70C0
:1042C00040F25C23C1F200034FF044029A7040F2C6
:1042D0007003C1F200031B78DAB240F25C23C1F232
:1042E0000003DA7040F25C23C1F200034FF00102D8
:1042F0001A7140F27803C1F200034FF005021A7000
:10430000FA7940F27803C1F200031B78DBB2104661
:1043100040F25C21C1F200011A46FDF791F950E02C
:1043200040F25C23C1F200034FF046021A7040F2E3
:104330005C23C1F200034FF042025A7040F25C234A
:10434000C1F200034FF044029A7040F27003C1F2D0
:1043500000031B78DAB240F25C23C1F20003DA708A
:1043600040F25C23C1F200034FF001021A7140F2E7
:104370007803C1F200034FF005021A70FA7940F297
:104380007803C1F200031B78DBB2104640F25C21D7
:10439000C1F200011A46FDF753F912E000BF10E028
:1043A00000BF0EE000BF0CE000BF0AE000BF08E065
:1043B00000BF06E000BF04E000BF02E000BF00E075
:1043C00000BF40F27703C1F200034FF000021A7001
:1043D00040F20803C1F200034FF001021A7007F126
:1043E0001007BD4680BD00BF80B483B000AF40F26F
:1043F000A803C1F200034FF000021A604FF44043DB
:10440000C4F201035B68FB71FB79A3F10803502B35
:1044100000F22B8201A252F823F000BF6145000098
:104420006B4800006B4800006B4800006B480000C0
:104430006B4800006B4800006B480000AD45000071
:104440006B4800006B4800006B4800006B480000A0
:104450006B4800006B4800006B480000F945000005
:104460006B4800006B4800006B4800006B48000080
:104470006B4800006B4800006B4800003F4800009C
:104480006B4800006B4800006B4800006B48000060
:104490006B4800006B4800006B480000634600005A
:1044A0006B4800006B4800006B4800006B48000040
:1044B0006B4800006B4800006B480000F7460000A6
:1044C0006B4800006B4800006B4800006B48000020
:1044D0006B4800006B4800006B4800006B48000010
:1044E0006B4800006B4800006B4800006B48000000
:1044F0006B4800006B4800006B4800002347000039
:104500006B4800006B4800006B4800006B480000DF
:104510006B4800006B4800006B4800003F480000FB
:104520006B4800006B4800006B4800006B480000BF
:104530006B4800006B4800006B4800006D470000AE
:104540006B4800006B4800006B4800006B4800009F
:104550006B4800006B4800006B480000E547000016
:1045600040F2C003C1F200034FF000021A604FF4A2
:104570004043C4F2010340F2C002C1F200021168DC
:1045800040F21C52C1F20002525CD2B29A6001F1B8
:10459000010240F2C003C1F200031A604FF440432D
:1045A000C4F201034FF028029A616DE140F2B403B6
:1045B000C1F200034FF000021A604FF44043C4F20E
:1045C000010340F2C002C1F20002116840F21C5225
:1045D000C1F20002525CD2B29A6001F1010240F2D3
:1045E000C003C1F200031A604FF44043C4F2010358
:1045F0004FF028029A6147E140F2DC53C1F2000318
:104600001B68012B0ED14FF44043C4F201034FF05D
:1046100010021A6040F29C03C1F200034FF007023F
:104620001A6016E04FF44043C4F2010340F2C002A6
:10463000C1F20002116840F21C52C1F20002525C49
:10464000D2B29A6001F1010240F2C003C1F200034C
:104650001A604FF44043C4F201034FF008029A611C
:1046600012E140F2DC53C1F200031B681A4640F22B
:10467000C003C1F200031B689A4217D94FF44043AC
:10468000C4F2010340F2C002C1F20002116840F21C
:104690001C52C1F20002525CD2B29A6001F10102D6
:1046A00040F2C003C1F200031A601CE040F2504324
:1046B000C1F200031B68002B07D04FF44043C4F243
:1046C00001034FF020021A600DE04FF44043C4F2A2
:1046D00001034FF010021A6040F29C03C1F2000384
:1046E0004FF00C021A604FF44043C4F201034FF044
:1046F00008029A61C8E04FF44043C4F201034FF04E
:1047000010021A6040F29C03C1F200034FF009024C
:104710001A604FF44043C4F201034FF008029A615B
:10472000B2E040F2B403C1F200031B6803F10102DE
:1047300040F25043C1F200031B689A4207D24FF483
:104740004043C4F201034FF004021A6006E04FF444
:104750004043C4F201034FF004029A614FF4404316
:10476000C4F201034FF008029A618DE040F2B403F5
:10477000C1F200031A684FF44043C4F201039B687E
:10478000D9B240F25C43C1F20003995402F1010234
:1047900040F2B403C1F200031A6040F2B403C1F264
:1047A00000031B6803F1010240F25043C1F2000311
:1047B0001B689A4207D24FF44043C4F201034FF002
:1047C00004021A6006E04FF44043C4F201034FF0C4
:1047D00004029A614FF44043C4F201034FF008020F
:1047E0009A6151E040F2B403C1F200031A684FF439
:1047F0004043C4F201039B68D9B240F25C43C1F26A
:104800000003995402F1010240F2B403C1F2000323
:104810001A6040F29C03C1F200034FF00C021A60D0
:104820004FF44043C4F201034FF010021A604FF4FA
:104830004043C4F201034FF008029A6124E04FF4B0
:104840004043C4F201034FF010021A6040F29C038F
:10485000C1F200034FF008021A604FF44043C4F263
:1048600001034FF008029A610EE040F29C03C1F28E
:1048700000034FF00A021A604FF44043C4F20103F0
:104880004FF008029A6100BF07F10C07BD4680BCDB
:10489000704700BF80B483B000AF40F2A803C1F2FC
:1048A00000034FF000025A604FF44043C4F2050386
:1048B0005B68FB71FB79A3F10803502B00F2378290
:1048C00001A252F823F000BF0D4A00002F4D000056
:1048D0002F4D00002F4D00002F4D00002F4D0000E8
:1048E0002F4D00002F4D00005D4A00002F4D0000AD
:1048F0002F4D00002F4D00002F4D00002F4D0000C8
:104900002F4D00002F4D0000AD4A00002F4D00003C
:104910002F4D00002F4D00002F4D00002F4D0000A7
:104920002F4D00002F4D0000034D00002F4D0000C3
:104930002F4D00002F4D00002F4D00002F4D000087
:104940002F4D00002F4D00001B4B00002F4D00008D
:104950002F4D00002F4D00002F4D00002F4D000067
:104960002F4D00002F4D0000B34B00002F4D0000D5
:104970002F4D00002F4D00002F4D00002F4D000047
:104980002F4D00002F4D00002F4D00002F4D000037
:104990002F4D00002F4D00002F4D00002F4D000027
:1049A0002F4D00002F4D0000DF4B00002F4D000069
:1049B0002F4D00002F4D00002F4D00002F4D000007
:1049C0002F4D00002F4D0000034D00002F4D000023
:1049D0002F4D00002F4D00002F4D00002F4D0000E7
:1049E0002F4D00002F4D0000294C00002F4D0000DE
:1049F0002F4D00002F4D00002F4D00002F4D0000C7
:104A00002F4D00002F4D0000A54C000040F2C403C4
:104A1000C1F200034FF000021A604FF44043C4F2A9
:104A2000050340F2C402C1F20002116840F21C52B8
:104A3000C1F20002521892F84020D2B29A6001F1FD
:104A4000010240F2C403C1F200031A604FF4404374
:104A5000C4F205034FF028029A6177E140F2B803EF
:104A6000C1F200034FF000021A604FF44043C4F259
:104A7000050340F2C402C1F20002116840F21C5268
:104A8000C1F20002521892F84020D2B29A6001F1AD
:104A9000010240F2C403C1F200031A604FF4404324
:104AA000C4F205034FF028029A614FE140F2DC5353
:104AB000C1F200035B68012B0ED14FF44043C4F2F6
:104AC00005034FF010021A6040F29C03C1F200038C
:104AD0004FF007025A6018E04FF44043C4F2050358
:104AE00040F2C402C1F20002116840F21C52C1F24D
:104AF0000002521892F84020D2B29A6001F10102ED
:104B000040F2C403C1F200031A604FF44043C4F200
:104B100005034FF008029A6118E140F2DC53C1F23C
:104B200000035B681A4640F2C403C1F200031B682D
:104B30009A4219D94FF44043C4F2050340F2C4022B
:104B4000C1F20002116840F21C52C1F20002521878
:104B500092F84020D2B29A6001F1010240F2C403FF
:104B6000C1F200031A601CE040F25043C1F200039E
:104B70005B68002B07D04FF44043C4F205034FF0AD
:104B800020021A600DE04FF44043C4F205034FF0D9
:104B900010021A6040F29C03C1F200034FF00C02B5
:104BA0005A604FF44043C4F205034FF008029A6183
:104BB000CCE04FF44043C4F205034FF010021A60FA
:104BC00040F29C03C1F200034FF009025A604FF417
:104BD0004043C4F205034FF008029A61B6E040F288
:104BE000B803C1F200031B6803F1010240F2504315
:104BF000C1F200035B689A4207D24FF44043C4F20B
:104C000005034FF004021A6006E04FF44043C4F27B
:104C100005034FF004029A614FF44043C4F20503C8
:104C20004FF008029A6191E040F2B803C1F200032C
:104C30001A684FF44043C4F205039B68D9B240F2AE
:104C40005C43C1F200039B1883F8401002F101029B
:104C500040F2B803C1F200031A6040F2B803C1F297
:104C600000031B6803F1010240F25043C1F200034C
:104C70005B689A4207D24FF44043C4F205034FF0F9
:104C800004021A6006E04FF44043C4F205034FF0FB
:104C900004029A614FF44043C4F205034FF0080246
:104CA0009A6153E040F2B803C1F200031A684FF46E
:104CB0004043C4F205039B68D9B240F25C43C1F2A1
:104CC00000039B1883F8401002F1010240F2B80380
:104CD000C1F200031A6040F29C03C1F200034FF0DE
:104CE0000C025A604FF44043C4F205034FF0100227
:104CF0001A604FF44043C4F205034FF008029A6172
:104D000024E04FF44043C4F205034FF010021A6050
:104D100040F29C03C1F200034FF008025A604FF4C6
:104D20004043C4F205034FF008029A610EE040F2DE
:104D30009C03C1F200034FF00A025A604FF4404353
:104D4000C4F205034FF008029A6100BF07F10C0797
:104D5000BD4680BC704700BF80B483B000AF40F256
:104D6000A803C1F200034FF000029A604FF0000365
:104D7000C4F20A035B68FB71FB79A3F10803502BB3
:104D800000F2378201A252F823F000BFD14E00009A
:104D9000F3510000F3510000F3510000F351000003
:104DA000F3510000F3510000F3510000214F0000C7
:104DB000F3510000F3510000F3510000F3510000E3
:104DC000F3510000F3510000F3510000714F000057
:104DD000F3510000F3510000F3510000F3510000C3
:104DE000F3510000F3510000F3510000C7510000DF
:104DF000F3510000F3510000F3510000F3510000A3
:104E0000F3510000F3510000F3510000DF4F0000A8
:104E1000F3510000F3510000F3510000F351000082
:104E2000F3510000F3510000F351000077500000EF
:104E3000F3510000F3510000F3510000F351000062
:104E4000F3510000F3510000F3510000F351000052
:104E5000F3510000F3510000F3510000F351000042
:104E6000F3510000F3510000F3510000A350000083
:104E7000F3510000F3510000F3510000F351000022
:104E8000F3510000F3510000F3510000C75100003E
:104E9000F3510000F3510000F3510000F351000002
:104EA000F3510000F3510000F3510000ED500000F9
:104EB000F3510000F3510000F3510000F3510000E2
:104EC000F3510000F3510000F3510000695100005C
:104ED00040F2C803C1F200034FF000021A604FF025
:104EE0000003C4F20A0340F2C802C1F200021168D2
:104EF00040F21C52C1F20002521892F88020D2B245
:104F00009A6001F1010240F2C803C1F200031A6085
:104F10004FF00003C4F20A034FF028029A6177E1D0
:104F200040F2BC03C1F200034FF000021A604FF0E0
:104F30000003C4F20A0340F2C802C1F20002116881
:104F400040F21C52C1F20002521892F88020D2B2F4
:104F50009A6001F1010240F2C803C1F200031A6035
:104F60004FF00003C4F20A034FF028029A614FE1A8
:104F700040F2DC53C1F200039B68012B0ED14FF0CD
:104F80000003C4F20A034FF010021A6040F29C03BF
:104F9000C1F200034FF007029A6018E04FF00003DF
:104FA000C4F20A0340F2C802C1F20002116840F2E2
:104FB0001C52C1F20002521892F88020D2B29A60BC
:104FC00001F1010240F2C803C1F200031A604FF080
:104FD0000003C4F20A034FF008029A6118E140F29C
:104FE000DC53C1F200039B681A4640F2C803C1F2C9
:104FF00000031B689A4219D94FF00003C4F20A0358
:1050000040F2C802C1F20002116840F21C52C1F223
:105010000002521892F88020D2B29A6001F1010287
:1050200040F2C803C1F200031A601CE040F2504392
:10503000C1F200039B68002B07D04FF00003C4F2BD
:105040000A034FF020021A600DE04FF00003C4F293
:105050000A034FF010021A6040F29C03C1F20003F1
:105060004FF00C029A604FF00003C4F20A034FF0B5
:1050700008029A61CCE04FF00003C4F20A034FF03B
:1050800010021A6040F29C03C1F200034FF00902C3
:105090009A604FF00003C4F20A034FF008029A61CD
:1050A000B6E040F2BC03C1F200031B6803F1010249
:1050B00040F25043C1F200039B689A4207D24FF07E
:1050C0000003C4F20A034FF004021A6006E04FF036
:1050D0000003C4F20A034FF004029A614FF0000388
:1050E000C4F20A034FF008029A6191E040F2BC0357
:1050F000C1F200031A684FF00003C4F20A039B6870
:10510000D9B240F25C43C1F200039B1883F88010CF
:1051100002F1010240F2BC03C1F200031A6040F246
:10512000BC03C1F200031B6803F1010240F25043CB
:10513000C1F200039B689A4207D24FF00003C4F209
:105140000A034FF004021A6006E04FF00003C4F2B5
:105150000A034FF004029A614FF00003C4F20A03FD
:105160004FF008029A6153E040F2BC03C1F2000321
:105170001A684FF00003C4F20A039B68D9B240F2E8
:105180005C43C1F200039B1883F8801002F1010216
:1051900040F2BC03C1F200031A6040F29C03C1F26A
:1051A00000034FF00C029A604FF00003C4F20A03B0
:1051B0004FF010021A604FF00003C4F20A034FF0E0
:1051C00008029A6124E04FF00003C4F20A034FF092
:1051D00010021A6040F29C03C1F200034FF0080273
:1051E0009A604FF00003C4F20A034FF008029A617C
:1051F0000EE040F29C03C1F200034FF00A029A60F5
:105200004FF00003C4F20A034FF008029A6100BF96
:1052100007F10C07BD4680BC704700BFFBF7DEB846
:10522000001BB7000101010101000000A1A2A3A41D
:10523000A5A6A7A8B1B2B3B4B5B6B7B8C1C2C3C426
:10524000C5C6C7C8D1D2D3D4D5D60000E1E2E3E4C5
:10525000E5E60000F1F2F3F4F5F60000AAABAC00CD
:1052600000000000646400007172737475767879D0
:08527000000000000000000036
:0400000300000129CF
:00000001FF
