:100000000080001029010000F5000000F70000004A
:10001000F9000000FB000000FD00000000000000EF
:10002000000000000000000000000000FF000000D1
:1000300001010000000000000301000005010000B4
:100040006901000069010000690100006901000008
:10005000690100005D230000E92400007D26000006
:100060003D28000069010000F90D0000A512000004
:1000700069170000690100006901000069010000C2
:1000800069010000690100006901000069010000C8
:1000900069010000690100006901000069010000B8
:1000A00069010000690100006901000069010000A8
:1000B0006901000069010000690100006901000098
:1000C000690100006901000069010000585D00003D
:1000D000000000106C000000585D000000C0072008
:1000E000000000006C0000109405000000C0072014
:1000F00000000000FEE7FEE7FEE7FEE7FEE7FEE7A2
:10010000FEE7FEE7FEE710B5002302E01C585C5056
:1001100004339342FAD310BD002302E000221A50A8
:1001200004338B42FAD3704710B50C4C05E02068BD
:100130006168A2680C34FFF7E6FF094B9C42F6D3D6
:1001400004E0206861680834FFF7E6FF054B9C4235
:10015000F7D300F0CDF905F089FDFEE7CC000000F3
:10016000E4000000F4000000FEE700BFFFFFFFFF17
:10017000FFFFFFFFFFFFFFFFFFFFFFFFFFFFFFFF8F
:10018000FFFFFFFFFFFFFFFFFFFFFFFFFFFFFFFF7F
:10019000FFFFFFFFFFFFFFFFFFFFFFFFFFFFFFFF6F
:1001A000FFFFFFFFFFFFFFFFFFFFFFFFFFFFFFFF5F
:1001B000FFFFFFFFFFFFFFFFFFFFFFFFFFFFFFFF4F
:1001C000FFFFFFFFFFFFFFFFFFFFFFFFFFFFFFFF3F
:1001D000FFFFFFFFFFFFFFFFFFFFFFFFFFFFFFFF2F
:1001E000FFFFFFFFFFFFFFFFFFFFFFFFFFFFFFFF1F
:1001F000FFFFFFFFFFFFFFFFFFFFFFFFFFFFFFFF0F
:10020000FFFFFFFFFFFFFFFFFFFFFFFFFFFFFFFFFE
:10021000FFFFFFFFFFFFFFFFFFFFFFFFFFFFFFFFEE
:10022000FFFFFFFFFFFFFFFFFFFFFFFFFFFFFFFFDE
:10023000FFFFFFFFFFFFFFFFFFFFFFFFFFFFFFFFCE
:10024000FFFFFFFFFFFFFFFFFFFFFFFFFFFFFFFFBE
:10025000FFFFFFFFFFFFFFFFFFFFFFFFFFFFFFFFAE
:10026000FFFFFFFFFFFFFFFFFFFFFFFFFFFFFFFF9E
:10027000FFFFFFFFFFFFFFFFFFFFFFFFFFFFFFFF8E
:10028000FFFFFFFFFFFFFFFFFFFFFFFFFFFFFFFF7E
:10029000FFFFFFFFFFFFFFFFFFFFFFFFFFFFFFFF6E
:1002A000FFFFFFFFFFFFFFFFFFFFFFFFFFFFFFFF5E
:1002B000FFFFFFFFFFFFFFFFFFFFFFFFFFFFFFFF4E
:1002C000FFFFFFFFFFFFFFFFFFFFFFFFFFFFFFFF3E
:1002D000FFFFFFFFFFFFFFFFFFFFFFFFFFFFFFFF2E
:1002E000FFFFFFFFFFFFFFFFFFFFFFFFFFFFFFFF1E
:1002F000FFFFFFFFFFFFFFFFFFFFFFFFFFFFFFFF0E
:1003000080B500AF00F048F84FF002004FF4E13143
:1003100002F05EFB01F01EFF01F04CFF01F0F4FC67
:1003200001F084FC00F00AF801F0E6FD4FF0000057
:100330004FF4165102F04CFB80BD00BF80B485B075
:1003400000AF4FF00003FB604FF00003BB604FF0C5
:1003500000037B604FF00003BB6014E04FF000032C
:10036000FB6007E07B6803F101037B60FB6803F13E
:100370000103FB60FA684EF65F239A42F2D9BB682C
:1003800003F10103BB60BB686D2BE7D907F11407CC
:10039000BD4680BC704700BF80B485B000AF4FF051
:1003A0000003FB604FF00003BB604FF000037B6075
:1003B0004FF00003BB6014E04FF00003FB6007E068
:1003C0007B6803F101037B60FB6803F10103FB60C1
:1003D000FA684EF65F239A42F2D9BB6803F1010333
:1003E000BB60BB680A2BE7D907F11407BD4680BC88
:1003F000704700BF80B500AF40F2FF03C1F20003B9
:100400004FF000021A7040F26013C1F200034FF087
:1004100000021A7040F2F403C1F200034FF0000230
:100420001A7040F26113C1F200034FF000021A701B
:1004300000F05EF800F050F9FFF762FFFFF77EFF73
:100440004FF001004FF0010101F0E0FD4FF00C0012
:1004500045F61051C0F2000101F090FD4FF002008E
:100460004FF0010101F0D2FD4FF0040045F620519C
:10047000C0F2000101F082FD4FF003004FF00101D6
:1004800001F0C4FD4FF0050045F62851C0F200010F
:1004900001F074FD4FF004004FF0010101F0B6FDD2
:1004A0004FF0040045F63051C0F2000101F066FD46
:1004B0004FF001004FF00F0101F0A8FD4FF00400D4
:1004C00045F63851C0F2000101F058FD4FF002002E
:1004D0004FF00F0101F09AFD4FF0040045F6405136
:1004E000C0F2000101F04AFD00F0F8FBFCE700BF9C
:1004F00080B483B000AF4FF000037B604FF4404303
:10050000C4F20F034FF02002C3F8A02100BF4FF444
:100510004043C4F20F03D3F8A03103F04003002B93
:10052000F5D04FF44043C4F20F034FF00202C3F87A
:1005300004214FF44043C4F20F034FF00002C3F80C
:10054000A8214FF44043C4F20F034FF00002C3F858
:10055000AC214FF44043C4F20F034FF00102C3F843
:100560000C214FF44043C4F20F034FF05902C0F284
:100570000502C3F884204FF44043C4F20F034FF048
:100580000102C3F880204FF44043C4F20F034FF040
:10059000AA02C3F88C204FF44043C4F20F034FF07B
:1005A0005502C3F88C204FF44043C4F20F03D3F834
:1005B0000C31022B0BD000BF4FF44043C4F20F03A9
:1005C000D3F8883003F08063002BF5D00AE04FF0B9
:1005D00000037B6003E07B6803F101037B607B68C1
:1005E000642BF8D94FF44043C4F20F034FF00302D9
:1005F000C3F880204FF44043C4F20F034FF0AA0227
:10060000C3F88C204FF44043C4F20F034FF055025F
:10061000C3F88C204FF44043C4F20F034FF0230281
:10062000C3F8A4204FF44043C4F20F034FF001027B
:10063000C3F8A0204FF44043C4F20F034FF0AA02C6
:10064000C3F8AC204FF44043C4F20F034FF05502FF
:10065000C3F8AC2000BF4FF44043C4F20F03D3F8FB
:10066000A83003F48063002BF5D04FF44043C4F26C
:100670000F034FF00302C3F8A0204FF44043C4F22D
:100680000F034FF0AA02C3F8AC204FF44043C4F26A
:100690000F034FF05502C3F8AC204FF44043C4F2AF
:1006A0000F0348F2DE72C0F22842C3F8C4204FF4B0
:1006B0004043C4F20F034FF00002C3F8C8214FF4C7
:1006C0004043C4F20F0343F23A021A6007F10C07E9
:1006D000BD4680BC704700BF80B400AF4FF44043BC
:1006E000C4F20F03D3F888304FEA136303F0030317
:1006F000032B40F0B2804FF44043C4F20F03D3F811
:100700000C3103F00303032B00F2FD8001A252F829
:1007100023F000BF250700008D070000F707000049
:10072000250700004FF44043C4F20F03D3F888308C
:100730004FEA43434FEA534303F101034FEA4302B5
:100740004FF44043C4F20F03D3F888304FEA134309
:1007500003F0FF0303F10103B2FBF3F24FF4106364
:10076000C0F23D0303FB02F24FF44043C4F20F0317
:10077000D3F8043103F0FF0303F10103B2FBF3F2FA
:1007800040F24C03C1F200031A60BDE04FF4404355
:10079000C4F20F03D3F888304FEA43434FEA534380
:1007A00003F101034FEA43024FF44043C4F20F0345
:1007B000D3F888304FEA134303F0FF0303F101033A
:1007C000B2FBF3F24FF4D853C0F2B70303FB02F2CB
:1007D0004FF44043C4F20F03D3F8043103F0FF0396
:1007E00003F10103B2FBF3F240F24C03C1F2000348
:1007F0001A6000BF88E04FF44043C4F20F03D3F8FF
:1008000088304FEA43434FEA534303F101034FEA71
:1008100043024FF44043C4F20F03D3F888304FEA49
:10082000134303F0FF0303F10103B2FBF3F34FF4AF
:10083000FA4202FB03F24FF44043C4F20F03D3F831
:10084000043103F0FF0303F10103B2FBF3F240F2C2
:100850004C03C1F200031A6056E04FF44043C4F267
:100860000F03D3F80C3103F00303032B4CD801A280
:1008700052F823F085080000B1080000DD080000F0
:10088000850800004FF44043C4F20F03D3F804314D
:1008900003F0FF0303F101024FF41063C0F23D03C4
:1008A000B3FBF2F240F24C03C1F200031A602BE0FA
:1008B0004FF44043C4F20F03D3F8043103F0FF03B5
:1008C00003F101024FF4D853C0F2B703B3FBF2F2C5
:1008D00040F24C03C1F200031A6015E04FF44043AC
:1008E000C4F20F03D3F8043103F0FF0303F1010353
:1008F0004FF4FA42B2FBF3F240F24C03C1F20003B0
:100900001A6000BF00E000BFBD4680BC704700BF5A
:1009100080B500AF40F2F503C1F200034FF00002D2
:100920001A7040F20013C1F200034FF007021A7070
:1009300034E040F2F503C1F200031B78DBB21A4643
:1009400040F20013C1F200031B78DBB2194640F2FB
:100950001413C1F200035B5CD9B240F20813C1F278
:100960000003995440F2F503C1F200031B78DBB297
:1009700003F10103DAB240F2F503C1F200031A7089
:1009800040F20013C1F200031B78DBB203F1010354
:10099000DAB240F20013C1F200031A7040F2F5031C
:1009A000C1F200031B78DBB2092BC2D940F2081355
:1009B000C1F200034FF000029A724FF002004FF0B4
:1009C000050101F023FB4FF0060040F20811C1F2CF
:1009D000000101F0D3FA80BD80B500AF40F2F5030D
:1009E000C1F200034FF000021A7040F20013C1F28E
:1009F00000034FF012021A7034E040F2F503C1F226
:100A000000031B78DBB21A4640F20013C1F2000368
:100A10001B78DBB2194640F21413C1F200035B5C91
:100A2000D9B240F27013C1F20003995440F2F503B9
:100A3000C1F200031B78DBB203F10103DAB240F22A
:100A4000F503C1F200031A7040F20013C1F2000373
:100A50001B78DBB203F10103DAB240F20013C1F2FA
:100A600000031A7040F2F503C1F200031B78DBB2F9
:100A7000082BC2D940F27013C1F200034FF00002FC
:100A80005A724FF003004FF0060101F0BFFA4FF029
:100A9000090040F27011C1F2000101F06FFA80BD4F
:100AA00080B500AF40F21413C1F200031B7FDAB22D
:100AB00040F20413C1F200031A7040F20413C1F2B1
:100AC00000034FF000025A704FF003004FF00F0187
:100AD00001F09CFA4FF0010040F20411C1F2000154
:100AE00001F04CFA80BD00BF80B500AF40F2F503C5
:100AF000C1F200034FF000021A7040F20013C1F27D
:100B000000034FF01E021A7034E040F2F503C1F208
:100B100000031B78DBB21A4640F20013C1F2000357
:100B20001B78DBB2194640F21413C1F200035B5C80
:100B3000D9B240F26413C1F20003995440F2F503B4
:100B4000C1F200031B78DBB203F10103DAB240F219
:100B5000F503C1F200031A7040F20013C1F2000362
:100B60001B78DBB203F10103DAB240F20013C1F2E9
:100B700000031A7040F2F503C1F200031B78DBB2E8
:100B8000092BC2D940F26413C1F200034FF00002F6
:100B90009A724FF004004FF0050101F037FA4FF060
:100BA0000A0040F26411C1F2000101F0E7F980BDD2
:100BB00080B500AF40F21413C1F2000393F829305E
:100BC000DAB240F27C13C1F200031A7040F27C13D7
:100BD000C1F200034FF000025A704FF004004FF0D2
:100BE0000F0101F013FA4FF0010040F27C11C1F245
:100BF000000101F0C3F980BD80B500AF40F21413CD
:100C0000C1F2000393F82B30DAB240F2F803C1F2DC
:100C100000031A7040F2F803C1F200034FF0000223
:100C20005A704FF002004FF0130101F0EFF94FF04E
:100C3000010040F2F801C1F2000101F09FF980BD0E
:100C400080B500AF40F21413C1F2000393F82E30C8
:100C5000DBB22C2B18D040F21413C1F2000393F82E
:100C60002D30DAB240F2FC03C1F200031A7040F2F8
:100C70001413C1F2000393F82E30DAB240F2FC03F1
:100C8000C1F200035A7012E040F2FC03C1F200030B
:100C90004FF030021A7040F21413C1F2000393F8BF
:100CA0002D30DAB240F2FC03C1F200035A7040F278
:100CB000FC03C1F200034FF000029A704FF00100F4
:100CC0004FF0130101F0A2F94FF0020040F2FC01D5
:100CD000C1F2000101F052F980BD00BF80B500AF44
:100CE00040F2DA03C1F200031B78DBB2012B65D1BD
:100CF00040F28013C1F20003DB78DAB240F2F00375
:100D0000C1F200031A7040F28013C1F200031B7994
:100D1000DAB240F2F003C1F200035A7040F28013DD
:100D2000C1F200035B79DAB240F2F003C1F20003D2
:100D30009A7040F25003C1F200031B6840F2F000C9
:100D4000C1F20000194604F093FF0346002B27D19F
:100D500040F21410C1F2000040F28011C1F2000113
:100D60004FF0500204F0A7FFFFF7D2FDFFF734FE6B
:100D7000FFF796FEFFF7B8FEFFF71AFFFFF73CFFFD
:100D8000FFF75EFF40F2F403C1F200034FF00002F0
:100D90001A7040F27B03C1F200034FF000021A7098
:100DA00040F2DA03C1F200034FF000021A7040F281
:100DB000F403C1F200034FF000021A7080BD00BFBF
:100DC00080B483B000AF0346FB714FF46143CEF2B1
:100DD000000397F907204FEA5212F97901F01F0139
:100DE0004FF0010000FA01F143F8221007F10C075F
:100DF000BD4680BC704700BF80B483B000AF40F2F6
:100E00008C03C1F200034FF000021A604FF440431C
:100E1000C4F201035B68FB71FB79A3F10803502B5B
:100E200000F22B8201A252F823F000BF710F0000E4
:100E30007B1200007B1200007B1200007B1200007E
:100E40007B1200007B1200007B120000BD0F00002F
:100E50007B1200007B1200007B1200007B1200005E
:100E60007B1200007B1200007B12000009100000C2
:100E70007B1200007B1200007B1200007B1200003E
:100E80007B1200007B1200007B1200004F1200005A
:100E90007B1200007B1200007B1200007B1200001E
:100EA0007B1200007B1200007B1200007310000018
:100EB0007B1200007B1200007B1200007B120000FE
:100EC0007B1200007B1200007B1200000711000063
:100ED0007B1200007B1200007B1200007B120000DE
:100EE0007B1200007B1200007B1200007B120000CE
:100EF0007B1200007B1200007B1200007B120000BE
:100F00007B1200007B1200007B12000033110000F6
:100F10007B1200007B1200007B1200007B1200009D
:100F20007B1200007B1200007B1200004F120000B9
:100F30007B1200007B1200007B1200007B1200007D
:100F40007B1200007B1200007B1200007D1100006C
:100F50007B1200007B1200007B1200007B1200005D
:100F60007B1200007B1200007B120000F5110000D4
:100F700040F2A403C1F200034FF000021A604FF4E4
:100F80004043C4F2010340F2A402C1F2000211681E
:100F900040F29C22C1F20002525CD2B29A6001F18E
:100FA000010240F2A403C1F200031A604FF440436F
:100FB000C4F201034FF028029A616DE140F29803F8
:100FC000C1F200034FF000021A604FF44043C4F234
:100FD000010340F2A402C1F20002116840F29C2217
:100FE000C1F20002525CD2B29A6001F1010240F2F9
:100FF000A403C1F200031A604FF44043C4F201039A
:101000004FF028029A6147E140F25C33C1F20003DD
:101010001B68012B0ED14FF44043C4F201034FF083
:1010200010021A6040F28003C1F200034FF0070281
:101030001A6016E04FF44043C4F2010340F2A402E8
:10104000C1F20002116840F29C22C1F20002525C1F
:10105000D2B29A6001F1010240F2A403C1F200038E
:101060001A604FF44043C4F201034FF008029A6142
:1010700012E140F25C33C1F200031B681A4640F2F1
:10108000A403C1F200031B689A4217D94FF44043EE
:10109000C4F2010340F2A402C1F20002116840F25E
:1010A0009C22C1F20002525CD2B29A6001F10102AC
:1010B00040F2A403C1F200031A601CE040F2D01316
:1010C000C1F200031B68002B07D04FF44043C4F269
:1010D00001034FF020021A600DE04FF44043C4F2C8
:1010E00001034FF010021A6040F28003C1F20003C6
:1010F0004FF00C021A604FF44043C4F201034FF06A
:1011000008029A61C8E04FF44043C4F201034FF073
:1011100010021A6040F28003C1F200034FF009028E
:101120001A604FF44043C4F201034FF008029A6181
:10113000B2E040F29803C1F200031B6803F1010220
:1011400040F2D013C1F200031B689A4207D24FF459
:101150004043C4F201034FF004021A6006E04FF46A
:101160004043C4F201034FF004029A614FF440433C
:10117000C4F201034FF008029A618DE040F2980337
:10118000C1F200031A684FF44043C4F201039B68A4
:10119000D9B240F2DC13C1F20003995402F101020A
:1011A00040F29803C1F200031A6040F29803C1F2C2
:1011B00000031B6803F1010240F2D013C1F20003E7
:1011C0001B689A4207D24FF44043C4F201034FF028
:1011D00004021A6006E04FF44043C4F201034FF0EA
:1011E00004029A614FF44043C4F201034FF0080235
:1011F0009A6151E040F29803C1F200031A684FF47B
:101200004043C4F201039B68D9B240F2DC13C1F23F
:101210000003995402F1010240F29803C1F2000365
:101220001A6040F28003C1F200034FF00C021A6012
:101230004FF44043C4F201034FF010021A604FF420
:101240004043C4F201034FF008029A6124E04FF4D6
:101250004043C4F201034FF010021A6040F28003D1
:10126000C1F200034FF008021A604FF44043C4F289
:1012700001034FF008029A610EE040F28003C1F2D0
:1012800000034FF00A021A604FF44043C4F2010316
:101290004FF008029A6100BF07F10C07BD4680BC01
:1012A000704700BF80B483B000AF40F28C03C1F23E
:1012B00000034FF000025A604FF44043C4F20503AC
:1012C0005B68FB71FB79A3F10803502B00F23782B6
:1012D00001A252F823F000BF1D1400003F170000C8
:1012E0003F1700003F1700003F1700003F170000A6
:1012F0003F1700003F1700006D1400003F1700006B
:101300003F1700003F1700003F1700003F17000085
:101310003F1700003F170000BD1400003F170000FA
:101320003F1700003F1700003F1700003F17000065
:101330003F1700003F170000131700003F17000081
:101340003F1700003F1700003F1700003F17000045
:101350003F1700003F1700002B1500003F1700004B
:101360003F1700003F1700003F1700003F17000025
:101370003F1700003F170000C31500003F17000093
:101380003F1700003F1700003F1700003F17000005
:101390003F1700003F1700003F1700003F170000F5
:1013A0003F1700003F1700003F1700003F170000E5
:1013B0003F1700003F170000EF1500003F17000027
:1013C0003F1700003F1700003F1700003F170000C5
:1013D0003F1700003F170000131700003F170000E1
:1013E0003F1700003F1700003F1700003F170000A5
:1013F0003F1700003F170000391600003F1700009C
:101400003F1700003F1700003F1700003F17000084
:101410003F1700003F170000B516000040F2A80378
:10142000C1F200034FF000021A604FF44043C4F2CF
:10143000050340F2A802C1F20002116840F29C22AA
:10144000C1F20002521892F84020D2B29A6001F123
:10145000010240F2A803C1F200031A604FF44043B6
:10146000C4F205034FF028029A6177E140F29C0331
:10147000C1F200034FF000021A604FF44043C4F27F
:10148000050340F2A802C1F20002116840F29C225A
:10149000C1F20002521892F84020D2B29A6001F1D3
:1014A000010240F2A803C1F200031A604FF4404366
:1014B000C4F205034FF028029A614FE140F25C3319
:1014C000C1F200035B68012B0ED14FF44043C4F21C
:1014D00005034FF010021A6040F28003C1F20003CE
:1014E0004FF007025A6018E04FF44043C4F205037E
:1014F00040F2A802C1F20002116840F29C22C1F23F
:101500000002521892F84020D2B29A6001F1010212
:1015100040F2A803C1F200031A604FF44043C4F242
:1015200005034FF008029A6118E140F25C33C1F202
:1015300000035B681A4640F2A803C1F200031B686F
:101540009A4219D94FF44043C4F2050340F2A8026D
:10155000C1F20002116840F29C22C1F2000252184E
:1015600092F84020D2B29A6001F1010240F2A80341
:10157000C1F200031A601CE040F2D013C1F2000374
:101580005B68002B07D04FF44043C4F205034FF0D3
:1015900020021A600DE04FF44043C4F205034FF0FF
:1015A00010021A6040F28003C1F200034FF00C02F7
:1015B0005A604FF44043C4F205034FF008029A61A9
:1015C000CCE04FF44043C4F205034FF010021A6020
:1015D00040F28003C1F200034FF009025A604FF459
:1015E0004043C4F205034FF008029A61B6E040F2AE
:1015F0009C03C1F200031B6803F1010240F2D01307
:10160000C1F200035B689A4207D24FF44043C4F230
:1016100005034FF004021A6006E04FF44043C4F2A1
:1016200005034FF004029A614FF44043C4F20503EE
:101630004FF008029A6191E040F29C03C1F200036E
:101640001A684FF44043C4F205039B68D9B240F2D4
:10165000DC13C1F200039B1883F8401002F1010271
:1016600040F29C03C1F200031A6040F29C03C1F2F5
:1016700000031B6803F1010240F2D013C1F2000322
:101680005B689A4207D24FF44043C4F205034FF01F
:1016900004021A6006E04FF44043C4F205034FF021
:1016A00004029A614FF44043C4F205034FF008026C
:1016B0009A6153E040F29C03C1F200031A684FF4B0
:1016C0004043C4F205039B68D9B240F2DC13C1F277
:1016D00000039B1883F8401002F1010240F29C03C2
:1016E000C1F200031A6040F28003C1F200034FF020
:1016F0000C025A604FF44043C4F205034FF010024D
:101700001A604FF44043C4F205034FF008029A6197
:1017100024E04FF44043C4F205034FF010021A6076
:1017200040F28003C1F200034FF008025A604FF408
:101730004043C4F205034FF008029A610EE040F204
:101740008003C1F200034FF00A025A604FF4404395
:10175000C4F205034FF008029A6100BF07F10C07BD
:10176000BD4680BC704700BF80B483B000AF40F27C
:101770008C03C1F200034FF000029A604FF00003A7
:10178000C4F20A035B68FB71FB79A3F10803502BD9
:1017900000F2378201A252F823F000BFE1180000E6
:1017A000031C0000031C0000031C0000031C0000BD
:1017B000031C0000031C0000031C00003119000082
:1017C000031C0000031C0000031C0000031C00009D
:1017D000031C0000031C0000031C00008119000012
:1017E000031C0000031C0000031C0000031C00007D
:1017F000031C0000031C0000031C0000D71B00009A
:10180000031C0000031C0000031C0000031C00005C
:10181000031C0000031C0000031C0000EF19000063
:10182000031C0000031C0000031C0000031C00003C
:10183000031C0000031C0000031C0000871A0000AA
:10184000031C0000031C0000031C0000031C00001C
:10185000031C0000031C0000031C0000031C00000C
:10186000031C0000031C0000031C0000031C0000FC
:10187000031C0000031C0000031C0000B31A00003E
:10188000031C0000031C0000031C0000031C0000DC
:10189000031C0000031C0000031C0000D71B0000F9
:1018A000031C0000031C0000031C0000031C0000BC
:1018B000031C0000031C0000031C0000FD1A0000B4
:1018C000031C0000031C0000031C0000031C00009C
:1018D000031C0000031C0000031C0000791B000017
:1018E00040F2AC03C1F200034FF000021A604FF067
:1018F0000003C4F20A0340F2AC02C1F20002116814
:1019000040F29C22C1F20002521892F88020D2B21A
:101910009A6001F1010240F2AC03C1F200031A60C7
:101920004FF00003C4F20A034FF028029A6177E1F6
:1019300040F2A003C1F200034FF000021A604FF022
:101940000003C4F20A0340F2AC02C1F200021168C3
:1019500040F29C22C1F20002521892F88020D2B2CA
:101960009A6001F1010240F2AC03C1F200031A6077
:101970004FF00003C4F20A034FF028029A614FE1CE
:1019800040F25C33C1F200039B68012B0ED14FF093
:101990000003C4F20A034FF010021A6040F2800301
:1019A000C1F200034FF007029A6018E04FF0000305
:1019B000C4F20A0340F2AC02C1F20002116840F224
:1019C0009C22C1F20002521892F88020D2B29A6092
:1019D00001F1010240F2AC03C1F200031A604FF0C2
:1019E0000003C4F20A034FF008029A6118E140F2C2
:1019F0005C33C1F200039B681A4640F2AC03C1F2AB
:101A000000031B689A4219D94FF00003C4F20A037D
:101A100040F2AC02C1F20002116840F29C22C1F215
:101A20000002521892F88020D2B29A6001F10102AD
:101A300040F2AC03C1F200031A601CE040F2D01384
:101A4000C1F200039B68002B07D04FF00003C4F2E3
:101A50000A034FF020021A600DE04FF00003C4F2B9
:101A60000A034FF010021A6040F28003C1F2000333
:101A70004FF00C029A604FF00003C4F20A034FF0DB
:101A800008029A61CCE04FF00003C4F20A034FF061
:101A900010021A6040F28003C1F200034FF0090205
:101AA0009A604FF00003C4F20A034FF008029A61F3
:101AB000B6E040F2A003C1F200031B6803F101028B
:101AC00040F2D013C1F200039B689A4207D24FF054
:101AD0000003C4F20A034FF004021A6006E04FF05C
:101AE0000003C4F20A034FF004029A614FF00003AE
:101AF000C4F20A034FF008029A6191E040F2A00399
:101B0000C1F200031A684FF00003C4F20A039B6895
:101B1000D9B240F2DC13C1F200039B1883F88010A5
:101B200002F1010240F2A003C1F200031A6040F288
:101B3000A003C1F200031B6803F1010240F2D013BD
:101B4000C1F200039B689A4207D24FF00003C4F22F
:101B50000A034FF004021A6006E04FF00003C4F2DB
:101B60000A034FF004029A614FF00003C4F20A0323
:101B70004FF008029A6153E040F2A003C1F2000363
:101B80001A684FF00003C4F20A039B68D9B240F20E
:101B9000DC13C1F200039B1883F8801002F10102EC
:101BA00040F2A003C1F200031A6040F28003C1F2C8
:101BB00000034FF00C029A604FF00003C4F20A03D6
:101BC0004FF010021A604FF00003C4F20A034FF006
:101BD00008029A6124E04FF00003C4F20A034FF0B8
:101BE00010021A6040F28003C1F200034FF00802B5
:101BF0009A604FF00003C4F20A034FF008029A61A2
:101C00000EE040F28003C1F200034FF00A029A6036
:101C10004FF00003C4F20A034FF008029A6100BFBC
:101C200007F10C07BD4680BC704700BF80B500AF10
:101C30004FF44043C4F20F034FF44042C4F20F028A
:101C4000D2F8C42042F40022C3F8C4204FF4404329
:101C5000C4F202034FF44042C4F20202526822F47A
:101C600070725A604FF44043C4F202034FF4404292
:101C7000C4F20202526842F470725A604FF4404358
:101C8000C4F202034FF44042C4F20202526C22F446
:101C900070725A644FF44043C4F202034FF440425E
:101CA000C4F20202526C42F420725A644FF4404370
:101CB000C4F202034FF44042C4F20202926E42F4B4
:101CC000C0129A664FF44043C4F205034FF06C0211
:101CD0009A614FF44043C4F205034FF4A8725A616D
:101CE0004FF44043C4F205034FF4A8721A614FF059
:101CF0000B00FFF765F84FF44043C4F205034FF0C3
:101D000040021A6080BD00BF80B483B000AF4FF0C6
:101D100000037B604FF44043C2F209034FF440429A
:101D2000C2F20902126922F4C0121A614FF4404350
:101D3000C2F209034FF44042C2F20902126822F4CF
:101D4000C0121A604FF44043C2F209034FF44042FC
:101D5000C2F20902126842F480121A6048E04FF0A1
:101D600000037B6003E07B6803F101037B607A681A
:101D700042F20F739A42F6D94FF44043C2F209037C
:101D80004FF480129A614FF000037B6003E07B68A0
:101D900003F101037B607A6840F2E7339A42F6D997
:101DA0004FF44043C2F209034FF48012DA614FF05E
:101DB00000037B6003E07B6803F101037B607A68CA
:101DC00040F2E7339A42F6D94FF44043C2F2090396
:101DD0004FF480129A614FF000037B6003E07B6850
:101DE00003F101037B607A6842F20F739A42F6D9DD
:101DF0004FF44043C2F209035B6903F40023002B54
:101E0000ADD007F10C07BD4680BC704780B483B0ED
:101E100000AF786045F64C53C0F200037A6853F87F
:101E200022304FF020021A6040F28003C1F200031A
:101E30007A684FF0060143F8221027E040F28C0345
:101E4000C1F200037A6853F822301A464FF6FE7347
:101E5000C0F2FF039A4209D940F28003C1F20003A5
:101E60007A684FF00B0143F8221018E040F28C031F
:101E7000C1F200037A6853F8223003F1010140F205
:101E80008C03C1F200037A6843F8221040F2800309
:101E9000C1F200037A6853F82230062BCED045F603
:101EA0004C53C0F200037A6853F822304FF02002FE
:101EB0009A6140F28003C1F200037A6853F822303D
:101EC000184607F10C07BD4680BC704780B483B04C
:101ED00000AF4FF000037B604FF000037B6003E036
:101EE0007B6803F101037B607B68632BF8D907F102
:101EF0000C07BD4680BC704780B500AF00F0FEF80F
:101F0000FFF7E4FF4FF0010000F0BEF8FFF7DEFF3F
:101F10004FF0040000F004F8FFF7D8FF80BD00BFC9
:101F200080B584B000AF0346FB7140F25C33C1F270
:101F300000034FF002025A6040F2D013C1F20003D6
:101F40004FF000025A6040F29C23C1F200034FF0B0
:101F5000C60283F8402040F29C23C1F20003FA79C4
:101F600083F841204FF00100FFF750FFF860FB6855
:101F7000184607F11007BD4680BD00BF80B584B08C
:101F800000AF03463960FB714FF00003FB60FB7943
:101F900003F101031A4640F25C33C1F200035A60B8
:101FA00040F2D013C1F200034FF000025A6040F239
:101FB0009C23C1F200034FF0C60283F840204FF08B
:101FC0000003FB6013E0FB6803F101013B681A7832
:101FD00040F29C23C1F200035B1883F840203B6869
:101FE00003F101033B60FB6803F10103FB60FA7935
:101FF000FB689A42E7D84FF00100FFF707FFB8608F
:10200000BB68184607F11007BD4680BD80B584B097
:1020100000AF02460B46FA71BB7140F25C33C1F26D
:1020200000034FF004025A6040F2D013C1F20003E3
:102030004FF000025A6040F29C23C1F200034FF0BF
:10204000C60283F8402040F29C23C1F200034FF007
:10205000030283F8412040F29C23C1F20003FA7985
:1020600083F8422040F29C23C1F20003BA7983F83E
:1020700043204FF00100FFF7C9FEF860FB681846E7
:1020800007F11007BD4680BD80B584B000AF0346A0
:10209000FB7140F25C33C1F200034FF002025A6060
:1020A00040F2D013C1F200034FF000025A6040F238
:1020B0009C23C1F200034FF0C60283F84020FB7955
:1020C000012B08D140F29C23C1F200034FF0130210
:1020D00083F8412007E040F29C23C1F200034FF057
:1020E000140283F841204FF00100FFF78FFEF860E3
:1020F000FB68184607F11007BD4680BD80B582B069
:1021000000AF40F25C33C1F200034FF002025A60AC
:1021100040F2D013C1F200034FF000025A6040F2C7
:102120009C23C1F200034FF0C60283F8402040F226
:102130009C23C1F200034FF00C0283F841204FF0C2
:102140000100FFF763FE78607B68184607F1080717
:10215000BD4680BD80B500AF00F002F880BD00BF75
:1021600080B500AF40F27C53C1F200034FF04E0245
:102170001A7040F27C53C1F200034FF045025A70CE
:1021800040F27C53C1F200034FF058029A7040F2C3
:102190007C53C1F200034FF03802DA704FF00200B6
:1021A00040F27C51C1F200014FF0040200F08AFEBF
:1021B00080BD00BF80B500AF40F27C53C1F2000388
:1021C0004FF04E021A7040F27C53C1F200034FF000
:1021D00045025A7040F27C53C1F200034FF058029E
:1021E0009A7040F27C53C1F200034FF03102DA7072
:1021F00040F27C53C1F200034FF080021A714FF09D
:10220000020040F27C51C1F200014FF0050200F0E3
:1022100059FE40F27C53C1F200034FF04E021A7097
:1022200040F27C53C1F200034FF045025A7040F275
:102230007C53C1F200034FF058029A7040F27C5375
:10224000C1F200034FF03202DA7040F27C53C1F267
:1022500000034FF080021A714FF0020040F27C51EF
:10226000C1F200014FF0050200F02CFE80BD00BF5E
:1022700080B483B000AF0346FB714FF46143CEF2EC
:10228000000397F907204FEA5212F97901F01F0174
:102290004FF0010000FA01F143F8221007F10C079A
:1022A000BD4680BC704700BF80B483B000AF03461A
:1022B0003960FB7197F90730002B10DA4FF46D434A
:1022C000CEF20003FA7902F00F02A2F104013A689B
:1022D000D2B24FEAC202D2B25B181A760DE04FF4C6
:1022E0006143CEF2000397F907103A68D2B24FEA81
:1022F000C202D2B25B1883F8002307F10C07BD4677
:1023000080BC704780B483B000AF0346FB7197F97F
:102310000730002B0FDA4FF46D43CEF20003FA7949
:1023200002F00F02A2F104029B181B7EDBB24FEAFF
:10233000D303DBB20CE04FF46143CEF2000397F914
:1023400007209B1893F80033DBB24FEAD303DBB2CC
:10235000184607F10C07BD4680BC704780B582B0B7
:1023600000AF4FF44043C4F200039B68BB71BB79DC
:102370004FEA5303BB71BB7903F00703BB71BB7911
:10238000032B4DD14FF44043C4F200035B697B71D2
:102390007B7903F09E03002B0CD07A7940F2FC533A
:1023A000C1F200031A604FF44043C4F200031B68FB
:1023B000FB7194E07B7903F00103DBB2002B00F0AA
:1023C0008E804FF44043C4F200031B68DAB240F23F
:1023D000B843C1F200031A7040F2B843C1F20003DF
:1023E0001B78DBB2184600F017FE40F2B803C1F2CA
:1023F00000031B6803F1010240F2B803C1F20003BD
:102400001A6040F2B803C1F200031B68402B66D18A
:1024100040F2B803C1F200034FF000021A605EE020
:10242000BB79022B2ED14FF44043C4F200031B684A
:10243000DAB240F2B843C1F200031A7040F2B84376
:10244000C1F200031B78DBB2184600F0E5FD40F254
:10245000B803C1F200031B6803F1010240F2B803A4
:10246000C1F200031A6040F2B803C1F200031B6816
:10247000402B34D140F2B803C1F200034FF0000208
:102480001A602CE0BB79062B0CD140F2FC53C1F250
:1024900000031B6843F4807240F2FC53C1F2000356
:1024A0001A601CE0BB79012B19D14FF44043C4F2F0
:1024B00000035B697B717B7903F02003002B07D05D
:1024C00040F26403C1F200034FF001021A7006E00B
:1024D00040F26403C1F200034FF000021A7007F1EA
:1024E0000807BD4680BD00BF80B582B000AF4FF089
:1024F0000003C4F201039B68BB71BB794FEA53032D
:10250000BB71BB7903F00703BB71BB79032B4FD1C0
:102510004FF00003C4F201035B697B717B7903F028
:102520009E03002B0CD07A7940F23853C1F200039D
:102530001A604FF00003C4F201031B68FB7198E0BE
:102540007B7903F00103DBB2002B00F092804FF0A7
:102550000003C4F201031B68DAB240F27043C1F217
:1025600000031A7040F27043C1F200031B78DBB223
:102570004FF00100194600F013FE40F2BC03C1F217
:1025800000031B6803F1010240F2BC03C1F2000327
:102590001A6040F2BC03C1F200031B68402B68D1F3
:1025A00040F2BC03C1F200034FF000021A6060E089
:1025B000BB79022B30D14FF00003C4F201031B683A
:1025C000DAB240F27043C1F200031A7040F2704375
:1025D000C1F200031B78DBB24FF00100194600F096
:1025E000DFFD40F2BC03C1F200031B6803F10102EE
:1025F00040F2BC03C1F200031A6040F2BC03C1F216
:1026000000031B68402B34D140F2BC03C1F200032D
:102610004FF000021A602CE0BB79062B0CD140F27F
:102620003853C1F200031B6843F4807240F2385300
:10263000C1F200031A601CE0BB79012B19D14FF0E5
:102640000003C4F201035B697B717B7903F0200313
:10265000002B07D040F26503C1F200034FF00102E6
:102660001A7006E040F26503C1F200034FF0000269
:102670001A7007F10807BD4680BD00BF80B483B063
:1026800000AF4FF40043C4F209039B68BB71BB79F0
:102690004FEA5303BB71BB7903F00703BB71BB79EE
:1026A000032B5AD14FF40043C4F209035B697B71D9
:1026B0007B7903F09E03002B0CD07A7940F2B04373
:1026C000C1F200031A604FF40043C4F209031B680F
:1026D000FB71ADE07B7903F00103DBB2002B00F06E
:1026E000A78040F2C003C1F200031A684FF4004310
:1026F000C4F209031B68D9B240F26833C1F2000387
:10270000995402F1010240F2C003C1F200031A60C1
:1027100040F2D903C1F200031B78DBB21A4640F243
:10272000C003C1F200031B689A4240F0818040F26E
:10273000C003C1F200034FF000021A6040F2D90357
:10274000C1F200034FF000021A7040F2D803C1F248
:1027500000034FF001021A706AE0BB79022B3AD1F4
:1027600040F2C003C1F200031A684FF40043C4F200
:1027700009031B68D9B240F26833C1F200039954CF
:1027800002F1010240F2C003C1F200031A6040F2FC
:10279000D903C1F200031B78DBB21A4640F2C00332
:1027A000C1F200031B689A4242D140F2C003C1F259
:1027B00000034FF000021A6040F2D903C1F2000397
:1027C0004FF000021A7040F2D803C1F200034FF03C
:1027D00001021A702CE0BB79062B0CD140F2B043F9
:1027E000C1F200031B6843F4807240F2B043C1F2AF
:1027F00000031A601CE0BB79012B19D14FF4004390
:10280000C4F209035B697B717B7903F02003002B21
:1028100007D040F26603C1F200034FF001021A70C4
:1028200006E040F26603C1F200034FF000021A70A6
:1028300007F10C07BD4680BC704700BF80B582B071
:1028400000AF4FF44043C4F209039B68BB71BB79EE
:102850004FEA5303BB71BB7903F00703BB71BB792C
:10286000032B4FD14FF44043C4F209035B697B71E2
:102870007B7903F09E03002B0CD07A7940F2FC5355
:10288000C1F200031A604FF44043C4F209031B680D
:10289000FB7198E07B7903F00103DBB2002B00F0C1
:1028A00092804FF44043C4F209031B68DAB240F24D
:1028B0003C53C1F200031A7040F23C53C1F20003D2
:1028C0001B78DBB24FF00300194600F069FC40F2C0
:1028D000C403C1F200031B6803F1010240F2C40308
:1028E000C1F200031A6040F2C403C1F200031B6886
:1028F000402B68D140F2C403C1F200034FF0000244
:102900001A6060E0BB79022B30D14FF44043C4F22F
:1029100009031B68DAB240F23C53C1F200031A709B
:1029200040F23C53C1F200031B78DBB24FF00300CE
:10293000194600F035FC40F2C403C1F200031B68E5
:1029400003F1010240F2C403C1F200031A6040F235
:10295000C403C1F200031B68402B34D140F2C4030E
:10296000C1F200034FF000021A602CE0BB79062B85
:102970000CD140F2B443C1F200031B6843F48072EF
:1029800040F2B443C1F200031A601CE0BB79012B92
:1029900019D14FF44043C4F209035B697B717B7921
:1029A00003F02003002B07D040F26703C1F20003BD
:1029B0004FF001021A7006E040F26703C1F2000313
:1029C0004FF000021A7007F10807BD4680BD00BF36
:1029D00080B586B000AF786039604FF000033B618E
:1029E0007B68002B40F086804FF44043C4F2020322
:1029F0004FF44042C4F20202126822F0F0021A6060
:102A00004FF44043C4F202034FF44042C4F20202C6
:102A1000126842F050021A604FF44043C4F20F03B0
:102A2000D3F8A8314FEA931303F00303FB60FB686C
:102A3000022B13D0032B1AD0012B08D040F24C03E9
:102A4000C1F200031B684FEA93037B6118E040F278
:102A50004C03C1F200031B687B6111E040F24C03A0
:102A6000C1F200031B684FEA53037B6108E040F2A8
:102A70004C03C1F200031B684FEAD3037B6100BF24
:102A80004FF44043C4F200034FF08302DA607B69E5
:102A90004FEA13123B68B2FBF3F3BB604FF44043C1
:102AA000C4F20003BA684FEA12225A604FF440435E
:102AB000C4F20003BA6802F0FF021A604FF4404308
:102AC000C4F200034FF00302DA604FF44043C4F253
:102AD00000034FF007029A604FF00500FFF7C8FBB4
:102AE0004FF44043C4F200034FF005025A604FF028
:102AF0000103E2E17B68012B40F09E804FF44043EC
:102B0000C4F202034FF44042C4F20202126822F0FF
:102B100040421A604FF44043C4F202034FF4404273
:102B2000C4F20202126842F080421A604FF440433D
:102B3000C4F202034FF44042C4F20202526822F08F
:102B400003025A604FF44043C4F202034FF4404280
:102B5000C4F20202526842F001025A604FF440434C
:102B6000C4F20F03D3F8A8314FEA132303F0030391
:102B7000FB60FB68022B13D0032B1AD0012B08D06B
:102B800040F24C03C1F200031B684FEA93037B61E0
:102B900018E040F24C03C1F200031B687B6111E0B6
:102BA00040F24C03C1F200031B684FEA53037B6100
:102BB00008E040F24C03C1F200031B684FEAD30364
:102BC0007B6100BF4FF00003C4F201034FF08302AA
:102BD000DA607B694FEA13123B68B2FBF3F3BB6028
:102BE0004FF00003C4F20103BA684FEA12225A60A0
:102BF0004FF00003C4F20103BA6802F0FF021A604A
:102C00004FF00003C4F201034FF00302DA604FF00B
:102C10000003C4F201034FF007029A604FF0060070
:102C2000FFF726FB4FF00003C4F201034FF005024B
:102C30005A604FF0010340E17B68022B40F0948022
:102C40004FF44043C4F20F034FF44042C4F20F026A
:102C5000D2F8C42042F08072C3F8C4204FF440433D
:102C6000C4F202034FF44042C4F20202126822F49A
:102C700070021A604FF44043C4F202034FF4404222
:102C8000C4F20202126842F4A0021A604FF44043F8
:102C9000C4F20F03D3F8AC314FEA134303F003033C
:102CA000FB60FB68022B13D0032B1AD0012B08D03A
:102CB00040F24C03C1F200031B684FEA93037B61AF
:102CC00018E040F24C03C1F200031B687B6111E085
:102CD00040F24C03C1F200031B684FEA53037B61CF
:102CE00008E040F24C03C1F200031B684FEAD30333
:102CF0007B6100BF4FF40043C4F209034FF083022D
:102D0000DA607B694FEA13123B68B2FBF3F3BB60F6
:102D10004FF40043C4F20903BA684FEA12225A6022
:102D20004FF40043C4F20903BA6802F0FF021A60CC
:102D30004FF40043C4F209034FF00302DA604FF48A
:102D40000043C4F209034FF007029A604FF00700F6
:102D5000FFF78EFA4FF40043C4F209034FF0050267
:102D60005A604FF00103A8E07B68032B40F0A3807A
:102D70004FF44043C4F20F034FF44042C4F20F0239
:102D8000D2F8C42042F00072C3F8C4204FF440438C
:102D9000C4F202034FF44042C4F20202126822F06D
:102DA0000F021A604FF44043C4F202034FF4404252
:102DB000C4F20202126842F00A021A604FF4404361
:102DC000C4F20F03D3F8AC314FEA934303F003038B
:102DD000FB60FB68022B13D0032B1AD0012B08D009
:102DE00040F24C03C1F200031B684FEA93037B617E
:102DF00018E040F24C03C1F200031B687B6111E054
:102E000040F24C03C1F200031B684FEA53037B619D
:102E100008E040F24C03C1F200031B684FEAD30301
:102E20007B6100BF4FF44043C4F209034FF08302BB
:102E3000DA607B694FEA13123B68B2FBF3F3BB60C5
:102E40004FF44043C4F20903BA684FEA12225A60B1
:102E50004FF44043C4F20903BA6802F0FF021A605B
:102E60004FF44043C4F209034FF00302DA604FF419
:102E70004043C4F209034FF007029A604FF0080084
:102E8000FFF740FA38614FF008004FF00101FFF7FB
:102E90000BFA4FF00800FFF7EBF94FF00800FFF7CF
:102EA000E7F94FF44043C4F209034FF005025A60BA
:102EB0004FF0010301E04FF00003184607F1180737
:102EC000BD4680BD80B485B000AFF860B9607A605F
:102ED000FB68002B24D11FE000BF4FF44043C4F235
:102EE00000035B6903F04003002BF6D04FF440432E
:102EF000C4F20003BA6812781A6040F26403C1F2A7
:102F000000034FF000021A70BB6803F10103BB60BD
:102F10007B6803F1FF337B607B68002BDCD176E0BC
:102F2000FB68012B24D11FE000BF4FF00003C4F267
:102F300001035B6903F04003002BF6D04FF0000360
:102F4000C4F20103BA6812781A6040F26503C1F254
:102F500000034FF000021A70BB6803F10103BB606D
:102F60007B6803F1FF337B607B68002BDCD14EE094
:102F7000FB68022B24D11FE000BF4FF40043C4F2D2
:102F800009035B6903F04003002BF6D04FF40043C4
:102F9000C4F20903BA6812781A6040F26603C1F2FB
:102FA00000034FF000021A70BB6803F10103BB601D
:102FB0007B6803F1FF337B607B68002BDCD126E06C
:102FC000FB68032B23D11FE000BF4FF44043C4F242
:102FD00009035B6903F04003002BF6D04FF4404334
:102FE000C4F20903BA6812781A6040F26703C1F2AA
:102FF00000034FF000021A70BB6803F10103BB60CD
:103000007B6803F1FF337B607B68002BDCD107F129
:103010001407BD4680BC704780B483B000AF034640
:10302000FB7140F27C03C1F200031B78DBB203F1B9
:103030000103DAB240F27C03C1F200031A7040F2DD
:10304000F403C1F200031B78DBB2002B17D1FB792C
:10305000242B14D140F2FF03C1F200034FF0010210
:103060001A7040F26113C1F200034FF000021A70AF
:1030700040F27A03C1F200034FF000021A7040F2EE
:10308000FF03C1F200031B78DBB2002B30D040F20B
:103090006113C1F200031B78DBB21A4640F28013C1
:1030A000C1F20003F979995440F26013C1F20003B0
:1030B0004FF001021A7040F2FF03C1F200034FF01B
:1030C00000021A7040F2F403C1F200034FF0010253
:1030D0001A7040F26113C1F200031B78DBB203F1F6
:1030E0000103DAB240F26113C1F200031A7051E039
:1030F00040F26013C1F200031B78DBB2002B49D011
:1031000040F26113C1F200031B78DBB21A4640F2B1
:103110008013C1F20003F9799954FB790A2B2BD162
:1031200040F26113C1F200031B78DBB203F1FF32FE
:1031300040F28013C1F200039B5CDBB20D2B1BD16C
:1031400040F26113C1F200034FF000021A7040F226
:103150006013C1F200034FF000021A7040F2F40352
:10316000C1F200034FF001021A7040F2DA03C1F21B
:1031700000034FF001021A7040F26113C1F2000324
:103180001B78DBB203F10103DAB240F26113C1F242
:1031900000031A7007F10C07BD4680BC704700BFE2
:1031A00080B584B000AF02460B46FA71BB714FF098
:1031B0000003FB7340F26803C1F200031B78092B84
:1031C0000CD140F2CD03C1F20003BA791A7040F27B
:1031D000CF03C1F200034FF001021A7040F26803FE
:1031E000C1F200031B78082B0CD140F2CC03C1F2D2
:1031F0000003BA791A7040F26803C1F200034FF07D
:1032000009021A7040F26803C1F200031B78072B11
:103210000CD140F2CB03C1F20003BA791A7040F22C
:103220006803C1F200034FF008021A7040F268030D
:10323000C1F200031B78062B0CD140F2CA03C1F285
:103240000003BA791A7040F26803C1F200034FF02C
:1032500007021A7040F26803C1F200031B78052BC5
:103260006CD140F2C803C1F200031B78DBB21E2B05
:103270001BD1BB79002B18D0BB79202B15D840F27D
:10328000CE03C1F200031B78DBB2002B0DD140F25C
:10329000CA03C1F20003BA791A7040F2CE03C1F238
:1032A00000034FF001021A7048E040F2CE03C1F271
:1032B00000031B78DBB2012B0ED140F26803C1F290
:1032C00000034FF001021A7040F2CE03C1F2000376
:1032D0004FF000021A7031E040F2C803C1F200035F
:1032E0001B78DBB2812B07D040F2C803C1F2000388
:1032F0001B78DBB2822B0DD140F2C903C1F200036F
:10330000BA791A7040F26803C1F200034FF0060266
:103310001A7013E040F2CF03C1F200034FF0010234
:103320001A7040F2C903C1F20003BA791A7040F270
:103330006803C1F200034FF005021A7040F26803FF
:10334000C1F200031B78042B0CD140F2C803C1F278
:103350000003BA791A7040F26803C1F200034FF01B
:1033600005021A7040F26803C1F200031B78032BB8
:1033700011D1BB79582B07D140F26803C1F2000389
:103380004FF004021A7006E040F26803C1F2000335
:103390004FF001021A7040F26803C1F200031B787B
:1033A000022B11D1BB79452B07D140F26803C1F242
:1033B00000034FF003021A7006E040F26803C1F206
:1033C00000034FF001021A7040F26803C1F20003DB
:1033D0001B78012B09D1BB794E2B06D140F2680333
:1033E000C1F200034FF002021A7040F2CF03C1F2A3
:1033F00000031B78DBB2002B02F0338440F2C803D9
:10340000C1F200031B78DBB203F1FF33FB2B02F2A6
:10341000078401A252F823F009380000B3380000F5
:10342000215C00005D390000073A00000D410000FA
:103430004341000079410000AF41000031430000EA
:10344000215C0000215C0000215C0000215C000088
:10345000215C0000E14500001D480000594A0000C1
:10346000215C0000215C0000215C0000215C000068
:10347000215C0000215C0000215C0000215C000058
:10348000215C0000215C0000215C0000215C000048
:10349000215C0000954C00002F4D0000C94D00003C
:1034A000634E0000374F0000215C0000215C0000EB
:1034B000215C0000215C0000215C0000215C000018
:1034C000215C0000215C0000215C0000215C000008
:1034D000215C0000215C0000215C0000215C0000F8
:1034E000215C0000215C0000215C0000215C0000E8
:1034F000215C0000215C0000215C0000215C0000D8
:10350000215C0000215C0000215C0000215C0000C7
:10351000215C0000215C0000215C0000215C0000B7
:10352000215C0000215C0000215C0000215C0000A7
:10353000215C0000215C0000215C0000215C000097
:10354000215C0000215C0000215C0000215C000087
:10355000215C0000215C0000215C0000215C000077
:10356000215C0000215C0000215C0000215C000067
:10357000215C0000215C0000215C0000215C000057
:10358000215C0000215C0000215C0000215C000047
:10359000215C0000215C0000215C0000215C000037
:1035A000215C0000215C0000215C0000215C000027
:1035B000215C0000215C0000215C0000215C000017
:1035C000215C0000215C0000215C0000215C000007
:1035D000215C0000215C0000215C0000215C0000F7
:1035E000215C0000215C0000215C0000215C0000E7
:1035F000215C0000215C0000215C0000215C0000D7
:10360000215C0000215C0000215C0000215C0000C6
:10361000215C0000215C0000215C0000215C0000B6
:10362000215C0000215C0000215C0000215C0000A6
:10363000215C0000215C0000215C0000215C000096
:10364000215C000071520000215C0000215C000040
:10365000215C000083520000AB5200003153000097
:10366000275400001B550000035600001B560000A5
:103670003356000085570000AB5700004558000046
:10368000DF580000215C0000215C0000215C00008C
:10369000215C0000215C0000215C0000215C000036
:1036A000215C0000215C0000215C0000215C000026
:1036B000215C0000215C0000215C000079590000C1
:1036C000135A0000215C0000215C0000215C000016
:1036D000215C0000215C0000215C0000215C0000F6
:1036E000215C0000215C0000215C0000215C0000E6
:1036F000215C0000215C0000215C0000215C0000D6
:10370000215C0000215C0000215C0000215C0000C5
:10371000215C0000215C0000215C0000215C0000B5
:10372000215C0000215C0000215C0000215C0000A5
:10373000215C0000215C0000215C0000215C000095
:10374000215C0000215C0000215C0000215C000085
:10375000215C0000215C0000215C0000215C000075
:10376000215C0000215C0000215C0000215C000065
:10377000215C0000215C0000215C0000215C000055
:10378000215C0000215C0000215C0000215C000045
:10379000215C0000215C0000215C0000215C000035
:1037A000215C0000215C0000215C0000215C000025
:1037B000215C0000215C0000215C0000215C000015
:1037C000215C0000215C0000215C0000215C000005
:1037D000215C0000215C0000215C0000215C0000F5
:1037E000215C0000215C0000215C0000215C0000E5
:1037F000215C0000215C0000215C0000AD5A00004B
:10380000295B0000A55B000040F2F843C1F2000311
:103810004FF046021A7040F2F843C1F200034FF035
:1038200042025A7040F2F843C1F200034FF04402E2
:103830009A7040F2C803C1F200031B78DAB240F27A
:10384000F843C1F20003DA7040F2C903C1F2000389
:103850001B78DAB240F2F843C1F200031A7140F269
:10386000C903C1F200031B78DBB203F1FF3240F25F
:103870000003C1F200039A5C40F2F843C1F2000376
:103880005A7140F2D003C1F200034FF006021A70E1
:10389000FA7940F2D003C1F200031B78DBB2104684
:1038A00040F2F841C1F200011A46FFF70BFB02F0AB
:1038B000CAB940F2F843C1F200034FF046021A7051
:1038C00040F2F843C1F200034FF042025A7040F256
:1038D000F843C1F200034FF044029A7040F2C8036B
:1038E000C1F200031B78DAB240F2F843C1F20003E0
:1038F000DA7040F2C903C1F200031B78DAB240F279
:10390000F843C1F200031A7140F2C903C1F2000387
:103910001B78DBB203F1FF3240F21003C1F2000367
:103920009A5C40F2F843C1F200035A7140F2D003AE
:10393000C1F200034FF006021A70FA7940F2D00388
:10394000C1F200031B78DBB2104640F2F841C1F22D
:1039500000011A46FFF7B6FA02F075B940F2F843D3
:10396000C1F200034FF046021A7040F2F843C1F270
:1039700000034FF042025A7040F2F843C1F20003D4
:103980004FF044029A7040F2C803C1F200031B7862
:10399000DAB240F2F843C1F20003DA7040F2C90330
:1039A000C1F200031B78DAB240F2F843C1F200031F
:1039B0001A7140F2C903C1F200031B78DBB203F1B4
:1039C000FF3240F20803C1F200039A5C40F2F84370
:1039D000C1F200035A7140F2D003C1F200034FF06C
:1039E00006021A70FA7940F2D003C1F200031B7884
:1039F000DBB2104640F2F841C1F200011A46FFF76F
:103A000061FA02F020B940F2C903C1F200031B7849
:103A1000DBB2012B5BD140F2F843C1F200034FF05F
:103A200046021A7040F2F843C1F200034FF042021E
:103A30005A7040F2F843C1F200034FF044029A700A
:103A400040F2C803C1F200031B78DAB240F2F84337
:103A5000C1F20003DA7040F2C903C1F200031B781F
:103A6000DAB240F2F843C1F200031A714FF00003DA
:103A7000FB7311E0FB7B03F10502F97B40F20003CD
:103A8000C1F20003595C40F2F843C1F200039954BB
:103A9000FB7B03F10103FB73FB7B072BEAD940F2AD
:103AA000D003C1F200034FF00D021A70FA7940F210
:103AB000D003C1F200031B78DBB2104640F2F8419C
:103AC000C1F200011A46FFF7FDF902F0BCB840F25E
:103AD000C903C1F200031B78DBB2022B5BD140F2B9
:103AE000F843C1F200034FF046021A7040F2F84367
:103AF000C1F200034FF042025A7040F2F843C1F2A3
:103B000000034FF044029A7040F2C803C1F2000370
:103B10001B78DAB240F2F843C1F20003DA7040F2E7
:103B2000C903C1F200031B78DAB240F2F843C1F2D4
:103B300000031A714FF00003FB7311E0FB7B03F1EC
:103B40000502F97B40F21003C1F20003595C40F218
:103B5000F843C1F200039954FB7B03F10103FB73AB
:103B6000FB7B072BEAD940F2D003C1F200034FF0F0
:103B70000D021A70FA7940F2D003C1F200031B78EB
:103B8000DBB2104640F2F841C1F200011A46FFF7DD
:103B900099F902F058B840F2C903C1F200031B784A
:103BA000DBB2042B5BD140F2F843C1F200034FF0CB
:103BB00046021A7040F2F843C1F200034FF042028D
:103BC0005A7040F2F843C1F200034FF044029A7079
:103BD00040F2C803C1F200031B78DAB240F2F843A6
:103BE000C1F20003DA7040F2C903C1F200031B788E
:103BF000DAB240F2F843C1F200031A714FF0000349
:103C0000FB7311E0FB7B03F10502F97B40F2080333
:103C1000C1F20003595C40F2F843C1F20003995429
:103C2000FB7B03F10103FB73FB7B072BEAD940F21B
:103C3000D003C1F200034FF00D021A70FA7940F27E
:103C4000D003C1F200031B78DBB2104640F2F8410A
:103C5000C1F200011A46FFF735F901F0F4BF40F256
:103C6000C903C1F200031B78DBB2052B5BD140F224
:103C7000F843C1F200034FF046021A7040F2F843D5
:103C8000C1F200034FF042025A7040F2F843C1F211
:103C900000034FF044029A7040F2C803C1F20003DF
:103CA0001B78DAB240F2F843C1F20003DA7040F256
:103CB000C903C1F200031B78DAB240F2F843C1F243
:103CC00000031A714FF00003FB7311E0FB7B03F15B
:103CD0000502F97B40F21803C1F20003595C40F27F
:103CE000F843C1F200039954FB7B03F10103FB731A
:103CF000FB7B052BEAD940F2D003C1F200034FF061
:103D00000B021A70FA7940F2D003C1F200031B785B
:103D1000DBB2104640F2F841C1F200011A46FFF74B
:103D2000D1F801F090BF40F2C903C1F200031B7843
:103D3000DBB2062B5BD140F2F843C1F200034FF037
:103D400046021A7040F2F843C1F200034FF04202FB
:103D50005A7040F2F843C1F200034FF044029A70E7
:103D600040F2C803C1F200031B78DAB240F2F84314
:103D7000C1F20003DA7040F2C903C1F200031B78FC
:103D8000DAB240F2F843C1F200031A714FF00003B7
:103D9000FB7311E0FB7B03F10502F97B40F220038A
:103DA000C1F20003595C40F2F843C1F20003995498
:103DB000FB7B03F10103FB73FB7B052BEAD940F28C
:103DC000D003C1F200034FF00B021A70FA7940F2EF
:103DD000D003C1F200031B78DBB2104640F2F84179
:103DE000C1F200011A46FFF76DF801F02CBF40F256
:103DF000C903C1F200031B78DBB2072B5BD140F291
:103E0000F843C1F200034FF046021A7040F2F84343
:103E1000C1F200034FF042025A7040F2F843C1F27F
:103E200000034FF044029A7040F2C803C1F200034D
:103E30001B78DAB240F2F843C1F20003DA7040F2C4
:103E4000C903C1F200031B78DAB240F2F843C1F2B1
:103E500000031A714FF00003FB7311E0FB7B03F1C9
:103E60000502F97B40F22803C1F20003595C40F2DD
:103E7000F843C1F200039954FB7B03F10103FB7388
:103E8000FB7B052BEAD940F2D003C1F200034FF0CF
:103E90000B021A70FA7940F2D003C1F200031B78CA
:103EA000DBB2104640F2F841C1F200011A46FFF7BA
:103EB00009F801F0C8BE40F2C903C1F200031B7843
:103EC000DBB2082B5BD140F2F843C1F200034FF0A4
:103ED00046021A7040F2F843C1F200034FF042026A
:103EE0005A7040F2F843C1F200034FF044029A7056
:103EF00040F2C803C1F200031B78DAB240F2F84383
:103F0000C1F20003DA7040F2C903C1F200031B786A
:103F1000DAB240F2F843C1F200031A714FF0000325
:103F2000FB7311E0FB7B03F10502F97B40F23C03DC
:103F3000C1F20003595C40F2F843C1F20003995406
:103F4000FB7B03F10103FB73FB7B0F2BEAD940F2F0
:103F5000D003C1F200034FF015021A70FA7940F253
:103F6000D003C1F200031B78DBB2104640F2F841E7
:103F7000C1F200011A46FEF7A5FF01F064BE40F24F
:103F8000C903C1F200031B78DBB2092B5AD140F2FE
:103F9000F843C1F200034FF046021A7040F2F843B2
:103FA000C1F200034FF042025A7040F2F843C1F2EE
:103FB00000034FF044029A7040F2C803C1F20003BC
:103FC0001B78DAB240F2F843C1F20003DA7040F233
:103FD000C903C1F200031B78DAB240F2F843C1F220
:103FE00000031A7140F26C03C1F200031B68DAB2DD
:103FF00040F2F843C1F200035A7140F26C03C1F27F
:1040000000031B684FEA1323DAB240F2F843C1F20F
:1040100000039A7140F2D003C1F200034FF007028F
:104020001A70FA7940F2D003C1F200031B78DBB2B8
:10403000104640F2F841C1F200011A46FEF742FF75
:1040400001F001BE40F2C903C1F200031B78DBB2EC
:104050000A2B41F0E78540F2F843C1F200034FF02C
:1040600046021A7040F2F843C1F200034FF04202D8
:104070005A7040F2F843C1F200034FF044029A70C4
:1040800040F2C803C1F200031B78DAB240F2F843F1
:10409000C1F20003DA7040F2C903C1F200031B78D9
:1040A000DAB240F2F843C1F200031A7140F2700331
:1040B000C1F200031B68DAB240F2F843C1F2000318
:1040C0005A7140F27003C1F200031B684FEA1323D8
:1040D000DAB240F2F843C1F200039A7140F2D00321
:1040E000C1F200034FF007021A70FA7940F2D003D0
:1040F000C1F200031B78DBB2104640F2F841C1F276
:1041000000011A46FEF7DEFE01F09DBD40F2C90334
:10411000C1F200031B78DAB240F27703C1F2000368
:104120001A7040F2E103C1F200034FF001021A706D
:1041300040F2E203C1F200034FF001021A7001F0F5
:1041400082BD40F2C903C1F200031B78DAB240F22B
:104150007803C1F200031A7040F2E103C1F20003D8
:104160004FF001021A7040F2E203C1F200034FF077
:1041700002021A7001F067BD40F2C903C1F20003E8
:104180001B78DAB240F27903C1F200031A7040F2F0
:10419000E103C1F200034FF001021A7040F2E203A2
:1041A000C1F200034FF003021A7001F04CBD40F25F
:1041B000C903C1F200031B78DBB2012B0FD140F21F
:1041C000DB03C1F200034FF001021A7040F2DE037C
:1041D000C1F200034FF001021A7001F034BD40F249
:1041E000C903C1F200031B78DBB2022B0FD140F2EE
:1041F000DB03C1F200034FF001021A7040F2DE034C
:10420000C1F200034FF000021A7001F01CBD40F231
:10421000C903C1F200031B78DBB2032B0FD140F2BC
:10422000DC03C1F200034FF001021A7040F2DF0319
:10423000C1F200034FF001021A7001F004BD40F218
:10424000C903C1F200031B78DBB2042B0FD140F28B
:10425000DC03C1F200034FF001021A7040F2DF03E9
:10426000C1F200034FF000021A7001F0ECBC40F202
:10427000C903C1F200031B78DBB2052B0FD140F25A
:10428000DD03C1F200034FF001021A7040F2E003B7
:10429000C1F200034FF001021A7001F0D4BC40F2E9
:1042A000C903C1F200031B78DBB2062B0FD140F229
:1042B000DD03C1F200034FF001021A7040F2E00387
:1042C000C1F200034FF000021A7001F0BCBC40F2D2
:1042D000C903C1F200031B78DBB2072B0FD14CF2EC
:1042E0002003C2F209034FF000529A6140F27603B4
:1042F000C1F200034FF001021A7001F0A4BC40F2B9
:10430000C903C1F200031B78DBB2082B41F08C8497
:104310004CF22003C2F209034FF00052DA6140F27E
:104320007603C1F200034FF000021A7001F08BBC5B
:1043300040F2C903C1F200031B78DBB2012B4DD15F
:1043400040F2F843C1F200034FF046021A7040F207
:10435000F843C1F200034FF042025A7040F2F843B2
:10436000C1F200034FF044029A7040F2C803C1F258
:1043700000031B78DAB240F2F843C1F20003DA70AE
:1043800040F2C903C1F200031B78DAB240F2F843ED
:10439000C1F200031A7140F2DE03C1F200031B7880
:1043A000DAB240F2F843C1F200035A7140F2D0038E
:1043B000C1F200034FF006021A70FA7940F2D003FE
:1043C000C1F200031B78DBB2104640F2F841C1F2A3
:1043D00000011A46FEF776FD01F035BC40F2C90334
:1043E000C1F200031B78DBB2022B4DD140F2F8433F
:1043F000C1F200034FF046021A7040F2F843C1F2D6
:1044000000034FF042025A7040F2F843C1F2000339
:104410004FF044029A7040F2C803C1F200031B78C7
:10442000DAB240F2F843C1F20003DA7040F2C90395
:10443000C1F200031B78DAB240F2F843C1F2000384
:104440001A7140F2DF03C1F200031B78DAB240F2C6
:10445000F843C1F200035A7140F2D003C1F20003E5
:104460004FF006021A70FA7940F2D003C1F200034D
:104470001B78DBB2104640F2F841C1F200011A4647
:10448000FEF720FD01F0DFBB40F2C903C1F20003DB
:104490001B78DBB2032B4DD140F2F843C1F200038D
:1044A0004FF046021A7040F2F843C1F200034FF099
:1044B00042025A7040F2F843C1F200034FF0440246
:1044C0009A7040F2C803C1F200031B78DAB240F2DE
:1044D000F843C1F20003DA7040F2C903C1F20003ED
:1044E0001B78DAB240F2F843C1F200031A7140F2CD
:1044F000E003C1F200031B78DAB240F2F843C1F2E4
:1045000000035A7140F2D003C1F200034FF00602DB
:104510001A70FA7940F2D003C1F200031B78DBB2C3
:10452000104640F2F841C1F200011A46FEF7CAFCFB
:1045300001F089BB40F2C903C1F200031B78DBB272
:10454000042B41F0738340F2F843C1F200034FF0B3
:1045500046021A7040F2F843C1F200034FF04202E3
:104560005A7040F2F843C1F200034FF044029A70CF
:1045700040F2C803C1F200031B78DAB240F2F843FC
:10458000C1F20003DA7040F2C903C1F200031B78E4
:10459000DAB240F2F843C1F200031A7140F2760336
:1045A000C1F200031A7840F2F843C1F200035A71D5
:1045B00040F2D003C1F200034FF006021A70FA79FC
:1045C00040F2D003C1F200031B78DBB2104640F288
:1045D000F841C1F200011A46FEF774FC01F033BB4A
:1045E00040F2C903C1F200031B78DBB2012B56D1A4
:1045F00040F2F843C1F200034FF046021A7040F255
:10460000F843C1F200034FF042025A7040F2F843FF
:10461000C1F200034FF044029A7040F2C803C1F2A5
:1046200000031B78DAB240F2F843C1F20003DA70FB
:1046300040F2C903C1F200031B78DAB240F2F8433A
:10464000C1F200031A7140F21803C1F200031A7894
:1046500040F2F843C1F200035A7140F21803C1F26C
:1046600000035A7840F2F843C1F200039A7140F215
:10467000D003C1F200034FF007021A70FA7940F23A
:10468000D003C1F200031B78DBB2104640F2F841C0
:10469000C1F200011A46FEF715FC01F0D4BA40F24F
:1046A000C903C1F200031B78DBB2022B56D140F2E2
:1046B000F843C1F200034FF046021A7040F2F8438B
:1046C000C1F200034FF042025A7040F2F843C1F2C7
:1046D00000034FF044029A7040F2C803C1F2000395
:1046E0001B78DAB240F2F843C1F20003DA7040F20C
:1046F000C903C1F200031B78DAB240F2F843C1F2F9
:1047000000031A7140F21803C1F200039A7840F2D4
:10471000F843C1F200035A7140F21803C1F20003DA
:10472000DA7840F2F843C1F200039A7140F2D00304
:10473000C1F200034FF007021A70FA7940F2D00379
:10474000C1F200031B78DBB2104640F2F841C1F21F
:1047500000011A46FEF7B6FB01F075BA40F2C90334
:10476000C1F200031B78DBB2032B41F0618240F2FF
:10477000F843C1F200034FF046021A7040F2F843CA
:10478000C1F200034FF042025A7040F2F843C1F206
:1047900000034FF044029A7040F2C803C1F20003D4
:1047A0001B78DAB240F2F843C1F20003DA7040F24B
:1047B000C903C1F200031B78DAB240F2F843C1F238
:1047C00000031A7140F21803C1F200031A7940F293
:1047D000F843C1F200035A7140F21803C1F200031A
:1047E0005A7940F2F843C1F200039A7140F2D003C3
:1047F000C1F200034FF007021A70FA7940F2D003B9
:10480000C1F200031B78DBB2104640F2F841C1F25E
:1048100000011A46FEF756FB01F015BA40F2C90333
:10482000C1F200031B78DBB2012B56D140F2F843F2
:10483000C1F200034FF046021A7040F2F843C1F291
:1048400000034FF042025A7040F2F843C1F20003F5
:104850004FF044029A7040F2C803C1F200031B7883
:10486000DAB240F2F843C1F20003DA7040F2C90351
:10487000C1F200031B78DAB240F2F843C1F2000340
:104880001A7140F22003C1F200031A7840F2F84393
:10489000C1F200035A7140F22003C1F200035A78BA
:1048A00040F2F843C1F200039A7140F2D003C1F222
:1048B00000034FF007021A70FA7940F2D003C1F2F8
:1048C00000031B78DBB2104640F2F841C1F2000150
:1048D0001A46FEF7F7FA01F0B6B940F2C903C1F281
:1048E00000031B78DBB2022B56D140F2F843C1F231
:1048F00000034FF046021A7040F2F843C1F2000381
:104900004FF042025A7040F2F843C1F200034FF0F8
:1049100044029A7040F2C803C1F200031B78DAB275
:1049200040F2F843C1F20003DA7040F2C903C1F269
:1049300000031B78DAB240F2F843C1F200031A71A7
:1049400040F22003C1F200039A7840F2F843C1F22A
:1049500000035A7140F22003C1F20003DA7840F2FA
:10496000F843C1F200039A7140F2D003C1F2000390
:104970004FF007021A70FA7940F2D003C1F2000337
:104980001B78DBB2104640F2F841C1F200011A4632
:10499000FEF798FA01F057B940F2C903C1F20003DB
:1049A0001B78DBB2032B41F0458140F2F843C1F2A2
:1049B00000034FF046021A7040F2F843C1F20003C0
:1049C0004FF042025A7040F2F843C1F200034FF038
:1049D00044029A7040F2C803C1F200031B78DAB2B5
:1049E00040F2F843C1F20003DA7040F2C903C1F2A9
:1049F00000031B78DAB240F2F843C1F200031A71E7
:104A000040F22003C1F200031A7940F2F843C1F2E8
:104A100000035A7140F22003C1F200035A7940F2B8
:104A2000F843C1F200039A7140F2D003C1F20003CF
:104A30004FF007021A70FA7940F2D003C1F2000376
:104A40001B78DBB2104640F2F841C1F200011A4671
:104A5000FEF738FA01F0F7B840F2C903C1F20003DB
:104A60001B78DBB2012B56D140F2F843C1F20003B0
:104A70004FF046021A7040F2F843C1F200034FF0C3
:104A800042025A7040F2F843C1F200034FF0440270
:104A90009A7040F2C803C1F200031B78DAB240F208
:104AA000F843C1F20003DA7040F2C903C1F2000317
:104AB0001B78DAB240F2F843C1F200031A7140F2F7
:104AC0002803C1F200031A7840F2F843C1F2000350
:104AD0005A7140F22803C1F200035A7840F2F843B9
:104AE000C1F200039A7140F2D003C1F200034FF00B
:104AF00007021A70FA7940F2D003C1F200031B7862
:104B0000DBB2104640F2F841C1F200011A46FEF74E
:104B1000D9F901F098B840F2C903C1F200031B783B
:104B2000DBB2022B56D140F2F843C1F200034FF042
:104B300046021A7040F2F843C1F200034FF04202FD
:104B40005A7040F2F843C1F200034FF044029A70E9
:104B500040F2C803C1F200031B78DAB240F2F84316
:104B6000C1F20003DA7040F2C903C1F200031B78FE
:104B7000DAB240F2F843C1F200031A7140F228039E
:104B8000C1F200039A7840F2F843C1F200035A716F
:104B900040F22803C1F20003DA7840F2F843C1F290
:104BA00000039A7140F2D003C1F200034FF00702F4
:104BB0001A70FA7940F2D003C1F200031B78DBB21D
:104BC000104640F2F841C1F200011A46FEF77AF9A8
:104BD00001F039B840F2C903C1F200031B78DBB21F
:104BE000032B41F0298040F2F843C1F200034FF05B
:104BF00046021A7040F2F843C1F200034FF042023D
:104C00005A7040F2F843C1F200034FF044029A7028
:104C100040F2C803C1F200031B78DAB240F2F84355
:104C2000C1F20003DA7040F2C903C1F200031B783D
:104C3000DAB240F2F843C1F200031A7140F22803DD
:104C4000C1F200031A7940F2F843C1F200035A712D
:104C500040F22803C1F200035A7940F2F843C1F24E
:104C600000039A7140F2D003C1F200034FF0070233
:104C70001A70FA7940F2D003C1F200031B78DBB25C
:104C8000104640F2F841C1F200011A46FEF71AF947
:104C900000F0D9BF40F2F843C1F200034FF04602E2
:104CA0001A7040F2F843C1F200034FF042025A700A
:104CB00040F2F843C1F200034FF044029A7040F210
:104CC000C803C1F200031B78DAB240F2F843C1F224
:104CD0000003DA7040F2C903C1F200031B78DAB2B4
:104CE00040F2F843C1F200031A7140F23003C1F2FE
:104CF00000031A7840F2F843C1F200035A7140F2FF
:104D0000D003C1F200034FF006021A70FA7940F2A4
:104D1000D003C1F200031B78DBB2104640F2F84129
:104D2000C1F200011A46FEF7CDF800F08CBF40F248
:104D3000F843C1F200034FF046021A7040F2F84304
:104D4000C1F200034FF042025A7040F2F843C1F240
:104D500000034FF044029A7040F2C803C1F200030E
:104D60001B78DAB240F2F843C1F20003DA7040F285
:104D7000C903C1F200031B78DAB240F2F843C1F272
:104D800000031A7140F23003C1F200035A7840F276
:104D9000F843C1F200035A7140F2D003C1F200039C
:104DA0004FF006021A70FA7940F2D003C1F2000304
:104DB0001B78DBB2104640F2F841C1F200011A46FE
:104DC000FEF780F800F03FBF40F2F843C1F2000365
:104DD0004FF046021A7040F2F843C1F200034FF060
:104DE00042025A7040F2F843C1F200034FF044020D
:104DF0009A7040F2C803C1F200031B78DAB240F2A5
:104E0000F843C1F20003DA7040F2C903C1F20003B3
:104E10001B78DAB240F2F843C1F200031A7140F293
:104E20003003C1F200039A7840F2F843C1F2000364
:104E30005A7140F2D003C1F200034FF006021A701B
:104E4000FA7940F2D003C1F200031B78DBB21046BE
:104E500040F2F841C1F200011A46FEF733F800F0C3
:104E6000F2BE40F2C903C1F200031B78DBB2002B93
:104E700040F0E48640F2F843C1F200034FF04602EE
:104E80001A7040F2F843C1F200034FF042025A7028
:104E900040F2F843C1F200034FF044029A7040F22E
:104EA000C803C1F200031B78DAB240F2F843C1F242
:104EB0000003DA7040F2C903C1F200031B78DAB2D2
:104EC00040F2F843C1F200031A7140F23003C1F21C
:104ED00000031A7840F2F843C1F200035A7140F21D
:104EE0003003C1F200035A7840F2F843C1F20003E4
:104EF0009A7140F23003C1F200039A7840F2F8430D
:104F0000C1F20003DA7140F2D003C1F200034FF0A6
:104F100008021A70FA7940F2D003C1F200031B783C
:104F2000DBB2104640F2F841C1F200011A46FDF72B
:104F3000C9FF00F088BE40F2F843C1F200034FF011
:104F400046021A7040F2F843C1F200034FF04202E9
:104F50005A7040F2F843C1F200034FF044029A70D5
:104F600040F2C803C1F200031B78DAB240F2F84302
:104F7000C1F20003DA7040F2C903C1F200031B78EA
:104F8000DAB240F2F843C1F200031A714FF00003A5
:104F9000FB7311E0FB7B03F10502F97B40F2000398
:104FA000C1F20003595C40F2F843C1F20003995486
:104FB000FB7B03F10103FB73FB7B072BEAD940F278
:104FC000D003C1F200034FF005021A704FF0000346
:104FD000FB7311E0FB7B03F10D02F97B40F2100340
:104FE000C1F20003595C40F2F843C1F20003995446
:104FF000FB7B03F10103FB73FB7B072BEAD940F238
:10500000D003C1F200031B78DBB203F10D03DAB267
:1050100040F2D003C1F200031A704FF00003FB739B
:1050200011E0FB7B03F11502F97B40F20803C1F2AA
:105030000003595C40F2F843C1F200039954FB7B32
:1050400003F10103FB73FB7B072BEAD940F2D0038A
:10505000C1F200031B78DBB203F11503DAB240F2B0
:10506000D003C1F200031A704FF00003FB7311E08C
:10507000FB7B03F11D02F97B40F21803C1F2000330
:10508000595C40F2F843C1F200039954FB7B03F1F1
:105090000103FB73FB7B052BEAD940F2D003C1F27D
:1050A00000031B78DBB203F11D03DAB240F2D00338
:1050B000C1F200031A704FF00003FB7311E0FB7B99
:1050C00003F12302F97B40F22003C1F20003595C93
:1050D00040F2F843C1F200039954FB7B03F1010352
:1050E000FB73FB7B052BEAD940F2D003C1F200032E
:1050F0001B78DBB203F12303DAB240F2D003C1F232
:1051000000031A704FF00003FB7311E0FB7B03F107
:105110002902F97B40F22803C1F20003595C40F2F6
:10512000F843C1F200039954FB7B03F10103FB73C5
:10513000FB7B052BEAD940F2D003C1F200031B78B8
:10514000DBB203F12903DAB240F2D003C1F200036B
:105150001A7040F26C03C1F200031B68DAB240F22D
:10516000F843C1F2000383F82F2040F26C03C1F230
:1051700000031B684FEA1323DAB240F2F843C1F28E
:10518000000383F8302040F2D003C1F200031B7803
:10519000DBB203F12F03DAB240F2D003C1F2000315
:1051A0001A7040F27003C1F200031B68DAB240F2D9
:1051B000F843C1F2000383F8312040F27003C1F2DA
:1051C00000031B684FEA1323DAB240F2F843C1F23E
:1051D000000383F8322040F2D003C1F200031B78B1
:1051E000DBB203F13103DAB240F2D003C1F20003C3
:1051F0001A704FF00003FB7311E0FB7B03F13302E5
:10520000F97B40F23003C1F20003595C40F2F843ED
:10521000C1F200039954FB7B03F10103FB73FB7B99
:10522000022BEAD940F2D003C1F200031B78DBB2B3
:1052300003F13303DAB240F2D003C1F200031A7073
:1052400040F2D003C1F200034FF036021A70FA792F
:1052500040F2D003C1F200031B78DBB2104640F2EB
:10526000F841C1F200011A46FDF72CFE00F0EBBC3C
:1052700040F27403C1F200034FF001021A7000F013
:10528000E2BC40F2C903C1F200031B78DAB240F27B
:10529000E403C1F200031A7040F27503C1F2000387
:1052A0004FF001021A7000F0CEBC40F2F843C1F298
:1052B00000034FF046021A7040F2F843C1F20003B7
:1052C0004FF042025A7040F2F843C1F200034FF02F
:1052D00044029A7040F2C803C1F200031B78DAB2AC
:1052E00040F2F843C1F20003DA7040F2E403C1F285
:1052F00000031B78DAB240F2F843C1F200031A71DE
:1053000040F2D003C1F200034FF005021A70FA799F
:1053100040F2D003C1F200031B78DBB2104640F22A
:10532000F841C1F200011A46FDF7CCFD00F08BBC3C
:1053300040F2EC03C1F200031A6840F2D403C1F258
:1053400000031A6040F2F843C1F200034FF0460236
:105350001A7040F2F843C1F200034FF042025A7053
:1053600040F2F843C1F200034FF044029A7040F259
:10537000C803C1F200031B78DAB240F2F843C1F26D
:105380000003DA7040F2F843C1F200034FF000026C
:105390001A7140F2D403C1F200031B684FEA136391
:1053A000DAB240F2F843C1F200035A7140F2D4037A
:1053B000C1F200031B684FEA2343DAB240F2F8431C
:1053C000C1F200039A7140F2D403C1F200031B68DA
:1053D0004FEA2323DAB240F2F843C1F20003DA7154
:1053E00040F2D403C1F200031B68DAB240F2F84382
:1053F000C1F200031A7240F2D003C1F200034FF071
:1054000009021A70FA7940F2D003C1F200031B7846
:10541000DBB2104640F2F841C1F200011A46FDF736
:1054200051FD00F010BC40F2E803C1F200031A681D
:1054300040F2D403C1F200031A6040F2F843C1F213
:1054400000034FF046021A7040F2F843C1F2000325
:105450004FF042025A7040F2F843C1F200034FF09D
:1054600044029A7040F2C803C1F200031B78DAB21A
:1054700040F2F843C1F20003DA7040F2F843C1F29F
:1054800000034FF000021A7140F2D403C1F200038E
:105490001B684FEA1363DAB240F2F843C1F200032B
:1054A0005A7140F2D403C1F200031B684FEA234350
:1054B000DAB240F2F843C1F200039A7140F2D40329
:1054C000C1F200031B684FEA2323DAB240F2F8432B
:1054D000C1F20003DA7140F2D403C1F200031B6889
:1054E000DAB240F2F843C1F200031A7240F2D0037C
:1054F000C1F200034FF009021A70FA7940F2D003AA
:10550000C1F200031B78DBB2104640F2F841C1F251
:1055100000011A46FDF7D6FC95E340F2C903C1F23B
:1055200000031B78DBB2012B0ED140F2B303C1F2B2
:1055300000034FF001021A7040F2B203C1F20003FF
:105540004FF001021A707EE340F2C903C1F200037A
:105550001B78DBB2022B0ED140F2B303C1F2000381
:105560004FF002021A7040F2B203C1F200034FF092
:1055700001021A7067E340F2C903C1F200031B780D
:10558000DBB2032B0ED140F2B303C1F200034FF0A4
:1055900004021A7040F2B203C1F200034FF001029C
:1055A0001A7050E340F2C903C1F200031B78DBB26A
:1055B000042B0ED140F2B303C1F200034FF00302FB
:1055C0001A7040F2B203C1F200034FF001021A70E8
:1055D00039E340F2C903C1F200031B78DBB2062BAA
:1055E00040F02E8340F2B303C1F200034FF00602F5
:1055F0001A7040F2B203C1F200034FF001021A70B8
:1056000021E340F2C903C1F200031B78DAB240F291
:10561000B003C1F200031A7015E340F2C903C1F2EE
:1056200000031B78DAB240F2B103C1F200031A7032
:1056300009E340F2C903C1F200031B78DBB2012B7E
:105640004BD140F2F843C1F200034FF046021A700A
:1056500040F2F843C1F200034FF042025A7040F2A8
:10566000F843C1F200034FF044029A7040F2C803BD
:10567000C1F200031B78DAB240F2F843C1F2000332
:10568000DA7040F2C903C1F200031B78DAB240F2CB
:10569000F843C1F200031A7140F23803C1F200036B
:1056A0001A7840F2F843C1F200035A7140F2D00375
:1056B000C1F200034FF006021A70FA7940F2D003EB
:1056C000C1F200031B78DBB2104640F2F841C1F290
:1056D00000011A46FDF7F6FBB5E240F2C903C1F23C
:1056E00000031B78DBB2022B40F0AC8240F2F8439F
:1056F000C1F200034FF046021A7040F2F843C1F2C3
:1057000000034FF042025A7040F2F843C1F2000326
:105710004FF044029A7040F2C803C1F200031B78B4
:10572000DAB240F2F843C1F20003DA7040F2C90382
:10573000C1F200031B78DAB240F2F843C1F2000371
:105740001A7140F23903C1F200031A7840F2F843AB
:10575000C1F200035A7140F2D003C1F200034FF0CE
:1057600006021A70FA7940F2D003C1F200031B78E6
:10577000DBB2104640F2F841C1F200011A46FDF7D3
:10578000A1FB60E240F2B403C1F200034FF001025A
:105790001A7040F2C903C1F200031B78DAB240F27A
:1057A000B503C1F200031A704DE240F2F843C1F2B2
:1057B00000034FF046021A7040F2F843C1F20003B2
:1057C0004FF042025A7040F2F843C1F200034FF02A
:1057D00044029A7040F2C803C1F200031B78DAB2A7
:1057E00040F2F843C1F20003DA7040F2C903C1F29B
:1057F00000031B78DAB240F2F843C1F200031A71D9
:1058000040F2B503C1F200031B78DAB240F2F8436C
:10581000C1F200035A7140F2D003C1F200034FF00D
:1058200006021A70FA7940F2D003C1F200031B7825
:10583000DBB2104640F2F841C1F200011A46FDF712
:1058400041FB00E240F2F843C1F200034FF0460290
:105850001A7040F2F843C1F200034FF042025A704E
:1058600040F2F843C1F200034FF044029A7040F254
:10587000C803C1F200031B78DAB240F2F843C1F268
:105880000003DA7040F2C903C1F200031B78DAB2F8
:1058900040F2F843C1F200031A7140F2B003C1F2C2
:1058A00000031B78DAB240F2F843C1F200035A71E8
:1058B00040F2D003C1F200034FF006021A70FA79E9
:1058C00040F2D003C1F200031B78DBB2104640F275
:1058D000F841C1F200011A46FDF7F4FAB3E140F2D3
:1058E000F843C1F200034FF046021A7040F2F84349
:1058F000C1F200034FF042025A7040F2F843C1F285
:1059000000034FF044029A7040F2C803C1F2000352
:105910001B78DAB240F2F843C1F20003DA7040F2C9
:10592000C903C1F200031B78DAB240F2F843C1F2B6
:1059300000031A7140F2B103C1F200031B78DAB21E
:1059400040F2F843C1F200035A7140F2D003C1F2B1
:1059500000034FF006021A70FA7940F2D003C1F248
:1059600000031B78DBB2104640F2F841C1F200019F
:105970001A46FDF7A7FA66E140F2F843C1F20003C8
:105980004FF046021A7040F2F843C1F200034FF0A4
:1059900042025A7040F2F843C1F200034FF0440251
:1059A0009A7040F2C803C1F200031B78DAB240F2E9
:1059B000F843C1F20003DA7040F2C903C1F20003F8
:1059C0001B78DAB240F2F843C1F200031A7140F2D8
:1059D0007703C1F200031B78DAB240F2F843C1F258
:1059E00000035A7140F2D003C1F200034FF00602E7
:1059F0001A70FA7940F2D003C1F200031B78DBB2CF
:105A0000104640F2F841C1F200011A46FDF75AFA79
:105A100019E140F2F843C1F200034FF046021A7058
:105A200040F2F843C1F200034FF042025A7040F2D4
:105A3000F843C1F200034FF044029A7040F2C803E9
:105A4000C1F200031B78DAB240F2F843C1F200035E
:105A5000DA7040F2C903C1F200031B78DAB240F2F7
:105A6000F843C1F200031A7140F27803C1F2000357
:105A70001B78DAB240F2F843C1F200035A7140F2E7
:105A8000D003C1F200034FF006021A70FA7940F217
:105A9000D003C1F200031B78DBB2104640F2F8419C
:105AA000C1F200011A46FDF70DFACCE040F2F843CE
:105AB000C1F200034FF046021A7040F2F843C1F2FF
:105AC00000034FF042025A7040F2F843C1F2000363
:105AD0004FF044029A7040F2C803C1F200031B78F1
