:100000000080001029010000F5000000F70000004A
:10001000F9000000FB000000FD00000000000000EF
:10002000000000000000000000000000FF000000D1
:1000300001010000000000000301000005010000B4
:100040006901000069010000690100006901000008
:10005000690100005D280000E92900007D2B0000F7
:100060003D2D000069010000ED0C00009911000019
:100070005D160000690100006901000069010000CF
:1000800069010000690100006901000069010000C8
:1000900069010000690100006901000069010000B8
:1000A00069010000690100006901000069010000A8
:1000B0006901000069010000690100006901000098
:1000C00069010000690100006901000094610000FD
:1000D00000000010580000009461000000C00720DC
:1000E00000000000580000109405000000C0072028
:1000F00000000000FEE7FEE7FEE7FEE7FEE7FEE7A2
:10010000FEE7FEE7FEE710B5002302E01C585C5056
:1001100004339342FAD310BD002302E000221A50A8
:1001200004338B42FAD3704710B50C4C05E02068BD
:100130006168A2680C34FFF7E6FF094B9C42F6D3D6
:1001400004E0206861680834FFF7E6FF054B9C4235
:10015000F7D300F071FB06F009F8FEE7CC000000D1
:10016000E4000000F4000000FEE700BFFFFFFFFF17
:10017000FFFFFFFFFFFFFFFFFFFFFFFFFFFFFFFF8F
:10018000FFFFFFFFFFFFFFFFFFFFFFFFFFFFFFFF7F
:10019000FFFFFFFFFFFFFFFFFFFFFFFFFFFFFFFF6F
:1001A000FFFFFFFFFFFFFFFFFFFFFFFFFFFFFFFF5F
:1001B000FFFFFFFFFFFFFFFFFFFFFFFFFFFFFFFF4F
:1001C000FFFFFFFFFFFFFFFFFFFFFFFFFFFFFFFF3F
:1001D000FFFFFFFFFFFFFFFFFFFFFFFFFFFFFFFF2F
:1001E000FFFFFFFFFFFFFFFFFFFFFFFFFFFFFFFF1F
:1001F000FFFFFFFFFFFFFFFFFFFFFFFFFFFFFFFF0F
:10020000FFFFFFFFFFFFFFFFFFFFFFFFFFFFFFFFFE
:10021000FFFFFFFFFFFFFFFFFFFFFFFFFFFFFFFFEE
:10022000FFFFFFFFFFFFFFFFFFFFFFFFFFFFFFFFDE
:10023000FFFFFFFFFFFFFFFFFFFFFFFFFFFFFFFFCE
:10024000FFFFFFFFFFFFFFFFFFFFFFFFFFFFFFFFBE
:10025000FFFFFFFFFFFFFFFFFFFFFFFFFFFFFFFFAE
:10026000FFFFFFFFFFFFFFFFFFFFFFFFFFFFFFFF9E
:10027000FFFFFFFFFFFFFFFFFFFFFFFFFFFFFFFF8E
:10028000FFFFFFFFFFFFFFFFFFFFFFFFFFFFFFFF7E
:10029000FFFFFFFFFFFFFFFFFFFFFFFFFFFFFFFF6E
:1002A000FFFFFFFFFFFFFFFFFFFFFFFFFFFFFFFF5E
:1002B000FFFFFFFFFFFFFFFFFFFFFFFFFFFFFFFF4E
:1002C000FFFFFFFFFFFFFFFFFFFFFFFFFFFFFFFF3E
:1002D000FFFFFFFFFFFFFFFFFFFFFFFFFFFFFFFF2E
:1002E000FFFFFFFFFFFFFFFFFFFFFFFFFFFFFFFF1E
:1002F000FFFFFFFFFFFFFFFFFFFFFFFFFFFFFFFF0E
:1003000080B500AF00F05EF84FF002004FF4E1312D
:1003100002F0DEFD02F09AF802F02CF901F0CAFCBE
:1003200001F0FEFB01F048FD01F056FC00F01CF866
:1003300000F01AF801F038FE80BD00BF80B483B031
:1003400000AF4FF000037B604FF000037B6003E0E1
:100350007B6803F101037B607B68632BF8D907F1AD
:100360000C07BD4680BC704780B485B000AF4FF02D
:100370000003FB604FF00003BB604FF000037B60A5
:100380004FF00003BB6014E04FF00003FB6007E098
:100390007B6803F101037B60FB6803F10103FB60F1
:1003A000FA684EF65F239A42F2D9BB6803F1010363
:1003B000BB60BB686D2BE7D907F11407BD4680BC55
:1003C000704700BF80B485B000AF4FF00003FB6002
:1003D0004FF00003BB604FF000037B604FF0000361
:1003E000BB6014E04FF00003FB6007E07B6803F1A3
:1003F00001037B60FB6803F10103FB60FA684EF6C2
:100400005F239A42F2D9BB6803F10103BB60BB686A
:100410000A2BE7D907F11407BD4680BC704700BF1F
:1004200080B582B000AF4FF000037B6000F004FAAB
:1004300000F0F6FAFFF764FF4FF001004FF0010102
:1004400001F060FF4FF0140046F27011C0F200019D
:1004500001F0ECFD00E000BF40F20800C1F2000036
:1004600002F01AF940F20803C1F20003DB78632BB3
:1004700025D940F20803C1F200031B79632B1ED972
:1004800040F29803C1F200034FF050021A7040F29C
:100490009903C1F200034FF050021A7040F2980322
:1004A000C1F200031B78DAB240F29903C1F20003F3
:1004B0001B78DBB21046194601F0F8FF3FE140F22D
:1004C0000803C1F20003DB78632B1ED940F29803C6
:1004D000C1F200034FF050021A7040F29903C1F2CA
:1004E00000034FF05F021A7040F29803C1F200035C
:1004F0001B78DAB240F29903C1F200031B78DBB239
:100500001046194601F0D2FF19E140F20803C1F28A
:1005100000031B79632B1ED940F29803C1F200033C
:100520004FF05F021A7040F29903C1F200034FF0DE
:1005300050021A7040F29803C1F200031B78DAB23D
:1005400040F29903C1F200031B78DBB21046194652
:1005500001F0ACFFF3E040F20803C1F200039B7826
:10056000632B1ED940F29803C1F200034FF05002F2
:100570001A7040F29903C1F200034FF05F021A7043
:1005800040F29803C1F200031B78DAB240F29903FB
:10059000C1F200031B78DBB21046194601F086FF5A
:1005A000CDE040F20803C1F200035B78632B1ED953
:1005B00040F29803C1F200034FF050021A7040F26B
:1005C0009903C1F200034FF06E021A7040F29803D3
:1005D000C1F200031B78DAB240F29903C1F20003C2
:1005E0001B78DBB21046194601F060FFA7E040F22D
:1005F0000803C1F200031B78632B1ED940F2980355
:10060000C1F200034FF050021A7040F29903C1F298
:1006100000034FF078021A7040F29803C1F2000311
:100620001B78DAB240F29903C1F200031B78DBB207
:100630001046194601F03AFF81E040F20803C1F28A
:1006400000035B79632B1ED940F29803C1F20003CB
:100650004FF05F021A7040F29903C1F200034FF0AD
:1006600050021A7040F29803C1F200031B78DAB20C
:1006700040F29903C1F200031B78DBB21046194621
:1006800001F014FF5BE040F20803C1F200039B7924
:10069000632B1ED940F29803C1F200034FF06E02A3
:1006A0001A7040F29903C1F200034FF050021A7021
:1006B00040F29803C1F200031B78DAB240F29903CA
:1006C000C1F200031B78DBB21046194601F0EEFEC2
:1006D00035E040F20803C1F20003DB79632B1ED939
:1006E00040F29803C1F200034FF078021A7040F212
:1006F0009903C1F200034FF050021A7040F29803C0
:10070000C1F200031B78DAB240F29903C1F2000390
:100710001B78DBB21046194601F0C8FE0FE040F22C
:100720009803C1F200034FF080021A7040F299035F
:10073000C1F200034FF080021A7001F01BFF7B68CA
:1007400003F101037B607B68052B7FF484AE40F2EC
:100750000803C1F200031B784FF002004FF00101C3
:100760001A464FF0030301F0A9FC40F20803C1F25E
:1007700000035B784FF003004FF002011A464FF080
:10078000030301F09BFC40F20803C1F200039B78D5
:100790004FF004004FF003011A464FF0030301F03D
:1007A0008DFC40F20803C1F20003DB784FF0040037
:1007B0004FF007011A464FF0030301F07FFC40F2AF
:1007C0000803C1F200031B794FF004004FF00B0146
:1007D0001A464FF0030301F071FC40F20803C1F226
:1007E00000035B794FF004004FF00F011A464FF001
:1007F000030301F063FC40F20803C1F200039B799C
:100800004FF003004FF011011A464FF0030301F0BF
:1008100055FC40F20803C1F20003DB794FF00200FF
:100820004FF012011A464FF0030301F047FC4FF05E
:1008300000037B6010E600BF80B483B000AF4FF0D0
:1008400000037B604FF44043C4F20F034FF02002DB
:10085000C3F8A02100BF4FF44043C4F20F03D3F804
:10086000A03103F04003002BF5D04FF44043C4F215
:100870000F034FF00202C3F804214FF44043C4F2C7
:100880000F034FF00002C3F8A8214FF44043C4F215
:100890000F034FF00002C3F8AC214FF44043C4F201
:1008A0000F034FF00102C3F80C214FF44043C4F290
:1008B0000F034FF05902C0F20502C3F884204FF431
:1008C0004043C4F20F034FF00102C3F880204FF4FD
:1008D0004043C4F20F034FF0AA02C3F88C204FF438
:1008E0004043C4F20F034FF05502C3F88C204FF47D
:1008F0004043C4F20F03D3F80C31022B0BD000BFDE
:100900004FF44043C4F20F03D3F8883003F0806300
:10091000002BF5D00AE04FF000037B6003E07B681A
:1009200003F101037B607B68642BF8D94FF44043EB
:10093000C4F20F034FF00302C3F880204FF440438A
:10094000C4F20F034FF0AA02C3F88C204FF44043C7
:10095000C4F20F034FF05502C3F88C204FF440430C
:10096000C4F20F034FF02302C3F8A4204FF4404316
:10097000C4F20F034FF00102C3F8A0204FF440432C
:10098000C4F20F034FF0AA02C3F8AC204FF4404367
:10099000C4F20F034FF05502C3F8AC2000BF4FF470
:1009A0004043C4F20F03D3F8A83003F48063002B54
:1009B000F5D04FF44043C4F20F034FF00302C3F8E5
:1009C000A0204FF44043C4F20F034FF0AA02C3F833
:1009D000AC204FF44043C4F20F034FF05502C3F86C
:1009E000AC204FF44043C4F20F0348F2DE72C0F271
:1009F0002842C3F8C4204FF44043C4F20F034FF021
:100A00000002C3F8C8214FF44043C4F20F0343F27D
:100A10003A021A6007F10C07BD4680BC704700BF60
:100A200080B400AF4FF44043C4F20F03D3F88830D2
:100A30004FEA136303F00303032B40F0B2804FF43B
:100A40004043C4F20F03D3F80C3103F00303032B2C
:100A500000F2FD8001A252F823F000BF6D0A0000F1
:100A6000D50A00003F0B00006D0A00004FF4404320
:100A7000C4F20F03D3F888304FEA43434FEA53439D
:100A800003F101034FEA43024FF44043C4F20F0362
:100A9000D3F888304FEA134303F0FF0303F1010357
:100AA000B2FBF3F24FF41063C0F23D0303FB02F21A
:100AB0004FF44043C4F20F03D3F8043103F0FF03B3
:100AC00003F10103B2FBF3F240F24C03C1F2000365
:100AD0001A60BDE04FF44043C4F20F03D3F88830EE
:100AE0004FEA43434FEA534303F101034FEA430202
:100AF0004FF44043C4F20F03D3F888304FEA134356
:100B000003F0FF0303F10103B2FBF3F24FF4D853F8
:100B1000C0F2B70303FB02F24FF44043C4F20F03E9
:100B2000D3F8043103F0FF0303F10103B2FBF3F246
:100B300040F24C03C1F200031A6000BF88E04FF49A
:100B40004043C4F20F03D3F888304FEA43434FEADF
:100B5000534303F101034FEA43024FF44043C4F20D
:100B60000F03D3F888304FEA134303F0FF0303F178
:100B70000103B2FBF3F34FF4FA4202FB03F24FF42A
:100B80004043C4F20F03D3F8043103F0FF0303F131
:100B90000103B2FBF3F240F24C03C1F200031A600E
:100BA00056E04FF44043C4F20F03D3F80C3103F086
:100BB0000303032B4CD801A252F823F0CD0B000005
:100BC000F90B0000250C0000CD0B00004FF4404352
:100BD000C4F20F03D3F8043103F0FF0303F1010261
:100BE0004FF41063C0F23D03B3FBF2F240F24C034A
:100BF000C1F200031A602BE04FF44043C4F20F032C
:100C0000D3F8043103F0FF0303F101024FF4D8538A
:100C1000C0F2B703B3FBF2F240F24C03C1F200039F
:100C20001A6015E04FF44043C4F20F03D3F80431C7
:100C300003F0FF0303F101034FF4FA42B2FBF3F2B6
:100C400040F24C03C1F200031A6000BF00E000BF95
:100C5000BD4680BC704700BF80B483B000AF034680
:100C6000FB714FF46143CEF2000397F907204FEA7E
:100C70005212F97901F01F014FF0010000FA01F161
:100C800043F8221007F10C07BD4680BC704700BF37
:100C900080B483B000AF03463960FB7197F9073029
:100CA000002B10DA4FF46D43CEF20003FA7902F014
:100CB0000F02A2F104013A68D2B24FEAC202D2B2E4
:100CC0005B181A760DE04FF46143CEF2000397F9FA
:100CD00007103A68D2B24FEAC202D2B25B1883F868
:100CE000002307F10C07BD4680BC704780B483B079
:100CF00000AF40F27403C1F200034FF000021A602B
:100D00004FF44043C4F201035B68FB71FB79A3F12C
:100D10000803502B00F22B8201A252F823F000BFEF
:100D2000650E00006F1100006F1100006F110000D0
:100D30006F1100006F1100006F1100006F110000B3
:100D4000B10E00006F1100006F1100006F11000064
:100D50006F1100006F1100006F1100006F11000093
:100D6000FD0E00006F1100006F1100006F110000F8
:100D70006F1100006F1100006F1100006F11000073
:100D8000431100006F1100006F1100006F1100008F
:100D90006F1100006F1100006F1100006F11000053
:100DA000670F00006F1100006F1100006F1100004D
:100DB0006F1100006F1100006F1100006F11000033
:100DC000FB0F00006F1100006F1100006F11000099
:100DD0006F1100006F1100006F1100006F11000013
:100DE0006F1100006F1100006F1100006F11000003
:100DF0006F1100006F1100006F1100006F110000F3
:100E0000271000006F1100006F1100006F1100002B
:100E10006F1100006F1100006F1100006F110000D2
:100E2000431100006F1100006F1100006F110000EE
:100E30006F1100006F1100006F1100006F110000B2
:100E4000711000006F1100006F1100006F110000A1
:100E50006F1100006F1100006F1100006F11000092
:100E6000E910000040F28C03C1F200034FF00002D1
:100E70001A604FF44043C4F2010340F28C02C1F205
:100E80000002116840F2A812C1F20002525CD2B214
:100E90009A6001F1010240F28C03C1F200031A6072
:100EA0004FF44043C4F201034FF028029A616DE110
:100EB00040F28003C1F200034FF000021A604FF4C9
:100EC0004043C4F2010340F28C02C1F200021168F7
:100ED00040F2A812C1F20002525CD2B29A6001F153
:100EE000010240F28C03C1F200031A604FF4404348
:100EF000C4F201034FF028029A6147E140F26823EF
:100F0000C1F200031B68012B0ED14FF44043C4F221
:100F100001034FF010021A6040F26803C1F20003AF
:100F20004FF007021A6016E04FF44043C4F2010389
:100F300040F28C02C1F20002116840F2A812C1F224
:100F40000002525CD2B29A6001F1010240F28C03BD
:100F5000C1F200031A604FF44043C4F201034FF0A2
:100F600008029A6112E140F26823C1F200031B6893
:100F70001A4640F28C03C1F200031B689A4217D94B
:100F80004FF44043C4F2010340F28C02C1F200026C
:100F9000116840F2A812C1F20002525CD2B29A600B
:100FA00001F1010240F28C03C1F200031A601CE05F
:100FB00040F2DC03C1F200031B68002B07D04FF4A2
:100FC0004043C4F201034FF020021A600DE04FF4D9
:100FD0004043C4F201034FF010021A6040F268036C
:100FE000C1F200034FF00C021A604FF44043C4F208
:100FF00001034FF008029A61C8E04FF44043C4F285
:1010000001034FF010021A6040F26803C1F20003BE
:101010004FF009021A604FF44043C4F201034FF04D
:1010200008029A61B2E040F28003C1F200031B683B
:1010300003F1010240F2DC03C1F200031B689A4293
:1010400007D24FF44043C4F201034FF004021A6088
:1010500006E04FF44043C4F201034FF004029A61EA
:101060004FF44043C4F201034FF008029A618DE04F
:1010700040F28003C1F200031A684FF44043C4F207
:1010800001039B68D9B240F2E803C1F2000399540E
:1010900002F1010240F28003C1F200031A6040F243
:1010A0008003C1F200031B6803F1010240F2DC037C
:1010B000C1F200031B689A4207D24FF44043C4F2C6
:1010C00001034FF004021A6006E04FF44043C4F2FB
:1010D00001034FF004029A614FF44043C4F201034C
:1010E0004FF008029A6151E040F28003C1F2000320
:1010F0001A684FF44043C4F201039B68D9B240F22E
:10110000E803C1F20003995402F1010240F28003A6
:10111000C1F200031A6040F26803C1F200034FF00D
:101120000C021A604FF44043C4F201034FF0100266
:101130001A604FF44043C4F201034FF008029A6171
:1011400024E04FF44043C4F201034FF010021A6050
:1011500040F26803C1F200034FF008021A604FF436
:101160004043C4F201034FF008029A610EE040F2DE
:101170006803C1F200034FF00A021A604FF44043C3
:10118000C4F201034FF008029A6100BF07F10C0797
:10119000BD4680BC704700BF80B483B000AF40F252
:1011A0007403C1F200034FF000025A604FF4404351
:1011B000C4F205035B68FB71FB79A3F10803502BB4
:1011C00000F2378201A252F823F000BF1113000091
:1011D00033160000331600003316000033160000EB
:1011E00033160000331600003316000061130000B0
:1011F00033160000331600003316000033160000CB
:10120000331600003316000033160000B11300003F
:1012100033160000331600003316000033160000AA
:1012200033160000331600003316000007160000C6
:10123000331600003316000033160000331600008A
:101240003316000033160000331600001F14000090
:10125000331600003316000033160000331600006A
:10126000331600003316000033160000B7140000D8
:10127000331600003316000033160000331600004A
:10128000331600003316000033160000331600003A
:10129000331600003316000033160000331600002A
:1012A000331600003316000033160000E31400006C
:1012B000331600003316000033160000331600000A
:1012C0003316000033160000331600000716000026
:1012D00033160000331600003316000033160000EA
:1012E0003316000033160000331600002D150000E1
:1012F00033160000331600003316000033160000CA
:10130000331600003316000033160000A915000044
:1013100040F29003C1F200034FF000021A604FF454
:101320004043C4F2050340F29002C1F2000211688A
:1013300040F2A812C1F20002521892F84020D2B234
:101340009A6001F1010240F29003C1F200031A60B9
:101350004FF44043C4F205034FF028029A6177E14D
:1013600040F28403C1F200034FF000021A604FF410
:101370004043C4F2050340F29002C1F2000211683A
:1013800040F2A812C1F20002521892F84020D2B2E4
:101390009A6001F1010240F29003C1F200031A6069
:1013A0004FF44043C4F205034FF028029A614FE125
:1013B00040F26823C1F200035B68012B0ED14FF4A9
:1013C0004043C4F205034FF010021A6040F2680374
:1013D000C1F200034FF007025A6018E04FF4404397
:1013E000C4F2050340F29002C1F20002116840F21B
:1013F000A812C1F20002521892F84020D2B29A60AC
:1014000001F1010240F29003C1F200031A604FF4AF
:101410004043C4F205034FF008029A6118E140F21C
:101420006823C1F200035B681A4640F29003C1F2E0
:1014300000031B689A4219D94FF44043C4F20503D4
:1014400040F29002C1F20002116840F2A812C1F20B
:101450000002521892F84020D2B29A6001F10102C3
:1014600040F29003C1F200031A601CE040F2DC037A
:10147000C1F200035B68002B07D04FF44043C4F275
:1014800005034FF020021A600DE04FF44043C4F210
:1014900005034FF010021A6040F26803C1F2000326
:1014A0004FF00C025A604FF44043C4F205034FF072
:1014B00008029A61CCE04FF44043C4F205034FF0B8
:1014C00010021A6040F26803C1F200034FF00902F3
:1014D0005A604FF44043C4F205034FF008029A618A
:1014E000B6E040F28403C1F200031B6803F101027D
:1014F00040F2DC03C1F200035B689A4207D24FF46A
:101500004043C4F205034FF004021A6006E04FF4B2
:101510004043C4F205034FF004029A614FF4404384
:10152000C4F205034FF008029A6191E040F284038F
:10153000C1F200031A684FF44043C4F205039B68EC
:10154000D9B240F2E803C1F200039B1883F84010BF
:1015500002F1010240F28403C1F200031A6040F27A
:101560008403C1F200031B6803F1010240F2DC03B3
:10157000C1F200035B689A4207D24FF44043C4F2C1
:1015800005034FF004021A6006E04FF44043C4F232
:1015900005034FF004029A614FF44043C4F205037F
:1015A0004FF008029A6153E040F28403C1F2000355
:1015B0001A684FF44043C4F205039B68D9B240F265
:1015C000E803C1F200039B1883F8401002F1010206
:1015D00040F28403C1F200031A6040F26803C1F2D2
:1015E00000034FF00C025A604FF44043C4F205036D
:1015F0004FF010021A604FF44043C4F205034FF05D
:1016000008029A6124E04FF44043C4F205034FF00E
:1016100010021A6040F26803C1F200034FF00802A2
:101620005A604FF44043C4F205034FF008029A6138
:101630000EE040F26803C1F200034FF00A025A6064
:101640004FF44043C4F205034FF008029A6100BF13
:1016500007F10C07BD4680BC704700BF80B483B063
:1016600000AF40F27403C1F200034FF000029A6031
:101670004FF00003C4F20A035B68FB71FB79A3F12E
:101680000803502B00F2378201A252F823F000BF6A
:10169000D5170000F71A0000F71A0000F71A00002B
:1016A000F71A0000F71A0000F71A0000F71A0000F6
:1016B00025180000F71A0000F71A0000F71A0000BA
:1016C000F71A0000F71A0000F71A0000F71A0000D6
:1016D00075180000F71A0000F71A0000F71A00004A
:1016E000F71A0000F71A0000F71A0000F71A0000B6
:1016F000CB1A0000F71A0000F71A0000F71A0000D2
:10170000F71A0000F71A0000F71A0000F71A000095
:10171000E3180000F71A0000F71A0000F71A00009B
:10172000F71A0000F71A0000F71A0000F71A000075
:101730007B190000F71A0000F71A0000F71A0000E2
:10174000F71A0000F71A0000F71A0000F71A000055
:10175000F71A0000F71A0000F71A0000F71A000045
:10176000F71A0000F71A0000F71A0000F71A000035
:10177000A7190000F71A0000F71A0000F71A000076
:10178000F71A0000F71A0000F71A0000F71A000015
:10179000CB1A0000F71A0000F71A0000F71A000031
:1017A000F71A0000F71A0000F71A0000F71A0000F5
:1017B000F1190000F71A0000F71A0000F71A0000EC
:1017C000F71A0000F71A0000F71A0000F71A0000D5
:1017D0006D1A000040F29403C1F200034FF00002C2
:1017E0001A604FF00003C4F20A0340F29402C1F2FF
:1017F0000002116840F2A812C1F20002521892F8D9
:101800008020D2B29A6001F1010240F29403C1F249
:1018100000031A604FF00003C4F20A034FF02802DD
:101820009A6177E140F28803C1F200034FF00002B1
:101830001A604FF00003C4F20A0340F29402C1F2AE
:101840000002116840F2A812C1F20002521892F888
:101850008020D2B29A6001F1010240F29403C1F2F9
:1018600000031A604FF00003C4F20A034FF028028D
:101870009A614FE140F26823C1F200039B68012B9B
:101880000ED14FF00003C4F20A034FF010021A60A9
:1018900040F26803C1F200034FF007029A6018E0BB
:1018A0004FF00003C4F20A0340F29402C1F20002B6
:1018B000116840F2A812C1F20002521892F880207A
:1018C000D2B29A6001F1010240F29403C1F2000326
:1018D0001A604FF00003C4F20A034FF008029A6145
:1018E00018E140F26823C1F200039B681A4640F2F7
:1018F0009403C1F200031B689A4219D94FF0000308
:10190000C4F20A0340F29402C1F20002116840F2EC
:10191000A812C1F20002521892F88020D2B29A6046
:1019200001F1010240F29403C1F200031A601CE0CD
:1019300040F2DC03C1F200039B68002B07D04FF09C
:101940000003C4F20A034FF020021A600DE04FF0CA
:101950000003C4F20A034FF010021A6040F2680359
:10196000C1F200034FF00C029A604FF00003C4F282
:101970000A034FF008029A61CCE04FF00003C4F272
:101980000A034FF010021A6040F26803C1F200032C
:101990004FF009029A604FF00003C4F20A034FF0BF
:1019A00008029A61B6E040F28803C1F200031B68A6
:1019B00003F1010240F2DC03C1F200039B689A428A
:1019C00007D24FF00003C4F20A034FF004021A607A
:1019D00006E04FF00003C4F20A034FF004029A61DC
:1019E0004FF00003C4F20A034FF008029A6191E03D
:1019F00040F28803C1F200031A684FF00003C4F2FA
:101A00000A039B68D9B240F2E803C1F200039B18B5
:101A100083F8801002F1010240F28803C1F2000352
:101A20001A6040F28803C1F200031B6803F101024F
:101A300040F2DC03C1F200039B689A4207D24FF0E8
:101A40000003C4F20A034FF004021A6006E04FF0EC
:101A50000003C4F20A034FF004029A614FF000033E
:101A6000C4F20A034FF008029A6153E040F288037F
:101A7000C1F200031A684FF00003C4F20A039B6826
:101A8000D9B240F2E803C1F200039B1883F880103A
:101A900002F1010240F28803C1F200031A6040F231
:101AA0006803C1F200034FF00C029A604FF000038C
:101AB000C4F20A034FF010021A604FF00003C4F2A0
:101AC0000A034FF008029A6124E04FF00003C4F2C9
:101AD0000A034FF010021A6040F26803C1F20003DB
:101AE0004FF008029A604FF00003C4F20A034FF06F
:101AF00008029A610EE040F26803C1F200034FF061
:101B00000A029A604FF00003C4F20A034FF0080281
:101B10009A6100BF07F10C07BD4680BC704700BF4B
:101B200080B500AF4FF44043C4F20F034FF440427E
:101B3000C4F20F02D2F8C42042F08002C3F8C420DD
:101B40004FF44043C4F202034FF44042C4F2020295
:101B5000526822F070725A604FF44043C4F202039C
:101B60004FF44042C4F20202526842F0A0725A603E
:101B70004FF44043C4F201034FF06C029A614FF4FA
:101B80004043C4F202034FF44042C4F20202D26F57
:101B900022F00502DA674FF44043C4F201034FF428
:101BA000A8725A614FF44043C4F201034FF4A87283
:101BB0001A614FF00A004FF00001FFF769F84FF08B
:101BC0000A00FFF749F84FF44043C4F201034FF015
:101BD00040021A6080BD00BF80B500AF4FF44043A3
:101BE000C4F20F034FF44042C4F20F02D2F8C420F3
:101BF00042F40022C3F8C4204FF44043C4F202036D
:101C00004FF44042C4F20202526822F470725A60E9
:101C10004FF44043C4F202034FF44042C4F20202C4
:101C2000526842F470725A604FF44043C4F20203A7
:101C30004FF44042C4F20202526C22F470725A64B1
:101C40004FF44043C4F202034FF44042C4F2020294
:101C5000526C42F420725A644FF44043C4F20203BF
:101C60004FF44042C4F20202926E42F4C0129A66ED
:101C70004FF44043C4F205034FF06C029A614FF4F5
:101C80004043C4F205034FF4A8725A614FF4404335
:101C9000C4F205034FF4A8721A614FF00B00FEF76F
:101CA000DBFF4FF44043C4F205034FF040021A60DB
:101CB00080BD00BF80B483B000AF4FF000037B60F5
:101CC0004FF44043C2F209034FF44042C2F209020A
:101CD000126922F0C0521A614FF44043C2F2090364
:101CE0004FF44042C2F20902126822F0C0521A6058
:101CF0004FF44043C2F209034FF44042C2F20902DA
:101D0000126842F080521A6048E04FF000037B6096
:101D100003E07B6803F101037B607A6842F20F7392
:101D20009A42F6D94FF44043C2F209034FF0805271
:101D30009A614FF000037B6003E07B6803F10103CD
:101D40007B607A6840F2E7339A42F6D94FF4404319
:101D5000C2F209034FF08052DA614FF000037B605A
:101D600003E07B6803F101037B607A6840F2E733AC
:101D70009A42F6D94FF44043C2F209034FF0805221
:101D80009A614FF000037B6003E07B6803F101037D
:101D90007B607A6842F20F739A42F6D94FF440435F
:101DA000C2F209035B6903F00063002BADD007F1B9
:101DB0000C07BD4680BC704780B483B000AF4FF0C5
:101DC00000037B604FF44043C2F209034FF44042EA
:101DD000C2F20902126922F4C0121A614FF44043A0
:101DE000C2F209034FF44042C2F20902126822F41F
:101DF000C0121A604FF44043C2F209034FF440424C
:101E0000C2F20902126842F480121A6048E04FF0F0
:101E100000037B6003E07B6803F101037B607A6869
:101E200042F20F739A42F6D94FF44043C2F20903CB
:101E30004FF480129A614FF000037B6003E07B68EF
:101E400003F101037B607A6840F2E7339A42F6D9E6
:101E50004FF44043C2F209034FF48012DA614FF0AD
:101E600000037B6003E07B6803F101037B607A6819
:101E700040F2E7339A42F6D94FF44043C2F20903E5
:101E80004FF480129A614FF000037B6003E07B689F
:101E900003F101037B607A6842F20F739A42F6D92C
:101EA0004FF44043C2F209035B6903F40023002BA3
:101EB000ADD007F10C07BD4680BC704780B483B03D
:101EC00000AF786046F28813C0F200037A6853F8D6
:101ED00022304FF020021A6040F26803C1F2000382
:101EE0007A684FF0060143F8221027E040F27403AD
:101EF000C1F200037A6853F822301A464FF6FE7397
:101F0000C0F2FF039A4209D940F26803C1F200030C
:101F10007A684FF00B0143F8221018E040F2740386
:101F2000C1F200037A6853F8223003F1010140F254
:101F30007403C1F200037A6843F8221040F2680388
:101F4000C1F200037A6853F82230062BCED046F255
:101F50008813C0F200037A6853F822304FF0200251
:101F60009A6140F26803C1F200037A6853F82230A4
:101F7000184607F10C07BD4680BC704780B483B09B
:101F800000AF4FF000037B604FF000037B6003E085
:101F90007B6803F101037B607B68632BF8D907F151
:101FA0000C07BD4680BC704780B500AF00F022FA38
:101FB000FFF7E4FF4FF0010000F0E2F9FFF7DEFF6A
:101FC0004FF0040000F004F8FFF7D8FF80BD00BF19
:101FD00080B584B000AF0346FB7140F26823C1F2C4
:101FE00000034FF002025A6040F2DC03C1F200032A
:101FF0004FF000025A6040F2A813C1F200034FF004
:10200000C60283F8402040F2A813C1F20003FA7917
:1020100083F841204FF00100FFF750FFF860FB68A4
:10202000184607F11007BD4680BD00BF80B584B0DB
:1020300000AF03463960FB714FF00003FB60FB7992
:1020400003F101031A4640F26823C1F200035A600B
:1020500040F2DC03C1F200034FF000025A6040F28C
:10206000A813C1F200034FF0C60283F840204FF0DE
:102070000003FB6013E0FB6803F101013B681A7881
:1020800040F2A813C1F200035B1883F840203B68BC
:1020900003F101033B60FB6803F10103FB60FA7984
:1020A000FB689A42E7D84FF00100FFF707FFB860DE
:1020B000BB68184607F11007BD4680BD80B58AB0E1
:1020C00000AFBA600246FA730A46BA73FB714FF06A
:1020D00000037B624FF00003FB614FF0000387F8C1
:1020E00023304FF0000387F82230FA7BBB7B104689
:1020F000194600F007F9FB79052B01D97B6AFCE052
:10210000FB79052B03D097F82330012B1DD197F8CD
:102110002210BA6841F25973CDF2B713A3FB020340
:102120004FEA5333DBB203F13003DAB207F1280090
:10213000431803F8182C97F8223003F1010387F8AD
:1021400022304FF0010387F82330FB79042B03D0B2
:1021500097F82330012B2ED1BA6844F6D353C1F23D
:102160006203A3FB02134FEA9313FB6197F822006B
:10217000F9694CF6CD43CCF6CC43A3FB01234FEADF
:10218000D30213464FEA83039B184FEA4303CA1A4C
:10219000D3B203F13003DAB207F128010B1803F8C8
:1021A000182C97F8223003F1010387F822304FF002
:1021B000010387F82330FB79032B03D097F82330F2
:1021C000012B2ED1BA6848F21F53C5F2EB13A3FBC3
:1021D00002034FEA5313FB6197F82200F9694CF6AA
:1021E000CD43CCF6CC43A3FB01234FEAD3021346E5
:1021F0004FEA83039B184FEA4303CA1AD3B203F191
:102200003003DAB207F128010B1803F8182C97F8FD
:10221000223003F1010387F822304FF0010387F8E1
:102220002330FB79022B03D097F82330012B2ED1DA
:10223000BA684CF6CD43CCF6CC43A3FB02034FEA7D
:10224000D303FB6197F82200F9694CF6CD43CCF635
:10225000CC43A3FB01234FEAD30213464FEA830387
:102260009B184FEA4303CA1AD3B203F13003DAB220
:1022700007F128010B1803F8182C97F8223003F106
:10228000010387F822304FF0010387F82330FB79F0
:10229000012B03D097F82330012B20D197F822008F
:1022A000B9684CF6CD43CCF6CC43A3FB01234FEAEF
:1022B000D30213464FEA83039B184FEA4303CA1A1B
:1022C000D3B203F13003DAB207F128010B1803F897
:1022D000182C97F8223003F1010387F82230FA799D
:1022E00007F1100310461946FFF7A0FE03460C2B1A
:1022F00002D14FF001037B627B6A184607F1280781
:10230000BD4680BD80B584B000AF02460B46FA7171
:10231000BB7140F26823C1F200034FF004025A601F
:1023200040F2DC03C1F200034FF000025A6040F2B9
:10233000A813C1F200034FF0C60283F8402040F218
:10234000A813C1F200034FF0030283F8412040F2CA
:10235000A813C1F20003FA7983F8422040F2A813CF
:10236000C1F20003BA7983F843204FF00100FFF770
:10237000A5FDF860FB68184607F11007BD4680BD53
:1023800080B584B000AF0346FB7140F26823C1F210
:1023900000034FF002025A6040F2DC03C1F2000376
:1023A0004FF000025A6040F2A813C1F200034FF050
:1023B000C60283F84020FB79012B08D140F2A81314
:1023C000C1F200034FF0130283F8412007E040F20E
:1023D000A813C1F200034FF0140283F841204FF01C
:1023E0000100FFF76BFDF860FB68184607F1100766
:1023F000BD4680BD80B582B000AF40F26823C1F217
:1024000000034FF002025A6040F2DC03C1F2000305
:102410004FF000025A6040F2A813C1F200034FF0DF
:10242000C60283F8402040F2A813C1F200034FF027
:102430000C0283F841204FF00100FFF73FFD786068
:102440007B68184607F10807BD4680BD80B500AF20
:1024500000F002F880BD00BF80B500AF40F28843B5
:10246000C1F200034FF04E021A7040F28843C1F2ED
:1024700000034FF045025A7040F28843C1F2000356
:102480004FF058029A7040F28843C1F200034FF0B7
:102490003802DA704FF0020040F28841C1F20001C8
:1024A0004FF0040200F08EFF80BD00BF80B582B007
:1024B00000AF02460B46FA71BB7140F28843C1F28D
:1024C00000034FF04E021A7040F28843C1F200033D
:1024D0004FF045025A7040F28843C1F200034FF0BA
:1024E00058029A7040F28843C1F200034FF0310263
:1024F000DA7040F28843C1F20003FA791A714FF0A2
:10250000020040F28841C1F200014FF0050200F0E4
:1025100059FF40F28843C1F200034FF04E021A7097
:1025200040F28843C1F200034FF045025A7040F276
:102530008843C1F200034FF058029A7040F288437A
:10254000C1F200034FF03202DA7040F28843C1F268
:102550000003BA791A714FF0020040F28841C1F2CB
:1025600000014FF0050200F02DFF07F10807BD46FE
:1025700080BD00BF80B500AF40F28843C1F20003C8
:102580004FF04E021A7040F28843C1F200034FF040
:1025900045025A7040F28843C1F200034FF05802DE
:1025A0009A7040F28843C1F200034FF03102DA70B2
:1025B00040F28843C1F200034FF080021A714FF0DD
:1025C000020040F28841C1F200014FF0050200F024
:1025D000F9FE40F28843C1F200034FF04E021A7038
:1025E00040F28843C1F200034FF045025A7040F2B6
:1025F0008843C1F200034FF058029A7040F28843BA
:10260000C1F200034FF03202DA7040F28843C1F2A7
:1026100000034FF080021A714FF0020040F288412F
:10262000C1F200014FF0050200F0CCFE80BD00BFFA
:1026300080B584B000AF02460B46FA71BB7140F220
:102640006823C1F200034FF002021A60BA7940F227
:10265000DC03C1F200031A6040F2A813C1F20003C8
:102660004FF0E8021A7040F2A813C1F20003FA79A1
:102670005A7040F2A813C1F200034FF0E9029A70B9
:102680004FF00000FFF71AFCF860FB68184607F1EE
:102690001007BD4680BD00BF80B584B000AF786034
:1026A0004FF00003FB734FF00003BB6040F2E80300
:1026B000C1F200034FF000021A7040F2E803C1F2C9
:1026C00000034FF000025A7040F2E803C1F2000329
:1026D0004FF000029A7040F2E803C1F200034FF09D
:1026E0000002DA7040F2E803C1F200034FF000028A
:1026F0001A7140F2E803C1F200034FF000025A7170
:1027000040F2E803C1F200034FF000029A7140F278
:10271000E803C1F200034FF00002DA714FF0390014
:102720004FF00801FFF784FF03460C2B18D14FF040
:102730000003FB730EE0FB7B7A68D218F97B40F252
:10274000E803C1F200035B5CDBB21370FB7B03F1B7
:102750000103FB73FB7B072BEDD94FF00103BB603B
:10276000FDF7ECFDBB68184607F11007BD4680BDBC
:1027700080B483B000AF0346FB714FF46143CEF2E7
:10278000000397F907204FEA5212F97901F01F016F
:102790004FF0010000FA01F143F8221007F10C0795
:1027A000BD4680BC704700BF80B483B000AF034615
:1027B0003960FB7197F90730002B10DA4FF46D4345
:1027C000CEF20003FA7902F00F02A2F104013A6896
:1027D000D2B24FEAC202D2B25B181A760DE04FF4C1
:1027E0006143CEF2000397F907103A68D2B24FEA7C
:1027F000C202D2B25B1883F8002307F10C07BD4672
:1028000080BC704780B483B000AF0346FB7197F97A
:102810000730002B0FDA4FF46D43CEF20003FA7944
:1028200002F00F02A2F104029B181B7EDBB24FEAFA
:10283000D303DBB20CE04FF46143CEF2000397F90F
:1028400007209B1893F80033DBB24FEAD303DBB2C7
:10285000184607F10C07BD4680BC704780B582B0B2
:1028600000AF4FF44043C4F200039B68BB71BB79D7
:102870004FEA5303BB71BB7903F00703BB71BB790C
:10288000032B4DD14FF44043C4F200035B697B71CD
:102890007B7903F09E03002B0CD07A7940F2085329
:1028A000C1F200031A604FF44043C4F200031B68F6
:1028B000FB7194E07B7903F00103DBB2002B00F0A5
:1028C0008E804FF44043C4F200031B68DAB240F23A
:1028D000C433C1F200031A7040F2C433C1F20003E2
:1028E0001B78DBB2184600F017FE40F2A803C1F2D5
:1028F00000031B6803F1010240F2A803C1F20003C8
:102900001A6040F2A803C1F200031B68402B66D195
:1029100040F2A803C1F200034FF000021A605EE02B
:10292000BB79022B2ED14FF44043C4F200031B6845
:10293000DAB240F2C433C1F200031A7040F2C43379
:10294000C1F200031B78DBB2184600F0E5FD40F24F
:10295000A803C1F200031B6803F1010240F2A803BF
:10296000C1F200031A6040F2A803C1F200031B6821
:10297000402B34D140F2A803C1F200034FF0000213
:102980001A602CE0BB79062B0CD140F20853C1F23F
:1029900000031B6843F4807240F20853C1F2000345
:1029A0001A601CE0BB79012B19D14FF44043C4F2EB
:1029B00000035B697B717B7903F02003002B07D058
:1029C00040F25003C1F200034FF001021A7006E01A
:1029D00040F25003C1F200034FF000021A7007F1F9
:1029E0000807BD4680BD00BF80B582B000AF4FF084
:1029F0000003C4F201039B68BB71BB794FEA530328
:102A0000BB71BB7903F00703BB71BB79032B4FD1BB
:102A10004FF00003C4F201035B697B717B7903F023
:102A20009E03002B0CD07A7940F24443C1F200039C
:102A30001A604FF00003C4F201031B68FB7198E0B9
:102A40007B7903F00103DBB2002B00F092804FF0A2
:102A50000003C4F201031B68DAB240F27C33C1F216
:102A600000031A7040F27C33C1F200031B78DBB222
:102A70004FF00100194600F013FE40F2AC03C1F222
:102A800000031B6803F1010240F2AC03C1F2000332
:102A90001A6040F2AC03C1F200031B68402B68D1FE
:102AA00040F2AC03C1F200034FF000021A6060E094
:102AB000BB79022B30D14FF00003C4F201031B6835
:102AC000DAB240F27C33C1F200031A7040F27C3378
:102AD000C1F200031B78DBB24FF00100194600F091
:102AE000DFFD40F2AC03C1F200031B6803F10102F9
:102AF00040F2AC03C1F200031A6040F2AC03C1F231
:102B000000031B68402B34D140F2AC03C1F2000338
:102B10004FF000021A602CE0BB79062B0CD140F27A
:102B20004443C1F200031B6843F4807240F2444303
:102B3000C1F200031A601CE0BB79012B19D14FF0E0
:102B40000003C4F201035B697B717B7903F020030E
:102B5000002B07D040F25103C1F200034FF00102F5
:102B60001A7006E040F25103C1F200034FF0000278
:102B70001A7007F10807BD4680BD00BF80B483B05E
:102B800000AF4FF40043C4F209039B68BB71BB79EB
:102B90004FEA5303BB71BB7903F00703BB71BB79E9
:102BA000032B5AD14FF40043C4F209035B697B71D4
:102BB0007B7903F09E03002B0CD07A7940F2BC3372
:102BC000C1F200031A604FF40043C4F209031B680A
:102BD000FB71ADE07B7903F00103DBB2002B00F069
:102BE000A78040F2B003C1F200031A684FF400431B
:102BF000C4F209031B68D9B240F27423C1F2000386
:102C0000995402F1010240F2B003C1F200031A60CC
:102C100040F2C903C1F200031B78DBB21A4640F24E
:102C2000B003C1F200031B689A4240F0818040F279
:102C3000B003C1F200034FF000021A6040F2C90372
:102C4000C1F200034FF000021A7040F2C803C1F253
:102C500000034FF001021A706AE0BB79022B3AD1EF
:102C600040F2B003C1F200031A684FF40043C4F20B
:102C700009031B68D9B240F27423C1F200039954CE
:102C800002F1010240F2B003C1F200031A6040F207
:102C9000C903C1F200031B78DBB21A4640F2B0034D
:102CA000C1F200031B689A4242D140F2B003C1F264
:102CB00000034FF000021A6040F2C903C1F20003A2
:102CC0004FF000021A7040F2C803C1F200034FF047
:102CD00001021A702CE0BB79062B0CD140F2BC33F8
:102CE000C1F200031B6843F4807240F2BC33C1F2AE
:102CF00000031A601CE0BB79012B19D14FF400438B
:102D0000C4F209035B697B717B7903F02003002B1C
:102D100007D040F25203C1F200034FF001021A70D3
:102D200006E040F25203C1F200034FF000021A70B5
:102D300007F10C07BD4680BC704700BF80B582B06C
:102D400000AF4FF44043C4F209039B68BB71BB79E9
:102D50004FEA5303BB71BB7903F00703BB71BB7927
:102D6000032B4FD14FF44043C4F209035B697B71DD
:102D70007B7903F09E03002B0CD07A7940F2085344
:102D8000C1F200031A604FF44043C4F209031B6808
:102D9000FB7198E07B7903F00103DBB2002B00F0BC
:102DA00092804FF44043C4F209031B68DAB240F248
:102DB0004843C1F200031A7040F24843C1F20003D5
:102DC0001B78DBB24FF00300194600F069FC40F2BB
:102DD000B403C1F200031B6803F1010240F2B40323
:102DE000C1F200031A6040F2B403C1F200031B6891
:102DF000402B68D140F2B403C1F200034FF000024F
:102E00001A6060E0BB79022B30D14FF44043C4F22A
:102E100009031B68DAB240F24843C1F200031A709A
:102E200040F24843C1F200031B78DBB24FF00300CD
:102E3000194600F035FC40F2B403C1F200031B68F0
:102E400003F1010240F2B403C1F200031A6040F240
:102E5000B403C1F200031B68402B34D140F2B40329
:102E6000C1F200034FF000021A602CE0BB79062B80
:102E70000CD140F2C033C1F200031B6843F48072EE
:102E800040F2C033C1F200031A601CE0BB79012B91
:102E900019D14FF44043C4F209035B697B717B791C
:102EA00003F02003002B07D040F25303C1F20003CC
:102EB0004FF001021A7006E040F25303C1F2000322
:102EC0004FF000021A7007F10807BD4680BD00BF31
:102ED00080B586B000AF786039604FF000033B6189
:102EE0007B68002B40F086804FF44043C4F202031D
:102EF0004FF44042C4F20202126822F0F0021A605B
:102F00004FF44043C4F202034FF44042C4F20202C1
:102F1000126842F050021A604FF44043C4F20F03AB
:102F2000D3F8A8314FEA931303F00303FB60FB6867
:102F3000022B13D0032B1AD0012B08D040F24C03E4
:102F4000C1F200031B684FEA93037B6118E040F273
:102F50004C03C1F200031B687B6111E040F24C039B
:102F6000C1F200031B684FEA53037B6108E040F2A3
:102F70004C03C1F200031B684FEAD3037B6100BF1F
:102F80004FF44043C4F200034FF08302DA607B69E0
:102F90004FEA13123B68B2FBF3F3BB604FF44043BC
:102FA000C4F20003BA684FEA12225A604FF4404359
:102FB000C4F20003BA6802F0FF021A604FF4404303
:102FC000C4F200034FF00302DA604FF44043C4F24E
:102FD00000034FF007029A604FF00500FFF7C8FBAF
:102FE0004FF44043C4F200034FF005025A604FF023
:102FF0000103E2E17B68012B40F09E804FF44043E7
:10300000C4F202034FF44042C4F20202126822F0FA
:1030100040421A604FF44043C4F202034FF440426E
:10302000C4F20202126842F080421A604FF4404338
:10303000C4F202034FF44042C4F20202526822F08A
:1030400003025A604FF44043C4F202034FF440427B
:10305000C4F20202526842F001025A604FF4404347
:10306000C4F20F03D3F8A8314FEA132303F003038C
:10307000FB60FB68022B13D0032B1AD0012B08D066
:1030800040F24C03C1F200031B684FEA93037B61DB
:1030900018E040F24C03C1F200031B687B6111E0B1
:1030A00040F24C03C1F200031B684FEA53037B61FB
:1030B00008E040F24C03C1F200031B684FEAD3035F
:1030C0007B6100BF4FF00003C4F201034FF08302A5
:1030D000DA607B694FEA13123B68B2FBF3F3BB6023
:1030E0004FF00003C4F20103BA684FEA12225A609B
:1030F0004FF00003C4F20103BA6802F0FF021A6045
:103100004FF00003C4F201034FF00302DA604FF006
:103110000003C4F201034FF007029A604FF006006B
:10312000FFF726FB4FF00003C4F201034FF0050246
:103130005A604FF0010340E17B68022B40F094801D
:103140004FF44043C4F20F034FF44042C4F20F0265
:10315000D2F8C42042F08072C3F8C4204FF4404338
:10316000C4F202034FF44042C4F20202126822F495
:1031700070021A604FF44043C4F202034FF440421D
:10318000C4F20202126842F4A0021A604FF44043F3
:10319000C4F20F03D3F8AC314FEA134303F0030337
:1031A000FB60FB68022B13D0032B1AD0012B08D035
:1031B00040F24C03C1F200031B684FEA93037B61AA
:1031C00018E040F24C03C1F200031B687B6111E080
:1031D00040F24C03C1F200031B684FEA53037B61CA
:1031E00008E040F24C03C1F200031B684FEAD3032E
:1031F0007B6100BF4FF40043C4F209034FF0830228
:10320000DA607B694FEA13123B68B2FBF3F3BB60F1
:103210004FF40043C4F20903BA684FEA12225A601D
:103220004FF40043C4F20903BA6802F0FF021A60C7
:103230004FF40043C4F209034FF00302DA604FF485
:103240000043C4F209034FF007029A604FF00700F1
:10325000FFF78EFA4FF40043C4F209034FF0050262
:103260005A604FF00103A8E07B68032B40F0A38075
:103270004FF44043C4F20F034FF44042C4F20F0234
:10328000D2F8C42042F00072C3F8C4204FF4404387
:10329000C4F202034FF44042C4F20202126822F068
:1032A0000F021A604FF44043C4F202034FF440424D
:1032B000C4F20202126842F00A021A604FF440435C
:1032C000C4F20F03D3F8AC314FEA934303F0030386
:1032D000FB60FB68022B13D0032B1AD0012B08D004
:1032E00040F24C03C1F200031B684FEA93037B6179
:1032F00018E040F24C03C1F200031B687B6111E04F
:1033000040F24C03C1F200031B684FEA53037B6198
:1033100008E040F24C03C1F200031B684FEAD303FC
:103320007B6100BF4FF44043C4F209034FF08302B6
:10333000DA607B694FEA13123B68B2FBF3F3BB60C0
:103340004FF44043C4F20903BA684FEA12225A60AC
:103350004FF44043C4F20903BA6802F0FF021A6056
:103360004FF44043C4F209034FF00302DA604FF414
:103370004043C4F209034FF007029A604FF008007F
:10338000FFF740FA38614FF008004FF00101FFF7F6
:103390000BFA4FF00800FFF7EBF94FF00800FFF7CA
:1033A000E7F94FF44043C4F209034FF005025A60B5
:1033B0004FF0010301E04FF00003184607F1180732
:1033C000BD4680BD80B485B000AFF860B9607A605A
:1033D000FB68002B24D11FE000BF4FF44043C4F230
:1033E00000035B6903F04003002BF6D04FF4404329
:1033F000C4F20003BA6812781A6040F25003C1F2B6
:1034000000034FF000021A70BB6803F10103BB60B8
:103410007B6803F1FF337B607B68002BDCD176E0B7
:10342000FB68012B24D11FE000BF4FF00003C4F262
:1034300001035B6903F04003002BF6D04FF000035B
:10344000C4F20103BA6812781A6040F25103C1F263
:1034500000034FF000021A70BB6803F10103BB6068
:103460007B6803F1FF337B607B68002BDCD14EE08F
:10347000FB68022B24D11FE000BF4FF40043C4F2CD
:1034800009035B6903F04003002BF6D04FF40043BF
:10349000C4F20903BA6812781A6040F25203C1F20A
:1034A00000034FF000021A70BB6803F10103BB6018
:1034B0007B6803F1FF337B607B68002BDCD126E067
:1034C000FB68032B23D11FE000BF4FF44043C4F23D
:1034D00009035B6903F04003002BF6D04FF440432F
:1034E000C4F20903BA6812781A6040F25303C1F2B9
:1034F00000034FF000021A70BB6803F10103BB60C8
:103500007B6803F1FF337B607B68002BDCD107F124
:103510001407BD4680BC704780B483B000AF03463B
:10352000FB7140F2CC03C1F200031B78DBB203F164
:103530000103DAB240F2CC03C1F200031A7040F288
:103540001053C1F200031B78DBB2002B17D1FB79BB
:10355000242B14D140F21B53C1F200034FF001029F
:103560001A7040F27D53C1F200034FF000021A704E
:1035700040F2CB03C1F200034FF000021A7040F298
:103580001B53C1F200031B78DBB2002B30D040F29A
:103590007D53C1F200031B78DBB21A4640F29C5304
:1035A000C1F20003F979995440F27C53C1F200034F
:1035B0004FF001021A7040F21B53C1F200034FF0AA
:1035C00000021A7040F21053C1F200034FF00102E2
:1035D0001A7040F27D53C1F200031B78DBB203F195
:1035E0000103DAB240F27D53C1F200031A7051E0D8
:1035F00040F27C53C1F200031B78DBB2002B49D0B0
:1036000040F27D53C1F200031B78DBB21A4640F250
:103610009C53C1F20003F9799954FB790A2B2BD101
:1036200040F27D53C1F200031B78DBB203F1FF329D
:1036300040F29C53C1F200039B5CDBB20D2B1BD10B
:1036400040F27D53C1F200034FF000021A7040F2C5
:103650007C53C1F200034FF000021A7040F2105385
:10366000C1F200034FF001021A7040F2CA03C1F226
:1036700000034FF001021A7040F27D53C1F20003C3
:103680001B78DBB203F10103DAB240F27D53C1F2E1
:1036900000031A7007F10C07BD4680BC704700BFDD
:1036A00080B584B000AF02460B46FA71BB714FF093
:1036B0000003FB7340F25403C1F200031B78092B93
:1036C0000CD140F2BD03C1F20003BA791A7040F286
:1036D000BF03C1F200034FF001021A7040F254031D
:1036E000C1F200031B78082B0CD140F2BC03C1F2DD
:1036F0000003BA791A7040F25403C1F200034FF08C
:1037000009021A7040F25403C1F200031B78072B20
:103710000CD140F2BB03C1F20003BA791A7040F237
:103720005403C1F200034FF008021A7040F2540330
:10373000C1F200031B78062B0CD140F2BA03C1F290
:103740000003BA791A7040F25403C1F200034FF03B
:1037500007021A7040F25403C1F200031B78052BD4
:103760006CD140F2B803C1F200031B78DBB21E2B10
:103770001BD1BB79002B18D0BB79202B15D840F278
:10378000BE03C1F200031B78DBB2002B0DD140F267
:10379000BA03C1F20003BA791A7040F2BE03C1F253
:1037A00000034FF001021A7048E040F2BE03C1F27C
:1037B00000031B78DBB2012B0ED140F25403C1F29F
:1037C00000034FF001021A7040F2BE03C1F2000381
:1037D0004FF000021A7031E040F2B803C1F200036A
:1037E0001B78DBB2812B07D040F2B803C1F2000393
:1037F0001B78DBB2822B0DD140F2B903C1F200037A
:10380000BA791A7040F25403C1F200034FF0060275
:103810001A7013E040F2BF03C1F200034FF001023F
:103820001A7040F2B903C1F20003BA791A7040F27B
:103830005403C1F200034FF005021A7040F2540322
:10384000C1F200031B78042B0CD140F2B803C1F283
:103850000003BA791A7040F25403C1F200034FF02A
:1038600005021A7040F25403C1F200031B78032BC7
:1038700011D1BB79582B07D140F25403C1F2000398
:103880004FF004021A7006E040F25403C1F2000344
:103890004FF001021A7040F25403C1F200031B788A
:1038A000022B11D1BB79452B07D140F25403C1F251
:1038B00000034FF003021A7006E040F25403C1F215
:1038C00000034FF001021A7040F25403C1F20003EA
:1038D0001B78012B09D1BB794E2B06D140F2540342
:1038E000C1F200034FF002021A7040F2BF03C1F2AE
:1038F00000031B78DBB2002B02F0338440F2B803E4
:10390000C1F200031B78DBB203F1FF33FB2B02F2A1
:10391000078401A252F823F0093D0000B33D0000E6
:10392000216100005D3E0000073F00000D460000E1
:103930004346000079460000AF46000031480000D1
:10394000216100002161000021610000216100006F
:1039500021610000E14A00001D4D0000594F0000A8
:10396000216100002161000021610000216100004F
:10397000216100002161000021610000216100003F
:10398000216100002161000021610000216100002F
:1039900021610000955100002F520000C952000023
:1039A00063530000375400002161000021610000D2
:1039B00021610000216100002161000021610000FF
:1039C00021610000216100002161000021610000EF
:1039D00021610000216100002161000021610000DF
:1039E00021610000216100002161000021610000CF
:1039F00021610000216100002161000021610000BF
:103A000021610000216100002161000021610000AE
:103A1000216100002161000021610000216100009E
:103A2000216100002161000021610000216100008E
:103A3000216100002161000021610000216100007E
:103A4000216100002161000021610000216100006E
:103A5000216100002161000021610000216100005E
:103A6000216100002161000021610000216100004E
:103A7000216100002161000021610000216100003E
:103A8000216100002161000021610000216100002E
:103A9000216100002161000021610000216100001E
:103AA000216100002161000021610000216100000E
:103AB00021610000216100002161000021610000FE
:103AC00021610000216100002161000021610000EE
:103AD00021610000216100002161000021610000DE
:103AE00021610000216100002161000021610000CE
:103AF00021610000216100002161000021610000BE
:103B000021610000216100002161000021610000AD
:103B1000216100002161000021610000216100009D
:103B2000216100002161000021610000216100008D
:103B3000216100002161000021610000216100007D
:103B40002161000071570000216100002161000027
:103B50002161000083570000AB570000315800007E
:103B6000275900001B5A0000035B00001B5B00008C
:103B7000335B0000855C0000AB5C0000455D00002D
:103B8000DF5D000021610000216100002161000073
:103B9000216100002161000021610000216100001D
:103BA000216100002161000021610000216100000D
:103BB000216100002161000021610000795E0000A8
:103BC000135F0000216100002161000021610000FD
:103BD00021610000216100002161000021610000DD
:103BE00021610000216100002161000021610000CD
:103BF00021610000216100002161000021610000BD
:103C000021610000216100002161000021610000AC
:103C1000216100002161000021610000216100009C
:103C2000216100002161000021610000216100008C
:103C3000216100002161000021610000216100007C
:103C4000216100002161000021610000216100006C
:103C5000216100002161000021610000216100005C
:103C6000216100002161000021610000216100004C
:103C7000216100002161000021610000216100003C
:103C8000216100002161000021610000216100002C
:103C9000216100002161000021610000216100001C
:103CA000216100002161000021610000216100000C
:103CB00021610000216100002161000021610000FC
:103CC00021610000216100002161000021610000EC
:103CD00021610000216100002161000021610000DC
:103CE00021610000216100002161000021610000CC
:103CF000216100002161000021610000AD5F000032
:103D000029600000A560000040F20443C1F20003F6
:103D10004FF046021A7040F20443C1F200034FF024
:103D200042025A7040F20443C1F200034FF04402D1
:103D30009A7040F2B803C1F200031B78DAB240F285
:103D40000443C1F20003DA7040F2B903C1F2000388
:103D50001B78DAB240F20443C1F200031A7140F258
:103D6000B903C1F200031B78DBB203F1FF3240F26A
:103D70000003C1F200039A5C40F20443C1F2000365
:103D80005A7140F2C003C1F200034FF006021A70EC
:103D9000FA7940F2C003C1F200031B78DBB210468F
:103DA00040F20441C1F200011A46FFF70BFB02F09A
:103DB000CAB940F20443C1F200034FF046021A7040
:103DC00040F20443C1F200034FF042025A7040F245
:103DD0000443C1F200034FF044029A7040F2B8036A
:103DE000C1F200031B78DAB240F20443C1F20003CF
:103DF000DA7040F2B903C1F200031B78DAB240F284
:103E00000443C1F200031A7140F2B903C1F2000386
:103E10001B78DBB203F1FF3240F21003C1F2000362
:103E20009A5C40F20443C1F200035A7140F2C003AD
:103E3000C1F200034FF006021A70FA7940F2C00393
:103E4000C1F200031B78DBB2104640F20441C1F21C
:103E500000011A46FFF7B6FA02F075B940F20443C2
:103E6000C1F200034FF046021A7040F20443C1F25F
:103E700000034FF042025A7040F20443C1F20003C3
:103E80004FF044029A7040F2B803C1F200031B786D
:103E9000DAB240F20443C1F20003DA7040F2B9032F
:103EA000C1F200031B78DAB240F20443C1F200030E
:103EB0001A7140F2B903C1F200031B78DBB203F1BF
:103EC000FF3240F20803C1F200039A5C40F204435F
:103ED000C1F200035A7140F2C003C1F200034FF077
:103EE00006021A70FA7940F2C003C1F200031B788F
:103EF000DBB2104640F20441C1F200011A46FFF75E
:103F000061FA02F020B940F2B903C1F200031B7854
:103F1000DBB2012B5BD140F20443C1F200034FF04E
:103F200046021A7040F20443C1F200034FF042020D
:103F30005A7040F20443C1F200034FF044029A70F9
:103F400040F2B803C1F200031B78DAB240F2044336
:103F5000C1F20003DA7040F2B903C1F200031B782A
:103F6000DAB240F20443C1F200031A714FF00003C9
:103F7000FB7311E0FB7B03F10502F97B40F20003C8
:103F8000C1F20003595C40F20443C1F200039954AA
:103F9000FB7B03F10103FB73FB7B072BEAD940F2A8
:103FA000C003C1F200034FF00D021A70FA7940F21B
:103FB000C003C1F200031B78DBB2104640F204419B
:103FC000C1F200011A46FFF7FDF902F0BCB840F259
:103FD000B903C1F200031B78DBB2022B5BD140F2C4
:103FE0000443C1F200034FF046021A7040F204434A
:103FF000C1F200034FF042025A7040F20443C1F292
:1040000000034FF044029A7040F2B803C1F200037B
:104010001B78DAB240F20443C1F20003DA7040F2D6
:10402000B903C1F200031B78DAB240F20443C1F2D3
:1040300000031A714FF00003FB7311E0FB7B03F1E7
:104040000502F97B40F21003C1F20003595C40F213
:104050000443C1F200039954FB7B03F10103FB739A
:10406000FB7B072BEAD940F2C003C1F200034FF0FB
:104070000D021A70FA7940F2C003C1F200031B78F6
:10408000DBB2104640F20441C1F200011A46FFF7CC
:1040900099F902F058B840F2B903C1F200031B7855
:1040A000DBB2042B5BD140F20443C1F200034FF0BA
:1040B00046021A7040F20443C1F200034FF042027C
:1040C0005A7040F20443C1F200034FF044029A7068
:1040D00040F2B803C1F200031B78DAB240F20443A5
:1040E000C1F20003DA7040F2B903C1F200031B7899
:1040F000DAB240F20443C1F200031A714FF0000338
:10410000FB7311E0FB7B03F10502F97B40F208032E
:10411000C1F20003595C40F20443C1F20003995418
:10412000FB7B03F10103FB73FB7B072BEAD940F216
:10413000C003C1F200034FF00D021A70FA7940F289
:10414000C003C1F200031B78DBB2104640F2044109
:10415000C1F200011A46FFF735F901F0F4BF40F251
:10416000B903C1F200031B78DBB2052B5BD140F22F
:104170000443C1F200034FF046021A7040F20443B8
:10418000C1F200034FF042025A7040F20443C1F200
:1041900000034FF044029A7040F2B803C1F20003EA
:1041A0001B78DAB240F20443C1F20003DA7040F245
:1041B000B903C1F200031B78DAB240F20443C1F242
:1041C00000031A714FF00003FB7311E0FB7B03F156
:1041D0000502F97B40F21803C1F20003595C40F27A
:1041E0000443C1F200039954FB7B03F10103FB7309
:1041F000FB7B052BEAD940F2C003C1F200034FF06C
:104200000B021A70FA7940F2C003C1F200031B7866
:10421000DBB2104640F20441C1F200011A46FFF73A
:10422000D1F801F090BF40F2B903C1F200031B784E
:10423000DBB2062B5BD140F20443C1F200034FF026
:1042400046021A7040F20443C1F200034FF04202EA
:104250005A7040F20443C1F200034FF044029A70D6
:1042600040F2B803C1F200031B78DAB240F2044313
:10427000C1F20003DA7040F2B903C1F200031B7807
:10428000DAB240F20443C1F200031A714FF00003A6
:10429000FB7311E0FB7B03F10502F97B40F2200385
:1042A000C1F20003595C40F20443C1F20003995487
:1042B000FB7B03F10103FB73FB7B052BEAD940F287
:1042C000C003C1F200034FF00B021A70FA7940F2FA
:1042D000C003C1F200031B78DBB2104640F2044178
:1042E000C1F200011A46FFF76DF801F02CBF40F251
:1042F000B903C1F200031B78DBB2072B5BD140F29C
:104300000443C1F200034FF046021A7040F2044326
:10431000C1F200034FF042025A7040F20443C1F26E
:1043200000034FF044029A7040F2B803C1F2000358
:104330001B78DAB240F20443C1F20003DA7040F2B3
:10434000B903C1F200031B78DAB240F20443C1F2B0
:1043500000031A714FF00003FB7311E0FB7B03F1C4
:104360000502F97B40F22803C1F20003595C40F2D8
:104370000443C1F200039954FB7B03F10103FB7377
:10438000FB7B052BEAD940F2C003C1F200034FF0DA
:104390000B021A70FA7940F2C003C1F200031B78D5
:1043A000DBB2104640F20441C1F200011A46FFF7A9
:1043B00009F801F0C8BE40F2B903C1F200031B784E
:1043C000DBB2082B5BD140F20443C1F200034FF093
:1043D00046021A7040F20443C1F200034FF0420259
:1043E0005A7040F20443C1F200034FF044029A7045
:1043F00040F2B803C1F200031B78DAB240F2044382
:10440000C1F20003DA7040F2B903C1F200031B7875
:10441000DAB240F20443C1F200031A714FF0000314
:10442000FB7311E0FB7B03F10502F97B40F23C03D7
:10443000C1F20003595C40F20443C1F200039954F5
:10444000FB7B03F10103FB73FB7B0F2BEAD940F2EB
:10445000C003C1F200034FF015021A70FA7940F25E
:10446000C003C1F200031B78DBB2104640F20441E6
:10447000C1F200011A46FEF7A5FF01F064BE40F24A
:10448000B903C1F200031B78DBB2092B5AD140F209
:104490000443C1F200034FF046021A7040F2044395
:1044A000C1F200034FF042025A7040F20443C1F2DD
:1044B00000034FF044029A7040F2B803C1F20003C7
:1044C0001B78DAB240F20443C1F20003DA7040F222
:1044D000B903C1F200031B78DAB240F20443C1F21F
:1044E00000031A7140F25803C1F200031B68DAB2EC
:1044F00040F20443C1F200035A7140F25803C1F282
:1045000000031B684FEA1323DAB240F20443C1F2FE
:1045100000039A7140F2C003C1F200034FF007029A
:104520001A70FA7940F2C003C1F200031B78DBB2C3
:10453000104640F20441C1F200011A46FEF742FF64
:1045400001F001BE40F2B903C1F200031B78DBB2F7
:104550000A2B41F0E78540F20443C1F200034FF01B
:1045600046021A7040F20443C1F200034FF04202C7
:104570005A7040F20443C1F200034FF044029A70B3
:1045800040F2B803C1F200031B78DAB240F20443F0
:10459000C1F20003DA7040F2B903C1F200031B78E4
:1045A000DAB240F20443C1F200031A7140F25C0334
:1045B000C1F200031B68DAB240F20443C1F2000307
:1045C0005A7140F25C03C1F200031B684FEA1323E7
:1045D000DAB240F20443C1F200039A7140F2C00320
:1045E000C1F200034FF007021A70FA7940F2C003DB
:1045F000C1F200031B78DBB2104640F20441C1F265
:1046000000011A46FEF7DEFE01F09DBD40F2B9033F
:10461000C1F200031B78DAB240F26303C1F2000377
:104620001A7040F2A403C1F200034FF001021A70A5
:1046300040F2A503C1F200034FF001021A7001F02D
:1046400082BD40F2B903C1F200031B78DAB240F236
:104650006403C1F200031A7040F2A403C1F2000324
:104660004FF001021A7040F2A503C1F200034FF0AF
:1046700002021A7001F067BD40F2B903C1F20003F3
:104680001B78DAB240F26503C1F200031A7040F2FF
:10469000A403C1F200034FF001021A7040F2A50317
:1046A000C1F200034FF003021A7001F04CBD40F25A
:1046B000B903C1F200031B78DBB2012B0FD140F22A
:1046C0009E03C1F200034FF001021A7040F2A103F1
:1046D000C1F200034FF001021A7001F034BD40F244
:1046E000B903C1F200031B78DBB2022B0FD140F2F9
:1046F0009E03C1F200034FF001021A7040F2A103C1
:10470000C1F200034FF000021A7001F01CBD40F22C
:10471000B903C1F200031B78DBB2032B0FD140F2C7
:104720009F03C1F200034FF001021A7040F2A2038E
:10473000C1F200034FF001021A7001F004BD40F213
:10474000B903C1F200031B78DBB2042B0FD140F296
:104750009F03C1F200034FF001021A7040F2A2035E
:10476000C1F200034FF000021A7001F0ECBC40F2FD
:10477000B903C1F200031B78DBB2052B0FD140F265
:10478000A003C1F200034FF001021A7040F2A3032C
:10479000C1F200034FF001021A7001F0D4BC40F2E4
:1047A000B903C1F200031B78DBB2062B0FD140F234
:1047B000A003C1F200034FF001021A7040F2A303FC
:1047C000C1F200034FF000021A7001F0BCBC40F2CD
:1047D000B903C1F200031B78DBB2072B0FD14CF2F7
:1047E0002003C2F209034FF000529A6140F26203C3
:1047F000C1F200034FF001021A7001F0A4BC40F2B4
:10480000B903C1F200031B78DBB2082B41F08C84A2
:104810004CF22003C2F209034FF00052DA6140F279
:104820006203C1F200034FF000021A7001F08BBC6A
:1048300040F2B903C1F200031B78DBB2012B4DD16A
:1048400040F20443C1F200034FF046021A7040F2F6
:104850000443C1F200034FF042025A7040F2044395
:10486000C1F200034FF044029A7040F2B803C1F263
:1048700000031B78DAB240F20443C1F20003DA709D
:1048800040F2B903C1F200031B78DAB240F20443EC
:10489000C1F200031A7140F2A103C1F200031B78B8
:1048A000DAB240F20443C1F200035A7140F2C0038D
:1048B000C1F200034FF006021A70FA7940F2C00309
:1048C000C1F200031B78DBB2104640F20441C1F292
:1048D00000011A46FEF776FD01F035BC40F2B9033F
:1048E000C1F200031B78DBB2022B4DD140F204432E
:1048F000C1F200034FF046021A7040F20443C1F2C5
:1049000000034FF042025A7040F20443C1F2000328
:104910004FF044029A7040F2B803C1F200031B78D2
:10492000DAB240F20443C1F20003DA7040F2B90394
:10493000C1F200031B78DAB240F20443C1F2000373
:104940001A7140F2A203C1F200031B78DAB240F2FE
:104950000443C1F200035A7140F2C003C1F20003E4
:104960004FF006021A70FA7940F2C003C1F2000358
:104970001B78DBB2104640F20441C1F200011A4636
:10498000FEF720FD01F0DFBB40F2B903C1F20003E6
:104990001B78DBB2032B4DD140F20443C1F200037C
:1049A0004FF046021A7040F20443C1F200034FF088
:1049B00042025A7040F20443C1F200034FF0440235
:1049C0009A7040F2B803C1F200031B78DAB240F2E9
:1049D0000443C1F20003DA7040F2B903C1F20003EC
:1049E0001B78DAB240F20443C1F200031A7140F2BC
:1049F000A303C1F200031B78DAB240F20443C1F210
:104A000000035A7140F2C003C1F200034FF00602E6
:104A10001A70FA7940F2C003C1F200031B78DBB2CE
:104A2000104640F20441C1F200011A46FEF7CAFCEA
:104A300001F089BB40F2B903C1F200031B78DBB27D
:104A4000042B41F0738340F20443C1F200034FF0A2
:104A500046021A7040F20443C1F200034FF04202D2
:104A60005A7040F20443C1F200034FF044029A70BE
:104A700040F2B803C1F200031B78DAB240F20443FB
:104A8000C1F20003DA7040F2B903C1F200031B78EF
:104A9000DAB240F20443C1F200031A7140F2620339
:104AA000C1F200031A7840F20443C1F200035A71C4
:104AB00040F2C003C1F200034FF006021A70FA7907
:104AC00040F2C003C1F200031B78DBB2104640F293
:104AD0000441C1F200011A46FEF774FC01F033BB39
:104AE00040F2B903C1F200031B78DBB2012B56D1AF
:104AF00040F20443C1F200034FF046021A7040F244
:104B00000443C1F200034FF042025A7040F20443E2
:104B1000C1F200034FF044029A7040F2B803C1F2B0
:104B200000031B78DAB240F20443C1F20003DA70EA
:104B300040F2B903C1F200031B78DAB240F2044339
:104B4000C1F200031A7140F21803C1F200031A788F
:104B500040F20443C1F200035A7140F21803C1F25B
:104B600000035A7840F20443C1F200039A7140F204
:104B7000C003C1F200034FF007021A70FA7940F245
:104B8000C003C1F200031B78DBB2104640F20441BF
:104B9000C1F200011A46FEF715FC01F0D4BA40F24A
:104BA000B903C1F200031B78DBB2022B56D140F2ED
:104BB0000443C1F200034FF046021A7040F204436E
:104BC000C1F200034FF042025A7040F20443C1F2B6
:104BD00000034FF044029A7040F2B803C1F20003A0
:104BE0001B78DAB240F20443C1F20003DA7040F2FB
:104BF000B903C1F200031B78DAB240F20443C1F2F8
:104C000000031A7140F21803C1F200039A7840F2CF
:104C10000443C1F200035A7140F21803C1F20003C9
:104C2000DA7840F20443C1F200039A7140F2C00303
:104C3000C1F200034FF007021A70FA7940F2C00384
:104C4000C1F200031B78DBB2104640F20441C1F20E
:104C500000011A46FEF7B6FB01F075BA40F2B9033F
:104C6000C1F200031B78DBB2032B41F0618240F2FA
:104C70000443C1F200034FF046021A7040F20443AD
:104C8000C1F200034FF042025A7040F20443C1F2F5
:104C900000034FF044029A7040F2B803C1F20003DF
:104CA0001B78DAB240F20443C1F20003DA7040F23A
:104CB000B903C1F200031B78DAB240F20443C1F237
:104CC00000031A7140F21803C1F200031A7940F28E
:104CD0000443C1F200035A7140F21803C1F2000309
:104CE0005A7940F20443C1F200039A7140F2C003C2
:104CF000C1F200034FF007021A70FA7940F2C003C4
:104D0000C1F200031B78DBB2104640F20441C1F24D
:104D100000011A46FEF756FB01F015BA40F2B9033E
:104D2000C1F200031B78DBB2012B56D140F20443E1
:104D3000C1F200034FF046021A7040F20443C1F280
:104D400000034FF042025A7040F20443C1F20003E4
:104D50004FF044029A7040F2B803C1F200031B788E
:104D6000DAB240F20443C1F20003DA7040F2B90350
:104D7000C1F200031B78DAB240F20443C1F200032F
:104D80001A7140F22003C1F200031A7840F2044382
:104D9000C1F200035A7140F22003C1F200035A78B5
:104DA00040F20443C1F200039A7140F2C003C1F221
:104DB00000034FF007021A70FA7940F2C003C1F203
:104DC00000031B78DBB2104640F20441C1F200013F
:104DD0001A46FEF7F7FA01F0B6B940F2B903C1F28C
:104DE00000031B78DBB2022B56D140F20443C1F220
:104DF00000034FF046021A7040F20443C1F2000370
:104E00004FF042025A7040F20443C1F200034FF0E7
:104E100044029A7040F2B803C1F200031B78DAB280
:104E200040F20443C1F20003DA7040F2B903C1F268
:104E300000031B78DAB240F20443C1F200031A7196
:104E400040F22003C1F200039A7840F20443C1F219
:104E500000035A7140F22003C1F20003DA7840F2F5
:104E60000443C1F200039A7140F2C003C1F200038F
:104E70004FF007021A70FA7940F2C003C1F2000342
:104E80001B78DBB2104640F20441C1F200011A4621
:104E9000FEF798FA01F057B940F2B903C1F20003E6
:104EA0001B78DBB2032B41F0458140F20443C1F291
:104EB00000034FF046021A7040F20443C1F20003AF
:104EC0004FF042025A7040F20443C1F200034FF027
:104ED00044029A7040F2B803C1F200031B78DAB2C0
:104EE00040F20443C1F20003DA7040F2B903C1F2A8
:104EF00000031B78DAB240F20443C1F200031A71D6
:104F000040F22003C1F200031A7940F20443C1F2D7
:104F100000035A7140F22003C1F200035A7940F2B3
:104F20000443C1F200039A7140F2C003C1F20003CE
:104F30004FF007021A70FA7940F2C003C1F2000381
:104F40001B78DBB2104640F20441C1F200011A4660
:104F5000FEF738FA01F0F7B840F2B903C1F20003E6
:104F60001B78DBB2012B56D140F20443C1F200039F
:104F70004FF046021A7040F20443C1F200034FF0B2
:104F800042025A7040F20443C1F200034FF044025F
:104F90009A7040F2B803C1F200031B78DAB240F213
:104FA0000443C1F20003DA7040F2B903C1F2000316
:104FB0001B78DAB240F20443C1F200031A7140F2E6
:104FC0002803C1F200031A7840F20443C1F200033F
:104FD0005A7140F22803C1F200035A7840F20443A8
:104FE000C1F200039A7140F2C003C1F200034FF016
:104FF00007021A70FA7940F2C003C1F200031B786D
:10500000DBB2104640F20441C1F200011A46FEF73D
:10501000D9F901F098B840F2B903C1F200031B7846
:10502000DBB2022B56D140F20443C1F200034FF031
:1050300046021A7040F20443C1F200034FF04202EC
:105040005A7040F20443C1F200034FF044029A70D8
:1050500040F2B803C1F200031B78DAB240F2044315
:10506000C1F20003DA7040F2B903C1F200031B7809
:10507000DAB240F20443C1F200031A7140F228038D
:10508000C1F200039A7840F20443C1F200035A715E
:1050900040F22803C1F20003DA7840F20443C1F27F
:1050A00000039A7140F2C003C1F200034FF00702FF
:1050B0001A70FA7940F2C003C1F200031B78DBB228
:1050C000104640F20441C1F200011A46FEF77AF997
:1050D00001F039B840F2B903C1F200031B78DBB22A
:1050E000032B41F0298040F20443C1F200034FF04A
:1050F00046021A7040F20443C1F200034FF042022C
:105100005A7040F20443C1F200034FF044029A7017
:1051100040F2B803C1F200031B78DAB240F2044354
:10512000C1F20003DA7040F2B903C1F200031B7848
:10513000DAB240F20443C1F200031A7140F22803CC
:10514000C1F200031A7940F20443C1F200035A711C
:1051500040F22803C1F200035A7940F20443C1F23D
:1051600000039A7140F2C003C1F200034FF007023E
:105170001A70FA7940F2C003C1F200031B78DBB267
:10518000104640F20441C1F200011A46FEF71AF936
:1051900000F0D9BF40F20443C1F200034FF04602D1
:1051A0001A7040F20443C1F200034FF042025A70F9
:1051B00040F20443C1F200034FF044029A7040F2FF
:1051C000B803C1F200031B78DAB240F20443C1F223
:1051D0000003DA7040F2B903C1F200031B78DAB2BF
:1051E00040F20443C1F200031A7140F23003C1F2ED
:1051F00000031A7840F20443C1F200035A7140F2EE
:10520000C003C1F200034FF006021A70FA7940F2AF
:10521000C003C1F200031B78DBB2104640F2044128
:10522000C1F200011A46FEF7CDF800F08CBF40F243
:105230000443C1F200034FF046021A7040F20443E7
:10524000C1F200034FF042025A7040F20443C1F22F
:1052500000034FF044029A7040F2B803C1F2000319
:105260001B78DAB240F20443C1F20003DA7040F274
:10527000B903C1F200031B78DAB240F20443C1F271
:1052800000031A7140F23003C1F200035A7840F271
:105290000443C1F200035A7140F2C003C1F200039B
:1052A0004FF006021A70FA7940F2C003C1F200030F
:1052B0001B78DBB2104640F20441C1F200011A46ED
:1052C000FEF780F800F03FBF40F20443C1F2000354
:1052D0004FF046021A7040F20443C1F200034FF04F
:1052E00042025A7040F20443C1F200034FF04402FC
:1052F0009A7040F2B803C1F200031B78DAB240F2B0
:105300000443C1F20003DA7040F2B903C1F20003B2
:105310001B78DAB240F20443C1F200031A7140F282
:105320003003C1F200039A7840F20443C1F2000353
:105330005A7140F2C003C1F200034FF006021A7026
:10534000FA7940F2C003C1F200031B78DBB21046C9
:1053500040F20441C1F200011A46FEF733F800F0B2
:10536000F2BE40F2B903C1F200031B78DBB2002B9E
:1053700040F0E48640F20443C1F200034FF04602DD
:105380001A7040F20443C1F200034FF042025A7017
:1053900040F20443C1F200034FF044029A7040F21D
:1053A000B803C1F200031B78DAB240F20443C1F241
:1053B0000003DA7040F2B903C1F200031B78DAB2DD
:1053C00040F20443C1F200031A7140F23003C1F20B
:1053D00000031A7840F20443C1F200035A7140F20C
:1053E0003003C1F200035A7840F20443C1F20003D3
:1053F0009A7140F23003C1F200039A7840F20443FC
:10540000C1F20003DA7140F2C003C1F200034FF0B1
:1054100008021A70FA7940F2C003C1F200031B7847
:10542000DBB2104640F20441C1F200011A46FDF71A
:10543000C9FF00F088BE40F20443C1F200034FF000
:1054400046021A7040F20443C1F200034FF04202D8
:105450005A7040F20443C1F200034FF044029A70C4
:1054600040F2B803C1F200031B78DAB240F2044301
:10547000C1F20003DA7040F2B903C1F200031B78F5
:10548000DAB240F20443C1F200031A714FF0000394
:10549000FB7311E0FB7B03F10502F97B40F2000393
:1054A000C1F20003595C40F20443C1F20003995475
:1054B000FB7B03F10103FB73FB7B072BEAD940F273
:1054C000C003C1F200034FF005021A704FF0000351
:1054D000FB7311E0FB7B03F10D02F97B40F210033B
:1054E000C1F20003595C40F20443C1F20003995435
:1054F000FB7B03F10103FB73FB7B072BEAD940F233
:10550000C003C1F200031B78DBB203F10D03DAB272
:1055100040F2C003C1F200031A704FF00003FB73A6
:1055200011E0FB7B03F11502F97B40F20803C1F2A5
:105530000003595C40F20443C1F200039954FB7B21
:1055400003F10103FB73FB7B072BEAD940F2C00395
:10555000C1F200031B78DBB203F11503DAB240F2AB
:10556000C003C1F200031A704FF00003FB7311E097
:10557000FB7B03F11D02F97B40F21803C1F200032B
:10558000595C40F20443C1F200039954FB7B03F1E0
:105590000103FB73FB7B052BEAD940F2C003C1F288
:1055A00000031B78DBB203F11D03DAB240F2C00343
:1055B000C1F200031A704FF00003FB7311E0FB7B94
:1055C00003F12302F97B40F22003C1F20003595C8E
:1055D00040F20443C1F200039954FB7B03F1010341
:1055E000FB73FB7B052BEAD940F2C003C1F2000339
:1055F0001B78DBB203F12303DAB240F2C003C1F23D
:1056000000031A704FF00003FB7311E0FB7B03F102
:105610002902F97B40F22803C1F20003595C40F2F1
:105620000443C1F200039954FB7B03F10103FB73B4
:10563000FB7B052BEAD940F2C003C1F200031B78C3
:10564000DBB203F12903DAB240F2C003C1F2000376
:105650001A7040F25803C1F200031B68DAB240F23C
:105660000443C1F2000383F82F2040F25803C1F233
:1056700000031B684FEA1323DAB240F20443C1F27D
:10568000000383F8302040F2C003C1F200031B780E
:10569000DBB203F12F03DAB240F2C003C1F2000320
:1056A0001A7040F25C03C1F200031B68DAB240F2E8
:1056B0000443C1F2000383F8312040F25C03C1F2DD
:1056C00000031B684FEA1323DAB240F20443C1F22D
:1056D000000383F8322040F2C003C1F200031B78BC
:1056E000DBB203F13103DAB240F2C003C1F20003CE
:1056F0001A704FF00003FB7311E0FB7B03F13302E0
:10570000F97B40F23003C1F20003595C40F20443DC
:10571000C1F200039954FB7B03F10103FB73FB7B94
:10572000022BEAD940F2C003C1F200031B78DBB2BE
:1057300003F13303DAB240F2C003C1F200031A707E
:1057400040F2C003C1F200034FF036021A70FA793A
:1057500040F2C003C1F200031B78DBB2104640F2F6
:105760000441C1F200011A46FDF72CFE00F0EBBC2B
:1057700040F26003C1F200034FF001021A7000F022
:10578000E2BC40F2B903C1F200031B78DAB240F286
:10579000D003C1F200031A7040F26103C1F20003AA
:1057A0004FF001021A7000F0CEBC40F20443C1F287
:1057B00000034FF046021A7040F20443C1F20003A6
:1057C0004FF042025A7040F20443C1F200034FF01E
:1057D00044029A7040F2B803C1F200031B78DAB2B7
:1057E00040F20443C1F20003DA7040F2D003C1F288
:1057F00000031B78DAB240F20443C1F200031A71CD
:1058000040F2C003C1F200034FF005021A70FA79AA
:1058100040F2C003C1F200031B78DBB2104640F235
:105820000441C1F200011A46FDF7CCFD00F08BBC2B
:1058300040F2D803C1F200031A6840F2C403C1F277
:1058400000031A6040F20443C1F200034FF0460225
:105850001A7040F20443C1F200034FF042025A7042
:1058600040F20443C1F200034FF044029A7040F248
:10587000B803C1F200031B78DAB240F20443C1F26C
:105880000003DA7040F20443C1F200034FF000025B
:105890001A7140F2C403C1F200031B684FEA13639C
:1058A000DAB240F20443C1F200035A7140F2C40379
:1058B000C1F200031B684FEA2343DAB240F204430B
:1058C000C1F200039A7140F2C403C1F200031B68E5
:1058D0004FEA2323DAB240F20443C1F20003DA7143
:1058E00040F2C403C1F200031B68DAB240F2044381
:1058F000C1F200031A7240F2C003C1F200034FF07C
:1059000009021A70FA7940F2C003C1F200031B7851
:10591000DBB2104640F20441C1F200011A46FDF725
:1059200051FD00F010BC40F2D403C1F200031A682C
:1059300040F2C403C1F200031A6040F20443C1F212
:1059400000034FF046021A7040F20443C1F2000314
:105950004FF042025A7040F20443C1F200034FF08C
:1059600044029A7040F2B803C1F200031B78DAB225
:1059700040F20443C1F20003DA7040F20443C1F282
:1059800000034FF000021A7140F2C403C1F2000399
:105990001B684FEA1363DAB240F20443C1F200031A
:1059A0005A7140F2C403C1F200031B684FEA23435B
:1059B000DAB240F20443C1F200039A7140F2C40328
:1059C000C1F200031B684FEA2323DAB240F204431A
:1059D000C1F20003DA7140F2C403C1F200031B6894
:1059E000DAB240F20443C1F200031A7240F2C0037B
:1059F000C1F200034FF009021A70FA7940F2C003B5
:105A0000C1F200031B78DBB2104640F20441C1F240
:105A100000011A46FDF7D6FC95E340F2B903C1F246
:105A200000031B78DBB2012B0ED140F29B03C1F2C5
:105A300000034FF001021A7040F29A03C1F2000312
:105A40004FF001021A707EE340F2B903C1F2000385
:105A50001B78DBB2022B0ED140F29B03C1F2000394
:105A60004FF002021A7040F29A03C1F200034FF0A5
:105A700001021A7067E340F2B903C1F200031B7818
:105A8000DBB2032B0ED140F29B03C1F200034FF0B7
:105A900004021A7040F29A03C1F200034FF00102AF
:105AA0001A7050E340F2B903C1F200031B78DBB275
:105AB000042B0ED140F29B03C1F200034FF003020E
:105AC0001A7040F29A03C1F200034FF001021A70FB
:105AD00039E340F2B903C1F200031B78DBB2062BB5
