:100000000080001029010000F5000000F70000004A
:10001000F9000000FB000000FD00000000000000EF
:10002000000000000000000000000000FF000000D1
:1000300001010000000000000301000005010000B4
:100040006901000069010000690100006901000008
:1000500069010000B52A0000412C0000D52D0000E8
:10006000952F000069010000AD090000590E000045
:100070001D13000069010000690100006901000012
:1000800069010000690100006901000069010000C8
:1000900069010000690100006901000069010000B8
:1000A00069010000690100006901000069010000A8
:1000B0006901000069010000690100006901000098
:1000C00069010000690100006901000090680000FA
:1000D00000000010580000009068000000C00720D9
:1000E0000000000058000010AC05000000C0072010
:1000F00000000000FEE7FEE7FEE7FEE7FEE7FEE7A2
:10010000FEE7FEE7FEE710B5002302E01C585C5056
:1001100004339342FAD310BD002302E000221A50A8
:1001200004338B42FAD3704710B50C4C05E02068BD
:100130006168A2680C34FFF7E6FF094B9C42F6D3D6
:1001400004E0206861680834FFF7E6FF054B9C4235
:10015000F7D300F0FFF906F0B5F9FEE7CC00000098
:10016000E4000000F4000000FEE700BFFFFFFFFF17
:10017000FFFFFFFFFFFFFFFFFFFFFFFFFFFFFFFF8F
:10018000FFFFFFFFFFFFFFFFFFFFFFFFFFFFFFFF7F
:10019000FFFFFFFFFFFFFFFFFFFFFFFFFFFFFFFF6F
:1001A000FFFFFFFFFFFFFFFFFFFFFFFFFFFFFFFF5F
:1001B000FFFFFFFFFFFFFFFFFFFFFFFFFFFFFFFF4F
:1001C000FFFFFFFFFFFFFFFFFFFFFFFFFFFFFFFF3F
:1001D000FFFFFFFFFFFFFFFFFFFFFFFFFFFFFFFF2F
:1001E000FFFFFFFFFFFFFFFFFFFFFFFFFFFFFFFF1F
:1001F000FFFFFFFFFFFFFFFFFFFFFFFFFFFFFFFF0F
:10020000FFFFFFFFFFFFFFFFFFFFFFFFFFFFFFFFFE
:10021000FFFFFFFFFFFFFFFFFFFFFFFFFFFFFFFFEE
:10022000FFFFFFFFFFFFFFFFFFFFFFFFFFFFFFFFDE
:10023000FFFFFFFFFFFFFFFFFFFFFFFFFFFFFFFFCE
:10024000FFFFFFFFFFFFFFFFFFFFFFFFFFFFFFFFBE
:10025000FFFFFFFFFFFFFFFFFFFFFFFFFFFFFFFFAE
:10026000FFFFFFFFFFFFFFFFFFFFFFFFFFFFFFFF9E
:10027000FFFFFFFFFFFFFFFFFFFFFFFFFFFFFFFF8E
:10028000FFFFFFFFFFFFFFFFFFFFFFFFFFFFFFFF7E
:10029000FFFFFFFFFFFFFFFFFFFFFFFFFFFFFFFF6E
:1002A000FFFFFFFFFFFFFFFFFFFFFFFFFFFFFFFF5E
:1002B000FFFFFFFFFFFFFFFFFFFFFFFFFFFFFFFF4E
:1002C000FFFFFFFFFFFFFFFFFFFFFFFFFFFFFFFF3E
:1002D000FFFFFFFFFFFFFFFFFFFFFFFFFFFFFFFF2E
:1002E000FFFFFFFFFFFFFFFFFFFFFFFFFFFFFFFF1E
:1002F000FFFFFFFFFFFFFFFFFFFFFFFFFFFFFFFF0E
:1003000080B500AF00F042F84FF002004FF4E13149
:1003100002F00AFF01F052FE02F024F801F0CEFADA
:1003200001F05EFA00F004F801F0C0FB80BD00BFF0
:1003300080B485B000AF4FF00003FB604FF00003C6
:10034000BB604FF000037B604FF00003BB6014E024
:100350004FF00003FB6007E07B6803F101037B6063
:10036000FB6803F10103FB60FA684EF65F239A42D3
:10037000F2D9BB6803F10103BB60BB686D2BE7D901
:1003800007F11407BD4680BC704700BF80B485B03C
:1003900000AF4FF00003FB604FF00003BB604FF075
:1003A00000037B604FF00003BB6014E04FF00003DC
:1003B000FB6007E07B6803F101037B60FB6803F1EE
:1003C0000103FB60FA684EF65F239A42F2D9BB68DC
:1003D00003F10103BB60BB680A2BE7D907F11407DF
:1003E000BD4680BC704700BF80B500AF00F0B2F8DA
:1003F00000F0A4F9FFF784FFFFF79AFF4FF0010028
:100400004FF0010101F000FD4FF0140046F66C01C1
:10041000C0F2000101F08CFB4FF0020001F06CFF14
:1004200001F016FF4FF00A0001F0FAFF01F0CCFDD9
:10043000FFF77EFF4FF064004FF4167102F028F8CA
:1004400001F07CFE0346184606F03EF803461A46C5
:1004500040F27803C1F200031A6040F27803C1F25F
:1004600000031B684FF002004FF001011A464FF0E5
:10047000040301F0A5FBFFF75BFF4FF064004FF4AE
:10048000167102F0B1F801F059FE0346184606F065
:100490001BF803461A4640F27803C1F200031A60C3
:1004A00040F27803C1F200031B684FF003004FF0E5
:1004B00001011A464FF0040301F082FBFFF738FFF9
:1004C0004FF04B006FF0590102F042F901F0ACFD22
:1004D0000346184605F0F8FF03461A4640F2780333
:1004E000C1F200031A6040F27803C1F200031B68F6
:1004F0004FF004004FF001011A464FF0040301F0E1
:100500005FFBFFF715FF4FF04B004FF0B40102F017
:100510001FF901F089FD0346184605F0D5FF034693
:100520001A4640F27803C1F200031A6040F27803E1
:10053000C1F200031B684FF004004FF00A011A4695
:100540004FF0040301F03CFBFFF7F2FE4FF0000315
:10055000184680BD80B483B000AF4FF000037B60CD
:100560004FF44043C4F20F034FF02002C3F8A02120
:1005700000BF4FF44043C4F20F03D3F8A03103F09F
:100580004003002BF5D04FF44043C4F20F034FF06B
:100590000202C3F804214FF44043C4F20F034FF0AA
:1005A0000002C3F8A8214FF44043C4F20F034FF0F8
:1005B0000002C3F8AC214FF44043C4F20F034FF0E4
:1005C0000102C3F80C214FF44043C4F20F034FF073
:1005D0005902C0F20502C3F884204FF44043C4F22C
:1005E0000F034FF00102C3F880204FF44043C4F2E0
:1005F0000F034FF0AA02C3F88C204FF44043C4F21B
:100600000F034FF05502C3F88C204FF44043C4F25F
:100610000F03D3F80C31022B0BD000BF4FF4404333
:10062000C4F20F03D3F8883003F08063002BF5D0B9
:100630000AE04FF000037B6003E07B6803F10103F5
:100640007B607B68642BF8D94FF44043C4F20F03FE
:100650004FF00302C3F880204FF44043C4F20F036D
:100660004FF0AA02C3F88C204FF44043C4F20F03AA
:100670004FF05502C3F88C204FF44043C4F20F03EF
:100680004FF02302C3F8A4204FF44043C4F20F03F9
:100690004FF00102C3F8A0204FF44043C4F20F030F
:1006A0004FF0AA02C3F8AC204FF44043C4F20F034A
:1006B0004FF05502C3F8AC2000BF4FF44043C4F2E2
:1006C0000F03D3F8A83003F48063002BF5D04FF468
:1006D0004043C4F20F034FF00302C3F8A0204FF4CD
:1006E0004043C4F20F034FF0AA02C3F8AC204FF40A
:1006F0004043C4F20F034FF05502C3F8AC204FF44F
:100700004043C4F20F0348F2DE72C0F22842C3F83D
:10071000C4204FF44043C4F20F034FF00002C3F86B
:10072000C8214FF44043C4F20F0343F23A021A6067
:1007300007F10C07BD4680BC704700BF80B400AF16
:100740004FF44043C4F20F03D3F888304FEA1363E9
:1007500003F00303032B40F0B2804FF44043C4F294
:100760000F03D3F80C3103F00303032B00F2FD80D9
:1007700001A252F823F000BF89070000F107000032
:100780005B080000890700004FF44043C4F20F03E8
:10079000D3F888304FEA43434FEA534303F1010350
:1007A0004FEA43024FF44043C4F20F03D3F88830BA
:1007B0004FEA134303F0FF0303F10103B2FBF3F22B
:1007C0004FF41063C0F23D0303FB02F24FF44043C9
:1007D000C4F20F03D3F8043103F0FF0303F1010364
:1007E000B2FBF3F240F24C03C1F200031A60BDE029
:1007F0004FF44043C4F20F03D3F888304FEA434329
:100800004FEA534303F101034FEA43024FF44043DD
:10081000C4F20F03D3F888304FEA134303F0FF0309
:1008200003F10103B2FBF3F24FF4D853C0F2B70364
:1008300003FB02F24FF44043C4F20F03D3F8043138
:1008400003F0FF0303F10103B2FBF3F240F24C03A8
:10085000C1F200031A6000BF88E04FF44043C4F2C5
:100860000F03D3F888304FEA43434FEA534303F171
:1008700001034FEA43024FF44043C4F20F03D3F89D
:1008800088304FEA134303F0FF0303F10103B2FB87
:10089000F3F34FF4FA4202FB03F24FF44043C4F285
:1008A0000F03D3F8043103F0FF0303F10103B2FB9C
:1008B000F3F240F24C03C1F200031A6056E04FF429
:1008C0004043C4F20F03D3F80C3103F00303032BAE
:1008D0004CD801A252F823F0E908000015090000E5
:1008E00041090000E90800004FF44043C4F20F033F
:1008F000D3F8043103F0FF0303F101024FF4106356
:10090000C0F23D03B3FBF2F240F24C03C1F200032C
:100910001A602BE04FF44043C4F20F03D3F80431C4
:1009200003F0FF0303F101024FF4D853C0F2B70301
:10093000B3FBF2F240F24C03C1F200031A6015E07F
:100940004FF44043C4F20F03D3F8043103F0FF0324
:1009500003F101034FF4FA42B2FBF3F240F24C030D
:10096000C1F200031A6000BF00E000BFBD4680BCBA
:10097000704700BF80B483B000AF0346FB714FF4F3
:100980006143CEF2000397F907204FEA5212F9793A
:1009900001F01F014FF0010000FA01F143F82210AD
:1009A00007F10C07BD4680BC704700BF80B483B020
:1009B00000AF40F28803C1F200034FF000021A605A
:1009C0004FF44043C4F201035B68FB71FB79A3F170
:1009D0000803502B00F22B8201A252F823F000BF33
:1009E000250B00002F0E00002F0E00002F0E000020
:1009F0002F0E00002F0E00002F0E00002F0E000003
:100A0000710B00002F0E00002F0E00002F0E0000B3
:100A10002F0E00002F0E00002F0E00002F0E0000E2
:100A2000BD0B00002F0E00002F0E00002F0E000047
:100A30002F0E00002F0E00002F0E00002F0E0000C2
:100A4000030E00002F0E00002F0E00002F0E0000DE
:100A50002F0E00002F0E00002F0E00002F0E0000A2
:100A6000270C00002F0E00002F0E00002F0E00009C
:100A70002F0E00002F0E00002F0E00002F0E000082
:100A8000BB0C00002F0E00002F0E00002F0E0000E8
:100A90002F0E00002F0E00002F0E00002F0E000062
:100AA0002F0E00002F0E00002F0E00002F0E000052
:100AB0002F0E00002F0E00002F0E00002F0E000042
:100AC000E70C00002F0E00002F0E00002F0E00007C
:100AD0002F0E00002F0E00002F0E00002F0E000022
:100AE000030E00002F0E00002F0E00002F0E00003E
:100AF0002F0E00002F0E00002F0E00002F0E000002
:100B0000310D00002F0E00002F0E00002F0E0000F0
:100B10002F0E00002F0E00002F0E00002F0E0000E1
:100B2000A90D000040F2A003C1F200034FF0000243
:100B30001A604FF44043C4F2010340F2A002C1F234
:100B40000002116840F2B412C1F20002525CD2B24B
:100B50009A6001F1010240F2A003C1F200031A60A1
:100B60004FF44043C4F201034FF028029A616DE153
:100B700040F29403C1F200034FF000021A604FF4F8
:100B80004043C4F2010340F2A002C1F20002116826
:100B900040F2B412C1F20002525CD2B29A6001F18A
:100BA000010240F2A003C1F200031A604FF4404377
:100BB000C4F201034FF028029A6147E140F2742326
:100BC000C1F200031B68012B0ED14FF44043C4F265
:100BD00001034FF010021A6040F27C03C1F20003DF
:100BE0004FF007021A6016E04FF44043C4F20103CD
:100BF00040F2A002C1F20002116840F2B412C1F248
:100C00000002525CD2B29A6001F1010240F2A003EC
:100C1000C1F200031A604FF44043C4F201034FF0E5
:100C200008029A6112E140F27423C1F200031B68CA
:100C30001A4640F2A003C1F200031B689A4217D97A
:100C40004FF44043C4F2010340F2A002C1F200029B
:100C5000116840F2B412C1F20002525CD2B29A6042
:100C600001F1010240F2A003C1F200031A601CE08E
:100C700040F2E803C1F200031B68002B07D04FF4D9
:100C80004043C4F201034FF020021A600DE04FF41C
:100C90004043C4F201034FF010021A6040F27C039B
:100CA000C1F200034FF00C021A604FF44043C4F24B
:100CB00001034FF008029A61C8E04FF44043C4F2C8
:100CC00001034FF010021A6040F27C03C1F20003EE
:100CD0004FF009021A604FF44043C4F201034FF091
:100CE00008029A61B2E040F29403C1F200031B686B
:100CF00003F1010240F2E803C1F200031B689A42CB
:100D000007D24FF44043C4F201034FF004021A60CB
:100D100006E04FF44043C4F201034FF004029A612D
:100D20004FF44043C4F201034FF008029A618DE092
:100D300040F29403C1F200031A684FF44043C4F236
:100D400001039B68D9B240F2F403C1F20003995445
:100D500002F1010240F29403C1F200031A6040F272
:100D60009403C1F200031B6803F1010240F2E8039F
:100D7000C1F200031B689A4207D24FF44043C4F209
:100D800001034FF004021A6006E04FF44043C4F23E
:100D900001034FF004029A614FF44043C4F201038F
:100DA0004FF008029A6151E040F29403C1F200034F
:100DB0001A684FF44043C4F201039B68D9B240F271
:100DC000F403C1F20003995402F1010240F29403CA
:100DD000C1F200031A6040F27C03C1F200034FF03D
:100DE0000C021A604FF44043C4F201034FF01002AA
:100DF0001A604FF44043C4F201034FF008029A61B5
:100E000024E04FF44043C4F201034FF010021A6093
:100E100040F27C03C1F200034FF008021A604FF465
:100E20004043C4F201034FF008029A610EE040F221
:100E30007C03C1F200034FF00A021A604FF44043F2
:100E4000C4F201034FF008029A6100BF07F10C07DA
:100E5000BD4680BC704700BF80B483B000AF40F295
:100E60008803C1F200034FF000025A604FF4404380
:100E7000C4F205035B68FB71FB79A3F10803502BF7
:100E800000F2378201A252F823F000BFD10F000018
:100E9000F3120000F3120000F3120000F31200003E
:100EA000F3120000F3120000F31200002110000002
:100EB000F3120000F3120000F3120000F31200001E
:100EC000F3120000F3120000F31200007110000092
:100ED000F3120000F3120000F3120000F3120000FE
:100EE000F3120000F3120000F3120000C71200001A
:100EF000F3120000F3120000F3120000F3120000DE
:100F0000F3120000F3120000F3120000DF100000E3
:100F1000F3120000F3120000F3120000F3120000BD
:100F2000F3120000F3120000F3120000771100002A
:100F3000F3120000F3120000F3120000F31200009D
:100F4000F3120000F3120000F3120000F31200008D
:100F5000F3120000F3120000F3120000F31200007D
:100F6000F3120000F3120000F3120000A3110000BE
:100F7000F3120000F3120000F3120000F31200005D
:100F8000F3120000F3120000F3120000C712000079
:100F9000F3120000F3120000F3120000F31200003D
:100FA000F3120000F3120000F3120000ED11000034
:100FB000F3120000F3120000F3120000F31200001D
:100FC000F3120000F3120000F31200006912000097
:100FD00040F2A403C1F200034FF000021A604FF484
:100FE0004043C4F2050340F2A402C1F200021168BA
:100FF00040F2B412C1F20002521892F84020D2B26C
:101000009A6001F1010240F2A403C1F200031A60E8
:101010004FF44043C4F205034FF028029A6177E190
:1010200040F29803C1F200034FF000021A604FF43F
:101030004043C4F2050340F2A402C1F20002116869
:1010400040F2B412C1F20002521892F84020D2B21B
:101050009A6001F1010240F2A403C1F200031A6098
:101060004FF44043C4F205034FF028029A614FE168
:1010700040F27423C1F200035B68012B0ED14FF4E0
:101080004043C4F205034FF010021A6040F27C03A3
:10109000C1F200034FF007025A6018E04FF44043DA
:1010A000C4F2050340F2A402C1F20002116840F24A
:1010B000B412C1F20002521892F84020D2B29A60E3
:1010C00001F1010240F2A403C1F200031A604FF4DF
:1010D0004043C4F205034FF008029A6118E140F260
:1010E0007423C1F200035B681A4640F2A403C1F204
:1010F00000031B689A4219D94FF44043C4F2050318
:1011000040F2A402C1F20002116840F2B412C1F22E
:101110000002521892F84020D2B29A6001F1010206
:1011200040F2A403C1F200031A601CE040F2E8039D
:10113000C1F200035B68002B07D04FF44043C4F2B8
:1011400005034FF020021A600DE04FF44043C4F253
:1011500005034FF010021A6040F27C03C1F2000355
:101160004FF00C025A604FF44043C4F205034FF0B5
:1011700008029A61CCE04FF44043C4F205034FF0FB
:1011800010021A6040F27C03C1F200034FF0090222
:101190005A604FF44043C4F205034FF008029A61CD
:1011A000B6E040F29803C1F200031B6803F10102AC
:1011B00040F2E803C1F200035B689A4207D24FF4A1
:1011C0004043C4F205034FF004021A6006E04FF4F6
:1011D0004043C4F205034FF004029A614FF44043C8
:1011E000C4F205034FF008029A6191E040F29803BF
:1011F000C1F200031A684FF44043C4F205039B6830
:10120000D9B240F2F403C1F200039B1883F84010F6
:1012100002F1010240F29803C1F200031A6040F2A9
:101220009803C1F200031B6803F1010240F2E803D6
:10123000C1F200035B689A4207D24FF44043C4F204
:1012400005034FF004021A6006E04FF44043C4F275
:1012500005034FF004029A614FF44043C4F20503C2
:101260004FF008029A6153E040F29803C1F2000384
:101270001A684FF44043C4F205039B68D9B240F2A8
:10128000F403C1F200039B1883F8401002F101023D
:1012900040F29803C1F200031A6040F27C03C1F2ED
:1012A00000034FF00C025A604FF44043C4F20503B0
:1012B0004FF010021A604FF44043C4F205034FF0A0
:1012C00008029A6124E04FF44043C4F205034FF052
:1012D00010021A6040F27C03C1F200034FF00802D2
:1012E0005A604FF44043C4F205034FF008029A617C
:1012F0000EE040F27C03C1F200034FF00A025A6094
:101300004FF44043C4F205034FF008029A6100BF56
:1013100007F10C07BD4680BC704700BF80B483B0A6
:1013200000AF40F28803C1F200034FF000029A6060
:101330004FF00003C4F20A035B68FB71FB79A3F171
:101340000803502B00F2378201A252F823F000BFAD
:1013500095140000B7170000B7170000B71700007A
:10136000B7170000B7170000B7170000B717000045
:10137000E5140000B7170000B7170000B71700000A
:10138000B7170000B7170000B7170000B717000025
:1013900035150000B7170000B7170000B717000099
:1013A000B7170000B7170000B7170000B717000005
:1013B0008B170000B7170000B7170000B717000021
:1013C000B7170000B7170000B7170000B7170000E5
:1013D000A3150000B7170000B7170000B7170000EB
:1013E000B7170000B7170000B7170000B7170000C5
:1013F0003B160000B7170000B7170000B717000032
:10140000B7170000B7170000B7170000B7170000A4
:10141000B7170000B7170000B7170000B717000094
:10142000B7170000B7170000B7170000B717000084
:1014300067160000B7170000B7170000B7170000C5
:10144000B7170000B7170000B7170000B717000064
:101450008B170000B7170000B7170000B717000080
:10146000B7170000B7170000B7170000B717000044
:10147000B1160000B7170000B7170000B71700003B
:10148000B7170000B7170000B7170000B717000024
:101490002D17000040F2A803C1F200034FF0000234
:1014A0001A604FF00003C4F20A0340F2A802C1F22E
:1014B0000002116840F2B412C1F20002521892F810
:1014C0008020D2B29A6001F1010240F2A803C1F279
:1014D00000031A604FF00003C4F20A034FF0280221
:1014E0009A6177E140F29C03C1F200034FF00002E1
:1014F0001A604FF00003C4F20A0340F2A802C1F2DE
:101500000002116840F2B412C1F20002521892F8BF
:101510008020D2B29A6001F1010240F2A803C1F228
:1015200000031A604FF00003C4F20A034FF02802D0
:101530009A614FE140F27423C1F200039B68012BD2
:101540000ED14FF00003C4F20A034FF010021A60EC
:1015500040F27C03C1F200034FF007029A6018E0EA
:101560004FF00003C4F20A0340F2A802C1F20002E5
:10157000116840F2B412C1F20002521892F88020B1
:10158000D2B29A6001F1010240F2A803C1F2000355
:101590001A604FF00003C4F20A034FF008029A6188
:1015A00018E140F27423C1F200039B681A4640F22E
:1015B000A803C1F200031B689A4219D94FF0000337
:1015C000C4F20A0340F2A802C1F20002116840F21C
:1015D000B412C1F20002521892F88020D2B29A607E
:1015E00001F1010240F2A803C1F200031A601CE0FD
:1015F00040F2E803C1F200039B68002B07D04FF0D4
:101600000003C4F20A034FF020021A600DE04FF00D
:101610000003C4F20A034FF010021A6040F27C0388
:10162000C1F200034FF00C029A604FF00003C4F2C5
:101630000A034FF008029A61CCE04FF00003C4F2B5
:101640000A034FF010021A6040F27C03C1F200035B
:101650004FF009029A604FF00003C4F20A034FF002
:1016600008029A61B6E040F29C03C1F200031B68D5
:1016700003F1010240F2E803C1F200039B689A42C1
:1016800007D24FF00003C4F20A034FF004021A60BD
:1016900006E04FF00003C4F20A034FF004029A611F
:1016A0004FF00003C4F20A034FF008029A6191E080
:1016B00040F29C03C1F200031A684FF00003C4F229
:1016C0000A039B68D9B240F2F403C1F200039B18ED
:1016D00083F8801002F1010240F29C03C1F2000382
:1016E0001A6040F29C03C1F200031B6803F101027F
:1016F00040F2E803C1F200039B689A4207D24FF020
:101700000003C4F20A034FF004021A6006E04FF02F
:101710000003C4F20A034FF004029A614FF0000381
:10172000C4F20A034FF008029A6153E040F29C03AE
:10173000C1F200031A684FF00003C4F20A039B6869
:10174000D9B240F2F403C1F200039B1883F8801071
:1017500002F1010240F29C03C1F200031A6040F260
:101760007C03C1F200034FF00C029A604FF00003BB
:10177000C4F20A034FF010021A604FF00003C4F2E3
:101780000A034FF008029A6124E04FF00003C4F20C
:101790000A034FF010021A6040F27C03C1F200030A
:1017A0004FF008029A604FF00003C4F20A034FF0B2
:1017B00008029A610EE040F27C03C1F200034FF090
:1017C0000A029A604FF00003C4F20A034FF00802C5
:1017D0009A6100BF07F10C07BD4680BC704700BF8F
:1017E00080B500AF4FF44043C4F20F034FF44042C2
:1017F000C4F20F02D2F8C42042F40022C3F8C4207D
:101800004FF44043C4F202034FF44042C4F20202D8
:10181000526822F470725A604FF44043C4F20203DB
:101820004FF44042C4F20202526842F470725A60AD
:101830004FF44043C4F202034FF44042C4F20202A8
:10184000526C22F470725A644FF44043C4F20203A3
:101850004FF44042C4F20202526C42F420725A64C5
:101860004FF44043C4F202034FF44042C4F2020278
:10187000926E42F4C0129A664FF44043C4F20503DC
:101880004FF06C029A614FF44043C4F205034FF4E9
:10189000A8725A614FF44043C4F205034FF4A87292
:1018A0001A614FF00B00FFF765F84FF44043C4F2A4
:1018B00005034FF040021A6080BD00BF80B483B0C2
:1018C00000AF4FF000037B604FF44043C2F20903C6
:1018D0004FF44042C2F20902126922F4C0121A61A6
:1018E0004FF44043C2F209034FF44042C2F20902EE
:1018F000126822F4C0121A604FF44043C2F2090386
:101900004FF44042C2F20902126842F480121A6097
:1019100048E04FF000037B6003E07B6803F10103C4
:101920007B607A6842F20F739A42F6D94FF44043D3
:10193000C2F209034FF480129A614FF000037B60FA
:1019400003E07B6803F101037B607A6840F2E733D0
:101950009A42F6D94FF44043C2F209034FF4801281
:10196000DA614FF000037B6003E07B6803F1010361
:101970007B607A6840F2E7339A42F6D94FF44043ED
:10198000C2F209034FF480129A614FF000037B60AA
:1019900003E07B6803F101037B607A6842F20F7316
:1019A0009A42F6D94FF44043C2F209035B6903F44B
:1019B0000023002BADD007F10C07BD4680BC70475B
:1019C00080B483B000AF786046F68403C0F20003B1
:1019D0007A6853F822304FF020021A6040F27C03FC
:1019E000C1F200037A684FF0060143F8221027E0A5
:1019F00040F28803C1F200037A6853F822301A4695
:101A00004FF6FE73C0F2FF039A4209D940F27C03FD
:101A1000C1F200037A684FF00B0143F8221018E07E
:101A200040F28803C1F200037A6853F8223003F1D0
:101A3000010140F28803C1F200037A6843F82210E2
:101A400040F27C03C1F200037A6853F82230062B7F
:101A5000CED046F68403C0F200037A6853F82230F1
:101A60004FF020029A6140F27C03C1F200037A68D1
:101A700053F82230184607F10C07BD4680BC70476A
:101A800080B483B000AF4FF000037B604FF00003E1
:101A90007B6003E07B6803F101037B607B68632B61
:101AA000F8D907F10C07BD4680BC704780B500AF80
:101AB00000F022FAFFF7E4FF4FF0010000F0E2F936
:101AC000FFF7DEFF4FF0040000F004F8FFF7D8FF47
:101AD00080BD00BF80B584B000AF0346FB7140F20B
:101AE0007423C1F200034FF002025A6040F2E8038F
:101AF000C1F200034FF000025A6040F2B413C1F289
:101B000000034FF0C60283F8402040F2B413C1F244
:101B10000003FA7983F841204FF00100FFF750FFEE
:101B2000F860FB68184607F11007BD4680BD00BF8E
:101B300080B584B000AF03463960FB714FF00003FD
:101B4000FB60FB7903F101031A4640F27423C1F2F2
:101B500000035A6040F2E803C1F200034FF00002B4
:101B60005A6040F2B413C1F200034FF0C60283F88A
:101B700040204FF00003FB6013E0FB6803F101011C
:101B80003B681A7840F2B413C1F200035B1883F883
:101B900040203B6803F101033B60FB6803F1010354
:101BA000FB60FA79FB689A42E7D84FF00100FFF733
:101BB00007FFB860BB68184607F11007BD4680BD37
:101BC00080B58AB000AFBA600246FA730A46BA73AB
:101BD000FB714FF000037B624FF00003FB614FF09D
:101BE000000387F823304FF0000387F82230FA7B98
:101BF000BB7B1046194600F007F9FB79052B01D98C
:101C00007B6AFCE0FB79052B03D097F82330012B8E
:101C10001DD197F82210BA6841F25973CDF2B7136B
:101C2000A3FB02034FEA5333DBB203F13003DAB212
:101C300007F12800431803F8182C97F8223003F115
:101C4000010387F822304FF0010387F82330FB7936
:101C5000042B03D097F82330012B2ED1BA6844F619
:101C6000D353C1F26203A3FB02134FEA9313FB6148
:101C700097F82200F9694CF6CD43CCF6CC43A3FB90
:101C800001234FEAD30213464FEA83039B184FEA1E
:101C90004303CA1AD3B203F13003DAB207F12801C1
:101CA0000B1803F8182C97F8223003F1010387F87A
:101CB00022304FF0010387F82330FB79032B03D048
:101CC00097F82330012B2ED1BA6848F21F53C5F282
:101CD000EB13A3FB02034FEA5313FB6197F82200B7
:101CE000F9694CF6CD43CCF6CC43A3FB01234FEA74
:101CF000D30213464FEA83039B184FEA4303CA1AE1
:101D0000D3B203F13003DAB207F128010B1803F85C
:101D1000182C97F8223003F1010387F822304FF096
:101D2000010387F82330FB79022B03D097F8233087
:101D3000012B2ED1BA684CF6CD43CCF6CC43A3FB95
:101D400002034FEAD303FB6197F82200F9694CF6CE
:101D5000CD43CCF6CC43A3FB01234FEAD302134679
:101D60004FEA83039B184FEA4303CA1AD3B203F125
:101D70003003DAB207F128010B1803F8182C97F892
:101D8000223003F1010387F822304FF0010387F876
:101D90002330FB79012B03D097F82330012B20D17E
:101DA00097F82200B9684CF6CD43CCF6CC43A3FBA0
:101DB00001234FEAD30213464FEA83039B184FEAED
:101DC0004303CA1AD3B203F13003DAB207F1280190
:101DD0000B1803F8182C97F8223003F1010387F849
:101DE0002230FA7907F1100310461946FFF7A0FEDA
:101DF00003460C2B02D14FF001037B627B6A18462D
:101E000007F12807BD4680BD80B584B000AF02460B
:101E10000B46FA71BB7140F27423C1F200034FF01C
:101E200004025A6040F2E803C1F200034FF00002DE
:101E30005A6040F2B413C1F200034FF0C60283F8B7
:101E4000402040F2B413C1F200034FF0030283F8C4
:101E5000412040F2B413C1F20003FA7983F8422022
:101E600040F2B413C1F20003BA7983F843204FF073
:101E70000100FFF7A5FDF860FB68184607F11007A1
:101E8000BD4680BD80B584B000AF0346FB7140F213
:101E90007423C1F200034FF002025A6040F2E803DB
:101EA000C1F200034FF000025A6040F2B413C1F2D5
:101EB00000034FF0C60283F84020FB79012B08D1C4
:101EC00040F2B413C1F200034FF0130283F8412033
:101ED00007E040F2B413C1F200034FF0140283F89C
:101EE00041204FF00100FFF76BFDF860FB681846DA
:101EF00007F11007BD4680BD80B582B000AF40F24B
:101F00007423C1F200034FF002025A6040F2E8036A
:101F1000C1F200034FF000025A6040F2B413C1F264
:101F200000034FF0C60283F8402040F2B413C1F220
:101F300000034FF00C0283F841204FF00100FFF73F
:101F40003FFD78607B68184607F10807BD4680BDF5
:101F500080B487B000AF78604FF000037B614FF032
:101F600000033B614FF00003FB604FF000033B6157
:101F700014E04FF000037B6107E0FB6803F101030D
:101F8000FB607B6903F101037B617A6940F2A22364
:101F90009A42F2D93B6903F101033B617A68134627
:101FA0004FEA83039B184FEA43039A183B699A420E
:101FB000DFD807F11C07BD4680BC704780B500AF75
:101FC00000F070F980BD00BF80B500AF40F2A043C3
:101FD000C1F200034FF04E021A7040F2A043C1F26A
:101FE00000034FF045025A7040F2A043C1F20003D3
:101FF0004FF058029A7040F2A043C1F200034FF034
:102000004402DA7040F2A043C1F200034FF0000234
:102010001A714FF0020040F2A041C1F200014FF0EE
:10202000050201F0FBFA80BD80B582B000AF4FF031
:1020300000037B6040F28C23C1F200034FF00002EA
:102040001A7040F28C23C1F200034FF000025A7064
:1020500040F28C23C1F200034FF000029A7040F26C
:102060008C23C1F200034FF00002DA7040F2CD037E
:10207000C1F200034FF004021A7040F2A043C1F213
:1020800000034FF04E021A7040F2A043C1F2000369
:102090004FF045025A7040F2A043C1F200034FF0E6
:1020A00058029A7040F2A043C1F200034FF023029D
:1020B000DA704FF0020040F2A041C1F200014FF08F
:1020C000040201F0ABFA40F2CD03C1F200031B7829
:1020D000DBB21846FFF73CFF40F28C23C1F200034D
:1020E0001B78DBB24FEA03637B6040F28C23C1F2C2
:1020F00000035B78DBB24FEA03437A6842EA0303EA
:102100007B6040F28C23C1F200039B78DBB24FEA84
:1021100003237A6842EA03037B6040F28C23C1F216
:102120000003DB78DBB27A6842EA03037B607B68FA
:10213000184607F10807BD4680BD00BF80B582B0D4
:1021400000AF4FF000037B6040F28C23C1F200032C
:102150004FF000021A7040F28C23C1F200034FF0DE
:1021600000025A7040F28C23C1F200034FF00002CB
:102170009A7040F28C23C1F200034FF00002DA7033
:1021800040F2CD03C1F200034FF004021A7040F296
:10219000A043C1F200034FF04E021A7040F2A04378
:1021A000C1F200034FF045025A7040F2A043C1F261
:1021B00000034FF058029A7040F2A043C1F20003AE
:1021C0004FF02402DA704FF0020040F2A041C1F259
:1021D00000014FF0040201F021FA40F2CD03C1F2F8
:1021E00000031B78DBB21846FFF7B2FE40F28C23E7
:1021F000C1F200031B78DBB24FEA03637B6040F25D
:102200008C23C1F200035B78DBB24FEA03437A68A8
:1022100042EA03037B6040F28C23C1F200039B7807
:10222000DBB24FEA03237A6842EA03037B6040F2A1
:102230008C23C1F20003DB78DBB27A6842EA030345
:102240007B607B68184607F10807BD4680BD00BF6C
:1022500080B500AF40F2A043C1F200034FF04E0240
:102260001A7040F2A043C1F200034FF045025A70C9
:1022700040F2A043C1F200034FF058029A7040F2BE
:10228000A043C1F200034FF03502DA704FF00200B4
:1022900040F2A041C1F200014FF0040201F0BEF98A
:1022A00080BD00BF80B500AF40F2A043C1F2000383
:1022B0004FF04E021A7040F2A043C1F200034FF0FB
:1022C00045025A7040F2A043C1F200034FF0580299
:1022D0009A7040F2A043C1F200034FF03802DA7066
:1022E0004FF0020040F2A041C1F200014FF00402A1
:1022F00001F094F980BD00BF80B582B000AF034605
:10230000FB7140F2A043C1F200034FF04E021A707D
:1023100040F2A043C1F200034FF045025A7040F270
:10232000A043C1F200034FF058029A7040F2A0435C
:10233000C1F200034FF03402DA7040F2A043C1F260
:102340000003FA791A714FF0020040F2A041C1F285
:1023500000014FF0050201F061F907F10807BD46E1
:1023600080BD00BF80B500AF40F2A043C1F20003C2
:102370004FF04E021A7040F2A043C1F200034FF03A
:1023800045025A7040F2A043C1F200034FF05802D8
:102390009A7040F2A043C1F200034FF03102DA70AC
:1023A00040F2A043C1F200034FF080021A714FF0D7
:1023B000020040F2A041C1F200014FF0050201F01D
:1023C0002DF940F2A043C1F200034FF04E021A7003
:1023D00040F2A043C1F200034FF045025A7040F2B0
:1023E000A043C1F200034FF058029A7040F2A0439C
:1023F000C1F200034FF03202DA7040F2A043C1F2A2
:1024000000034FF080021A714FF0020040F2A04129
:10241000C1F200014FF0050201F000F980BD00BFDC
:1024200080B582B000AF0346FB7140F2A043C1F219
:1024300000034FF04E021A7040F2A043C1F20003B5
:102440004FF045025A7040F2A043C1F200034FF032
:1024500058029A7040F2A043C1F200034FF03302D9
:10246000DA7040F2A043C1F20003FA791A714FF01A
:10247000020040F2A041C1F200014FF0050201F05C
:10248000CDF807F10807BD4680BD00BF0000000081
:1024900080B584B000AF03463960FB714FF0000394
:1024A000FB60386804F0C1F90346184604F0C2F92D
:1024B00002460B461046194649A3D3E9002304F00F
:1024C0009BF802460B461046194604F037F90346BE
:1024D000BB60B86804F07BF90346FB60FB795BB234
:1024E000002B02DA4FF07F03FB7140F2A043C1F2F0
:1024F00000034FF04E021A7040F2A043C1F20003F5
:102500004FF045025A7040F2A043C1F200034FF071
:1025100058029A7040F2A043C1F200034FF040020B
:10252000DA70FB684FEA1363DAB240F2A043C1F2FB
:1025300000031A71FB684FEA1343DAB240F2A0437A
:10254000C1F200035A71FB684FEA1323DAB240F27A
:10255000A043C1F200039A71FB68DAB240F2A043D3
:10256000C1F20003DA7140F2A043C1F20003FA792C
:102570001A72FB684FEA1363DAB240F2A043C1F269
:1025800000035A72FB684FEA1343DAB240F2A043E9
:10259000C1F200039A72FB684FEA1323DAB240F2E9
:1025A000A043C1F20003DA72FB68DAB240F2A04342
:1025B000C1F200031A7340F2A043C1F20003FA799A
:1025C0005A734FF0020040F2A041C1F200014FF0F7
:1025D0000E0201F023F807F11007BD4680BD00BFD1
:1025E000454772F90FE9EB3F80B584B000AF034671
:1025F0003960FB714FF00003FB60386804F015F997
:102600000346184604F016F902460B4610461946D2
:102610004DA3D3E9002303F0EFFF02460B4610461B
:10262000194604F08BF80346BB60B86804F0CFF895
:102630000346FB60FB795BB2002B02DA4FF07F03AD
:10264000FB7140F2A043C1F200034FF04E021A703A
:1026500040F2A043C1F200034FF045025A7040F22D
:10266000A043C1F200034FF058029A7040F2A04319
:10267000C1F200034FF04002DA70FB684FEA1363C7
:10268000DAB240F2A043C1F200031A71FB684FEACC
:102690001343DAB240F2A043C1F200035A71FB685F
:1026A0004FEA1323DAB240F2A043C1F200039A7159
:1026B000FB68DAB240F2A043C1F20003DA71FB79A1
:1026C0006FEA0303DAB240F2A043C1F200031A72C8
:1026D000FB684FEA1363DAB240F2A043C1F2000391
:1026E0005A72FB684FEA1343DAB240F2A043C1F2D8
:1026F00000039A72FB684FEA1323DAB240F2A04358
:10270000C1F20003DA72FB68DAB240F2A043C1F210
:1027100000031A73FB796FEA0303DAB240F2A043B5
:10272000C1F200035A734FF0020040F2A041C1F21F
:1027300000014FF00E0200F071FF07F11007BD46D7
:1027400080BD00BFAFF30080454772F90FE9EB3F52
:1027500080B584B000AF03463960FB714FF00003D1
:10276000FB603B68B42B03DD4FF0B4033B6006E035
:102770003B6813F1B40F02DA6FF0B3033B603868C3
:1027800004F04BF80346184604F054F802460B4692
:10279000104619468AA3D3E9002303F099FE0246A6
:1027A0000B461046194603F0F3FF0346184603F0A4
:1027B0008BFE0346184604F030F80346BB60B86849
:1027C00004F005F80346FB603B68002B79DD40F21E
:1027D000A043C1F200034FF04E021A7040F2A04332
:1027E000C1F200034FF045025A7040F2A043C1F21B
:1027F00000034FF058029A7040F2A043C1F2000368
:102800004FF04002DA70FB684FEA1363DAB240F22D
:10281000A043C1F200031A71FB684FEA1343DAB216
:1028200040F2A043C1F200035A71FB684FEA132340
:10283000DAB240F2A043C1F200039A71FB68DAB247
:1028400040F2A043C1F20003DA7140F2A043C1F2AA
:102850000003FA791A72FB684FEA1363DAB240F2A6
:10286000A043C1F200035A72FB684FEA1343DAB285
:1028700040F2A043C1F200039A72FB684FEA1323AF
:10288000DAB240F2A043C1F20003DA72FB68DAB2B6
:1028900040F2A043C1F200031A73FB796FEA03030D
:1028A000DAB240F2A043C1F200035A734FF00200C3
:1028B00040F2A041C1F200014FF00E0200F0AEFE66
:1028C00078E040F2A043C1F200034FF04E021A70CC
:1028D00040F2A043C1F200034FF045025A7040F2AB
:1028E000A043C1F200034FF058029A7040F2A04397
:1028F000C1F200034FF04002DA70FB684FEA136345
:10290000DAB240F2A043C1F200031A71FB684FEA49
:102910001343DAB240F2A043C1F200035A71FB68DC
:102920004FEA1323DAB240F2A043C1F200039A71D6
:10293000FB68DAB240F2A043C1F20003DA71FB791E
:102940006FEA0303DAB240F2A043C1F200031A7245
:10295000FB684FEA1363DAB240F2A043C1F200030E
:102960005A72FB684FEA1343DAB240F2A043C1F255
:1029700000039A72FB684FEA1323DAB240F2A043D5
:10298000C1F20003DA72FB68DAB240F2A043C1F28E
:1029900000031A7340F2A043C1F20003FA795A739C
:1029A0004FF0020040F2A041C1F200014FF00E02D0
:1029B00000F034FE07F11007BD4680BDAFF3008084
:1029C0007B14AE47E17A044080B483B000AF034685
:1029D000FB714FF46143CEF2000397F907204FEAF1
:1029E0005212F97901F01F014FF0010000FA01F1D4
:1029F00043F8221007F10C07BD4680BC704700BFAA
:102A000080B483B000AF03463960FB7197F907309B
:102A1000002B10DA4FF46D43CEF20003FA7902F086
:102A20000F02A2F104013A68D2B24FEAC202D2B256
:102A30005B181A760DE04FF46143CEF2000397F96C
:102A400007103A68D2B24FEAC202D2B25B1883F8DA
:102A5000002307F10C07BD4680BC704780B483B0EB
:102A600000AF0346FB7197F90730002B0FDA4FF4E4
:102A70006D43CEF20003FA7902F00F02A2F10402D4
:102A80009B181B7EDBB24FEAD303DBB20CE04FF4A2
:102A90006143CEF2000397F907209B1893F80033A7
:102AA000DBB24FEAD303DBB2184607F10C07BD4691
:102AB00080BC704780B582B000AF4FF44043C4F291
:102AC00000039B68BB71BB794FEA5303BB71BB79B1
:102AD00003F00703BB71BB79032B4DD14FF4404387
:102AE000C4F200035B697B717B7903F09E03002BCA
:102AF0000CD07A7940F22053C1F200031A604FF4EF
:102B00004043C4F200031B68FB7194E07B7903F03F
:102B10000103DBB2002B00F08E804FF44043C4F27F
:102B200000031B68DAB240F2DC33C1F200031A7012
:102B300040F2DC33C1F200031B78DBB2184600F030
:102B400017FE40F2B403C1F200031B6803F1010257
:102B500040F2B403C1F200031A6040F2B403C1F2C0
:102B600000031B68402B66D140F2B403C1F200039E
:102B70004FF000021A605EE0BB79022B2ED14FF4B9
:102B80004043C4F200031B68DAB240F2DC33C1F206
:102B900000031A7040F2DC33C1F200031B78DBB291
:102BA000184600F0E5FD40F2B403C1F200031B68D3
:102BB00003F1010240F2B403C1F200031A6040F2D3
:102BC000B403C1F200031B68402B34D140F2B403BC
:102BD000C1F200034FF000021A602CE0BB79062B13
:102BE0000CD140F22053C1F200031B6843F4807201
:102BF00040F22053C1F200031A601CE0BB79012BA4
:102C000019D14FF44043C4F200035B697B717B79B7
:102C100003F02003002B07D040F25003C1F2000361
:102C20004FF001021A7006E040F25003C1F20003B7
:102C30004FF000021A7007F10807BD4680BD00BFC3
:102C400080B582B000AF4FF00003C4F201039B686F
:102C5000BB71BB794FEA5303BB71BB7903F0070328
:102C6000BB71BB79032B4FD14FF00003C4F20103BA
:102C70005B697B717B7903F09E03002B0CD07A7922
:102C800040F25C43C1F200031A604FF00003C4F24B
:102C900001031B68FB7198E07B7903F00103DBB251
:102CA000002B00F092804FF00003C4F201031B6878
:102CB000DAB240F29433C1F200031A7040F2943356
:102CC000C1F200031B78DBB24FF00100194600F09F
:102CD00013FE40F2B803C1F200031B6803F10102C6
:102CE00040F2B803C1F200031A6040F2B803C1F227
:102CF00000031B68402B68D140F2B803C1F2000307
:102D00004FF000021A6060E0BB79022B30D14FF027
:102D10000003C4F201031B68DAB240F29433C1F23B
:102D200000031A7040F29433C1F200031B78DBB247
:102D30004FF00100194600F0DFFD40F2B803C1F288
:102D400000031B6803F1010240F2B803C1F2000363
:102D50001A6040F2B803C1F200031B68402B34D163
:102D600040F2B803C1F200034FF000021A602CE0F9
:102D7000BB79062B0CD140F25C43C1F200031B6807
:102D800043F4807240F25C43C1F200031A601CE01D
:102D9000BB79012B19D14FF00003C4F201035B6929
:102DA0007B717B7903F02003002B07D040F25103A5
:102DB000C1F200034FF001021A7006E040F2510325
:102DC000C1F200034FF000021A7007F10807BD4678
:102DD00080BD00BF80B483B000AF4FF40043C4F2A5
:102DE00009039B68BB71BB794FEA5303BB71BB7985
:102DF00003F00703BB71BB79032B5AD14FF4004397
:102E0000C4F209035B697B717B7903F09E03002B9D
:102E10000CD07A7940F2D433C1F200031A604FF437
:102E20000043C4F209031B68FB71ADE07B7903F03A
:102E30000103DBB2002B00F0A78040F2BC03C1F21B
:102E400000031A684FF40043C4F209031B68D9B2A7
:102E500040F28C23C1F20003995402F1010240F2C6
:102E6000BC03C1F200031A6040F2CD03C1F20003BB
:102E70001B78DBB21A4640F2BC03C1F200031B68A8
:102E80009A4240F0818040F2BC03C1F200034FF04F
:102E900000021A6040F2CD03C1F200034FF00002BD
:102EA0001A7040F2CC03C1F200034FF001021A7015
:102EB0006AE0BB79022B3AD140F2BC03C1F20003B5
:102EC0001A684FF40043C4F209031B68D9B240F2F8
:102ED0008C23C1F20003995402F1010240F2BC03B9
:102EE000C1F200031A6040F2CD03C1F200031B7867
:102EF000DBB21A4640F2BC03C1F200031B689A42DF
:102F000042D140F2BC03C1F200034FF000021A604C
:102F100040F2CD03C1F200034FF000021A7040F2FC
:102F2000CC03C1F200034FF001021A702CE0BB7910
:102F3000062B0CD140F2D433C1F200031B6843F4DA
:102F4000807240F2D433C1F200031A601CE0BB79F6
:102F5000012B19D14FF40043C4F209035B697B7163
:102F60007B7903F02003002B07D040F25203C1F21B
:102F700000034FF001021A7006E040F25203C1F262
:102F800000034FF000021A7007F10C07BD4680BC29
:102F9000704700BF80B582B000AF4FF44043C4F229
:102FA00009039B68BB71BB794FEA5303BB71BB79C3
:102FB00003F00703BB71BB79032B4FD14FF44043A0
:102FC000C4F209035B697B717B7903F09E03002BDC
:102FD0000CD07A7940F22053C1F200031A604FF40A
:102FE0004043C4F209031B68FB7198E07B7903F04E
:102FF0000103DBB2002B00F092804FF44043C4F297
:1030000009031B68DAB240F26043C1F200031A7090
:1030100040F26043C1F200031B78DBB24FF00300C3
:10302000194600F069FC40F2C003C1F200031B68BE
:1030300003F1010240F2C003C1F200031A6040F242
:10304000C003C1F200031B68402B68D140F2C003EB
:10305000C1F200034FF000021A6060E0BB79022B5E
:1030600030D14FF44043C4F209031B68DAB240F296
:103070006043C1F200031A7040F26043C1F20003E2
:103080001B78DBB24FF00300194600F035FC40F22C
:10309000C003C1F200031B6803F1010240F2C00348
:1030A000C1F200031A6040F2C003C1F200031B68C2
:1030B000402B34D140F2C003C1F200034FF00002B4
:1030C0001A602CE0BB79062B0CD140F2D833C1F248
:1030D00000031B6843F4807240F2D833C1F200034E
:1030E0001A601CE0BB79012B19D14FF44043C4F2A4
:1030F00009035B697B717B7903F02003002B07D008
:1031000040F25303C1F200034FF001021A7006E0CF
:1031100040F25303C1F200034FF000021A7007F1AE
:103120000807BD4680BD00BF80B586B000AF78609F
:1031300039604FF000033B617B68002B40F08680D4
:103140004FF44043C4F202034FF44042C4F202027F
:10315000126822F0F0021A604FF44043C4F20203F6
:103160004FF44042C4F20202126842F050021A6068
:103170004FF44043C4F20F03D3F8A8314FEA93133E
:1031800003F00303FB60FB68022B13D0032B1AD060
:10319000012B08D040F24C03C1F200031B684FEA38
:1031A00093037B6118E040F24C03C1F200031B68FB
:1031B0007B6111E040F24C03C1F200031B684FEA4F
:1031C00053037B6108E040F24C03C1F200031B682B
:1031D0004FEAD3037B6100BF4FF44043C4F20003C6
:1031E0004FF08302DA607B694FEA13123B68B2FB4F
:1031F000F3F3BB604FF44043C4F20003BA684FEAF4
:1032000012225A604FF44043C4F20003BA6802F03D
:10321000FF021A604FF44043C4F200034FF0030270
:10322000DA604FF44043C4F200034FF007029A60A3
:103230004FF00500FFF7C8FB4FF44043C4F2000312
:103240004FF005025A604FF00103E2E17B68012B69
:1032500040F09E804FF44043C4F202034FF44042DA
:10326000C4F20202126822F040421A604FF4404356
:10327000C4F202034FF44042C4F20202126842F068
:1032800080421A604FF44043C4F202034FF44042BC
:10329000C4F20202526822F003025A604FF4404323
:1032A000C4F202034FF44042C4F20202526842F0F8
:1032B00001025A604FF44043C4F20F03D3F8A8311F
:1032C0004FEA132303F00303FB60FB68022B13D0C8
:1032D000032B1AD0012B08D040F24C03C1F200039B
:1032E0001B684FEA93037B6118E040F24C03C1F284
:1032F00000031B687B6111E040F24C03C1F2000344
:103300001B684FEA53037B6108E040F24C03C1F2B3
:1033100000031B684FEAD3037B6100BF4FF000033B
:10332000C4F201034FF08302DA607B694FEA1312A3
:103330003B68B2FBF3F3BB604FF00003C4F2010340
:10334000BA684FEA12225A604FF00003C4F2010338
:10335000BA6802F0FF021A604FF00003C4F20103E2
:103360004FF00302DA604FF00003C4F201034FF0A4
:1033700007029A604FF00600FFF726FB4FF00003AC
:10338000C4F201034FF005025A604FF0010340E11F
:103390007B68022B40F094804FF44043C4F20F034B
:1033A0004FF44042C4F20F02D2F8C42042F08072BF
:1033B000C3F8C4204FF44043C4F202034FF4404228
:1033C000C4F20202126822F470021A604FF4404301
:1033D000C4F202034FF44042C4F20202126842F403
:1033E000A0021A604FF44043C4F20F03D3F8AC318B
:1033F0004FEA134303F00303FB60FB68022B13D077
:10340000032B1AD0012B08D040F24C03C1F2000369
:103410001B684FEA93037B6118E040F24C03C1F252
:1034200000031B687B6111E040F24C03C1F2000312
:103430001B684FEA53037B6108E040F24C03C1F282
:1034400000031B684FEAD3037B6100BF4FF40043C6
:10345000C4F209034FF08302DA607B694FEA13126A
:103460003B68B2FBF3F3BB604FF40043C4F20903C3
:10347000BA684FEA12225A604FF40043C4F20903BB
:10348000BA6802F0FF021A604FF40043C4F2090365
:103490004FF00302DA604FF40043C4F209034FF027
:1034A00007029A604FF00700FFF78EFA4FF40043CF
:1034B000C4F209034FF005025A604FF00103A8E07F
:1034C0007B68032B40F0A3804FF44043C4F20F030A
:1034D0004FF44042C4F20F02D2F8C42042F000720E
:1034E000C3F8C4204FF44043C4F202034FF44042F7
:1034F000C4F20202126822F00F021A604FF4404335
:10350000C4F202034FF44042C4F20202126842F0D5
:103510000A021A604FF44043C4F20F03D3F8AC31EF
:103520004FEA934303F00303FB60FB68022B13D0C5
:10353000032B1AD0012B08D040F24C03C1F2000338
:103540001B684FEA93037B6118E040F24C03C1F221
:1035500000031B687B6111E040F24C03C1F20003E1
:103560001B684FEA53037B6108E040F24C03C1F251
:1035700000031B684FEAD3037B6100BF4FF4404355
:10358000C4F209034FF08302DA607B694FEA131239
:103590003B68B2FBF3F3BB604FF44043C4F2090352
:1035A000BA684FEA12225A604FF44043C4F209034A
:1035B000BA6802F0FF021A604FF44043C4F20903F4
:1035C0004FF00302DA604FF44043C4F209034FF0B6
:1035D00007029A604FF00800FFF740FA38614FF099
:1035E00008004FF00101FFF70BFA4FF00800FFF75A
:1035F000EBF94FF00800FFF7E7F94FF44043C4F24E
:1036000009034FF005025A604FF0010301E04FF04B
:103610000003184607F11807BD4680BD80B485B089
:1036200000AFF860B9607A60FB68002B24D11FE01E
:1036300000BF4FF44043C4F200035B6903F0400352
:10364000002BF6D04FF44043C4F20003BA6812785E
:103650001A6040F25003C1F200034FF000021A70EA
:10366000BB6803F10103BB607B6803F1FF337B6040
:103670007B68002BDCD176E0FB68012B24D11FE0B6
:1036800000BF4FF00003C4F201035B6903F0400385
:10369000002BF6D04FF00003C4F20103BA68127891
:1036A0001A6040F25103C1F200034FF000021A7099
:1036B000BB6803F10103BB607B6803F1FF337B60F0
:1036C0007B68002BDCD14EE0FB68022B24D11FE08D
:1036D00000BF4FF40043C4F209035B6903F04003E9
:1036E000002BF6D04FF40043C4F20903BA681278F5
:1036F0001A6040F25203C1F200034FF000021A7048
:10370000BB6803F10103BB607B6803F1FF337B609F
:103710007B68002BDCD126E0FB68032B23D11FE064
:1037200000BF4FF44043C4F209035B6903F0400358
:10373000002BF6D04FF44043C4F20903BA68127864
:103740001A6040F25303C1F200034FF000021A70F6
:10375000BB6803F10103BB607B6803F1FF337B604F
:103760007B68002BDCD107F11407BD4680BC704795
:1037700080B483B000AF0346FB7140F2D003C1F2C6
:1037800000031B78DBB203F10103DAB240F2D0038D
:10379000C1F200031A7040F22853C1F200031B78F3
:1037A000DBB2002B17D1FB79242B14D140F2335319
:1037B000C1F200034FF001021A7040F29553C1F2BA
:1037C00000034FF000021A7040F2CF03C1F2000371
:1037D0004FF000021A7040F23353C1F200031B781D
:1037E000DBB2002B30D040F29553C1F200031B78BE
:1037F000DBB21A4640F2B453C1F20003F97999548E
:1038000040F29453C1F200034FF001021A7040F2EB
:103810003353C1F200034FF000021A7040F22853F4
:10382000C1F200034FF001021A7040F29553C1F249
:1038300000031B78DBB203F10103DAB240F29553C7
:10384000C1F200031A7051E040F29453C1F2000338
:103850001B78DBB2002B49D040F29553C1F2000334
:103860001B78DBB21A4640F2B453C1F20003F97977
:103870009954FB790A2B2BD140F29553C1F20003E6
:103880001B78DBB203F1FF3240F2B453C1F2000304
:103890009B5CDBB20D2B1BD140F29553C1F20003B0
:1038A0004FF000021A7040F29453C1F200034FF03F
:1038B00000021A7040F22853C1F200034FF00102D7
:1038C0001A7040F2CE03C1F200034FF001021A70E9
:1038D00040F29553C1F200031B78DBB203F1010300
:1038E000DAB240F29553C1F200031A7007F10C07E7
:1038F000BD4680BC704700BF80B584B000AF0246B3
:103900000B46FA71BB714FF00003FB7340F2540396
:10391000C1F200031B78052B2FD940F2C403C1F27A
:1039200000031B78DBB29C2B27D140F25403C1F279
:1039300000031B78A3F1050240F28023C1F20003CB
:10394000B979995440F25403C1F200031B7803F192
:103950000103DAB240F25403C1F200031A7040F2DC
:103960005403C1F200031B780F2B06D140F2C603AB
:10397000C1F200034FF001021A7040F25403C1F289
:1039800000031B78052B29D140F2C403C1F20003C8
:103990001B78DBB29C2B0DD140F28023C1F20003D7
:1039A000BA791A7040F25403C1F200034FF00602D4
:1039B0001A7013E040F2C603C1F200034FF0010297
:1039C0001A7040F2C503C1F20003BA791A7040F2CE
:1039D0005403C1F200034FF005021A7040F2540381
:1039E000C1F200031B78042B0CD140F2C403C1F2D6
:1039F0000003BA791A7040F25403C1F200034FF089
:103A000005021A7040F25403C1F200031B78032B25
:103A100011D1BB79582B07D140F25403C1F20003F6
:103A20004FF004021A7006E040F25403C1F20003A2
:103A30004FF001021A7040F25403C1F200031B78E8
:103A4000022B11D1BB79452B07D140F25403C1F2AF
:103A500000034FF003021A7006E040F25403C1F273
:103A600000034FF001021A7040F25403C1F2000348
:103A70001B78012B09D1BB794E2B06D140F25403A0
:103A8000C1F200034FF002021A7040F2C603C1F205
:103A900000031B78DBB2002B02F00F8540F2C40359
:103AA000C1F200031B78DBB203F1FF33FB2B02F200
:103AB000E38401A252F823F0A93E0000533F000026
:103AC00079640000FD3F0000A7400000AD47000002
:103AD000E3470000194800004F480000D1490000AA
:103AE0007964000079640000796400007964000062
:103AF00079640000814C0000BD4E0000F9500000C8
:103B00007964000079640000796400007964000041
:103B10007964000079640000796400007964000031
:103B20007964000079640000796400007964000021
:103B30007964000035530000CF5300006954000041
:103B400003550000D7550000796400007964000037
:103B500079640000796400007964000079640000F1
:103B600079640000796400007964000079640000E1
:103B700079640000796400007964000079640000D1
:103B800079640000796400007964000079640000C1
:103B900079640000796400007964000079640000B1
:103BA00079640000796400007964000079640000A1
:103BB0007964000079640000796400007964000091
:103BC0007964000079640000796400007964000081
:103BD0007964000079640000796400007964000071
:103BE0007964000079640000796400007964000061
:103BF0007964000079640000796400007964000051
:103C00007964000079640000796400007964000040
:103C10007964000079640000796400007964000030
:103C20007964000079640000796400007964000020
:103C30007964000079640000796400007964000010
:103C40007964000079640000796400007964000000
:103C500079640000796400007964000079640000F0
:103C600079640000796400007964000079640000E0
:103C700079640000796400007964000079640000D0
:103C800079640000796400007964000079640000C0
:103C900079640000796400007964000079640000B0
:103CA00079640000796400007964000079640000A0
:103CB0007964000079640000796400007964000090
:103CC0007964000079640000796400007964000080
:103CD00079640000796400001159000079640000E3
:103CE00079640000395900007964000079640000AB
:103CF000796400004B59000073590000F959000025
:103D0000EF5A0000E55B0000D35C0000EB5C0000B4
:103D1000035D0000555E00007B5E0000155F000043
:103D2000AF5F000049600000796400007964000022
:103D3000796400007964000079640000796400000F
:103D400079640000796400007964000079640000FF
:103D5000796400007964000079640000D16100009A
:103D60006B620000796400007964000079640000EF
:103D700079640000796400007964000079640000CF
:103D800079640000796400007964000079640000BF
:103D900079640000796400007964000079640000AF
:103DA000796400007964000079640000796400009F
:103DB000796400007964000079640000796400008F
:103DC000796400007964000079640000796400007F
:103DD000796400007964000079640000796400006F
:103DE000796400007964000079640000796400005F
:103DF000796400007964000079640000796400004F
:103E0000796400007964000079640000796400003E
:103E1000796400007964000079640000796400002E
:103E2000796400007964000079640000796400001E
:103E3000796400007964000079640000796400000E
:103E400079640000796400007964000079640000FE
:103E500079640000796400007964000079640000EE
:103E600079640000796400007964000079640000DE
:103E700079640000796400007964000079640000CE
:103E800079640000796400007964000079640000BE
:103E90007964000079640000796400000563000023
:103EA00081630000FD63000040F21C43C1F2000387
:103EB0004FF046021A7040F21C43C1F200034FF06B
:103EC00042025A7040F21C43C1F200034FF0440218
:103ED0009A7040F2C403C1F200031B78DAB240F2D8
:103EE0001C43C1F20003DA7040F2C503C1F20003C3
:103EF0001B78DAB240F21C43C1F200031A7140F29F
:103F0000C503C1F200031B78DBB203F1FF3240F2BC
:103F10000003C1F200039A5C40F21C43C1F20003AB
:103F20005A7140F2C703C1F200034FF006021A7043
:103F3000FA7940F2C703C1F200031B78DBB21046E6
:103F400040F21C41C1F200011A46FFF767FB02F084
:103F5000A6BA40F21C43C1F200034FF046021A70A9
:103F600040F21C43C1F200034FF042025A7040F28B
:103F70001C43C1F200034FF044029A7040F2C403A4
:103F8000C1F200031B78DAB240F21C43C1F2000315
:103F9000DA7040F2C503C1F200031B78DAB240F2D6
:103FA0001C43C1F200031A7140F2C503C1F20003C1
:103FB0001B78DBB203F1FF3240F21003C1F20003C1
:103FC0009A5C40F21C43C1F200035A7140F2C703ED
:103FD000C1F200034FF006021A70FA7940F2C703EB
:103FE000C1F200031B78DBB2104640F21C41C1F263
:103FF00000011A46FFF712FB02F051BA40F21C43CF
:10400000C1F200034FF046021A7040F21C43C1F2A5
:1040100000034FF042025A7040F21C43C1F2000309
:104020004FF044029A7040F2C403C1F200031B78BF
:10403000DAB240F21C43C1F20003DA7040F2C50369
:10404000C1F200031B78DAB240F21C43C1F2000354
:104050001A7140F2C503C1F200031B78DBB203F111
:10406000FF3240F20803C1F200039A5C40F21C43A5
:10407000C1F200035A7140F2C703C1F200034FF0CE
:1040800006021A70FA7940F2C703C1F200031B78E6
:10409000DBB2104640F21C41C1F200011A46FFF7A4
:1040A000BDFA02F0FCB940F2C503C1F200031B786F
:1040B000DBB2012B5BD140F21C43C1F200034FF095
:1040C00046021A7040F21C43C1F200034FF0420254
:1040D0005A7040F21C43C1F200034FF044029A7040
:1040E00040F2C403C1F200031B78DAB240F21C4371
:1040F000C1F20003DA7040F2C503C1F200031B787D
:10410000DAB240F21C43C1F200031A714FF000030F
:10411000FB7311E0FB7B03F10502F97B40F2000326
:10412000C1F20003595C40F21C43C1F200039954F0
:10413000FB7B03F10103FB73FB7B072BEAD940F206
:10414000C703C1F200034FF00D021A70FA7940F272
:10415000C703C1F200031B78DBB2104640F21C41DA
:10416000C1F200011A46FFF759FA02F098B940F27D
:10417000C503C1F200031B78DBB2022B5BD140F216
:104180001C43C1F200034FF046021A7040F21C4378
:10419000C1F200034FF042025A7040F21C43C1F2D8
:1041A00000034FF044029A7040F2C403C1F20003CE
:1041B0001B78DAB240F21C43C1F20003DA7040F21D
:1041C000C503C1F200031B78DAB240F21C43C1F20E
:1041D00000031A714FF00003FB7311E0FB7B03F146
:1041E0000502F97B40F21003C1F20003595C40F272
:1041F0001C43C1F200039954FB7B03F10103FB73E1
:10420000FB7B072BEAD940F2C703C1F200034FF052
:104210000D021A70FA7940F2C703C1F200031B784D
:10422000DBB2104640F21C41C1F200011A46FFF712
:10423000F5F902F034B940F2C503C1F200031B786E
:10424000DBB2042B5BD140F21C43C1F200034FF000
:1042500046021A7040F21C43C1F200034FF04202C2
:104260005A7040F21C43C1F200034FF044029A70AE
:1042700040F2C403C1F200031B78DAB240F21C43DF
:10428000C1F20003DA7040F2C503C1F200031B78EB
:10429000DAB240F21C43C1F200031A714FF000037E
:1042A000FB7311E0FB7B03F10502F97B40F208038D
:1042B000C1F20003595C40F21C43C1F2000399545F
:1042C000FB7B03F10103FB73FB7B072BEAD940F275
:1042D000C703C1F200034FF00D021A70FA7940F2E1
:1042E000C703C1F200031B78DBB2104640F21C4149
:1042F000C1F200011A46FFF791F902F0D0B840F27E
:10430000C503C1F200031B78DBB2052B5BD140F281
:104310001C43C1F200034FF046021A7040F21C43E6
:10432000C1F200034FF042025A7040F21C43C1F246
:1043300000034FF044029A7040F2C403C1F200033C
:104340001B78DAB240F21C43C1F20003DA7040F28B
:10435000C503C1F200031B78DAB240F21C43C1F27C
:1043600000031A714FF00003FB7311E0FB7B03F1B4
:104370000502F97B40F21803C1F20003595C40F2D8
:104380001C43C1F200039954FB7B03F10103FB734F
:10439000FB7B052BEAD940F2C703C1F200034FF0C3
:1043A0000B021A70FA7940F2C703C1F200031B78BE
:1043B000DBB2104640F21C41C1F200011A46FFF781
:1043C0002DF902F06CB840F2C503C1F200031B786E
:1043D000DBB2062B5BD140F21C43C1F200034FF06D
:1043E00046021A7040F21C43C1F200034FF0420231
:1043F0005A7040F21C43C1F200034FF044029A701D
:1044000040F2C403C1F200031B78DAB240F21C434D
:10441000C1F20003DA7040F2C503C1F200031B7859
:10442000DAB240F21C43C1F200031A714FF00003EC
:10443000FB7311E0FB7B03F10502F97B40F22003E3
:10444000C1F20003595C40F21C43C1F200039954CD
:10445000FB7B03F10103FB73FB7B052BEAD940F2E5
:10446000C703C1F200034FF00B021A70FA7940F251
:10447000C703C1F200031B78DBB2104640F21C41B7
:10448000C1F200011A46FFF7C9F802F008B840F27D
:10449000C503C1F200031B78DBB2072B5BD140F2EE
:1044A0001C43C1F200034FF046021A7040F21C4355
:1044B000C1F200034FF042025A7040F21C43C1F2B5
:1044C00000034FF044029A7040F2C403C1F20003AB
:1044D0001B78DAB240F21C43C1F20003DA7040F2FA
:1044E000C503C1F200031B78DAB240F21C43C1F2EB
:1044F00000031A714FF00003FB7311E0FB7B03F123
:104500000502F97B40F22803C1F20003595C40F236
:104510001C43C1F200039954FB7B03F10103FB73BD
:10452000FB7B052BEAD940F2C703C1F200034FF031
:104530000B021A70FA7940F2C703C1F200031B782C
:10454000DBB2104640F21C41C1F200011A46FFF7EF
:1045500065F801F0A4BF40F2C503C1F200031B7867
:10456000DBB2082B5BD140F21C43C1F200034FF0D9
:1045700046021A7040F21C43C1F200034FF042029F
:104580005A7040F21C43C1F200034FF044029A708B
:1045900040F2C403C1F200031B78DAB240F21C43BC
:1045A000C1F20003DA7040F2C503C1F200031B78C8
:1045B000DAB240F21C43C1F200031A714FF000035B
:1045C000FB7311E0FB7B03F10502F97B40F23C0336
:1045D000C1F20003595C40F21C43C1F2000399543C
:1045E000FB7B03F10103FB73FB7B0F2BEAD940F24A
:1045F000C703C1F200034FF015021A70FA7940F2B6
:10460000C703C1F200031B78DBB2104640F21C4125
:10461000C1F200011A46FFF701F801F040BF40F275
:10462000C503C1F200031B78DBB2092B5AD140F25B
:104630001C43C1F200034FF046021A7040F21C43C3
:10464000C1F200034FF042025A7040F21C43C1F223
:1046500000034FF044029A7040F2C403C1F2000319
:104660001B78DAB240F21C43C1F20003DA7040F268
:10467000C503C1F200031B78DAB240F21C43C1F259
:1046800000031A7140F25803C1F200031B68DAB24A
:1046900040F21C43C1F200035A7140F25803C1F2C8
:1046A00000031B684FEA1323DAB240F21C43C1F245
:1046B00000039A7140F2C703C1F200034FF00702F2
:1046C0001A70FA7940F2C703C1F200031B78DBB21B
:1046D000104640F21C41C1F200011A46FEF79EFF4F
:1046E00001F0DDBE40F2C503C1F200031B78DBB26E
:1046F0000A2B41F0C38640F21C43C1F200034FF085
:1047000046021A7040F21C43C1F200034FF042020D
:104710005A7040F21C43C1F200034FF044029A70F9
:1047200040F2C403C1F200031B78DAB240F21C432A
:10473000C1F20003DA7040F2C503C1F200031B7836
:10474000DAB240F21C43C1F200031A7140F25C037A
:10475000C1F200031B68DAB240F21C43C1F200034D
:104760005A7140F25C03C1F200031B684FEA132345
:10477000DAB240F21C43C1F200039A7140F2C7035F
:10478000C1F200034FF007021A70FA7940F2C70332
:10479000C1F200031B78DBB2104640F21C41C1F2AB
:1047A00000011A46FEF73AFF01F079BE40F2C50358
:1047B000C1F200031B78DAB240F27203C1F20003C7
:1047C0001A7040F2D703C1F200034FF001021A70D1
:1047D00040F2D803C1F200034FF001021A7001F059
:1047E0005EBE40F2C503C1F200031B78DAB240F2AC
:1047F0007303C1F200031A7040F2D703C1F2000341
:104800004FF001021A7040F2D803C1F200034FF0DA
:1048100002021A7001F043BE40F2C503C1F2000368
:104820001B78DAB240F27403C1F200031A7040F24E
:10483000D703C1F200034FF001021A7040F2D8030F
:10484000C1F200034FF003021A7001F028BE40F2DB
:10485000C503C1F200031B78DBB2012B0FD140F27C
:10486000D103C1F200034FF001021A7040F2D403E9
:10487000C1F200034FF001021A7001F010BE40F2C5
:10488000C503C1F200031B78DBB2022B0FD140F24B
:10489000D103C1F200034FF001021A7040F2D403B9
:1048A000C1F200034FF000021A7001F0F8BD40F2AF
:1048B000C503C1F200031B78DBB2032B0FD140F21A
:1048C000D203C1F200034FF001021A7040F2D50387
:1048D000C1F200034FF001021A7001F0E0BD40F296
:1048E000C503C1F200031B78DBB2042B0FD140F2E9
:1048F000D203C1F200034FF001021A7040F2D50357
:10490000C1F200034FF000021A7001F0C8BD40F27E
:10491000C503C1F200031B78DBB2052B0FD140F2B7
:10492000D303C1F200034FF001021A7040F2D60324
:10493000C1F200034FF001021A7001F0B0BD40F265
:10494000C503C1F200031B78DBB2062B0FD140F286
:10495000D303C1F200034FF001021A7040F2D603F4
:10496000C1F200034FF000021A7001F098BD40F24E
:10497000C503C1F200031B78DBB2072B0FD14CF249
:104980002003C2F209034FF000529A6140F2630320
:10499000C1F200034FF001021A7001F080BD40F235
:1049A000C503C1F200031B78DBB2082B41F0688518
:1049B0004CF22003C2F209034FF00052DA6140F2D8
:1049C0006303C1F200034FF000021A7001F067BDEB
:1049D00040F2C503C1F200031B78DBB2012B4DD1BD
:1049E00040F21C43C1F200034FF046021A7040F23D
:1049F0001C43C1F200034FF042025A7040F21C43C4
:104A0000C1F200034FF044029A7040F2C403C1F2B5
:104A100000031B78DAB240F21C43C1F20003DA70E3
:104A200040F2C503C1F200031B78DAB240F21C4326
:104A3000C1F200031A7140F2D403C1F200031B78E3
:104A4000DAB240F21C43C1F200035A7140F2C703CC
:104A5000C1F200034FF006021A70FA7940F2C70360
:104A6000C1F200031B78DBB2104640F21C41C1F2D8
:104A700000011A46FEF7D2FD01F011BD40F2C50358
:104A8000C1F200031B78DBB2022B4DD140F21C4374
:104A9000C1F200034FF046021A7040F21C43C1F20B
:104AA00000034FF042025A7040F21C43C1F200036F
:104AB0004FF044029A7040F2C403C1F200031B7825
:104AC000DAB240F21C43C1F20003DA7040F2C503CF
:104AD000C1F200031B78DAB240F21C43C1F20003BA
:104AE0001A7140F2D503C1F200031B78DAB240F22A
:104AF0001C43C1F200035A7140F2C703C1F2000324
:104B00004FF006021A70FA7940F2C703C1F20003AF
:104B10001B78DBB2104640F21C41C1F200011A467C
:104B2000FEF77CFD01F0BBBC40F2C503C1F20003FF
:104B30001B78DBB2032B4DD140F21C43C1F20003C2
:104B40004FF046021A7040F21C43C1F200034FF0CE
:104B500042025A7040F21C43C1F200034FF044027B
:104B60009A7040F2C403C1F200031B78DAB240F23B
:104B70001C43C1F20003DA7040F2C503C1F2000326
:104B80001B78DAB240F21C43C1F200031A7140F202
:104B9000D603C1F200031B78DAB240F21C43C1F223
:104BA00000035A7140F2C703C1F200034FF006023E
:104BB0001A70FA7940F2C703C1F200031B78DBB226
:104BC000104640F21C41C1F200011A46FEF726FDD4
:104BD00001F065BC40F2C503C1F200031B78DBB2F3
:104BE000042B41F04F8440F21C43C1F200034FF00C
:104BF00046021A7040F21C43C1F200034FF0420219
:104C00005A7040F21C43C1F200034FF044029A7004
:104C100040F2C403C1F200031B78DAB240F21C4335
:104C2000C1F20003DA7040F2C503C1F200031B7841
:104C3000DAB240F21C43C1F200031A7140F263037E
:104C4000C1F200031A7840F21C43C1F200035A710A
:104C500040F2C703C1F200034FF006021A70FA795E
:104C600040F2C703C1F200031B78DBB2104640F2EA
:104C70001C41C1F200011A46FEF7D0FC01F00FBC46
:104C800040F2C503C1F200031B78DBB2012B56D101
:104C900040F21C43C1F200034FF046021A7040F28A
:104CA0001C43C1F200034FF042025A7040F21C4311
:104CB000C1F200034FF044029A7040F2C403C1F203
:104CC00000031B78DAB240F21C43C1F20003DA7031
:104CD00040F2C503C1F200031B78DAB240F21C4374
:104CE000C1F200031A7140F21803C1F200031A78EE
:104CF00040F21C43C1F200035A7140F21803C1F2A2
:104D000000035A7840F21C43C1F200039A7140F24A
:104D1000C703C1F200034FF007021A70FA7940F29C
:104D2000C703C1F200031B78DBB2104640F21C41FE
:104D3000C1F200011A46FEF771FC01F0B0BB40F26F
:104D4000C503C1F200031B78DBB2022B56D140F23F
:104D50001C43C1F200034FF046021A7040F21C439C
:104D6000C1F200034FF042025A7040F21C43C1F2FC
:104D700000034FF044029A7040F2C403C1F20003F2
:104D80001B78DAB240F21C43C1F20003DA7040F241
:104D9000C503C1F200031B78DAB240F21C43C1F232
:104DA00000031A7140F21803C1F200039A7840F22E
:104DB0001C43C1F200035A7140F21803C1F2000310
:104DC000DA7840F21C43C1F200039A7140F2C70343
:104DD000C1F200034FF007021A70FA7940F2C703DC
:104DE000C1F200031B78DBB2104640F21C41C1F255
:104DF00000011A46FEF712FC01F051BB40F2C50358
:104E0000C1F200031B78DBB2032B41F03D8340F27B
:104E10001C43C1F200034FF046021A7040F21C43DB
:104E2000C1F200034FF042025A7040F21C43C1F23B
:104E300000034FF044029A7040F2C403C1F2000331
:104E40001B78DAB240F21C43C1F20003DA7040F280
:104E5000C503C1F200031B78DAB240F21C43C1F271
:104E600000031A7140F21803C1F200031A7940F2EC
:104E70001C43C1F200035A7140F21803C1F200034F
:104E80005A7940F21C43C1F200039A7140F2C70301
:104E9000C1F200034FF007021A70FA7940F2C7031B
:104EA000C1F200031B78DBB2104640F21C41C1F294
:104EB00000011A46FEF7B2FB01F0F1BA40F2C50359
:104EC000C1F200031B78DBB2012B56D140F21C4328
:104ED000C1F200034FF046021A7040F21C43C1F2C7
:104EE00000034FF042025A7040F21C43C1F200032B
:104EF0004FF044029A7040F2C403C1F200031B78E1
:104F0000DAB240F21C43C1F20003DA7040F2C5038A
:104F1000C1F200031B78DAB240F21C43C1F2000375
:104F20001A7140F22003C1F200031A7840F21C43C8
:104F3000C1F200035A7140F22003C1F200035A7813
:104F400040F21C43C1F200039A7140F2C703C1F260
:104F500000034FF007021A70FA7940F2C703C1F25A
:104F600000031B78DBB2104640F21C41C1F2000185
:104F70001A46FEF753FB01F092BA40F2C503C1F2A4
:104F800000031B78DBB2022B56D140F21C43C1F266
:104F900000034FF046021A7040F21C43C1F20003B6
:104FA0004FF042025A7040F21C43C1F200034FF02E
:104FB00044029A7040F2C403C1F200031B78DAB2D3
:104FC00040F21C43C1F20003DA7040F2C503C1F2A3
:104FD00000031B78DAB240F21C43C1F200031A71DD
:104FE00040F22003C1F200039A7840F21C43C1F260
:104FF00000035A7140F22003C1F20003DA7840F254
:105000001C43C1F200039A7140F2C703C1F20003CE
:105010004FF007021A70FA7940F2C703C1F2000399
:105020001B78DBB2104640F21C41C1F200011A4667
:10503000FEF7F4FA01F033BA40F2C503C1F20003FF
:105040001B78DBB2032B41F0218240F21C43C1F2FA
:1050500000034FF046021A7040F21C43C1F20003F5
:105060004FF042025A7040F21C43C1F200034FF06D
:1050700044029A7040F2C403C1F200031B78DAB212
:1050800040F21C43C1F20003DA7040F2C503C1F2E2
:1050900000031B78DAB240F21C43C1F200031A711C
:1050A00040F22003C1F200031A7940F21C43C1F21E
:1050B00000035A7140F22003C1F200035A7940F212
:1050C0001C43C1F200039A7140F2C703C1F200030E
:1050D0004FF007021A70FA7940F2C703C1F20003D9
:1050E0001B78DBB2104640F21C41C1F200011A46A7
:1050F000FEF794FA01F0D3B940F2C503C1F2000300
:105100001B78DBB2012B56D140F21C43C1F20003E5
:105110004FF046021A7040F21C43C1F200034FF0F8
:1051200042025A7040F21C43C1F200034FF04402A5
:105130009A7040F2C403C1F200031B78DAB240F265
:105140001C43C1F20003DA7040F2C503C1F2000350
:105150001B78DAB240F21C43C1F200031A7140F22C
:105160002803C1F200031A7840F21C43C1F2000385
:105170005A7140F22803C1F200035A7840F21C43EE
:10518000C1F200039A7140F2C703C1F200034FF06D
:1051900007021A70FA7940F2C703C1F200031B78C4
:1051A000DBB2104640F21C41C1F200011A46FEF784
:1051B00035FA01F074B940F2C503C1F200031B785F
:1051C000DBB2022B56D140F21C43C1F200034FF078
:1051D00046021A7040F21C43C1F200034FF0420233
:1051E0005A7040F21C43C1F200034FF044029A701F
:1051F00040F2C403C1F200031B78DAB240F21C4350
:10520000C1F20003DA7040F2C503C1F200031B785B
:10521000DAB240F21C43C1F200031A7140F22803D3
:10522000C1F200039A7840F21C43C1F200035A71A4
:1052300040F22803C1F20003DA7840F21C43C1F2C5
:1052400000039A7140F2C703C1F200034FF0070256
:105250001A70FA7940F2C703C1F200031B78DBB27F
:10526000104640F21C41C1F200011A46FEF7D6F981
:1052700001F015B940F2C503C1F200031B78DBB29F
:10528000032B41F0058140F21C43C1F200034FF0B3
:1052900046021A7040F21C43C1F200034FF0420272
:1052A0005A7040F21C43C1F200034FF044029A705E
:1052B00040F2C403C1F200031B78DAB240F21C438F
:1052C000C1F20003DA7040F2C503C1F200031B789B
:1052D000DAB240F21C43C1F200031A7140F2280313
:1052E000C1F200031A7940F21C43C1F200035A7163
:1052F00040F22803C1F200035A7940F21C43C1F284
:1053000000039A7140F2C703C1F200034FF0070295
:105310001A70FA7940F2C703C1F200031B78DBB2BE
:10532000104640F21C41C1F200011A46FEF776F920
:1053300001F0B5B840F21C43C1F200034FF0460241
:105340001A7040F21C43C1F200034FF042025A703F
:1053500040F21C43C1F200034FF044029A7040F245
:10536000C403C1F200031B78DAB240F21C43C1F25D
:105370000003DA7040F2C503C1F200031B78DAB211
:1053800040F21C43C1F200031A7140F23003C1F233
:1053900000031A7840F21C43C1F200035A7140F234
:1053A000C703C1F200034FF006021A70FA7940F207
:1053B000C703C1F200031B78DBB2104640F21C4168
:1053C000C1F200011A46FEF729F901F068B840F26F
:1053D0001C43C1F200034FF046021A7040F21C4316
:1053E000C1F200034FF042025A7040F21C43C1F276
:1053F00000034FF044029A7040F2C403C1F200036C
:105400001B78DAB240F21C43C1F20003DA7040F2BA
:10541000C503C1F200031B78DAB240F21C43C1F2AB
:1054200000031A7140F23003C1F200035A7840F2CF
:105430001C43C1F200035A7140F2C703C1F20003DA
:105440004FF006021A70FA7940F2C703C1F2000366
:105450001B78DBB2104640F21C41C1F200011A4633
:10546000FEF7DCF801F01BB840F21C43C1F2000368
:105470004FF046021A7040F21C43C1F200034FF095
:1054800042025A7040F21C43C1F200034FF0440242
:105490009A7040F2C403C1F200031B78DAB240F202
:1054A0001C43C1F20003DA7040F2C503C1F20003ED
:1054B0001B78DAB240F21C43C1F200031A7140F2C9
:1054C0003003C1F200039A7840F21C43C1F200039A
:1054D0005A7140F2C703C1F200034FF006021A707E
:1054E000FA7940F2C703C1F200031B78DBB2104621
:1054F00040F21C41C1F200011A46FEF78FF800F09D
:10550000CEBF40F2C503C1F200031B78DBB2002B13
:1055100040F0C08740F21C43C1F200034FF0460246
:105520001A7040F21C43C1F200034FF042025A705D
:1055300040F21C43C1F200034FF044029A7040F263
:10554000C403C1F200031B78DAB240F21C43C1F27B
:105550000003DA7040F2C503C1F200031B78DAB22F
:1055600040F21C43C1F200031A7140F23003C1F251
:1055700000031A7840F21C43C1F200035A7140F252
:105580003003C1F200035A7840F21C43C1F2000319
:105590009A7140F23003C1F200039A7840F21C4342
:1055A000C1F20003DA7140F2C703C1F200034FF009
:1055B00008021A70FA7940F2C703C1F200031B789F
:1055C000DBB2104640F21C41C1F200011A46FEF760
:1055D00025F800F064BF40F21C43C1F200034FF015
:1055E00046021A7040F21C43C1F200034FF042021F
:1055F0005A7040F21C43C1F200034FF044029A700B
:1056000040F2C403C1F200031B78DAB240F21C433B
:10561000C1F20003DA7040F2C503C1F200031B7847
:10562000DAB240F21C43C1F200031A714FF00003DA
:10563000FB7311E0FB7B03F10502F97B40F20003F1
:10564000C1F20003595C40F21C43C1F200039954BB
:10565000FB7B03F10103FB73FB7B072BEAD940F2D1
:10566000C703C1F200034FF005021A704FF00003A8
:10567000FB7311E0FB7B03F10D02F97B40F2100399
:10568000C1F20003595C40F21C43C1F2000399547B
:10569000FB7B03F10103FB73FB7B072BEAD940F291
:1056A000C703C1F200031B78DBB203F10D03DAB2CA
:1056B00040F2C703C1F200031A704FF00003FB73FE
:1056C00011E0FB7B03F11502F97B40F20803C1F204
:1056D0000003595C40F21C43C1F200039954FB7B68
:1056E00003F10103FB73FB7B072BEAD940F2C703ED
:1056F000C1F200031B78DBB203F11503DAB240F20A
:10570000C703C1F200031A704FF00003FB7311E0EE
:10571000FB7B03F11D02F97B40F21803C1F2000389
:10572000595C40F21C43C1F200039954FB7B03F126
:105730000103FB73FB7B052BEAD940F2C703C1F2DF
:1057400000031B78DBB203F11D03DAB240F2C7039A
:10575000C1F200031A704FF00003FB7311E0FB7BF2
:1057600003F12302F97B40F22003C1F20003595CEC
:1057700040F21C43C1F200039954FB7B03F1010387
:10578000FB73FB7B052BEAD940F2C703C1F2000390
:105790001B78DBB203F12303DAB240F2C703C1F294
:1057A00000031A704FF00003FB7311E0FB7B03F161
:1057B0002902F97B40F22803C1F20003595C40F250
:1057C0001C43C1F200039954FB7B03F10103FB73FB
:1057D000FB7B052BEAD940F2C703C1F200031B781B
:1057E000DBB203F12903DAB240F2C703C1F20003CE
:1057F0001A7040F25803C1F200031B68DAB240F29B
:105800001C43C1F2000383F82F2040F25803C1F279
:1058100000031B684FEA1323DAB240F21C43C1F2C3
:10582000000383F8302040F2C703C1F200031B7865
:10583000DBB203F12F03DAB240F2C703C1F2000377
:105840001A7040F25C03C1F200031B68DAB240F246
:105850001C43C1F2000383F8312040F25C03C1F223
:1058600000031B684FEA1323DAB240F21C43C1F273
:10587000000383F8322040F2C703C1F200031B7813
:10588000DBB203F13103DAB240F2C703C1F2000325
:105890001A704FF00003FB7311E0FB7B03F133023E
:1058A000F97B40F23003C1F20003595C40F21C4323
:1058B000C1F200039954FB7B03F10103FB73FB7BF3
:1058C000022BEAD940F2C703C1F200031B78DBB216
:1058D00003F13303DAB240F2C703C1F200031A70D6
:1058E00040F2C703C1F200034FF036021A70FA7992
:1058F00040F2C703C1F200031B78DBB2104640F24E
:105900001C41C1F200011A46FDF788FE00F0C7BD38
:1059100040F2C503C1F200031B78DAB240F2DC03A7
:10592000C1F200031A7040F26203C1F200034FF0AB
:1059300001021A7000F0B3BD40F26003C1F200032F
:105940004FF001021A7000F0AABD40F2C503C1F287
:1059500000031B78DAB240F2DD03C1F200031A70D3
:1059600040F26103C1F200034FF001021A7000F02F
:1059700096BD40F21C43C1F200034FF046021A707C
:1059800040F21C43C1F200034FF042025A7040F251
:105990001C43C1F200034FF044029A7040F2C4036A
:1059A000C1F200031B78DAB240F21C43C1F20003DB
:1059B000DA7040F2DD03C1F200031B78DAB240F284
:1059C0001C43C1F200031A7140F2C703C1F2000385
:1059D0004FF005021A70FA7940F2C703C1F20003D2
:1059E0001B78DBB2104640F21C41C1F200011A469E
:1059F000FDF714FE00F053BD40F2E403C1F20003D2
:105A00001A6840F2C803C1F200031A6040F21C4356
:105A1000C1F200034FF046021A7040F21C43C1F27B
:105A200000034FF042025A7040F21C43C1F20003DF
:105A30004FF044029A7040F2C403C1F200031B7895
:105A4000DAB240F21C43C1F20003DA7040F21C43A8
:105A5000C1F200034FF000021A7140F2C803C1F214
:105A600000031B684FEA1363DAB240F21C43C1F231
:105A700000035A7140F2C803C1F200031B684FEAE9
:105A80002343DAB240F21C43C1F200039A7140F2A0
:105A9000C803C1F200031B684FEA2323DAB240F2C5
:105AA0001C43C1F20003DA7140F2C803C1F20003E3
:105AB0001B68DAB240F21C43C1F200031A7240F2D2
:105AC000C703C1F200034FF009021A70FA7940F2DD
:105AD000C703C1F200031B78DBB2104640F21C4141
