:100000000080001029010000F5000000F70000004A
:10001000F9000000FB000000FD00000000000000EF
:10002000000000000000000000000000FF000000D1
:1000300001010000000000000301000005010000B4
:100040006901000069010000690100006901000008
:1000500069010000791F00000521000099220000BD
:1000600059240000690100004D090000F90D00004D
:10007000BD12000069010000690100006901000073
:1000800069010000690100006901000069010000C8
:1000900069010000690100006901000069010000B8
:1000A00069010000690100006901000069010000A8
:1000B0006901000069010000690100006901000098
:1000C000690100006901000069010000B0580000EA
:1000D0000000001058000000B058000000C00720C9
:1000E00000000000580000109405000000C0072028
:1000F00000000000FEE7FEE7FEE7FEE7FEE7FEE7A2
:10010000FEE7FEE7FEE710B5002302E01C585C5056
:1001100004339342FAD310BD002302E000221A50A8
:1001200004338B42FAD3704710B50C4C05E02068BD
:100130006168A2680C34FFF7E6FF094B9C42F6D3D6
:1001400004E0206861680834FFF7E6FF054B9C4235
:10015000F7D300F0CFF905F097FBFEE7CC000000E5
:10016000E4000000F4000000FEE700BFFFFFFFFF17
:10017000FFFFFFFFFFFFFFFFFFFFFFFFFFFFFFFF8F
:10018000FFFFFFFFFFFFFFFFFFFFFFFFFFFFFFFF7F
:10019000FFFFFFFFFFFFFFFFFFFFFFFFFFFFFFFF6F
:1001A000FFFFFFFFFFFFFFFFFFFFFFFFFFFFFFFF5F
:1001B000FFFFFFFFFFFFFFFFFFFFFFFFFFFFFFFF4F
:1001C000FFFFFFFFFFFFFFFFFFFFFFFFFFFFFFFF3F
:1001D000FFFFFFFFFFFFFFFFFFFFFFFFFFFFFFFF2F
:1001E000FFFFFFFFFFFFFFFFFFFFFFFFFFFFFFFF1F
:1001F000FFFFFFFFFFFFFFFFFFFFFFFFFFFFFFFF0F
:10020000FFFFFFFFFFFFFFFFFFFFFFFFFFFFFFFFFE
:10021000FFFFFFFFFFFFFFFFFFFFFFFFFFFFFFFFEE
:10022000FFFFFFFFFFFFFFFFFFFFFFFFFFFFFFFFDE
:10023000FFFFFFFFFFFFFFFFFFFFFFFFFFFFFFFFCE
:10024000FFFFFFFFFFFFFFFFFFFFFFFFFFFFFFFFBE
:10025000FFFFFFFFFFFFFFFFFFFFFFFFFFFFFFFFAE
:10026000FFFFFFFFFFFFFFFFFFFFFFFFFFFFFFFF9E
:10027000FFFFFFFFFFFFFFFFFFFFFFFFFFFFFFFF8E
:10028000FFFFFFFFFFFFFFFFFFFFFFFFFFFFFFFF7E
:10029000FFFFFFFFFFFFFFFFFFFFFFFFFFFFFFFF6E
:1002A000FFFFFFFFFFFFFFFFFFFFFFFFFFFFFFFF5E
:1002B000FFFFFFFFFFFFFFFFFFFFFFFFFFFFFFFF4E
:1002C000FFFFFFFFFFFFFFFFFFFFFFFFFFFFFFFF3E
:1002D000FFFFFFFFFFFFFFFFFFFFFFFFFFFFFFFF2E
:1002E000FFFFFFFFFFFFFFFFFFFFFFFFFFFFFFFF1E
:1002F000FFFFFFFFFFFFFFFFFFFFFFFFFFFFFFFF0E
:1003000080B500AF00F042F84FF002004FF4E13149
:1003100002F06CF901F0C8FC01F05AFD01F09EFA00
:1003200001F02EFA00F004F801F090FB80BD00BF50
:1003300080B485B000AF4FF00003FB604FF00003C6
:10034000BB604FF000037B604FF00003BB6014E024
:100350004FF00003FB6007E07B6803F101037B6063
:10036000FB6803F10103FB60FA684EF65F239A42D3
:10037000F2D9BB6803F10103BB60BB686D2BE7D901
:1003800007F11407BD4680BC704700BF80B485B03C
:1003900000AF4FF00003FB604FF00003BB604FF075
:1003A00000037B604FF00003BB6014E04FF00003DC
:1003B000FB6007E07B6803F101037B60FB6803F1EE
:1003C0000103FB60FA684EF65F239A42F2D9BB68DC
:1003D00003F10103BB60BB680A2BE7D907F11407DF
:1003E000BD4680BC704700BF80B485B000AF4FF001
:1003F0000003FB604FF00003BB604FF000037B6025
:100400004FF00003BB6014E04FF00003FB6007E017
:100410007B6803F101037B60FB6803F10103FB6070
:10042000FA684EF65F239A42F2D9BB6803F10103E2
:10043000BB60BB682C2BE7D907F11407BD4680BC15
:10044000704700BF80B500AF00F054F800F046F9E7
:10045000FFF756FFFFF76CFF4FF001004FF001016F
:1004600001F07EFB4FF0140045F68C01C0F2000154
:1004700001F02EFB4FF023004FF0230101F044FC6C
:10048000FFF756FF01F0A4FCFFF752FF4FF0DD002D
:100490004FF0DD0101F038FCFFF74AFF01F098FC56
:1004A000FFF746FF4FF0DD004FF0230101F02CFC79
:1004B000FFF79AFF01F08CFCFFF73AFF4FF02300A3
:1004C0004FF0DD0101F020FCFFF78EFFFFF78CFFFE
:1004D00001F07EFCFFF72CFF4FF0DD004FF0230111
:1004E00001F012FCFFF780FF01F072FCFFF720FF24
:1004F000C0E700BF80B483B000AF4FF000037B6063
:100500004FF44043C4F20F034FF02002C3F8A02180
:1005100000BF4FF44043C4F20F03D3F8A03103F0FF
:100520004003002BF5D04FF44043C4F20F034FF0CB
:100530000202C3F804214FF44043C4F20F034FF00A
:100540000002C3F8A8214FF44043C4F20F034FF058
:100550000002C3F8AC214FF44043C4F20F034FF044
:100560000102C3F80C214FF44043C4F20F034FF0D3
:100570005902C0F20502C3F884204FF44043C4F28C
:100580000F034FF00102C3F880204FF44043C4F240
:100590000F034FF0AA02C3F88C204FF44043C4F27B
:1005A0000F034FF05502C3F88C204FF44043C4F2C0
:1005B0000F03D3F80C31022B0BD000BF4FF4404394
:1005C000C4F20F03D3F8883003F08063002BF5D01A
:1005D0000AE04FF000037B6003E07B6803F1010356
:1005E0007B607B68642BF8D94FF44043C4F20F035F
:1005F0004FF00302C3F880204FF44043C4F20F03CE
:100600004FF0AA02C3F88C204FF44043C4F20F030A
:100610004FF05502C3F88C204FF44043C4F20F034F
:100620004FF02302C3F8A4204FF44043C4F20F0359
:100630004FF00102C3F8A0204FF44043C4F20F036F
:100640004FF0AA02C3F8AC204FF44043C4F20F03AA
:100650004FF05502C3F8AC2000BF4FF44043C4F242
:100660000F03D3F8A83003F48063002BF5D04FF4C8
:100670004043C4F20F034FF00302C3F8A0204FF42D
:100680004043C4F20F034FF0AA02C3F8AC204FF46A
:100690004043C4F20F034FF05502C3F8AC204FF4AF
:1006A0004043C4F20F0348F2DE72C0F22842C3F89E
:1006B000C4204FF44043C4F20F034FF00002C3F8CC
:1006C000C8214FF44043C4F20F0343F23A021A60C8
:1006D00007F10C07BD4680BC704700BF80B400AF77
:1006E0004FF44043C4F20F03D3F888304FEA13634A
:1006F00003F00303032B40F0B2804FF44043C4F2F5
:100700000F03D3F80C3103F00303032B00F2FD8039
:1007100001A252F823F000BF290700009107000052
:10072000FB070000290700004FF44043C4F20F0309
:10073000D3F888304FEA43434FEA534303F10103B0
:100740004FEA43024FF44043C4F20F03D3F888301A
:100750004FEA134303F0FF0303F10103B2FBF3F28B
:100760004FF41063C0F23D0303FB02F24FF4404329
:10077000C4F20F03D3F8043103F0FF0303F10103C4
:10078000B2FBF3F240F24C03C1F200031A60BDE089
:100790004FF44043C4F20F03D3F888304FEA434389
:1007A0004FEA534303F101034FEA43024FF440433E
:1007B000C4F20F03D3F888304FEA134303F0FF036A
:1007C00003F10103B2FBF3F24FF4D853C0F2B703C5
:1007D00003FB02F24FF44043C4F20F03D3F8043199
:1007E00003F0FF0303F10103B2FBF3F240F24C0309
:1007F000C1F200031A6000BF88E04FF44043C4F226
:100800000F03D3F888304FEA43434FEA534303F1D1
:1008100001034FEA43024FF44043C4F20F03D3F8FD
:1008200088304FEA134303F0FF0303F10103B2FBE7
:10083000F3F34FF4FA4202FB03F24FF44043C4F2E5
:100840000F03D3F8043103F0FF0303F10103B2FBFC
:10085000F3F240F24C03C1F200031A6056E04FF489
:100860004043C4F20F03D3F80C3103F00303032B0E
:100870004CD801A252F823F089080000B508000006
:10088000E1080000890800004FF44043C4F20F0360
:10089000D3F8043103F0FF0303F101024FF41063B6
:1008A000C0F23D03B3FBF2F240F24C03C1F200038D
:1008B0001A602BE04FF44043C4F20F03D3F8043125
:1008C00003F0FF0303F101024FF4D853C0F2B70362
:1008D000B3FBF2F240F24C03C1F200031A6015E0E0
:1008E0004FF44043C4F20F03D3F8043103F0FF0385
:1008F00003F101034FF4FA42B2FBF3F240F24C036E
:10090000C1F200031A6000BF00E000BFBD4680BC1A
:10091000704700BF80B483B000AF0346FB714FF453
:100920006143CEF2000397F907204FEA5212F9799A
:1009300001F01F014FF0010000FA01F143F822100D
:1009400007F10C07BD4680BC704700BF80B483B080
:1009500000AF40F27403C1F200034FF000021A60CE
:100960004FF44043C4F201035B68FB71FB79A3F1D0
:100970000803502B00F22B8201A252F823F000BF93
:10098000C50A0000CF0D0000CF0D0000CF0D000004
:10099000CF0D0000CF0D0000CF0D0000CF0D0000E7
:1009A000110B0000CF0D0000CF0D0000CF0D000097
:1009B000CF0D0000CF0D0000CF0D0000CF0D0000C7
:1009C0005D0B0000CF0D0000CF0D0000CF0D00002B
:1009D000CF0D0000CF0D0000CF0D0000CF0D0000A7
:1009E000A30D0000CF0D0000CF0D0000CF0D0000C3
:1009F000CF0D0000CF0D0000CF0D0000CF0D000087
:100A0000C70B0000CF0D0000CF0D0000CF0D000080
:100A1000CF0D0000CF0D0000CF0D0000CF0D000066
:100A20005B0C0000CF0D0000CF0D0000CF0D0000CB
:100A3000CF0D0000CF0D0000CF0D0000CF0D000046
:100A4000CF0D0000CF0D0000CF0D0000CF0D000036
:100A5000CF0D0000CF0D0000CF0D0000CF0D000026
:100A6000870C0000CF0D0000CF0D0000CF0D00005F
:100A7000CF0D0000CF0D0000CF0D0000CF0D000006
:100A8000A30D0000CF0D0000CF0D0000CF0D000022
:100A9000CF0D0000CF0D0000CF0D0000CF0D0000E6
:100AA000D10C0000CF0D0000CF0D0000CF0D0000D5
:100AB000CF0D0000CF0D0000CF0D0000CF0D0000C6
:100AC000490D000040F28C03C1F200034FF0000218
:100AD0001A604FF44043C4F2010340F28C02C1F2A9
:100AE0000002116840F2A812C1F20002525CD2B2B8
:100AF0009A6001F1010240F28C03C1F200031A6016
:100B00004FF44043C4F201034FF028029A616DE1B3
:100B100040F28003C1F200034FF000021A604FF46C
:100B20004043C4F2010340F28C02C1F2000211689A
:100B300040F2A812C1F20002525CD2B29A6001F1F6
:100B4000010240F28C03C1F200031A604FF44043EB
:100B5000C4F201034FF028029A6147E140F2682392
:100B6000C1F200031B68012B0ED14FF44043C4F2C5
:100B700001034FF010021A6040F26803C1F2000353
:100B80004FF007021A6016E04FF44043C4F201032D
:100B900040F28C02C1F20002116840F2A812C1F2C8
:100BA0000002525CD2B29A6001F1010240F28C0361
:100BB000C1F200031A604FF44043C4F201034FF046
:100BC00008029A6112E140F26823C1F200031B6837
:100BD0001A4640F28C03C1F200031B689A4217D9EF
:100BE0004FF44043C4F2010340F28C02C1F2000210
:100BF000116840F2A812C1F20002525CD2B29A60AF
:100C000001F1010240F28C03C1F200031A601CE002
:100C100040F2DC03C1F200031B68002B07D04FF445
:100C20004043C4F201034FF020021A600DE04FF47C
:100C30004043C4F201034FF010021A6040F268030F
:100C4000C1F200034FF00C021A604FF44043C4F2AB
:100C500001034FF008029A61C8E04FF44043C4F228
:100C600001034FF010021A6040F26803C1F2000362
:100C70004FF009021A604FF44043C4F201034FF0F1
:100C800008029A61B2E040F28003C1F200031B68DF
:100C900003F1010240F2DC03C1F200031B689A4237
:100CA00007D24FF44043C4F201034FF004021A602C
:100CB00006E04FF44043C4F201034FF004029A618E
:100CC0004FF44043C4F201034FF008029A618DE0F3
:100CD00040F28003C1F200031A684FF44043C4F2AB
:100CE00001039B68D9B240F2E803C1F200039954B2
:100CF00002F1010240F28003C1F200031A6040F2E7
:100D00008003C1F200031B6803F1010240F2DC031F
:100D1000C1F200031B689A4207D24FF44043C4F269
:100D200001034FF004021A6006E04FF44043C4F29E
:100D300001034FF004029A614FF44043C4F20103EF
:100D40004FF008029A6151E040F28003C1F20003C3
:100D50001A684FF44043C4F201039B68D9B240F2D1
:100D6000E803C1F20003995402F1010240F280034A
:100D7000C1F200031A6040F26803C1F200034FF0B1
:100D80000C021A604FF44043C4F201034FF010020A
:100D90001A604FF44043C4F201034FF008029A6115
:100DA00024E04FF44043C4F201034FF010021A60F4
:100DB00040F26803C1F200034FF008021A604FF4DA
:100DC0004043C4F201034FF008029A610EE040F282
:100DD0006803C1F200034FF00A021A604FF4404367
:100DE000C4F201034FF008029A6100BF07F10C073B
:100DF000BD4680BC704700BF80B483B000AF40F2F6
:100E00007403C1F200034FF000025A604FF44043F4
:100E1000C4F205035B68FB71FB79A3F10803502B57
:100E200000F2378201A252F823F000BF710F0000D8
:100E3000931200009312000093120000931200001E
:100E4000931200009312000093120000C10F0000E3
:100E500093120000931200009312000093120000FE
:100E60009312000093120000931200001110000072
:100E700093120000931200009312000093120000DE
:100E800093120000931200009312000067120000FA
:100E900093120000931200009312000093120000BE
:100EA0009312000093120000931200007F100000C4
:100EB000931200009312000093120000931200009E
:100EC000931200009312000093120000171100000B
:100ED000931200009312000093120000931200007E
:100EE000931200009312000093120000931200006E
:100EF000931200009312000093120000931200005E
:100F0000931200009312000093120000431100009E
:100F1000931200009312000093120000931200003D
:100F20009312000093120000931200006712000059
:100F3000931200009312000093120000931200001D
:100F40009312000093120000931200008D11000014
:100F500093120000931200009312000093120000FD
:100F60009312000093120000931200000912000077
:100F700040F29003C1F200034FF000021A604FF4F8
:100F80004043C4F2050340F29002C1F2000211682E
:100F900040F2A812C1F20002521892F84020D2B2D8
:100FA0009A6001F1010240F29003C1F200031A605D
:100FB0004FF44043C4F205034FF028029A6177E1F1
:100FC00040F28403C1F200034FF000021A604FF4B4
:100FD0004043C4F2050340F29002C1F200021168DE
:100FE00040F2A812C1F20002521892F84020D2B288
:100FF0009A6001F1010240F29003C1F200031A600D
:101000004FF44043C4F205034FF028029A614FE1C8
:1010100040F26823C1F200035B68012B0ED14FF44C
:101020004043C4F205034FF010021A6040F2680317
:10103000C1F200034FF007025A6018E04FF440433A
:10104000C4F2050340F29002C1F20002116840F2BE
:10105000A812C1F20002521892F84020D2B29A604F
:1010600001F1010240F29003C1F200031A604FF453
:101070004043C4F205034FF008029A6118E140F2C0
:101080006823C1F200035B681A4640F29003C1F284
:1010900000031B689A4219D94FF44043C4F2050378
:1010A00040F29002C1F20002116840F2A812C1F2AF
:1010B0000002521892F84020D2B29A6001F1010267
:1010C00040F29003C1F200031A601CE040F2DC031E
:1010D000C1F200035B68002B07D04FF44043C4F219
:1010E00005034FF020021A600DE04FF44043C4F2B4
:1010F00005034FF010021A6040F26803C1F20003CA
:101100004FF00C025A604FF44043C4F205034FF015
:1011100008029A61CCE04FF44043C4F205034FF05B
:1011200010021A6040F26803C1F200034FF0090296
:101130005A604FF44043C4F205034FF008029A612D
:10114000B6E040F28403C1F200031B6803F1010220
:1011500040F2DC03C1F200035B689A4207D24FF40D
:101160004043C4F205034FF004021A6006E04FF456
:101170004043C4F205034FF004029A614FF4404328
:10118000C4F205034FF008029A6191E040F2840333
:10119000C1F200031A684FF44043C4F205039B6890
:1011A000D9B240F2E803C1F200039B1883F8401063
:1011B00002F1010240F28403C1F200031A6040F21E
:1011C0008403C1F200031B6803F1010240F2DC0357
:1011D000C1F200035B689A4207D24FF44043C4F265
:1011E00005034FF004021A6006E04FF44043C4F2D6
:1011F00005034FF004029A614FF44043C4F2050323
:101200004FF008029A6153E040F28403C1F20003F8
:101210001A684FF44043C4F205039B68D9B240F208
:10122000E803C1F200039B1883F8401002F10102A9
:1012300040F28403C1F200031A6040F26803C1F275
:1012400000034FF00C025A604FF44043C4F2050310
:101250004FF010021A604FF44043C4F205034FF000
:1012600008029A6124E04FF44043C4F205034FF0B2
:1012700010021A6040F26803C1F200034FF0080246
:101280005A604FF44043C4F205034FF008029A61DC
:101290000EE040F26803C1F200034FF00A025A6008
:1012A0004FF44043C4F205034FF008029A6100BFB7
:1012B00007F10C07BD4680BC704700BF80B483B007
:1012C00000AF40F27403C1F200034FF000029A60D5
:1012D0004FF00003C4F20A035B68FB71FB79A3F1D2
:1012E0000803502B00F2378201A252F823F000BF0E
:1012F000351400005717000057170000571700005B
:101300005717000057170000571700005717000025
:1013100085140000571700005717000057170000EA
:101320005717000057170000571700005717000005
:10133000D51400005717000057170000571700007A
:1013400057170000571700005717000057170000E5
:101350002B17000057170000571700005717000001
:1013600057170000571700005717000057170000C5
:1013700043150000571700005717000057170000CB
:1013800057170000571700005717000057170000A5
:10139000DB15000057170000571700005717000013
:1013A0005717000057170000571700005717000085
:1013B0005717000057170000571700005717000075
:1013C0005717000057170000571700005717000065
:1013D00007160000571700005717000057170000A6
:1013E0005717000057170000571700005717000045
:1013F0002B17000057170000571700005717000061
:101400005717000057170000571700005717000024
:10141000511600005717000057170000571700001B
:101420005717000057170000571700005717000004
:10143000CD16000040F29403C1F200034FF0000209
:101440001A604FF00003C4F20A0340F29402C1F2A2
:101450000002116840F2A812C1F20002521892F87C
:101460008020D2B29A6001F1010240F29403C1F2ED
:1014700000031A604FF00003C4F20A034FF0280281
:101480009A6177E140F28803C1F200034FF0000255
:101490001A604FF00003C4F20A0340F29402C1F252
:1014A0000002116840F2A812C1F20002521892F82C
:1014B0008020D2B29A6001F1010240F29403C1F29D
:1014C00000031A604FF00003C4F20A034FF0280231
:1014D0009A614FE140F26823C1F200039B68012B3F
:1014E0000ED14FF00003C4F20A034FF010021A604D
:1014F00040F26803C1F200034FF007029A6018E05F
:101500004FF00003C4F20A0340F29402C1F2000259
:10151000116840F2A812C1F20002521892F880201D
:10152000D2B29A6001F1010240F29403C1F20003C9
:101530001A604FF00003C4F20A034FF008029A61E8
:1015400018E140F26823C1F200039B681A4640F29A
:101550009403C1F200031B689A4219D94FF00003AB
:10156000C4F20A0340F29402C1F20002116840F290
:10157000A812C1F20002521892F88020D2B29A60EA
:1015800001F1010240F29403C1F200031A601CE071
:1015900040F2DC03C1F200039B68002B07D04FF040
:1015A0000003C4F20A034FF020021A600DE04FF06E
:1015B0000003C4F20A034FF010021A6040F26803FD
:1015C000C1F200034FF00C029A604FF00003C4F226
:1015D0000A034FF008029A61CCE04FF00003C4F216
:1015E0000A034FF010021A6040F26803C1F20003D0
:1015F0004FF009029A604FF00003C4F20A034FF063
:1016000008029A61B6E040F28803C1F200031B6849
:1016100003F1010240F2DC03C1F200039B689A422D
:1016200007D24FF00003C4F20A034FF004021A601D
:1016300006E04FF00003C4F20A034FF004029A617F
:101640004FF00003C4F20A034FF008029A6191E0E0
:1016500040F28803C1F200031A684FF00003C4F29D
:101660000A039B68D9B240F2E803C1F200039B1859
:1016700083F8801002F1010240F28803C1F20003F6
:101680001A6040F28803C1F200031B6803F10102F3
:1016900040F2DC03C1F200039B689A4207D24FF08C
:1016A0000003C4F20A034FF004021A6006E04FF090
:1016B0000003C4F20A034FF004029A614FF00003E2
:1016C000C4F20A034FF008029A6153E040F2880323
:1016D000C1F200031A684FF00003C4F20A039B68CA
:1016E000D9B240F2E803C1F200039B1883F88010DE
:1016F00002F1010240F28803C1F200031A6040F2D5
:101700006803C1F200034FF00C029A604FF000032F
:10171000C4F20A034FF010021A604FF00003C4F243
:101720000A034FF008029A6124E04FF00003C4F26C
:101730000A034FF010021A6040F26803C1F200037E
:101740004FF008029A604FF00003C4F20A034FF012
:1017500008029A610EE040F26803C1F200034FF004
:101760000A029A604FF00003C4F20A034FF0080225
:101770009A6100BF07F10C07BD4680BC704700BFEF
:1017800080B500AF4FF44043C4F20F034FF4404222
:10179000C4F20F02D2F8C42042F40022C3F8C420DD
:1017A0004FF44043C4F202034FF44042C4F2020239
:1017B000526822F470725A604FF44043C4F202033C
:1017C0004FF44042C4F20202526842F470725A600E
:1017D0004FF44043C4F202034FF44042C4F2020209
:1017E000526C22F470725A644FF44043C4F2020304
:1017F0004FF44042C4F20202526C42F420725A6426
:101800004FF44043C4F202034FF44042C4F20202D8
:10181000926E42F4C0129A664FF44043C4F205033C
:101820004FF06C029A614FF44043C4F205034FF449
:10183000A8725A614FF44043C4F205034FF4A872F2
:101840001A614FF00B00FFF765F84FF44043C4F204
:1018500005034FF040021A6080BD00BF80B483B022
:1018600000AF4FF000037B604FF44043C2F2090326
:101870004FF44042C2F20902126922F4C0121A6106
:101880004FF44043C2F209034FF44042C2F209024E
:10189000126822F4C0121A604FF44043C2F20903E6
:1018A0004FF44042C2F20902126842F480121A60F8
:1018B00048E04FF000037B6003E07B6803F1010325
:1018C0007B607A6842F20F739A42F6D94FF4404334
:1018D000C2F209034FF480129A614FF000037B605B
:1018E00003E07B6803F101037B607A6840F2E73331
:1018F0009A42F6D94FF44043C2F209034FF48012E2
:10190000DA614FF000037B6003E07B6803F10103C1
:101910007B607A6840F2E7339A42F6D94FF440434D
:10192000C2F209034FF480129A614FF000037B600A
:1019300003E07B6803F101037B607A6842F20F7376
:101940009A42F6D94FF44043C2F209035B6903F4AB
:101950000023002BADD007F10C07BD4680BC7047BB
:1019600080B483B000AF786045F6A403C0F20003F2
:101970007A6853F822304FF020021A6040F2680370
:10198000C1F200037A684FF0060143F8221027E005
:1019900040F27403C1F200037A6853F822301A4609
:1019A0004FF6FE73C0F2FF039A4209D940F2680372
:1019B000C1F200037A684FF00B0143F8221018E0DF
:1019C00040F27403C1F200037A6853F8223003F145
:1019D000010140F27403C1F200037A6843F8221057
:1019E00040F26803C1F200037A6853F82230062BF4
:1019F000CED045F6A403C0F200037A6853F8223033
:101A00004FF020029A6140F26803C1F200037A6845
:101A100053F82230184607F10C07BD4680BC7047CA
:101A200080B483B000AF4FF000037B604FF0000341
:101A30007B6003E07B6803F101037B607B68632BC1
:101A4000F8D907F10C07BD4680BC704780B500AFE0
:101A500000F0FEF8FFF7E4FF4FF0010000F0BEF8E1
:101A6000FFF7DEFF4FF0040000F004F8FFF7D8FFA7
:101A700080BD00BF80B584B000AF0346FB7140F26B
:101A80006823C1F200034FF002025A6040F2DC0307
:101A9000C1F200034FF000025A6040F2A813C1F2F5
:101AA00000034FF0C60283F8402040F2A813C1F2B1
:101AB0000003FA7983F841204FF00100FFF750FF4F
:101AC000F860FB68184607F11007BD4680BD00BFEF
:101AD00080B584B000AF03463960FB714FF000035E
:101AE000FB60FB7903F101031A4640F26823C1F25F
:101AF00000035A6040F2DC03C1F200034FF0000221
:101B00005A6040F2A813C1F200034FF0C60283F8F6
:101B100040204FF00003FB6013E0FB6803F101017C
:101B20003B681A7840F2A813C1F200035B1883F8EF
:101B300040203B6803F101033B60FB6803F10103B4
:101B4000FB60FA79FB689A42E7D84FF00100FFF793
:101B500007FFB860BB68184607F11007BD4680BD97
:101B600080B584B000AF02460B46FA71BB7140F2FB
:101B70006823C1F200034FF004025A6040F2DC0314
:101B8000C1F200034FF000025A6040F2A813C1F204
:101B900000034FF0C60283F8402040F2A813C1F2C0
:101BA00000034FF0030283F8412040F2A813C1F272
:101BB0000003FA7983F8422040F2A813C1F200032F
:101BC000BA7983F843204FF00100FFF7C9FEF860AF
:101BD000FB68184607F11007BD4680BD80B584B08C
:101BE00000AF0346FB7140F26823C1F200034FF0DF
:101BF00002025A6040F2DC03C1F200034FF000021F
:101C00005A6040F2A813C1F200034FF0C60283F8F5
:101C10004020FB79012B08D140F2A813C1F2000348
:101C20004FF0130283F8412007E040F2A813C1F2FD
:101C300000034FF0140283F841204FF00100FFF73A
:101C40008FFEF860FB68184607F11007BD4680BD9F
:101C500080B582B000AF40F26823C1F200034FF0BC
:101C600002025A6040F2DC03C1F200034FF00002AE
:101C70005A6040F2A813C1F200034FF0C60283F885
:101C8000402040F2A813C1F200034FF00C0283F889
:101C900041204FF00100FFF763FE78607B68184633
:101CA00007F10807BD4680BD80B500AF00F002F81F
:101CB00080BD00BF80B500AF40F28843C1F2000391
:101CC0004FF04E021A7040F28843C1F200034FF009
:101CD00045025A7040F28843C1F200034FF05802A7
:101CE0009A7040F28843C1F200034FF03802DA7074
:101CF0004FF0020040F28841C1F200014FF00402AF
:101D000000F0EEFE80BD00BF80B582B000AF02469D
:101D10000B46FA71BB7140F28843C1F200034FF0E9
:101D20004E021A7040F28843C1F200034FF04502A0
:101D30005A7040F28843C1F200034FF058029A7083
:101D400040F28843C1F200034FF03102DA7040F2F2
:101D50008843C1F20003FA791A714FF0020040F291
:101D60008841C1F200014FF0050200F0B9FE40F2D7
:101D70008843C1F200034FF04E021A7040F28843CC
:101D8000C1F200034FF045025A7040F28843C1F29D
:101D900000034FF058029A7040F28843C1F20003EA
:101DA0004FF03202DA7040F28843C1F20003BA7990
:101DB0001A714FF0020040F28841C1F200014FF069
:101DC000050200F08DFE07F10807BD4680BD00BF8B
:101DD00080B500AF40F28843C1F200034FF04E02DD
:101DE0001A7040F28843C1F200034FF045025A7066
:101DF00040F28843C1F200034FF058029A7040F25B
:101E00008843C1F200034FF03102DA7040F2884398
:101E1000C1F200034FF080021A714FF0020040F24D
:101E20008841C1F200014FF0050200F059FE40F276
:101E30008843C1F200034FF04E021A7040F288430B
:101E4000C1F200034FF045025A7040F28843C1F2DC
:101E500000034FF058029A7040F28843C1F2000329
:101E60004FF03202DA7040F28843C1F200034FF0C3
:101E700080021A714FF0020040F28841C1F2000165
:101E80004FF0050200F02CFE80BD00BF80B483B08F
:101E900000AF0346FB714FF46143CEF2000397F9A4
:101EA00007204FEA5212F97901F01F014FF00100AB
:101EB00000FA01F143F8221007F10C07BD4680BC7F
:101EC000704700BF80B483B000AF03463960FB7138
:101ED00097F90730002B10DA4FF46D43CEF2000370
:101EE000FA7902F00F02A2F104013A68D2B24FEA85
:101EF000C202D2B25B181A760DE04FF46143CEF203
:101F0000000397F907103A68D2B24FEAC202D2B280
:101F10005B1883F8002307F10C07BD4680BC7047AF
:101F200080B483B000AF0346FB7197F90730002BF4
:101F30000FDA4FF46D43CEF20003FA7902F00F028C
:101F4000A2F104029B181B7EDBB24FEAD303DBB283
:101F50000CE04FF46143CEF2000397F907209B1881
:101F600093F80033DBB24FEAD303DBB2184607F134
:101F70000C07BD4680BC704780B582B000AF4FF4FF
:101F80004043C4F200039B68BB71BB794FEA530323
:101F9000BB71BB7903F00703BB71BB79032B4DD138
:101FA0004FF44043C4F200035B697B717B7903F01B
:101FB0009E03002B0CD07A7940F20853C1F2000343
:101FC0001A604FF44043C4F200031B68FB7194E0B5
:101FD0007B7903F00103DBB2002B00F08E804FF41D
:101FE0004043C4F200031B68DAB240F2C433C1F2CA
:101FF00000031A7040F2C433C1F200031B78DBB255
:10200000184600F017FE40F2A003C1F200031B685F
:1020100003F1010240F2A003C1F200031A6040F292
:10202000A003C1F200031B68402B66D140F2A0035D
:10203000C1F200034FF000021A605EE0BB79022B90
:102040002ED14FF44043C4F200031B68DAB240F2D1
:10205000C433C1F200031A7040F2C433C1F200036A
:102060001B78DBB2184600F0E5FD40F2A003C1F298
:1020700000031B6803F1010240F2A003C1F2000358
:102080001A6040F2A003C1F200031B68402B34D158
:1020900040F2A003C1F200034FF000021A602CE0EE
:1020A000BB79062B0CD140F20853C1F200031B6828
:1020B00043F4807240F20853C1F200031A601CE03E
:1020C000BB79012B19D14FF44043C4F200035B6983
:1020D0007B717B7903F02003002B07D040F2500383
:1020E000C1F200034FF001021A7006E040F2500303
:1020F000C1F200034FF000021A7007F10807BD4655
:1021000080BD00BF80B582B000AF4FF00003C4F2C5
:1021100001039B68BB71BB794FEA5303BB71BB7969
:1021200003F00703BB71BB79032B4FD14FF00003C2
:10213000C4F201035B697B717B7903F09E03002B82
:102140000CD07A7940F24443C1F200031A604FF098
:102150000003C4F201031B68FB7198E07B7903F074
:102160000103DBB2002B00F092804FF00003C4F2B9
:1021700001031B68DAB240F27C33C1F200031A702B
:1021800040F27C33C1F200031B78DBB24FF0010058
:10219000194600F013FE40F2A403C1F200031B68CD
:1021A00003F1010240F2A403C1F200031A6040F2FD
:1021B000A403C1F200031B68402B68D140F2A403C2
:1021C000C1F200034FF000021A6060E0BB79022BFD
:1021D00030D14FF00003C4F201031B68DAB240F2C1
:1021E0007C33C1F200031A7040F27C33C1F2000369
:1021F0001B78DBB24FF00100194600F0DFFD40F222
:10220000A403C1F200031B6803F1010240F2A4031E
:10221000C1F200031A6040F2A403C1F200031B687C
:10222000402B34D140F2A403C1F200034FF000026E
:102230001A602CE0BB79062B0CD140F24443C1F26A
:1022400000031B6843F4807240F24443C1F2000370
:102250001A601CE0BB79012B19D14FF00003C4F2C6
:1022600001035B697B717B7903F02003002B07D0AE
:1022700040F25103C1F200034FF001021A7006E070
:1022800040F25103C1F200034FF000021A7007F14F
:102290000807BD4680BD00BF80B483B000AF4FF4D7
:1022A0000043C4F209039B68BB71BB794FEA530337
:1022B000BB71BB7903F00703BB71BB79032B5AD108
:1022C0004FF40043C4F209035B697B717B7903F02F
:1022D0009E03002B0CD07A7940F2BC33C1F200038C
:1022E0001A604FF40043C4F209031B68FB71ADE0B0
:1022F0007B7903F00103DBB2002B00F0A78040F2F2
:10230000A803C1F200031A684FF40043C4F20903A2
:102310001B68D9B240F27423C1F20003995402F150
:10232000010240F2A803C1F200031A6040F2C103A7
:10233000C1F200031B78DBB21A4640F2A803C1F2D7
:1023400000031B689A4240F0818040F2A803C1F26A
:1023500000034FF000021A6040F2C103C1F2000313
:102360004FF000021A7040F2C003C1F200034FF0B8
:1023700001021A706AE0BB79022B3AD140F2A8033D
:10238000C1F200031A684FF40043C4F209031B684A
:10239000D9B240F27423C1F20003995402F1010250
:1023A00040F2A803C1F200031A6040F2C103C1F277
:1023B00000031B78DBB21A4640F2A803C1F2000307
:1023C0001B689A4242D140F2A803C1F200034FF0C9
:1023D00000021A6040F2C103C1F200034FF0000294
:1023E0001A7040F2C003C1F200034FF001021A70EC
:1023F0002CE0BB79062B0CD140F2BC33C1F20003B8
:102400001B6843F4807240F2BC33C1F200031A60CF
:102410001CE0BB79012B19D14FF40043C4F209032E
:102420005B697B717B7903F02003002B07D040F2BE
:102430005203C1F200034FF001021A7006E040F2AD
:102440005203C1F200034FF000021A7007F10C07AB
:10245000BD4680BC704700BF80B582B000AF4FF46E
:102460004043C4F209039B68BB71BB794FEA530335
:10247000BB71BB7903F00703BB71BB79032B4FD151
:102480004FF44043C4F209035B697B717B7903F02D
:102490009E03002B0CD07A7940F20853C1F200035E
:1024A0001A604FF44043C4F209031B68FB7198E0C3
:1024B0007B7903F00103DBB2002B00F092804FF434
:1024C0004043C4F209031B68DAB240F24843C1F248
:1024D00000031A7040F24843C1F200031B78DBB2DC
:1024E0004FF00300194600F069FC40F2AC03C1F262
:1024F00000031B6803F1010240F2AC03C1F20003C8
:102500001A6040F2AC03C1F200031B68402B68D193
:1025100040F2AC03C1F200034FF000021A6060E029
:10252000BB79022B30D14FF44043C4F209031B683E
:10253000DAB240F24843C1F200031A7040F2484355
:10254000C1F200031B78DBB24FF00300194600F024
:1025500035FC40F2AC03C1F200031B6803F1010239
:1025600040F2AC03C1F200031A6040F2AC03C1F2C6
:1025700000031B68402B34D140F2AC03C1F20003CE
:102580004FF000021A602CE0BB79062B0CD140F210
:10259000C033C1F200031B6843F4807240F2C033C1
:1025A000C1F200031A601CE0BB79012B19D14FF472
:1025B0004043C4F209035B697B717B7903F020031C
:1025C000002B07D040F25303C1F200034FF0010289
:1025D0001A7006E040F25303C1F200034FF000020C
:1025E0001A7007F10807BD4680BD00BF80B586B0F0
:1025F00000AF786039604FF000033B617B68002BCF
:1026000040F086804FF44043C4F202034FF440424E
:10261000C4F20202126822F0F0021A604FF4404342
:10262000C4F202034FF44042C4F20202126842F0C4
:1026300050021A604FF44043C4F20F03D3F8A8319C
:102640004FEA931303F00303FB60FB68022B13D0E4
:10265000032B1AD0012B08D040F24C03C1F2000327
:102660001B684FEA93037B6118E040F24C03C1F210
:1026700000031B687B6111E040F24C03C1F20003D0
:102680001B684FEA53037B6108E040F24C03C1F240
:1026900000031B684FEAD3037B6100BF4FF4404344
:1026A000C4F200034FF08302DA607B694FEA131231
:1026B0003B68B2FBF3F3BB604FF44043C4F200034A
:1026C000BA684FEA12225A604FF44043C4F2000342
:1026D000BA6802F0FF021A604FF44043C4F20003EC
:1026E0004FF00302DA604FF44043C4F200034FF0AE
:1026F00007029A604FF00500FFF7C8FB4FF4404314
:10270000C4F200034FF005025A604FF00103E2E10A
:102710007B68012B40F09E804FF44043C4F20203DB
:102720004FF44042C4F20202126822F040421A60A2
:102730004FF44043C4F202034FF44042C4F2020299
:10274000126842F080421A604FF44043C4F2020320
:102750004FF44042C4F20202526822F003025A606F
:102760004FF44043C4F202034FF44042C4F2020269
:10277000526842F001025A604FF44043C4F20F0322
:10278000D3F8A8314FEA132303F00303FB60FB687F
:10279000022B13D0032B1AD0012B08D040F24C038C
:1027A000C1F200031B684FEA93037B6118E040F21B
:1027B0004C03C1F200031B687B6111E040F24C0343
:1027C000C1F200031B684FEA53037B6108E040F24B
:1027D0004C03C1F200031B684FEAD3037B6100BFC7
:1027E0004FF00003C4F201034FF08302DA607B690B
:1027F0004FEA13123B68B2FBF3F3BB604FF00003E8
:10280000C4F20103BA684FEA12225A604FF0000383
:10281000C4F20103BA6802F0FF021A604FF000032D
:10282000C4F201034FF00302DA604FF00003C4F278
:1028300001034FF007029A604FF00600FFF726FBF6
:102840004FF00003C4F201034FF005025A604FF04D
:10285000010340E17B68022B40F094804FF4404339
:10286000C4F20F034FF44042C4F20F02D2F8C42066
:1028700042F08072C3F8C4204FF44043C4F2020314
:102880004FF44042C4F20202126822F470021A604D
:102890004FF44043C4F202034FF44042C4F2020238
:1028A000126842F4A0021A604FF44043C4F20F03CE
:1028B000D3F8AC314FEA134303F00303FB60FB682A
:1028C000022B13D0032B1AD0012B08D040F24C035B
:1028D000C1F200031B684FEA93037B6118E040F2EA
:1028E0004C03C1F200031B687B6111E040F24C0312
:1028F000C1F200031B684FEA53037B6108E040F21A
:102900004C03C1F200031B684FEAD3037B6100BF95
:102910004FF40043C4F209034FF08302DA607B698D
:102920004FEA13123B68B2FBF3F3BB604FF4004372
:10293000C4F20903BA684FEA12225A604FF4004306
:10294000C4F20903BA6802F0FF021A604FF40043B0
:10295000C4F209034FF00302DA604FF40043C4F2FB
:1029600009034FF007029A604FF00700FFF78EFA55
:102970004FF40043C4F209034FF005025A604FF0D0
:102980000103A8E07B68032B40F0A3804FF4404391
:10299000C4F20F034FF44042C4F20F02D2F8C42035
:1029A00042F00072C3F8C4204FF44043C4F2020363
:1029B0004FF44042C4F20202126822F00F021A6081
:1029C0004FF44043C4F202034FF44042C4F2020207
:1029D000126842F00A021A604FF44043C4F20F0337
:1029E000D3F8AC314FEA934303F00303FB60FB6879
:1029F000022B13D0032B1AD0012B08D040F24C032A
:102A0000C1F200031B684FEA93037B6118E040F2B8
:102A10004C03C1F200031B687B6111E040F24C03E0
:102A2000C1F200031B684FEA53037B6108E040F2E8
:102A30004C03C1F200031B684FEAD3037B6100BF64
:102A40004FF44043C4F209034FF08302DA607B691C
:102A50004FEA13123B68B2FBF3F3BB604FF4404301
:102A6000C4F20903BA684FEA12225A604FF4404395
:102A7000C4F20903BA6802F0FF021A604FF440433F
:102A8000C4F209034FF00302DA604FF44043C4F28A
:102A900009034FF007029A604FF00800FFF740FA71
:102AA00038614FF008004FF00101FFF70BFA4FF0CB
:102AB0000800FFF7EBF94FF00800FFF7E7F94FF4D4
:102AC0004043C4F209034FF005025A604FF001037E
:102AD00001E04FF00003184607F11807BD4680BD1E
:102AE00080B485B000AFF860B9607A60FB68002BF5
:102AF00024D11FE000BF4FF44043C4F200035B69E0
:102B000003F04003002BF6D04FF44043C4F200031F
:102B1000BA6812781A6040F25003C1F200034FF015
:102B200000021A70BB6803F10103BB607B6803F10C
:102B3000FF337B607B68002BDCD176E0FB68012BE8
:102B400024D11FE000BF4FF00003C4F201035B6912
:102B500003F04003002BF6D04FF00003C4F2010352
:102B6000BA6812781A6040F25103C1F200034FF0C4
:102B700000021A70BB6803F10103BB607B6803F1BC
:102B8000FF337B607B68002BDCD14EE0FB68022BBF
:102B900024D11FE000BF4FF40043C4F209035B6976
:102BA00003F04003002BF6D04FF40043C4F20903B6
:102BB000BA6812781A6040F25203C1F200034FF073
:102BC00000021A70BB6803F10103BB607B6803F16C
:102BD000FF337B607B68002BDCD126E0FB68032B96
:102BE00023D11FE000BF4FF44043C4F209035B69E7
:102BF00003F04003002BF6D04FF44043C4F2090326
:102C0000BA6812781A6040F25303C1F200034FF021
:102C100000021A70BB6803F10103BB607B6803F11B
:102C2000FF337B607B68002BDCD107F11407BD46C6
:102C300080BC704780B483B000AF0346FB7140F2A4
:102C4000C403C1F200031B78DBB203F10103DAB263
:102C500040F2C403C1F200031A7040F21053C1F2F3
:102C600000031B78DBB2002B17D1FB79242B14D186
:102C700040F21B53C1F200034FF001021A7040F200
:102C80007D53C1F200034FF000021A7040F2C303FB
:102C9000C1F200034FF000021A7040F21B53C1F260
:102CA00000031B78DBB2002B30D040F27D53C1F221
:102CB00000031B78DBB21A4640F29C53C1F20003BA
:102CC000F979995440F27C53C1F200034FF00102AC
:102CD0001A7040F21B53C1F200034FF000021A7049
:102CE00040F21053C1F200034FF001021A7040F29B
:102CF0007D53C1F200031B78DBB203F10103DAB2AA
:102D000040F27D53C1F200031A7051E040F27C534F
:102D1000C1F200031B78DBB2002B49D040F27D5397
:102D2000C1F200031B78DBB21A4640F29C53C1F299
:102D30000003F9799954FB790A2B2BD140F27D538A
:102D4000C1F200031B78DBB203F1FF3240F29C5367
:102D5000C1F200039B5CDBB20D2B1BD140F27D5313
:102D6000C1F200034FF000021A7040F27C53C1F22E
:102D700000034FF000021A7040F21053C1F200033A
:102D80004FF001021A7040F2C203C1F200034FF08B
:102D900001021A7040F27D53C1F200031B78DBB2CE
:102DA00003F10103DAB240F27D53C1F200031A705D
:102DB00007F10C07BD4680BC704700BF80B584B0EA
:102DC00000AF02460B46FA71BB714FF00003FB7374
:102DD00040F25403C1F200031B78092B0CD140F2DE
:102DE000B503C1F20003BA791A7040F2B703C1F219
:102DF00000034FF001021A7040F25403C1F20003C5
:102E00001B78082B0CD140F2B403C1F20003BA794D
:102E10001A7040F25403C1F200034FF009021A7015
:102E200040F25403C1F200031B78072B0CD140F28F
:102E3000B303C1F20003BA791A7040F25403C1F22D
:102E400000034FF008021A7040F25403C1F200036D
:102E50001B78062B0CD140F2B203C1F20003BA7901
:102E60001A7040F25403C1F200034FF007021A70C7
:102E700040F25403C1F200031B78052B6CD140F2E1
:102E8000B003C1F200031B78DBB21E2B1BD1BB7950
:102E9000002B18D0BB79202B15D840F2B603C1F215
:102EA00000031B78DBB2002B0DD140F2B203C1F25C
:102EB0000003BA791A7040F2B603C1F200034FF072
:102EC00001021A7048E040F2B603C1F200031B7819
:102ED000DBB2012B0ED140F25403C1F200034FF0DC
:102EE00001021A7040F2B603C1F200034FF0000273
:102EF0001A7031E040F2B003C1F200031B78DBB27C
:102F0000812B07D040F2B003C1F200031B78DBB283
:102F1000822B0DD140F2B103C1F20003BA791A70CD
:102F200040F25403C1F200034FF006021A7013E09E
:102F300040F2B703C1F200034FF001021A7040F2F1
:102F4000B103C1F20003BA791A7040F25403C1F21E
:102F500000034FF005021A7040F25403C1F200035F
:102F60001B78042B0CD140F2B003C1F20003BA79F4
:102F70001A7040F25403C1F200034FF005021A70B8
:102F800040F25403C1F200031B78032B11D1BB792B
:102F9000582B07D140F25403C1F200034FF0040252
:102FA0001A7006E040F25403C1F200034FF0010230
:102FB0001A7040F25403C1F200031B78022B11D1A6
:102FC000BB79452B07D140F25403C1F200034FF007
:102FD00003021A7006E040F25403C1F200034FF0FE
:102FE00001021A7040F25403C1F200031B78012B56
:102FF00009D1BB794E2B06D140F25403C1F2000334
:103000004FF002021A7040F2B703C1F200031B78BE
:10301000DBB2002B02F0338440F2B003C1F20003B4
:103020001B78DBB203F1FF33FB2B02F2078401A212
:1030300052F823F025340000CF3400003D58000042
:103040007935000023360000293D00005F3D000077
:10305000953D0000CB3D00004D3F00003D58000075
:103060003D5800003D5800003D5800003D5800000C
:10307000FD41000039440000754600003D58000045
:103080003D5800003D5800003D5800003D580000EC
:103090003D5800003D5800003D5800003D580000DC
:1030A0003D5800003D5800003D5800003D580000CC
:1030B000B14800004B490000E54900007F4A00008C
:1030C000534B00003D5800003D5800003D580000A3
:1030D0003D5800003D5800003D5800003D5800009C
:1030E0003D5800003D5800003D5800003D5800008C
:1030F0003D5800003D5800003D5800003D5800007C
:103100003D5800003D5800003D5800003D5800006B
:103110003D5800003D5800003D5800003D5800005B
:103120003D5800003D5800003D5800003D5800004B
:103130003D5800003D5800003D5800003D5800003B
:103140003D5800003D5800003D5800003D5800002B
:103150003D5800003D5800003D5800003D5800001B
:103160003D5800003D5800003D5800003D5800000B
:103170003D5800003D5800003D5800003D580000FB
:103180003D5800003D5800003D5800003D580000EB
:103190003D5800003D5800003D5800003D580000DB
:1031A0003D5800003D5800003D5800003D580000CB
:1031B0003D5800003D5800003D5800003D580000BB
:1031C0003D5800003D5800003D5800003D580000AB
:1031D0003D5800003D5800003D5800003D5800009B
:1031E0003D5800003D5800003D5800003D5800008B
:1031F0003D5800003D5800003D5800003D5800007B
:103200003D5800003D5800003D5800003D5800006A
:103210003D5800003D5800003D5800003D5800005A
:103220003D5800003D5800003D5800003D5800004A
:103230003D5800003D5800003D5800003D5800003A
:103240003D5800003D5800003D5800003D5800002A
:103250003D5800003D5800003D5800003D5800001A
:103260008D4E00003D5800003D5800003D580000C4
:103270009F4E0000C74E00004D4F0000435000001D
:10328000375100001F520000375200004F5200001B
:10329000A1530000C753000061540000FB5400001C
:1032A0003D5800003D5800003D5800003D580000CA
:1032B0003D5800003D5800003D5800003D580000BA
:1032C0003D5800003D5800003D5800003D580000AA
:1032D0003D5800003D580000955500002F56000055
:1032E0003D5800003D5800003D5800003D5800008A
:1032F0003D5800003D5800003D5800003D5800007A
:103300003D5800003D5800003D5800003D58000069
:103310003D5800003D5800003D5800003D58000059
:103320003D5800003D5800003D5800003D58000049
:103330003D5800003D5800003D5800003D58000039
:103340003D5800003D5800003D5800003D58000029
:103350003D5800003D5800003D5800003D58000019
:103360003D5800003D5800003D5800003D58000009
:103370003D5800003D5800003D5800003D580000F9
:103380003D5800003D5800003D5800003D580000E9
:103390003D5800003D5800003D5800003D580000D9
:1033A0003D5800003D5800003D5800003D580000C9
:1033B0003D5800003D5800003D5800003D580000B9
:1033C0003D5800003D5800003D5800003D580000A9
:1033D0003D5800003D5800003D5800003D58000099
:1033E0003D5800003D5800003D5800003D58000089
:1033F0003D5800003D5800003D5800003D58000079
:103400003D5800003D5800003D5800003D58000068
:103410003D5800003D580000C956000045570000C7
:10342000C157000040F20443C1F200034FF04602CE
:103430001A7040F20443C1F200034FF042025A7086
:1034400040F20443C1F200034FF044029A7040F28C
:10345000B003C1F200031B78DAB240F20443C1F2B8
:103460000003DA7040F2B103C1F200031B78DAB254
:1034700040F20443C1F200031A7140F2B103C1F2F9
:1034800000031B78DBB203F1FF3240F20003C1F20C
:1034900000039A5C40F20443C1F200035A7140F207
:1034A000B803C1F200034FF006021A70FA7940F235
:1034B000B803C1F200031B78DBB2104640F20441AE
:1034C000C1F200011A46FFF70BFB02F0CAB940F245
:1034D0000443C1F200034FF046021A7040F2044365
:1034E000C1F200034FF042025A7040F20443C1F2AD
:1034F00000034FF044029A7040F2B003C1F200039F
:103500001B78DAB240F20443C1F20003DA7040F2F1
:10351000B103C1F200031B78DAB240F20443C1F2F6
:1035200000031A7140F2B103C1F200031B78DBB251
:1035300003F1FF3240F21003C1F200039A5C40F243
:103540000443C1F200035A7140F2B803C1F2000310
:103550004FF006021A70FA7940F2B803C1F2000384
:103560001B78DBB2104640F20441C1F200011A465A
:10357000FFF7B6FA02F075B940F20443C1F2000356
:103580004FF046021A7040F20443C1F200034FF0BC
:1035900042025A7040F20443C1F200034FF0440269
:1035A0009A7040F2B003C1F200031B78DAB240F225
:1035B0000443C1F20003DA7040F2B103C1F2000328
:1035C0001B78DAB240F20443C1F200031A7140F2F0
:1035D000B103C1F200031B78DBB203F1FF3240F20A
:1035E0000803C1F200039A5C40F20443C1F20003F5
:1035F0005A7140F2B803C1F200034FF006021A708C
:10360000FA7940F2B803C1F200031B78DBB210462E
:1036100040F20441C1F200011A46FFF761FA02F0DC
:1036200020B940F2B103C1F200031B78DBB2012BD9
:103630005BD140F20443C1F200034FF046021A701E
:1036400040F20443C1F200034FF042025A7040F2CC
:103650000443C1F200034FF044029A7040F2B003F9
:10366000C1F200031B78DAB240F20443C1F2000356
:10367000DA7040F2B103C1F200031B78DAB240F213
:103680000443C1F200031A714FF00003FB7311E011
:10369000FB7B03F10502F97B40F20003C1F200035A
:1036A000595C40F20443C1F200039954FB7B03F1DF
:1036B0000103FB73FB7B072BEAD940F2B803C1F28D
:1036C00000034FF00D021A70FA7940F2B803C1F20C
:1036D00000031B78DBB2104640F20441C1F2000146
:1036E0001A46FFF7FDF902F0BCB840F2B103C1F28F
:1036F00000031B78DBB2022B5BD140F20443C1F222
:1037000000034FF046021A7040F20443C1F2000376
:103710004FF042025A7040F20443C1F200034FF0EE
:1037200044029A7040F2B003C1F200031B78DAB28F
:1037300040F20443C1F20003DA7040F2B103C1F277
:1037400000031B78DAB240F20443C1F200031A719D
:103750004FF00003FB7311E0FB7B03F10502F97BE3
:1037600040F21003C1F20003595C40F20443C1F27D
:1037700000039954FB7B03F10103FB73FB7B072BD5
:10378000EAD940F2B803C1F200034FF00D021A70FB
:10379000FA7940F2B803C1F200031B78DBB210469D
:1037A00040F20441C1F200011A46FFF799F902F014
:1037B00058B840F2B103C1F200031B78DBB2042B0E
:1037C0005BD140F20443C1F200034FF046021A708D
:1037D00040F20443C1F200034FF042025A7040F23B
:1037E0000443C1F200034FF044029A7040F2B00368
:1037F000C1F200031B78DAB240F20443C1F20003C5
:10380000DA7040F2B103C1F200031B78DAB240F281
:103810000443C1F200031A714FF00003FB7311E07F
:10382000FB7B03F10502F97B40F20803C1F20003C0
:10383000595C40F20443C1F200039954FB7B03F14D
:103840000103FB73FB7B072BEAD940F2B803C1F2FB
:1038500000034FF00D021A70FA7940F2B803C1F27A
:1038600000031B78DBB2104640F20441C1F20001B4
:103870001A46FFF735F901F0F4BF40F2B103C1F287
:1038800000031B78DBB2052B5BD140F20443C1F28D
:1038900000034FF046021A7040F20443C1F20003E5
:1038A0004FF042025A7040F20443C1F200034FF05D
:1038B00044029A7040F2B003C1F200031B78DAB2FE
:1038C00040F20443C1F20003DA7040F2B103C1F2E6
:1038D00000031B78DAB240F20443C1F200031A710C
:1038E0004FF00003FB7311E0FB7B03F10502F97B52
:1038F00040F21803C1F20003595C40F20443C1F2E4
:1039000000039954FB7B03F10103FB73FB7B052B45
:10391000EAD940F2B803C1F200034FF00B021A706B
:10392000FA7940F2B803C1F200031B78DBB210460B
:1039300040F20441C1F200011A46FFF7D1F801F04C
:1039400090BF40F2B103C1F200031B78DBB2062B3B
:103950005BD140F20443C1F200034FF046021A70FB
:1039600040F20443C1F200034FF042025A7040F2A9
:103970000443C1F200034FF044029A7040F2B003D6
:10398000C1F200031B78DAB240F20443C1F2000333
:10399000DA7040F2B103C1F200031B78DAB240F2F0
:1039A0000443C1F200031A714FF00003FB7311E0EE
:1039B000FB7B03F10502F97B40F22003C1F2000317
:1039C000595C40F20443C1F200039954FB7B03F1BC
:1039D0000103FB73FB7B052BEAD940F2B803C1F26C
:1039E00000034FF00B021A70FA7940F2B803C1F2EB
:1039F00000031B78DBB2104640F20441C1F2000123
:103A00001A46FFF76DF801F02CBF40F2B103C1F286
:103A100000031B78DBB2072B5BD140F20443C1F2F9
:103A200000034FF046021A7040F20443C1F2000353
:103A30004FF042025A7040F20443C1F200034FF0CB
:103A400044029A7040F2B003C1F200031B78DAB26C
:103A500040F20443C1F20003DA7040F2B103C1F254
:103A600000031B78DAB240F20443C1F200031A717A
:103A70004FF00003FB7311E0FB7B03F10502F97BC0
:103A800040F22803C1F20003595C40F20443C1F242
:103A900000039954FB7B03F10103FB73FB7B052BB4
:103AA000EAD940F2B803C1F200034FF00B021A70DA
:103AB000FA7940F2B803C1F200031B78DBB210467A
:103AC00040F20441C1F200011A46FFF709F801F083
:103AD000C8BE40F2B103C1F200031B78DBB2082B71
:103AE0005BD140F20443C1F200034FF046021A706A
:103AF00040F20443C1F200034FF042025A7040F218
:103B00000443C1F200034FF044029A7040F2B00344
:103B1000C1F200031B78DAB240F20443C1F20003A1
:103B2000DA7040F2B103C1F200031B78DAB240F25E
:103B30000443C1F200031A714FF00003FB7311E05C
:103B4000FB7B03F10502F97B40F23C03C1F2000369
:103B5000595C40F20443C1F200039954FB7B03F12A
:103B60000103FB73FB7B0F2BEAD940F2B803C1F2D0
:103B700000034FF015021A70FA7940F2B803C1F24F
:103B800000031B78DBB2104640F20441C1F2000191
:103B90001A46FEF7A5FF01F064BE40F2B103C1F280
:103BA00000031B78DBB2092B5AD140F20443C1F267
:103BB00000034FF046021A7040F20443C1F20003C2
:103BC0004FF042025A7040F20443C1F200034FF03A
:103BD00044029A7040F2B003C1F200031B78DAB2DB
:103BE00040F20443C1F20003DA7040F2B103C1F2C3
:103BF00000031B78DAB240F20443C1F200031A71E9
:103C000040F25803C1F200031B68DAB240F20443E9
:103C1000C1F200035A7140F25803C1F200031B685D
:103C20004FEA1323DAB240F20443C1F200039A715F
:103C300040F2B803C1F200034FF007021A70FA799C
:103C400040F2B803C1F200031B78DBB2104640F229
:103C50000441C1F200011A46FEF742FF01F001BE25
:103C600040F2B103C1F200031B78DBB20A2B41F032
:103C7000E78540F20443C1F200034FF046021A7098
:103C800040F20443C1F200034FF042025A7040F286
:103C90000443C1F200034FF044029A7040F2B003B3
:103CA000C1F200031B78DAB240F20443C1F2000310
:103CB000DA7040F2B103C1F200031B78DAB240F2CD
:103CC0000443C1F200031A7140F25C03C1F2000325
:103CD0001B68DAB240F20443C1F200035A7140F2A9
:103CE0005C03C1F200031B684FEA1323DAB240F20F
:103CF0000443C1F200039A7140F2B803C1F2000319
:103D00004FF007021A70FA7940F2B803C1F20003CB
:103D10001B78DBB2104640F20441C1F200011A46A2
:103D2000FEF7DEFE01F09DBD40F2B103C1F20003DB
:103D30001B78DAB240F26303C1F200031A7040F25A
:103D4000CB03C1F200034FF001021A7040F2CC0322
:103D5000C1F200034FF001021A7001F082BD40F27F
:103D6000B103C1F200031B78DAB240F26403C1F27E
:103D700000031A7040F2CB03C1F200034FF00102BE
:103D80001A7040F2CC03C1F200034FF002021A7025
:103D900001F067BD40F2B103C1F200031B78DAB253
:103DA00040F26503C1F200031A7040F2CB03C1F286
:103DB00000034FF001021A7040F2CC03C1F200037D
:103DC0004FF003021A7001F04CBD40F2B103C1F292
:103DD00000031B78DBB2012B0FD140F2C503C1F207
:103DE00000034FF001021A7040F2C803C1F2000351
:103DF0004FF001021A7001F034BD40F2B103C1F27C
:103E000000031B78DBB2022B0FD140F2C503C1F2D5
:103E100000034FF001021A7040F2C803C1F2000320
:103E20004FF000021A7001F01CBD40F2B103C1F264
:103E300000031B78DBB2032B0FD140F2C603C1F2A3
:103E400000034FF001021A7040F2C903C1F20003EF
:103E50004FF001021A7001F004BD40F2B103C1F24B
:103E600000031B78DBB2042B0FD140F2C603C1F272
:103E700000034FF001021A7040F2C903C1F20003BF
:103E80004FF000021A7001F0ECBC40F2B103C1F235
:103E900000031B78DBB2052B0FD140F2C703C1F240
:103EA00000034FF001021A7040F2CA03C1F200038E
:103EB0004FF001021A7001F0D4BC40F2B103C1F21C
:103EC00000031B78DBB2062B0FD140F2C703C1F20F
:103ED00000034FF001021A7040F2CA03C1F200035E
:103EE0004FF000021A7001F0BCBC40F2B103C1F205
:103EF00000031B78DBB2072B0FD14CF22003C2F278
:103F000009034FF000529A6140F26203C1F20003CC
:103F10004FF001021A7001F0A4BC40F2B103C1F2EB
:103F200000031B78DBB2082B41F08C844CF2200399
:103F3000C2F209034FF00052DA6140F26203C1F2AB
:103F400000034FF000021A7001F08BBC40F2B10385
:103F5000C1F200031B78DBB2012B4DD140F20443C8
:103F6000C1F200034FF046021A7040F20443C1F25E
:103F700000034FF042025A7040F20443C1F20003C2
:103F80004FF044029A7040F2B003C1F200031B7874
:103F9000DAB240F20443C1F20003DA7040F2B10336
:103FA000C1F200031B78DAB240F20443C1F200030D
:103FB0001A7140F2C803C1F200031B78DAB240F272
:103FC0000443C1F200035A7140F2B803C1F2000386
:103FD0004FF006021A70FA7940F2B803C1F20003FA
:103FE0001B78DBB2104640F20441C1F200011A46D0
:103FF000FEF776FD01F035BC40F2B103C1F20003DB
:104000001B78DBB2022B4DD140F20443C1F2000316
:104010004FF046021A7040F20443C1F200034FF021
:1040200042025A7040F20443C1F200034FF04402CE
:104030009A7040F2B003C1F200031B78DAB240F28A
:104040000443C1F20003DA7040F2B103C1F200038D
:104050001B78DAB240F20443C1F200031A7140F255
:10406000C903C1F200031B78DAB240F20443C1F283
:1040700000035A7140F2B803C1F200034FF0060288
:104080001A70FA7940F2B803C1F200031B78DBB270
:10409000104640F20441C1F200011A46FEF720FD2D
:1040A00001F0DFBB40F2B103C1F200031B78DBB2C9
:1040B000032B4DD140F20443C1F200034FF04602FE
:1040C0001A7040F20443C1F200034FF042025A70EA
:1040D00040F20443C1F200034FF044029A7040F2F0
:1040E000B003C1F200031B78DAB240F20443C1F21C
:1040F0000003DA7040F2B103C1F200031B78DAB2B8
:1041000040F20443C1F200031A7140F2CA03C1F243
:1041100000031B78DAB240F20443C1F200035A7183
:1041200040F2B803C1F200034FF006021A70FA79A8
:1041300040F2B803C1F200031B78DBB2104640F234
:104140000441C1F200011A46FEF7CAFC01F089BB26
:1041500040F2B103C1F200031B78DBB2042B41F043
:10416000738340F20443C1F200034FF046021A7019
:1041700040F20443C1F200034FF042025A7040F291
:104180000443C1F200034FF044029A7040F2B003BE
:10419000C1F200031B78DAB240F20443C1F200031B
:1041A000DA7040F2B103C1F200031B78DAB240F2D8
:1041B0000443C1F200031A7140F26203C1F200032A
:1041C0001A7840F20443C1F200035A7140F2B80376
:1041D000C1F200034FF006021A70FA7940F2B803F8
:1041E000C1F200031B78DBB2104640F20441C1F279
:1041F00000011A46FEF774FC01F033BB40F2B10334
:10420000C1F200031B78DBB2012B56D140F204430C
:10421000C1F200034FF046021A7040F20443C1F2AB
:1042200000034FF042025A7040F20443C1F200030F
:104230004FF044029A7040F2B003C1F200031B78C1
:10424000DAB240F20443C1F20003DA7040F2B10383
:10425000C1F200031B78DAB240F20443C1F200035A
:104260001A7140F21803C1F200031A7840F20443B5
:10427000C1F200035A7140F21803C1F200035A78E8
:1042800040F20443C1F200039A7140F2B803C1F254
:1042900000034FF007021A70FA7940F2B803C1F236
:1042A00000031B78DBB2104640F20441C1F200016A
:1042B0001A46FEF715FC01F0D4BA40F2B103C1F280
:1042C00000031B78DBB2022B56D140F20443C1F24B
:1042D00000034FF046021A7040F20443C1F200039B
:1042E0004FF042025A7040F20443C1F200034FF013
:1042F00044029A7040F2B003C1F200031B78DAB2B4
:1043000040F20443C1F20003DA7040F2B103C1F29B
:1043100000031B78DAB240F20443C1F200031A71C1
:1043200040F21803C1F200039A7840F20443C1F24C
:1043300000035A7140F21803C1F20003DA7840F228
:104340000443C1F200039A7140F2B803C1F20003C2
:104350004FF007021A70FA7940F2B803C1F2000375
:104360001B78DBB2104640F20441C1F200011A464C
:10437000FEF7B6FB01F075BA40F2B103C1F20003DB
:104380001B78DBB2032B41F0618240F20443C1F29F
:1043900000034FF046021A7040F20443C1F20003DA
:1043A0004FF042025A7040F20443C1F200034FF052
:1043B00044029A7040F2B003C1F200031B78DAB2F3
:1043C00040F20443C1F20003DA7040F2B103C1F2DB
:1043D00000031B78DAB240F20443C1F200031A7101
:1043E00040F21803C1F200031A7940F20443C1F20B
:1043F00000035A7140F21803C1F200035A7940F2E7
:104400000443C1F200039A7140F2B803C1F2000301
:104410004FF007021A70FA7940F2B803C1F20003B4
:104420001B78DBB2104640F20441C1F200011A468B
:10443000FEF756FB01F015BA40F2B103C1F20003DA
:104440001B78DBB2012B56D140F20443C1F20003CA
:104450004FF046021A7040F20443C1F200034FF0DD
:1044600042025A7040F20443C1F200034FF044028A
:104470009A7040F2B003C1F200031B78DAB240F246
:104480000443C1F20003DA7040F2B103C1F2000349
:104490001B78DAB240F20443C1F200031A7140F211
:1044A0002003C1F200031A7840F20443C1F2000372
:1044B0005A7140F22003C1F200035A7840F20443DB
:1044C000C1F200039A7140F2B803C1F200034FF049
:1044D00007021A70FA7940F2B803C1F200031B78A0
:1044E000DBB2104640F20441C1F200011A46FEF769
:1044F000F7FA01F0B6B940F2B103C1F200031B783C
:10450000DBB2022B56D140F20443C1F200034FF05C
:1045100046021A7040F20443C1F200034FF0420217
:104520005A7040F20443C1F200034FF044029A7003
:1045300040F2B003C1F200031B78DAB240F2044348
:10454000C1F20003DA7040F2B103C1F200031B783C
:10455000DAB240F20443C1F200031A7140F22003C0
:10456000C1F200039A7840F20443C1F200035A7189
:1045700040F22003C1F20003DA7840F20443C1F2B2
:1045800000039A7140F2B803C1F200034FF0070232
:104590001A70FA7940F2B803C1F200031B78DBB25B
:1045A000104640F20441C1F200011A46FEF798FAA3
:1045B00001F057B940F2B103C1F200031B78DBB23E
:1045C000032B41F0458140F20443C1F200034FF058
:1045D00046021A7040F20443C1F200034FF0420257
:1045E0005A7040F20443C1F200034FF044029A7043
:1045F00040F2B003C1F200031B78DAB240F2044388
:10460000C1F20003DA7040F2B103C1F200031B787B
:10461000DAB240F20443C1F200031A7140F22003FF
:10462000C1F200031A7940F20443C1F200035A7147
:1046300040F22003C1F200035A7940F20443C1F270
:1046400000039A7140F2B803C1F200034FF0070271
:104650001A70FA7940F2B803C1F200031B78DBB29A
:10466000104640F20441C1F200011A46FEF738FA42
:1046700001F0F7B840F2B103C1F200031B78DBB2DE
:10468000012B56D140F20443C1F200034FF0460221
:104690001A7040F20443C1F200034FF042025A7014
:1046A00040F20443C1F200034FF044029A7040F21A
:1046B000B003C1F200031B78DAB240F20443C1F246
:1046C0000003DA7040F2B103C1F200031B78DAB2E2
:1046D00040F20443C1F200031A7140F22803C1F210
:1046E00000031A7840F20443C1F200035A7140F209
:1046F0002803C1F200035A7840F20443C1F20003D8
:104700009A7140F2B803C1F200034FF007021A7029
:10471000FA7940F2B803C1F200031B78DBB210460D
:1047200040F20441C1F200011A46FEF7D9F901F046
:1047300098B840F2B103C1F200031B78DBB2022B40
:1047400056D140F20443C1F200034FF046021A7002
:1047500040F20443C1F200034FF042025A7040F2AB
:104760000443C1F200034FF044029A7040F2B003D8
:10477000C1F200031B78DAB240F20443C1F2000335
:10478000DA7040F2B103C1F200031B78DAB240F2F2
:104790000443C1F200031A7140F22803C1F200037E
:1047A0009A7840F20443C1F200035A7140F22803A0
:1047B000C1F20003DA7840F20443C1F200039A71B7
:1047C00040F2B803C1F200034FF007021A70FA7901
:1047D00040F2B803C1F200031B78DBB2104640F28E
:1047E0000441C1F200011A46FEF77AF901F039B826
:1047F00040F2B103C1F200031B78DBB2032B41F09E
:10480000298040F20443C1F200034FF046021A70BF
:1048100040F20443C1F200034FF042025A7040F2EA
:104820000443C1F200034FF044029A7040F2B00317
:10483000C1F200031B78DAB240F20443C1F2000374
:10484000DA7040F2B103C1F200031B78DAB240F231
:104850000443C1F200031A7140F22803C1F20003BD
:104860001A7940F20443C1F200035A7140F228035E
:10487000C1F200035A7940F20443C1F200039A7175
:1048800040F2B803C1F200034FF007021A70FA7940
:1048900040F2B803C1F200031B78DBB2104640F2CD
:1048A0000441C1F200011A46FEF71AF900F0D9BF1F
:1048B00040F20443C1F200034FF046021A7040F286
:1048C0000443C1F200034FF042025A7040F2044325
:1048D000C1F200034FF044029A7040F2B003C1F2FB
:1048E00000031B78DAB240F20443C1F20003DA702D
:1048F00040F2B103C1F200031B78DAB240F2044384
:10490000C1F200031A7140F23003C1F200031A78B9
:1049100040F20443C1F200035A7140F2B803C1F2FD
:1049200000034FF006021A70FA7940F2B803C1F2A0
:1049300000031B78DBB2104640F20441C1F20001D3
:104940001A46FEF7CDF800F08CBF40F20443C1F2E6
:1049500000034FF046021A7040F20443C1F2000314
:104960004FF042025A7040F20443C1F200034FF08C
:1049700044029A7040F2B003C1F200031B78DAB22D
:1049800040F20443C1F20003DA7040F2B103C1F215
:1049900000031B78DAB240F20443C1F200031A713B
:1049A00040F23003C1F200035A7840F20443C1F2EE
:1049B00000035A7140F2B803C1F200034FF006023F
:1049C0001A70FA7940F2B803C1F200031B78DBB227
:1049D000104640F20441C1F200011A46FEF780F889
:1049E00000F03FBF40F20443C1F200034FF0460223
:1049F0001A7040F20443C1F200034FF042025A70B1
:104A000040F20443C1F200034FF044029A7040F2B6
:104A1000B003C1F200031B78DAB240F20443C1F2E2
:104A20000003DA7040F2B103C1F200031B78DAB27E
:104A300040F20443C1F200031A7140F23003C1F2A4
:104A400000039A7840F20443C1F200035A7140F225
:104A5000B803C1F200034FF006021A70FA7940F26F
:104A6000B803C1F200031B78DBB2104640F20441E8
:104A7000C1F200011A46FEF733F800F0F2BE40F230
:104A8000B103C1F200031B78DBB2002B40F0E486D7
:104A900040F20443C1F200034FF046021A7040F2A4
:104AA0000443C1F200034FF042025A7040F2044343
:104AB000C1F200034FF044029A7040F2B003C1F219
:104AC00000031B78DAB240F20443C1F20003DA704B
:104AD00040F2B103C1F200031B78DAB240F20443A2
:104AE000C1F200031A7140F23003C1F200031A78D8
:104AF00040F20443C1F200035A7140F23003C1F2A4
:104B000000035A7840F20443C1F200039A7140F264
:104B10003003C1F200039A7840F20443C1F200036B
:104B2000DA7140F2B803C1F200034FF008021A70C4
:104B3000FA7940F2B803C1F200031B78DBB21046E9
:104B400040F20441C1F200011A46FDF7C9FF00F02E
:104B500088BE40F20443C1F200034FF046021A70CF
:104B600040F20443C1F200034FF042025A7040F297
:104B70000443C1F200034FF044029A7040F2B003C4
:104B8000C1F200031B78DAB240F20443C1F2000321
:104B9000DA7040F2B103C1F200031B78DAB240F2DE
:104BA0000443C1F200031A714FF00003FB7311E0DC
:104BB000FB7B03F10502F97B40F20003C1F2000325
:104BC000595C40F20443C1F200039954FB7B03F1AA
:104BD0000103FB73FB7B072BEAD940F2B803C1F258
:104BE00000034FF005021A704FF00003FB7311E051
:104BF000FB7B03F10D02F97B40F21003C1F20003CD
:104C0000595C40F20443C1F200039954FB7B03F169
:104C10000103FB73FB7B072BEAD940F2B803C1F217
:104C200000031B78DBB203F10D03DAB240F2B803E4
:104C3000C1F200031A704FF00003FB7311E0FB7B1D
:104C400003F11502F97B40F20803C1F20003595C3D
:104C500040F20443C1F200039954FB7B03F10103CA
:104C6000FB73FB7B072BEAD940F2B803C1F20003C8
:104C70001B78DBB203F11503DAB240F2B803C1F2DC
:104C800000031A704FF00003FB7311E0FB7B03F18C
:104C90001D02F97B40F21803C1F20003595C40F297
:104CA0000443C1F200039954FB7B03F10103FB733E
:104CB000FB7B052BEAD940F2B803C1F200031B7855
:104CC000DBB203F11D03DAB240F2B803C1F2000314
:104CD0001A704FF00003FB7311E0FB7B03F123021A
:104CE000F97B40F22003C1F20003595C40F2044317
:104CF000C1F200039954FB7B03F10103FB73FB7BBF
:104D0000052BEAD940F2B803C1F200031B78DBB2ED
:104D100003F12303DAB240F2B803C1F200031A70C0
:104D20004FF00003FB7311E0FB7B03F12902F97BD9
:104D300040F22803C1F20003595C40F20443C1F27F
:104D400000039954FB7B03F10103FB73FB7B052BF1
:104D5000EAD940F2B803C1F200031B78DBB203F1D9
:104D60002903DAB240F2B803C1F200031A7040F22C
:104D70005803C1F200031B68DAB240F20443C1F2E7
:104D8000000383F82F2040F25803C1F200031B6890
:104D90004FEA1323DAB240F20443C1F2000383F86E
:104DA000302040F2B803C1F200031B78DBB203F1FC
:104DB0002F03DAB240F2B803C1F200031A7040F2D6
:104DC0005C03C1F200031B68DAB240F20443C1F293
:104DD000000383F8312040F25C03C1F200031B683A
:104DE0004FEA1323DAB240F20443C1F2000383F81E
:104DF000322040F2B803C1F200031B78DBB203F1AA
:104E00003103DAB240F2B803C1F200031A704FF076
:104E10000003FB7311E0FB7B03F13302F97B40F2EB
:104E20003003C1F20003595C40F20443C1F20003B5
:104E30009954FB7B03F10103FB73FB7B022BEAD943
:104E400040F2B803C1F200031B78DBB203F1330375
:104E5000DAB240F2B803C1F200031A7040F2B803AC
:104E6000C1F200034FF036021A70FA7940F2B8032B
:104E7000C1F200031B78DBB2104640F20441C1F2DC
:104E800000011A46FDF72CFE00F0EBBC40F2600377
:104E9000C1F200034FF001021A7000F0E2BC40F2D0
:104EA000B103C1F200031B78DAB240F2D003C1F2C1
:104EB00000031A7040F26103C1F200034FF00102D7
:104EC0001A7000F0CEBC40F20443C1F200034FF070
:104ED00046021A7040F20443C1F200034FF042024E
:104EE0005A7040F20443C1F200034FF044029A703A
:104EF00040F2B003C1F200031B78DAB240F204437F
:104F0000C1F20003DA7040F2D003C1F200031B7853
:104F1000DAB240F20443C1F200031A7140F2B8035E
:104F2000C1F200034FF005021A70FA7940F2B8039B
:104F3000C1F200031B78DBB2104640F20441C1F21B
:104F400000011A46FDF7CCFD00F08BBC40F2D803FF
:104F5000C1F200031A6840F2BC03C1F200031A60F8
:104F600040F20443C1F200034FF046021A7040F2CF
:104F70000443C1F200034FF042025A7040F204436E
:104F8000C1F200034FF044029A7040F2B003C1F244
:104F900000031B78DAB240F20443C1F20003DA7076
:104FA00040F20443C1F200034FF000021A7140F2D4
:104FB000BC03C1F200031B684FEA1363DAB240F28C
:104FC0000443C1F200035A7140F2BC03C1F2000372
:104FD0001B684FEA2343DAB240F20443C1F20003F4
:104FE0009A7140F2BC03C1F200031B684FEA23230D
:104FF000DAB240F20443C1F20003DA7140F2BC03BA
:10500000C1F200031B68DAB240F20443C1F20003AC
:105010001A7240F2B803C1F200034FF009021A708D
:10502000FA7940F2B803C1F200031B78DBB21046F4
:1050300040F20441C1F200011A46FDF751FD00F0B3
:1050400010BC40F2D403C1F200031A6840F2BC0362
:10505000C1F200031A6040F20443C1F200034FF0B2
:1050600046021A7040F20443C1F200034FF04202BC
:105070005A7040F20443C1F200034FF044029A70A8
:1050800040F2B003C1F200031B78DAB240F20443ED
:10509000C1F20003DA7040F20443C1F200034FF0A2
:1050A00000021A7140F2BC03C1F200031B684FEA10
:1050B0001363DAB240F20443C1F200035A7140F2C2
:1050C000BC03C1F200031B684FEA2343DAB240F28B
:1050D0000443C1F200039A7140F2BC03C1F2000321
:1050E0001B684FEA2323DAB240F20443C1F2000303
:1050F000DA7140F2BC03C1F200031B68DAB240F27D
:105100000443C1F200031A7240F2B803C1F2000373
:105110004FF009021A70FA7940F2B803C1F20003A5
:105120001B78DBB2104640F20441C1F200011A467E
:10513000FDF7D6FC95E340F2B103C1F200031B7802
:10514000DBB2012B0ED140F29B03C1F200034FF002
:1051500001021A7040F29A03C1F200034FF00102FB
:105160001A707EE340F2B103C1F200031B78DBB298
:10517000022B0ED140F29B03C1F200034FF002025A
:105180001A7040F29A03C1F200034FF001021A7044
:1051900067E340F2B103C1F200031B78DBB2032BDB
:1051A0000ED140F29B03C1F200034FF004021A70CB
:1051B00040F29A03C1F200034FF001021A7050E36B
:1051C00040F2B103C1F200031B78DBB2042B0ED115
:1051D00040F29B03C1F200034FF003021A7040F249
:1051E0009A03C1F200034FF001021A7039E340F252
:1051F000B103C1F200031B78DBB2062B40F02E8313
:1052000040F29B03C1F200034FF006021A7040F215
:105210009A03C1F200034FF001021A7021E340F239
:10522000B103C1F200031B78DAB240F29803C1F275
:1052300000031A7015E340F2B103C1F200031B78BA
:10524000DAB240F29903C1F200031A7009E340F2A6
:10525000B103C1F200031B78DBB2012B4BD140F24A
:105260000443C1F200034FF046021A7040F20443B7
:10527000C1F200034FF042025A7040F20443C1F2FF
:1052800000034FF044029A7040F2B003C1F20003F1
:105290001B78DAB240F20443C1F20003DA7040F244
:1052A000B103C1F200031B78DAB240F20443C1F249
:1052B00000031A7140F23803C1F200031A7840F279
:1052C0000443C1F200035A7140F2B803C1F2000373
:1052D0004FF006021A70FA7940F2B803C1F20003E7
:1052E0001B78DBB2104640F20441C1F200011A46BD
:1052F000FDF7F6FBB5E240F2B103C1F200031B7803
:10530000DBB2022B40F0AC8240F20443C1F2000356
:105310004FF046021A7040F20443C1F200034FF00E
:1053200042025A7040F20443C1F200034FF04402BB
:105330009A7040F2B003C1F200031B78DAB240F277
:105340000443C1F20003DA7040F2B103C1F200037A
:105350001B78DAB240F20443C1F200031A7140F242
:105360003903C1F200031A7840F20443C1F200038A
:105370005A7140F2B803C1F200034FF006021A70EE
:10538000FA7940F2B803C1F200031B78DBB2104691
:1053900040F20441C1F200011A46FDF7A1FB60E2B0
:1053A00040F29C03C1F200034FF001021A7040F278
:1053B000B103C1F200031B78DAB240F29D03C1F2DF
:1053C00000031A704DE240F20443C1F200034FF0B3
:1053D00046021A7040F20443C1F200034FF0420249
:1053E0005A7040F20443C1F200034FF044029A7035
:1053F00040F2B003C1F200031B78DAB240F204437A
:10540000C1F20003DA7040F2B103C1F200031B786D
:10541000DAB240F20443C1F200031A7140F29D0374
:10542000C1F200031B78DAB240F20443C1F2000378
:105430005A7140F2B803C1F200034FF006021A702D
:10544000FA7940F2B803C1F200031B78DBB21046D0
:1054500040F20441C1F200011A46FDF741FB00E2AF
:1054600040F20443C1F200034FF046021A7040F2CA
:105470000443C1F200034FF042025A7040F2044369
:10548000C1F200034FF044029A7040F2B003C1F23F
:1054900000031B78DAB240F20443C1F20003DA7071
:1054A00040F2B103C1F200031B78DAB240F20443C8
:1054B000C1F200031A7140F29803C1F200031B7895
:1054C000DAB240F20443C1F200035A7140F2B80369
:1054D000C1F200034FF006021A70FA7940F2B803E5
:1054E000C1F200031B78DBB2104640F20441C1F266
:1054F00000011A46FDF7F4FAB3E140F20443C1F2A9
:1055000000034FF046021A7040F20443C1F2000358
:105510004FF042025A7040F20443C1F200034FF0D0
:1055200044029A7040F2B003C1F200031B78DAB271
:1055300040F20443C1F20003DA7040F2B103C1F259
:1055400000031B78DAB240F20443C1F200031A717F
:1055500040F29903C1F200031B78DAB240F204432F
:10556000C1F200035A7140F2B803C1F200034FF0D8
:1055700006021A70FA7940F2B803C1F200031B78F0
:10558000DBB2104640F20441C1F200011A46FDF7B9
:10559000A7FA66E140F20443C1F200034FF046026D
:1055A0001A7040F20443C1F200034FF042025A70F5
:1055B00040F20443C1F200034FF044029A7040F2FB
:1055C000B003C1F200031B78DAB240F20443C1F227
:1055D0000003DA7040F2B103C1F200031B78DAB2C3
:1055E00040F20443C1F200031A7140F26303C1F2B6
:1055F00000031B78DAB240F20443C1F200035A718F
:1056000040F2B803C1F200034FF006021A70FA79B3
:1056100040F2B803C1F200031B78DBB2104640F23F
:105620000441C1F200011A46FDF75AFA19E140F2AD
:105630000443C1F200034FF046021A7040F20443E3
:10564000C1F200034FF042025A7040F20443C1F22B
:1056500000034FF044029A7040F2B003C1F200031D
:105660001B78DAB240F20443C1F20003DA7040F270
:10567000B103C1F200031B78DAB240F20443C1F275
:1056800000031A7140F26403C1F200031B78DAB21E
:1056900040F20443C1F200035A7140F2B803C1F270
:1056A00000034FF006021A70FA7940F2B803C1F213
:1056B00000031B78DBB2104640F20441C1F2000146
:1056C0001A46FDF70DFACCE040F20443C1F20003A4
:1056D0004FF046021A7040F20443C1F200034FF04B
:1056E00042025A7040F20443C1F200034FF04402F8
:1056F0009A7040F2B003C1F200031B78DAB240F2B4
:105700000443C1F20003DA7040F20443C1F2000323
:105710004FF080021A7140F2B803C1F200034FF05B
:1057200005021A70FA7940F2B803C1F200031B783F
:10573000DBB2104640F20441C1F200011A46FDF707
:10574000CFF98EE040F20443C1F200034FF046026D
:105750001A7040F20443C1F200034FF042025A7043
:1057600040F20443C1F200034FF044029A7040F249
:10577000B003C1F200031B78DAB240F20443C1F275
:105780000003DA7040F20443C1F200034FF001025B
:105790001A7140F2B803C1F200034FF005021A700B
:1057A000FA7940F2B803C1F200031B78DBB210466D
:1057B00040F20441C1F200011A46FDF791F950E0B0
:1057C00040F20443C1F200034FF046021A7040F267
:1057D0000443C1F200034FF042025A7040F2044306
:1057E000C1F200034FF044029A7040F2B003C1F2DC
:1057F00000031B78DAB240F20443C1F20003DA700E
:1058000040F20443C1F200034FF001021A7140F26A
:10581000B803C1F200034FF005021A70FA7940F2A2
:10582000B803C1F200031B78DBB2104640F204411A
:10583000C1F200011A46FDF753F912E000BF10E073
:1058400000BF0EE000BF0CE000BF0AE000BF08E0B0
:1058500000BF06E000BF04E000BF02E000BF00E0C0
:1058600000BF40F2B703C1F200034FF000021A700C
:1058700040F25403C1F200034FF001021A7007F125
:105880001007BD4680BD00BFFAF7DCBD20202020F8
:1058900020204642524C2044454D4F2020202020BD
:1058A0000000000000C0014000C0054000000A40A8
:1058B000A1A2A3A4A5A6A7A8B1B2B3B4B5B6B7B820
:1058C000C1C2C3C4C5C6C7C8D1D2D3D4D5D60000BF
:1058D000E1E2E3E4E5E60000F1F2F3F4F5F60000BE
:1058E000AAABAC0000000000646400007172737425
:1058F000757678790000000000000000001BB700FA
:085900000101010101FFFFFF9D
:0400000300000129CF
:00000001FF
