:100000000080001029010000F5000000F70000004A
:10001000F9000000FB000000FD00000000000000EF
:10002000000000000000000000000000FF000000D1
:1000300001010000000000000301000005010000B4
:100040006901000069010000690100006901000008
:10005000690100004D2B0000D92C00006D2E00001E
:100060002D30000069010000990E000045130000CA
:100070000918000069010000690100006901000021
:1000800069010000690100006901000069010000C8
:1000900069010000690100006901000069010000B8
:1000A00069010000690100006901000069010000A8
:1000B0006901000069010000690100006901000098
:1000C000690100006901000069010000506600003C
:1000D00000000010600000005066000000C0072013
:1000E0000000000060000010C005000000C00720F4
:1000F00000000000FEE7FEE7FEE7FEE7FEE7FEE7A2
:10010000FEE7FEE7FEE710B5002302E01C585C5056
:1001100004339342FAD310BD002302E000221A50A8
:1001200004338B42FAD3704710B50C4C05E02068BD
:100130006168A2680C34FFF7E6FF094B9C42F6D3D6
:1001400004E0206861680834FFF7E6FF054B9C4235
:10015000F7D300F083FB06F04DFAFEE7CC00000079
:10016000E4000000F4000000FEE700BFFFFFFFFF17
:10017000FFFFFFFFFFFFFFFFFFFFFFFFFFFFFFFF8F
:10018000FFFFFFFFFFFFFFFFFFFFFFFFFFFFFFFF7F
:10019000FFFFFFFFFFFFFFFFFFFFFFFFFFFFFFFF6F
:1001A000FFFFFFFFFFFFFFFFFFFFFFFFFFFFFFFF5F
:1001B000FFFFFFFFFFFFFFFFFFFFFFFFFFFFFFFF4F
:1001C000FFFFFFFFFFFFFFFFFFFFFFFFFFFFFFFF3F
:1001D000FFFFFFFFFFFFFFFFFFFFFFFFFFFFFFFF2F
:1001E000FFFFFFFFFFFFFFFFFFFFFFFFFFFFFFFF1F
:1001F000FFFFFFFFFFFFFFFFFFFFFFFFFFFFFFFF0F
:10020000FFFFFFFFFFFFFFFFFFFFFFFFFFFFFFFFFE
:10021000FFFFFFFFFFFFFFFFFFFFFFFFFFFFFFFFEE
:10022000FFFFFFFFFFFFFFFFFFFFFFFFFFFFFFFFDE
:10023000FFFFFFFFFFFFFFFFFFFFFFFFFFFFFFFFCE
:10024000FFFFFFFFFFFFFFFFFFFFFFFFFFFFFFFFBE
:10025000FFFFFFFFFFFFFFFFFFFFFFFFFFFFFFFFAE
:10026000FFFFFFFFFFFFFFFFFFFFFFFFFFFFFFFF9E
:10027000FFFFFFFFFFFFFFFFFFFFFFFFFFFFFFFF8E
:10028000FFFFFFFFFFFFFFFFFFFFFFFFFFFFFFFF7E
:10029000FFFFFFFFFFFFFFFFFFFFFFFFFFFFFFFF6E
:1002A000FFFFFFFFFFFFFFFFFFFFFFFFFFFFFFFF5E
:1002B000FFFFFFFFFFFFFFFFFFFFFFFFFFFFFFFF4E
:1002C000FFFFFFFFFFFFFFFFFFFFFFFFFFFFFFFF3E
:1002D000FFFFFFFFFFFFFFFFFFFFFFFFFFFFFFFF2E
:1002E000FFFFFFFFFFFFFFFFFFFFFFFFFFFFFFFF1E
:1002F000FFFFFFFFFFFFFFFFFFFFFFFFFFFFFFFF0E
:1003000080B400AF4CF22003C2F209031B684CF228
:100310002003C2F209034FF000021A604CF22003DE
:10032000C2F209034CF22002C2F20902126842F042
:10033000F0521A60BD4680BC704700BF80B400AF69
:100340004CF24003C2F209031B684CF24003C2F2B4
:1003500009034FF000021A60BD4680BC704700BF21
:1003600080B500AF00F070F84FF002004FF4E131BB
:1003700002F026FF02F04CFA40F2E103C1F2000362
:100380004FF001021A7040F2E103C1F200031B7842
:10039000DBB2184602F06CFA02F004FBFFF7B0FF84
:1003A00000F0AEF8FFF7CAFF4AF22010C0F20700D3
:1003B00000F064FC4CF22003C2F209034CF220026C
:1003C000C2F20902126842F000521A604CF2200395
:1003D000C2F209034FF00052DA6101F06FFD01F043
:1003E000A3FC4FF0000001F071FC01F0E9FD01F009
:1003F000F7FC4FF0010001F069FC01F0C3FE01F0D1
:1004000009FF01F04FFF00F04DF801F0AFFF4FF092
:1004100001004FF4E13102F0D3FE80BD80B483B01F
:1004200000AF4FF000037B604FF000037B6003E000
:100430007B6803F101037B607B68632BF8D907F1CC
:100440000C07BD4680BC704780B485B000AF4FF04C
:100450000003FB604FF00003BB604FF000037B60C4
:100460004FF00003BB6014E04FF00003FB6007E0B7
:100470007B6803F101037B60FB6803F10103FB6010
:10048000FA684EF65F239A42F2D9BB6803F1010382
:10049000BB60BB680A2BE7D907F11407BD4680BCD7
:1004A000704700BF80B485B000AF4FF00003FB6021
:1004B0004FF00003BB604FF000037B604FF0000380
:1004C000BB6014E04FF00003FB6007E07B6803F1C2
:1004D00001037B60FB6803F10103FB60FA684EF6E1
:1004E0005F239A42F2D9BB6803F10103BB60BB688A
:1004F0006D2BE7D907F11407BD4680BC704700BFDC
:1005000080B500AF4CF22003C2F209034FF0007235
:100510009A61FFF799FF4CF22003C2F209034FF0F2
:100520000072DA614CF22003C2F209034FF08062DC
:100530009A61FFF789FF4CF22003C2F209034FF0E2
:100540008062DA614CF22003C2F209034FF00062CC
:100550009A61FFF779FF4CF22003C2F209034FF0D2
:100560000062DA614CF22003C2F209034FF08052BC
:100570009A61FFF769FF4CF22003C2F209034FF0C2
:100580008052DA6180BD00BF80B582B000AF786074
:100590007B681B78462B06D94FF028004FF0D70117
:1005A00002F09CF92AE07B681B781D2B06D84FF0DF
:1005B000D7004FF0280102F091F91FE07B6803F1AA
:1005C00001031B78462B06D94FF028004FF0280175
:1005D00002F084F912E07B6803F101031B781D2B04
:1005E00006D84FF0D7004FF0D70102F077F905E0B9
:1005F0004FF080004FF0800102F070F907F108071A
:10060000BD4680BD80B584B000AF4FF00003FB60F5
:100610004FF000033B714FF000037B714FF000037C
:10062000BB714FF00003FB714FF000033B724FF0C2
:1006300000037B7246F24063C0F200031B683B601C
:1006400000F00CF900F0FEF9FFF78AFE40F2B60365
:10065000C1F200034FF001021A7040F2B903C1F277
:1006600000034FF000021A7040F2B703C1F200031A
:100670004FF001021A7040F2BA03C1F200034FF0CA
:1006800000021A704FF001004FF0010102F01CF857
:100690004FF0140046F2F851C0F2000101F0A8FE3C
:1006A0004FF002004FF0010102F00EF84FF004008D
:1006B00046F21061C0F2000101F09AFE4FF0030013
:1006C0004FF0010102F000F84FF0040046F218610B
:1006D000C0F2000101F08CFE4FF004004FF0010168
:1006E00001F0F2FF4FF0040046F22061C0F2000179
:1006F00001F07EFE4FF002004FF00B0101F0E4FF2D
:100700004FF0040046F22861C0F2000101F070FED3
:100710004FF003004FF00B0101F0D6FF4FF0040043
:1007200046F23061C0F2000101F062FE4FF00400B9
:100730004FF00B0101F0C8FF4FF0040046F23861A2
:10074000C0F2000101F054FE00E000BF40F27A0365
:10075000C1F200031B78012B2FD140F24C03C1F2F0
:1007600000031B783B7140F24C03C1F200035B783D
:100770007B7140F24C03C1F200039B78BB7140F2E5
:100780004C03C1F20003DB78FB7140F24C03C1F271
:1007900000031B793B7240F24C03C1F200035B790A
:1007A0007B7240F27A03C1F200034FF000021A702C
:1007B00007F104031846FFF7E7FEFB6803F10103A6
:1007C000FB60FB680A2BC0D13B464FF00100194685
:1007D0004FF0040202F06EFFFFF736FE3B794FF058
:1007E00002004FF005011A464FF0030301F048FEE6
:1007F0007B794FF003004FF005011A464FF00303D9
:1008000001F03EFEBB794FF004004FF005011A469F
:100810004FF0030301F034FEFB794FF002004FF07C
:100820000F011A464FF0030301F02AFE3B7A4FF006
:1008300003004FF00F011A464FF0030301F020FEB2
:100840007B7A4FF004004FF00F011A464FF003037C
:1008500001F016FE4FF00003FB6077E780B483B031
:1008600000AF4FF000037B604FF44043C4F20F032E
:100870004FF02002C3F8A02100BF4FF44043C4F260
:100880000F03D3F8A03103F04003002BF5D04FF451
:100890004043C4F20F034FF00202C3F804214FF4A7
:1008A0004043C4F20F034FF00002C3F8A8214FF4F5
:1008B0004043C4F20F034FF00002C3F8AC214FF4E1
:1008C0004043C4F20F034FF00102C3F80C214FF470
:1008D0004043C4F20F034FF05902C0F20502C3F8BF
:1008E00084204FF44043C4F20F034FF00102C3F8D9
:1008F00080204FF44043C4F20F034FF0AA02C3F824
:100900008C204FF44043C4F20F034FF05502C3F85C
:100910008C204FF44043C4F20F03D3F80C31022B68
:100920000BD000BF4FF44043C4F20F03D3F888301C
:1009300003F08063002BF5D00AE04FF000037B60EA
:1009400003E07B6803F101037B607B68642BF8D9CB
:100950004FF44043C4F20F034FF00302C3F880206A
:100960004FF44043C4F20F034FF0AA02C3F88C20A7
:100970004FF44043C4F20F034FF05502C3F88C20EC
:100980004FF44043C4F20F034FF02302C3F8A420F6
:100990004FF44043C4F20F034FF00102C3F8A0200C
:1009A0004FF44043C4F20F034FF0AA02C3F8AC2047
:1009B0004FF44043C4F20F034FF05502C3F8AC208C
:1009C00000BF4FF44043C4F20F03D3F8A83003F440
:1009D0008063002BF5D04FF44043C4F20F034FF077
:1009E0000302C3F8A0204FF44043C4F20F034FF0BA
:1009F000AA02C3F8AC204FF44043C4F20F034FF0F7
:100A00005502C3F8AC204FF44043C4F20F0348F240
:100A1000DE72C0F22842C3F8C4204FF44043C4F24F
:100A20000F034FF00002C3F8C8214FF44043C4F253
:100A30000F0343F23A021A6007F10C07BD4680BC6F
:100A4000704700BF80B400AF4FF44043C4F20F03BF
:100A5000D3F888304FEA136303F00303032B40F00D
:100A6000B2804FF44043C4F20F03D3F80C3103F0CB
:100A70000303032B00F2FD8001A252F823F000BF14
:100A8000910A0000F90A0000630B0000910A0000BF
:100A90004FF44043C4F20F03D3F888304FEA434386
:100AA0004FEA534303F101034FEA43024FF440433B
:100AB000C4F20F03D3F888304FEA134303F0FF0367
:100AC00003F10103B2FBF3F24FF41063C0F23D03F4
:100AD00003FB02F24FF44043C4F20F03D3F8043196
:100AE00003F0FF0303F10103B2FBF3F240F25403FE
:100AF000C1F200031A60BDE04FF44043C4F20F039B
:100B0000D3F888304FEA43434FEA534303F10103DC
:100B10004FEA43024FF44043C4F20F03D3F8883046
:100B20004FEA134303F0FF0303F10103B2FBF3F2B7
:100B30004FF4D853C0F2B70303FB02F24FF4404323
:100B4000C4F20F03D3F8043103F0FF0303F10103F0
:100B5000B2FBF3F240F25403C1F200031A6000BF8B
:100B600088E04FF44043C4F20F03D3F888304FEAD3
:100B700043434FEA534303F101034FEA43024FF467
:100B80004043C4F20F03D3F888304FEA134303F015
:100B9000FF0303F10103B2FBF3F34FF4FA4202FB4C
:100BA00003F24FF44043C4F20F03D3F8043103F0CF
:100BB000FF0303F10103B2FBF3F240F25403C1F26D
:100BC00000031A6056E04FF44043C4F20F03D3F819
:100BD0000C3103F00303032B4CD801A252F823F08D
:100BE000F10B00001D0C0000490C0000F10B00008F
:100BF0004FF44043C4F20F03D3F8043103F0FF0372
:100C000003F101024FF41063C0F23D03B3FBF2F2B3
:100C100040F25403C1F200031A602BE04FF440434A
:100C2000C4F20F03D3F8043103F0FF0303F1010210
:100C30004FF4D853C0F2B703B3FBF2F240F25403BF
:100C4000C1F200031A6015E04FF44043C4F20F03F1
:100C5000D3F8043103F0FF0303F101034FF4FA4228
:100C6000B2FBF3F240F25403C1F200031A6000BF7A
:100C700000E000BFBD4680BC704700BF80B487B0B5
:100C800000AF78604FF44043C4F20F034FF440428A
:100C9000C4F20F02D2F8C42042F48052C3F8C42038
:100CA0004FF000037B610CE040F2EC03C1F2000363
:100CB0007A694FF0000143F822107B6903F10103C8
:100CC0007B617B69052BEFD94FF44043C4F20203EB
:100CD0004FF44042C4F20202526822F440325A6099
:100CE0004FF44043C4F202034FF44042C4F2020204
:100CF000526842F480325A604FF44043C4F2020317
:100D00004FF44042C4F20202526C22F440325A6460
:100D10004FF44043C4F202034FF44042C4F20202D3
:100D2000526C42F400325A644FF44043C4F202035E
:100D30004FF44042C4F20202D26842F04042DA600C
:100D40004FF44043C4F202034FF44042C4F20202A3
:100D5000D26C22F04042DA644FF44043C4F2020302
:100D60004FF44042C4F20202D26C42F00042DA6414
:100D70004FF44043C4F20F03D3F8A8314FEA136392
:100D800003F00303FB60FB68022B13D0032B1AD084
:100D9000012B08D040F25403C1F200031B684FEA54
:100DA00093033B6118E040F25403C1F200031B6857
:100DB0003B6111E040F25403C1F200031B684FEAAB
:100DC00053033B6108E040F25403C1F200031B6887
:100DD0004FEAD3033B6100BF4FF48043C4F20303E7
:100DE00039697A68B1FBF2F202F1FF324FEA02226E
:100DF00042F4001242F001021A6007F11C07BD46DE
:100E000080BC704780B483B000AF0346FB714FF4E1
:100E10006143CEF2000397F907204FEA5212F979A5
:100E200001F01F014FF0010000FA01F143F8221018
:100E300007F10C07BD4680BC704700BF80B483B08B
:100E400000AF03463960FB7197F90730002B10DAC9
:100E50004FF46D43CEF20003FA7902F00F02A2F1D3
:100E600004013A68D2B24FEAC202D2B25B181A76D3
:100E70000DE04FF46143CEF2000397F907103A6892
:100E8000D2B24FEAC202D2B25B1883F8002307F154
:100E90000C07BD4680BC704780B483B000AF40F201
:100EA0008C03C1F200034FF000021A604FF440437C
:100EB000C4F201035B68FB71FB79A3F10803502BBB
:100EC00000F22B8201A252F823F000BF11100000A3
:100ED0001B1300001B1300001B1300001B1300005A
:100EE0001B1300001B1300001B1300005D1000000B
:100EF0001B1300001B1300001B1300001B1300003A
:100F00001B1300001B1300001B130000A91000009E
:100F10001B1300001B1300001B1300001B13000019
:100F20001B1300001B1300001B130000EF12000036
:100F30001B1300001B1300001B1300001B130000F9
:100F40001B1300001B1300001B13000013110000F3
:100F50001B1300001B1300001B1300001B130000D9
:100F60001B1300001B1300001B130000A71100003F
:100F70001B1300001B1300001B1300001B130000B9
:100F80001B1300001B1300001B1300001B130000A9
:100F90001B1300001B1300001B1300001B13000099
:100FA0001B1300001B1300001B130000D3110000D3
:100FB0001B1300001B1300001B1300001B13000079
:100FC0001B1300001B1300001B130000EF12000096
:100FD0001B1300001B1300001B1300001B13000059
:100FE0001B1300001B1300001B1300001D12000048
:100FF0001B1300001B1300001B1300001B13000039
:101000001B1300001B1300001B13000095120000AF
:1010100040F2A403C1F200034FF000021A604FF443
:101020004043C4F2010340F2A402C1F2000211687D
:1010300040F2D012C1F20002525CD2B29A6001F1C9
:10104000010240F2A403C1F200031A604FF44043CE
:10105000C4F201034FF028029A616DE140F2980357
:10106000C1F200034FF000021A604FF44043C4F293
:10107000010340F2A402C1F20002116840F2D01252
:10108000C1F20002525CD2B29A6001F1010240F258
:10109000A403C1F200031A604FF44043C4F20103F9
:1010A0004FF028029A6147E140F29023C1F2000319
:1010B0001B68012B0ED14FF44043C4F201034FF0E3
:1010C00010021A6040F28003C1F200034FF00702E1
:1010D0001A6016E04FF44043C4F2010340F2A40248
:1010E000C1F20002116840F2D012C1F20002525C5B
:1010F000D2B29A6001F1010240F2A403C1F20003EE
:101100001A604FF44043C4F201034FF008029A61A1
:1011100012E140F29023C1F200031B681A4640F22C
:10112000A403C1F200031B689A4217D94FF440434D
:10113000C4F2010340F2A402C1F20002116840F2BD
:10114000D012C1F20002525CD2B29A6001F10102E7
:1011500040F2A403C1F200031A601CE040F2041341
:10116000C1F200031B68002B07D04FF44043C4F2C8
:1011700001034FF020021A600DE04FF44043C4F227
:1011800001034FF010021A6040F28003C1F2000325
:101190004FF00C021A604FF44043C4F201034FF0C9
:1011A00008029A61C8E04FF44043C4F201034FF0D3
:1011B00010021A6040F28003C1F200034FF00902EE
:1011C0001A604FF44043C4F201034FF008029A61E1
:1011D000B2E040F29803C1F200031B6803F1010280
:1011E00040F20413C1F200031B689A4207D24FF485
:1011F0004043C4F201034FF004021A6006E04FF4CA
:101200004043C4F201034FF004029A614FF440439B
:10121000C4F201034FF008029A618DE040F2980396
:10122000C1F200031A684FF44043C4F201039B6803
:10123000D9B240F21013C1F20003995402F1010235
:1012400040F29803C1F200031A6040F29803C1F221
:1012500000031B6803F1010240F20413C1F2000312
:101260001B689A4207D24FF44043C4F201034FF087
:1012700004021A6006E04FF44043C4F201034FF049
:1012800004029A614FF44043C4F201034FF0080294
:101290009A6151E040F29803C1F200031A684FF4DA
:1012A0004043C4F201039B68D9B240F21013C1F26B
:1012B0000003995402F1010240F29803C1F20003C5
:1012C0001A6040F28003C1F200034FF00C021A6072
:1012D0004FF44043C4F201034FF010021A604FF480
:1012E0004043C4F201034FF008029A6124E04FF436
:1012F0004043C4F201034FF010021A6040F2800331
:10130000C1F200034FF008021A604FF44043C4F2E8
:1013100001034FF008029A610EE040F28003C1F22F
:1013200000034FF00A021A604FF44043C4F2010375
:101330004FF008029A6100BF07F10C07BD4680BC60
:10134000704700BF80B483B000AF40F28C03C1F29D
:1013500000034FF000025A604FF44043C4F205030B
:101360005B68FB71FB79A3F10803502B00F2378215
:1013700001A252F823F000BFBD140000DF170000E7
:10138000DF170000DF170000DF170000DF17000085
:10139000DF170000DF1700000D150000DF17000049
:1013A000DF170000DF170000DF170000DF17000065
:1013B000DF170000DF1700005D150000DF170000D9
:1013C000DF170000DF170000DF170000DF17000045
:1013D000DF170000DF170000B3170000DF17000061
:1013E000DF170000DF170000DF170000DF17000025
:1013F000DF170000DF170000CB150000DF1700002B
:10140000DF170000DF170000DF170000DF17000004
:10141000DF170000DF17000063160000DF17000071
:10142000DF170000DF170000DF170000DF170000E4
:10143000DF170000DF170000DF170000DF170000D4
:10144000DF170000DF170000DF170000DF170000C4
:10145000DF170000DF1700008F160000DF17000005
:10146000DF170000DF170000DF170000DF170000A4
:10147000DF170000DF170000B3170000DF170000C0
:10148000DF170000DF170000DF170000DF17000084
:10149000DF170000DF170000D9160000DF1700007B
:1014A000DF170000DF170000DF170000DF17000064
:1014B000DF170000DF1700005517000040F2A803F7
:1014C000C1F200034FF000021A604FF44043C4F22F
:1014D000050340F2A802C1F20002116840F2D012E6
:1014E000C1F20002521892F84020D2B29A6001F183
:1014F000010240F2A803C1F200031A604FF4404316
:10150000C4F205034FF028029A6177E140F29C0390
:10151000C1F200034FF000021A604FF44043C4F2DE
:10152000050340F2A802C1F20002116840F2D01295
:10153000C1F20002521892F84020D2B29A6001F132
:10154000010240F2A803C1F200031A604FF44043C5
:10155000C4F205034FF028029A614FE140F2902354
:10156000C1F200035B68012B0ED14FF44043C4F27B
:1015700005034FF010021A6040F28003C1F200032D
:101580004FF007025A6018E04FF44043C4F20503DD
:1015900040F2A802C1F20002116840F2D012C1F27A
:1015A0000002521892F84020D2B29A6001F1010272
:1015B00040F2A803C1F200031A604FF44043C4F2A2
:1015C00005034FF008029A6118E140F29023C1F23E
:1015D00000035B681A4640F2A803C1F200031B68CF
:1015E0009A4219D94FF44043C4F2050340F2A802CD
:1015F000C1F20002116840F2D012C1F2000252188A
:1016000092F84020D2B29A6001F1010240F2A803A0
:10161000C1F200031A601CE040F20413C1F200039F
:101620005B68002B07D04FF44043C4F205034FF032
:1016300020021A600DE04FF44043C4F205034FF05E
:1016400010021A6040F28003C1F200034FF00C0256
:101650005A604FF44043C4F205034FF008029A6108
:10166000CCE04FF44043C4F205034FF010021A607F
:1016700040F28003C1F200034FF009025A604FF4B8
:101680004043C4F205034FF008029A61B6E040F20D
:101690009C03C1F200031B6803F1010240F2041332
:1016A000C1F200035B689A4207D24FF44043C4F290
:1016B00005034FF004021A6006E04FF44043C4F201
:1016C00005034FF004029A614FF44043C4F205034E
:1016D0004FF008029A6191E040F29C03C1F20003CE
:1016E0001A684FF44043C4F205039B68D9B240F234
:1016F0001013C1F200039B1883F8401002F101029D
:1017000040F29C03C1F200031A6040F29C03C1F254
:1017100000031B6803F1010240F20413C1F200034D
:101720005B689A4207D24FF44043C4F205034FF07E
:1017300004021A6006E04FF44043C4F205034FF080
:1017400004029A614FF44043C4F205034FF00802CB
:101750009A6153E040F29C03C1F200031A684FF40F
:101760004043C4F205039B68D9B240F21013C1F2A2
:1017700000039B1883F8401002F1010240F29C0321
:10178000C1F200031A6040F28003C1F200034FF07F
:101790000C025A604FF44043C4F205034FF01002AC
:1017A0001A604FF44043C4F205034FF008029A61F7
:1017B00024E04FF44043C4F205034FF010021A60D6
:1017C00040F28003C1F200034FF008025A604FF468
:1017D0004043C4F205034FF008029A610EE040F264
:1017E0008003C1F200034FF00A025A604FF44043F5
:1017F000C4F205034FF008029A6100BF07F10C071D
:10180000BD4680BC704700BF80B483B000AF40F2DB
:101810008C03C1F200034FF000029A604FF0000306
:10182000C4F20A035B68FB71FB79A3F10803502B38
:1018300000F2378201A252F823F000BF81190000A4
:10184000A31C0000A31C0000A31C0000A31C00009C
:10185000A31C0000A31C0000A31C0000D119000061
:10186000A31C0000A31C0000A31C0000A31C00007C
:10187000A31C0000A31C0000A31C0000211A0000F0
:10188000A31C0000A31C0000A31C0000A31C00005C
:10189000A31C0000A31C0000A31C0000771C000078
:1018A000A31C0000A31C0000A31C0000A31C00003C
:1018B000A31C0000A31C0000A31C00008F1A000042
:1018C000A31C0000A31C0000A31C0000A31C00001C
:1018D000A31C0000A31C0000A31C0000271B000089
:1018E000A31C0000A31C0000A31C0000A31C0000FC
:1018F000A31C0000A31C0000A31C0000A31C0000EC
:10190000A31C0000A31C0000A31C0000A31C0000DB
:10191000A31C0000A31C0000A31C0000531B00001C
:10192000A31C0000A31C0000A31C0000A31C0000BB
:10193000A31C0000A31C0000A31C0000771C0000D7
:10194000A31C0000A31C0000A31C0000A31C00009B
:10195000A31C0000A31C0000A31C00009D1B000092
:10196000A31C0000A31C0000A31C0000A31C00007B
:10197000A31C0000A31C0000A31C0000191C0000F5
:1019800040F2AC03C1F200034FF000021A604FF0C6
:101990000003C4F20A0340F2AC02C1F20002116873
:1019A00040F2D012C1F20002521892F88020D2B256
:1019B0009A6001F1010240F2AC03C1F200031A6027
:1019C0004FF00003C4F20A034FF028029A6177E156
:1019D00040F2A003C1F200034FF000021A604FF082
:1019E0000003C4F20A0340F2AC02C1F20002116823
:1019F00040F2D012C1F20002521892F88020D2B206
:101A00009A6001F1010240F2AC03C1F200031A60D6
:101A10004FF00003C4F20A034FF028029A614FE12D
:101A200040F29023C1F200039B68012B0ED14FF0CE
:101A30000003C4F20A034FF010021A6040F2800360
:101A4000C1F200034FF007029A6018E04FF0000364
:101A5000C4F20A0340F2AC02C1F20002116840F283
:101A6000D012C1F20002521892F88020D2B29A60CD
:101A700001F1010240F2AC03C1F200031A604FF021
:101A80000003C4F20A034FF008029A6118E140F221
:101A90009023C1F200039B681A4640F2AC03C1F2E6
:101AA00000031B689A4219D94FF00003C4F20A03DD
:101AB00040F2AC02C1F20002116840F2D012C1F251
:101AC0000002521892F88020D2B29A6001F101020D
:101AD00040F2AC03C1F200031A601CE040F20413B0
:101AE000C1F200039B68002B07D04FF00003C4F243
:101AF0000A034FF020021A600DE04FF00003C4F219
:101B00000A034FF010021A6040F28003C1F2000392
:101B10004FF00C029A604FF00003C4F20A034FF03A
:101B200008029A61CCE04FF00003C4F20A034FF0C0
:101B300010021A6040F28003C1F200034FF0090264
:101B40009A604FF00003C4F20A034FF008029A6152
:101B5000B6E040F2A003C1F200031B6803F10102EA
:101B600040F20413C1F200039B689A4207D24FF07F
:101B70000003C4F20A034FF004021A6006E04FF0BB
:101B80000003C4F20A034FF004029A614FF000030D
:101B9000C4F20A034FF008029A6191E040F2A003F8
:101BA000C1F200031A684FF00003C4F20A039B68F5
:101BB000D9B240F21013C1F200039B1883F88010D1
:101BC00002F1010240F2A003C1F200031A6040F2E8
:101BD000A003C1F200031B6803F1010240F20413E9
:101BE000C1F200039B689A4207D24FF00003C4F28F
:101BF0000A034FF004021A6006E04FF00003C4F23B
:101C00000A034FF004029A614FF00003C4F20A0382
:101C10004FF008029A6153E040F2A003C1F20003C2
:101C20001A684FF00003C4F20A039B68D9B240F26D
:101C30001013C1F200039B1883F8801002F1010217
:101C400040F2A003C1F200031A6040F28003C1F227
:101C500000034FF00C029A604FF00003C4F20A0335
:101C60004FF010021A604FF00003C4F20A034FF065
:101C700008029A6124E04FF00003C4F20A034FF017
:101C800010021A6040F28003C1F200034FF0080214
:101C90009A604FF00003C4F20A034FF008029A6101
:101CA0000EE040F28003C1F200034FF00A029A6096
:101CB0004FF00003C4F20A034FF008029A6100BF1C
:101CC00007F10C07BD4680BC704700BF80B483B0ED
:101CD00000AF786046F24463C0F200037A6853F8BC
:101CE00022304FF010021A6046F24463C0F2000343
:101CF0007A6853F822304FF008029A6100BF46F22A
:101D00004463C0F200037A6853F822301B6803F082
:101D10001003002BF3D14FF00103184607F10C0715
:101D2000BD4680BC704700BF80B500AF4FF4404354
:101D3000C4F20F034FF44042C4F20F02D2F8C420A1
:101D400042F08002C3F8C4204FF44043C4F20203BF
:101D50004FF44042C4F20202526822F070725A609C
:101D60004FF44043C4F202034FF44042C4F2020273
:101D7000526842F0A0725A604FF44043C4F201032B
:101D80004FF06C029A614FF44043C4F202034FF4E7
:101D90004042C4F20202D26F22F00502DA674FF429
:101DA0004043C4F201034FF4A8725A614FF4404318
:101DB000C4F201034FF4A8721A614FF00A004FF009
:101DC0000001FFF73BF84FF00A00FFF71BF84FF454
:101DD0004043C4F201034FF040021A6080BD00BFCF
:101DE00080B500AF4FF44043C4F20F034FF44042BC
:101DF000C4F20F02D2F8C42042F40022C3F8C42077
:101E00004FF44043C4F202034FF44042C4F20202D2
:101E1000526822F470725A604FF44043C4F20203D5
:101E20004FF44042C4F20202526842F470725A60A7
:101E30004FF44043C4F202034FF44042C4F20202A2
:101E4000526C22F470725A644FF44043C4F202039D
:101E50004FF44042C4F20202526C42F420725A64BF
:101E60004FF44043C4F202034FF44042C4F2020272
:101E7000926E42F4C0129A664FF44043C4F20503D6
:101E80004FF06C029A614FF44043C4F205034FF4E3
:101E9000A8725A614FF44043C4F205034FF4A8728C
:101EA0001A614FF00B00FEF7ADFF4FF44043C4F250
:101EB00005034FF040021A6080BD00BF80B483B0BC
:101EC00000AF4FF000037B604FF44043C2F20903C0
:101ED0004FF44042C2F20902126922F0C0521A6164
:101EE0004FF44043C2F209034FF44042C2F20902E8
:101EF000126822F0C0521A604FF44043C2F2090344
:101F00004FF44042C2F20902126842F080521A6055
:101F100048E04FF000037B6003E07B6803F10103BE
:101F20007B607A6842F20F739A42F6D94FF44043CD
:101F3000C2F209034FF080529A614FF000037B60B8
:101F400003E07B6803F101037B607A6840F2E733CA
:101F50009A42F6D94FF44043C2F209034FF080523F
:101F6000DA614FF000037B6003E07B6803F101035B
:101F70007B607A6840F2E7339A42F6D94FF44043E7
:101F8000C2F209034FF080529A614FF000037B6068
:101F900003E07B6803F101037B607A6842F20F7310
:101FA0009A42F6D94FF44043C2F209035B6903F049
:101FB0000063002BADD007F10C07BD4680BC704715
:101FC00080B483B000AF4FF000037B604FF4404318
:101FD000C2F209034FF44042C2F20902126922F42C
:101FE000C0121A614FF44043C2F209034FF4404259
:101FF000C2F20902126822F4C0121A604FF4404380
:10200000C2F209034FF44042C2F20902126842F4DC
:1020100080121A6048E04FF000037B6003E07B68A9
:1020200003F101037B607A6842F20F739A42F6D99A
:102030004FF44043C2F209034FF480129A614FF00B
:1020400000037B6003E07B6803F101037B607A6837
:1020500040F2E7339A42F6D94FF44043C2F2090303
:102060004FF48012DA614FF000037B6003E07B687D
:1020700003F101037B607A6840F2E7339A42F6D9B4
:102080004FF44043C2F209034FF480129A614FF0BB
:1020900000037B6003E07B6803F101037B607A68E7
:1020A00042F20F739A42F6D94FF44043C2F2090349
:1020B0005B6903F40023002BADD007F10C07BD468C
:1020C00080BC704780B483B000AF786046F2446350
:1020D000C0F200037A6853F822304FF020021A60F1
:1020E00040F28003C1F200037A684FF0060143F822
:1020F000221027E040F28C03C1F200037A6853F803
:1021000022301A464FF6FE73C0F2FF039A4209D9F5
:1021100040F28003C1F200037A684FF00B0143F8EC
:10212000221018E040F28C03C1F200037A6853F8E1
:10213000223003F1010140F28C03C1F200037A68FE
:1021400043F8221040F28003C1F200037A6853F88A
:102150002230062BCED046F24463C0F200037A68E8
:1021600053F822304FF020029A6140F28003C1F20E
:1021700000037A6853F82230184607F10C07BD4671
:1021800080BC704780B500AF4FF020004FF00F01CA
:1021900000F00AF84FF023004FF0900100F004F82F
:1021A000FEF73CF980BD00BF80B584B000AF0246A9
:1021B0000B46FA71BB7140F29023C1F200034FF05D
:1021C00003025A6040F20413C1F200034FF0000210
:1021D0005A6040F2D013C1F200034FF0D20283F8EC
:1021E000402040F2D013C1F20003FA7983F8412075
:1021F00040F2D013C1F20003BA7983F842204FF0C5
:102200000100FFF75FFFF860FB68184607F1100751
:10221000BD4680BD80B500AF4FF020004FF0970164
:1022200000F00AF84FF023004FF0A00100F004F88E
:10223000FEF7F4F880BD00BF80B584B000AF024661
:102240000B46FA71BB7140F29023C1F200034FF0CC
:1022500003025A6040F20413C1F200034FF000027F
:102260005A6040F2D013C1F200034FF0320283F8FB
:10227000402040F2D013C1F20003FA7983F84120E4
:1022800040F2D013C1F20003BA7983F842204FF034
:102290000100FFF717FFF860FB68184607F1100709
:1022A000BD4680BD80B500AF4FF000004FF010017B
:1022B00000F010F84FF001004FF0200100F00AF894
:1022C0004FF002004FF0000100F004F8FEF7A6F80E
:1022D00080BD00BF80B584B000AF02460B46FA71E6
:1022E000BB7140F29023C1F200034FF003025A6029
:1022F00040F20413C1F200034FF000025A6040F2B2
:10230000D013C1F200034FF03C0283F8402040F2AA
:10231000D013C1F20003FA7983F8412040F2D013C0
:10232000C1F20003BA7983F842204FF00100FFF7B1
:10233000C9FEF860FB68184607F11007BD4680BD6E
:1023400080B483B000AF4FF000037B604FF0000318
:102350007B6003E07B6803F101037B607B68632B98
:10236000F8D907F10C07BD4680BC704780B500AFB7
:1023700000F022FAFFF7E4FF4FF0010000F0E2F96D
:10238000FFF7DEFF4FF0040000F004F8FFF7D8FF7E
:1023900080BD00BF80B584B000AF0346FB7140F242
:1023A0009023C1F200034FF002025A6040F204137E
:1023B000C1F200034FF000025A6040F2D013C1F2A4
:1023C00000034FF0C60283F8402040F2D013C1F260
:1023D0000003FA7983F841204FF00100FFF772FE05
:1023E000F860FB68184607F11007BD4680BD00BFC6
:1023F00080B584B000AF03463960FB714FF0000335
:10240000FB60FB7903F101031A4640F29023C1F20D
:1024100000035A6040F20413C1F200034FF00002BF
:102420005A6040F2D013C1F200034FF0C60283F8A5
:1024300040204FF00003FB6013E0FB6803F1010153
:102440003B681A7840F2D013C1F200035B1883F89E
:1024500040203B6803F101033B60FB6803F101038B
:10246000FB60FA79FB689A42E7D84FF00100FFF76A
:1024700029FEB860BB68184607F11007BD4680BD4D
:1024800080B58AB000AFBA600246FA730A46BA73E2
:10249000FB714FF000037B624FF00003FB614FF0D4
:1024A000000387F823304FF0000387F82230FA7BCF
:1024B000BB7B1046194600F007F9FB79052B01D9C3
:1024C0007B6AFCE0FB79052B03D097F82330012BC6
:1024D0001DD197F82210BA6841F25973CDF2B713A3
:1024E000A3FB02034FEA5333DBB203F13003DAB24A
:1024F00007F12800431803F8182C97F8223003F14D
:10250000010387F822304FF0010387F82330FB796D
:10251000042B03D097F82330012B2ED1BA6844F650
:10252000D353C1F26203A3FB02134FEA9313FB617F
:1025300097F82200F9694CF6CD43CCF6CC43A3FBC7
:1025400001234FEAD30213464FEA83039B184FEA55
:102550004303CA1AD3B203F13003DAB207F12801F8
:102560000B1803F8182C97F8223003F1010387F8B1
:1025700022304FF0010387F82330FB79032B03D07F
:1025800097F82330012B2ED1BA6848F21F53C5F2B9
:10259000EB13A3FB02034FEA5313FB6197F82200EE
:1025A000F9694CF6CD43CCF6CC43A3FB01234FEAAB
:1025B000D30213464FEA83039B184FEA4303CA1A18
:1025C000D3B203F13003DAB207F128010B1803F894
:1025D000182C97F8223003F1010387F822304FF0CE
:1025E000010387F82330FB79022B03D097F82330BF
:1025F000012B2ED1BA684CF6CD43CCF6CC43A3FBCD
:1026000002034FEAD303FB6197F82200F9694CF605
:10261000CD43CCF6CC43A3FB01234FEAD3021346B0
:102620004FEA83039B184FEA4303CA1AD3B203F15C
:102630003003DAB207F128010B1803F8182C97F8C9
:10264000223003F1010387F822304FF0010387F8AD
:102650002330FB79012B03D097F82330012B20D1B5
:1026600097F82200B9684CF6CD43CCF6CC43A3FBD7
:1026700001234FEAD30213464FEA83039B184FEA24
:102680004303CA1AD3B203F13003DAB207F12801C7
:102690000B1803F8182C97F8223003F1010387F880
:1026A0002230FA7907F1100310461946FFF7A0FE11
:1026B00003460C2B02D14FF001037B627B6A184664
:1026C00007F12807BD4680BD80B584B000AF024643
:1026D0000B46FA71BB7140F29023C1F200034FF038
:1026E00004025A6040F20413C1F200034FF00002EA
:1026F0005A6040F2D013C1F200034FF0C60283F8D3
:10270000402040F2D013C1F200034FF0030283F8DF
:10271000412040F2D013C1F20003FA7983F842203D
:1027200040F2D013C1F20003BA7983F843204FF08E
:102730000100FFF7C7FCF860FB68184607F11007B7
:10274000BD4680BD80B584B000AF0346FB7140F24A
:102750009023C1F200034FF002025A6040F20413CA
:10276000C1F200034FF000025A6040F2D013C1F2F0
:1027700000034FF0C60283F84020FB79012B08D1FB
:1027800040F2D013C1F200034FF0130283F841204E
:1027900007E040F2D013C1F200034FF0140283F8B7
:1027A00041204FF00100FFF78DFCF860FB681846F0
:1027B00007F11007BD4680BD80B582B000AF40F282
:1027C0009023C1F200034FF002025A6040F204135A
:1027D000C1F200034FF000025A6040F2D013C1F280
:1027E00000034FF0C60283F8402040F2D013C1F23C
:1027F00000034FF00C0283F841204FF00100FFF777
:1028000061FC78607B68184607F10807BD4680BD0B
:1028100080B500AF00F002F880BD00BF80B500AF0A
:1028200040F2BC43C1F200034FF04E021A7040F276
:10283000BC43C1F200034FF045025A7040F2BC4362
:10284000C1F200034FF058029A7040F2BC43C1F24B
:1028500000034FF03802DA704FF0020040F2BC4142
:10286000C1F200014FF0040200F024FF80BD00BF60
:1028700080B582B000AF0346FB7140F2BC43C1F2A9
:1028800000034FF04E021A7040F2BC43C1F2000345
:102890004FF045025A7040F2BC43C1F200034FF0C2
:1028A00058029A7040F2BC43C1F200034FF0340268
:1028B000DA7040F2BC43C1F20003FA791A714FF0AA
:1028C000020040F2BC41C1F200014FF0050200F0ED
:1028D000F1FE07F10807BD4680BD00BF80B582B09C
:1028E00000AF02460B46FA71BB7140F2BC43C1F225
:1028F00000034FF04E021A7040F2BC43C1F20003D5
:102900004FF045025A7040F2BC43C1F200034FF051
:1029100058029A7040F2BC43C1F200034FF03202F9
:10292000DA7040F2BC43C1F20003BA791A714FF079
:10293000020040F2BC41C1F200014FF0050200F07C
:10294000B9FE40F2BC43C1F200034FF04E021A70D0
:1029500040F2BC43C1F200034FF045025A7040F20E
:10296000BC43C1F200034FF058029A7040F2BC43DE
:10297000C1F200034FF03102DA7040F2BC43C1F201
:102980000003FA791A714FF0020040F2BC41C1F223
:1029900000014FF0050200F08DFE07F10807BD466B
:1029A00080BD00BF80B500AF40F2BC43C1F2000360
:1029B0004FF04E021A7040F2BC43C1F200034FF0D8
:1029C00045025A7040F2BC43C1F200034FF0580276
:1029D0009A7040F2BC43C1F200034FF03202DA7049
:1029E00040F2BC43C1F200034FF080021A714FF075
:1029F000020040F2BC41C1F200014FF0050200F0BC
:102A000059FE40F2BC43C1F200034FF04E021A706F
:102A100040F2BC43C1F200034FF045025A7040F24D
:102A2000BC43C1F200034FF058029A7040F2BC431D
:102A3000C1F200034FF03102DA7040F2BC43C1F240
:102A400000034FF080021A714FF0020040F2BC41C7
:102A5000C1F200014FF0050200F02CFE80BD00BF66
:102A600080B483B000AF0346FB714FF46143CEF2F4
:102A7000000397F907204FEA5212F97901F01F017C
:102A80004FF0010000FA01F143F8221007F10C07A2
:102A9000BD4680BC704700BF80B483B000AF034622
:102AA0003960FB7197F90730002B10DA4FF46D4352
:102AB000CEF20003FA7902F00F02A2F104013A68A3
:102AC000D2B24FEAC202D2B25B181A760DE04FF4CE
:102AD0006143CEF2000397F907103A68D2B24FEA89
:102AE000C202D2B25B1883F8002307F10C07BD467F
:102AF00080BC704780B483B000AF0346FB7197F988
:102B00000730002B0FDA4FF46D43CEF20003FA7951
:102B100002F00F02A2F104029B181B7EDBB24FEA07
:102B2000D303DBB20CE04FF46143CEF2000397F91C
:102B300007209B1893F80033DBB24FEAD303DBB2D4
:102B4000184607F10C07BD4680BC704780B582B0BF
:102B500000AF4FF44043C4F200039B68BB71BB79E4
:102B60004FEA5303BB71BB7903F00703BB71BB7919
:102B7000032B4DD14FF44043C4F200035B697B71DA
:102B80007B7903F09E03002B0CD07A7940F23C5302
:102B9000C1F200031A604FF44043C4F200031B6803
:102BA000FB7194E07B7903F00103DBB2002B00F0B2
:102BB0008E804FF44043C4F200031B68DAB240F247
:102BC000F833C1F200031A7040F2F833C1F2000387
:102BD0001B78DBB2184600F017FE40F2C003C1F2CA
:102BE00000031B6803F1010240F2C003C1F20003BD
:102BF0001A6040F2C003C1F200031B68402B66D18B
:102C000040F2C003C1F200034FF000021A605EE020
:102C1000BB79022B2ED14FF44043C4F200031B6852
:102C2000DAB240F2F833C1F200031A7040F2F8331E
:102C3000C1F200031B78DBB2184600F0E5FD40F25C
:102C4000C003C1F200031B6803F1010240F2C0039C
:102C5000C1F200031A6040F2C003C1F200031B6816
:102C6000402B34D140F2C003C1F200034FF0000208
:102C70001A602CE0BB79062B0CD140F23C53C1F218
:102C800000031B6843F4807240F23C53C1F200031E
:102C90001A601CE0BB79012B19D14FF44043C4F2F8
:102CA00000035B697B717B7903F02003002B07D065
:102CB00040F25803C1F200034FF001021A7006E01F
:102CC00040F25803C1F200034FF000021A7007F1FE
:102CD0000807BD4680BD00BF80B582B000AF4FF091
:102CE0000003C4F201039B68BB71BB794FEA530335
:102CF000BB71BB7903F00703BB71BB79032B4FD1C9
:102D00004FF00003C4F201035B697B717B7903F030
:102D10009E03002B0CD07A7940F27843C1F2000375
:102D20001A604FF00003C4F201031B68FB7198E0C6
:102D30007B7903F00103DBB2002B00F092804FF0AF
:102D40000003C4F201031B68DAB240F2B033C1F2EF
:102D500000031A7040F2B033C1F200031B78DBB2FB
:102D60004FF00100194600F013FE40F2C403C1F217
:102D700000031B6803F1010240F2C403C1F2000327
:102D80001A6040F2C403C1F200031B68402B68D1F3
:102D900040F2C403C1F200034FF000021A6060E089
:102DA000BB79022B30D14FF00003C4F201031B6842
:102DB000DAB240F2B033C1F200031A7040F2B0331D
:102DC000C1F200031B78DBB24FF00100194600F09E
:102DD000DFFD40F2C403C1F200031B6803F10102EE
:102DE00040F2C403C1F200031A6040F2C403C1F20E
:102DF00000031B68402B34D140F2C403C1F200032E
:102E00004FF000021A602CE0BB79062B0CD140F287
:102E10007843C1F200031B6843F4807240F27843A8
:102E2000C1F200031A601CE0BB79012B19D14FF0ED
:102E30000003C4F201035B697B717B7903F020031B
:102E4000002B07D040F25903C1F200034FF00102FA
:102E50001A7006E040F25903C1F200034FF000027D
:102E60001A7007F10807BD4680BD00BF80B483B06B
:102E700000AF4FF40043C4F209039B68BB71BB79F8
:102E80004FEA5303BB71BB7903F00703BB71BB79F6
:102E9000032B5AD14FF40043C4F209035B697B71E1
:102EA0007B7903F09E03002B0CD07A7940F2F0334B
:102EB000C1F200031A604FF40043C4F209031B6817
:102EC000FB71ADE07B7903F00103DBB2002B00F076
:102ED000A78040F2C803C1F200031A684FF4004310
:102EE000C4F209031B68D9B240F2A823C1F200035F
:102EF000995402F1010240F2C803C1F200031A60C2
:102F000040F2D903C1F200031B78DBB21A4640F24B
:102F1000C803C1F200031B689A4240F0818040F26E
:102F2000C803C1F200034FF000021A6040F2D90357
:102F3000C1F200034FF000021A7040F2D803C1F250
:102F400000034FF001021A706AE0BB79022B3AD1FC
:102F500040F2C803C1F200031A684FF40043C4F200
:102F600009031B68D9B240F2A823C1F200039954A7
:102F700002F1010240F2C803C1F200031A6040F2FC
:102F8000D903C1F200031B78DBB21A4640F2C80332
:102F9000C1F200031B689A4242D140F2C803C1F259
:102FA00000034FF000021A6040F2D903C1F200039F
:102FB0004FF000021A7040F2D803C1F200034FF044
:102FC00001021A702CE0BB79062B0CD140F2F033D1
:102FD000C1F200031B6843F4807240F2F033C1F287
:102FE00000031A601CE0BB79012B19D14FF4004398
:102FF000C4F209035B697B717B7903F02003002B2A
:1030000007D040F25A03C1F200034FF001021A70D8
:1030100006E040F25A03C1F200034FF000021A70BA
:1030200007F10C07BD4680BC704700BF80B582B079
:1030300000AF4FF44043C4F209039B68BB71BB79F6
:103040004FEA5303BB71BB7903F00703BB71BB7934
:10305000032B4FD14FF44043C4F209035B697B71EA
:103060007B7903F09E03002B0CD07A7940F23C531D
:10307000C1F200031A604FF44043C4F209031B6815
:10308000FB7198E07B7903F00103DBB2002B00F0C9
:1030900092804FF44043C4F209031B68DAB240F255
:1030A0007C43C1F200031A7040F27C43C1F200037A
:1030B0001B78DBB24FF00300194600F069FC40F2C8
:1030C000CC03C1F200031B6803F1010240F2CC0300
:1030D000C1F200031A6040F2CC03C1F200031B6886
:1030E000402B68D140F2CC03C1F200034FF0000244
:1030F0001A6060E0BB79022B30D14FF44043C4F238
:1031000009031B68DAB240F27C43C1F200031A7073
:1031100040F27C43C1F200031B78DBB24FF00300A6
:10312000194600F035FC40F2CC03C1F200031B68E5
:1031300003F1010240F2CC03C1F200031A6040F235
:10314000CC03C1F200031B68402B34D140F2CC0306
:10315000C1F200034FF000021A602CE0BB79062B8D
:103160000CD140F2F433C1F200031B6843F48072C7
:1031700040F2F433C1F200031A601CE0BB79012B6A
:1031800019D14FF44043C4F209035B697B717B7929
:1031900003F02003002B07D040F25B03C1F20003D1
:1031A0004FF001021A7006E040F25B03C1F2000327
:1031B0004FF000021A7007F10807BD4680BD00BF3E
:1031C00080B586B000AF786039604FF000033B6196
:1031D0007B68002B40F086804FF44043C4F202032A
:1031E0004FF44042C4F20202126822F0F0021A6068
:1031F0004FF44043C4F202034FF44042C4F20202CF
:10320000126842F050021A604FF44043C4F20F03B8
:10321000D3F8A8314FEA931303F00303FB60FB6874
:10322000022B13D0032B1AD0012B08D040F25403E9
:10323000C1F200031B684FEA93037B6118E040F280
:103240005403C1F200031B687B6111E040F2540398
:10325000C1F200031B684FEA53037B6108E040F2B0
:103260005403C1F200031B684FEAD3037B6100BF24
:103270004FF44043C4F200034FF08302DA607B69ED
:103280004FEA13123B68B2FBF3F3BB604FF44043C9
:10329000C4F20003BA684FEA12225A604FF4404366
:1032A000C4F20003BA6802F0FF021A604FF4404310
:1032B000C4F200034FF00302DA604FF44043C4F25B
:1032C00000034FF007029A604FF00500FFF7C8FBBC
:1032D0004FF44043C4F200034FF005025A604FF030
:1032E0000103E2E17B68012B40F09E804FF44043F4
:1032F000C4F202034FF44042C4F20202126822F008
:1033000040421A604FF44043C4F202034FF440427B
:10331000C4F20202126842F080421A604FF4404345
:10332000C4F202034FF44042C4F20202526822F097
:1033300003025A604FF44043C4F202034FF4404288
:10334000C4F20202526842F001025A604FF4404354
:10335000C4F20F03D3F8A8314FEA132303F0030399
:10336000FB60FB68022B13D0032B1AD0012B08D073
:1033700040F25403C1F200031B684FEA93037B61E0
:1033800018E040F25403C1F200031B687B6111E0B6
:1033900040F25403C1F200031B684FEA53037B6100
:1033A00008E040F25403C1F200031B684FEAD30364
:1033B0007B6100BF4FF00003C4F201034FF08302B2
:1033C000DA607B694FEA13123B68B2FBF3F3BB6030
:1033D0004FF00003C4F20103BA684FEA12225A60A8
:1033E0004FF00003C4F20103BA6802F0FF021A6052
:1033F0004FF00003C4F201034FF00302DA604FF014
:103400000003C4F201034FF007029A604FF0060078
:10341000FFF726FB4FF00003C4F201034FF0050253
:103420005A604FF0010340E17B68022B40F094802A
:103430004FF44043C4F20F034FF44042C4F20F0272
:10344000D2F8C42042F08072C3F8C4204FF4404345
:10345000C4F202034FF44042C4F20202126822F4A2
:1034600070021A604FF44043C4F202034FF440422A
:10347000C4F20202126842F4A0021A604FF4404300
:10348000C4F20F03D3F8AC314FEA134303F0030344
:10349000FB60FB68022B13D0032B1AD0012B08D042
:1034A00040F25403C1F200031B684FEA93037B61AF
:1034B00018E040F25403C1F200031B687B6111E085
:1034C00040F25403C1F200031B684FEA53037B61CF
:1034D00008E040F25403C1F200031B684FEAD30333
:1034E0007B6100BF4FF40043C4F209034FF0830235
:1034F000DA607B694FEA13123B68B2FBF3F3BB60FF
:103500004FF40043C4F20903BA684FEA12225A602A
:103510004FF40043C4F20903BA6802F0FF021A60D4
:103520004FF40043C4F209034FF00302DA604FF492
:103530000043C4F209034FF007029A604FF00700FE
:10354000FFF78EFA4FF40043C4F209034FF005026F
:103550005A604FF00103A8E07B68032B40F0A38082
:103560004FF44043C4F20F034FF44042C4F20F0241
:10357000D2F8C42042F00072C3F8C4204FF4404394
:10358000C4F202034FF44042C4F20202126822F075
:103590000F021A604FF44043C4F202034FF440425A
:1035A000C4F20202126842F00A021A604FF4404369
:1035B000C4F20F03D3F8AC314FEA934303F0030393
:1035C000FB60FB68022B13D0032B1AD0012B08D011
:1035D00040F25403C1F200031B684FEA93037B617E
:1035E00018E040F25403C1F200031B687B6111E054
:1035F00040F25403C1F200031B684FEA53037B619E
:1036000008E040F25403C1F200031B684FEAD30301
:103610007B6100BF4FF44043C4F209034FF08302C3
:10362000DA607B694FEA13123B68B2FBF3F3BB60CD
:103630004FF44043C4F20903BA684FEA12225A60B9
:103640004FF44043C4F20903BA6802F0FF021A6063
:103650004FF44043C4F209034FF00302DA604FF421
:103660004043C4F209034FF007029A604FF008008C
:10367000FFF740FA38614FF008004FF00101FFF703
:103680000BFA4FF00800FFF7EBF94FF00800FFF7D7
:10369000E7F94FF44043C4F209034FF005025A60C2
:1036A0004FF0010301E04FF00003184607F118073F
:1036B000BD4680BD80B485B000AFF860B9607A6067
:1036C000FB68002B24D11FE000BF4FF44043C4F23D
:1036D00000035B6903F04003002BF6D04FF4404336
:1036E000C4F20003BA6812781A6040F25803C1F2BB
:1036F00000034FF000021A70BB6803F10103BB60C6
:103700007B6803F1FF337B607B68002BDCD176E0C4
:10371000FB68012B24D11FE000BF4FF00003C4F26F
:1037200001035B6903F04003002BF6D04FF0000368
:10373000C4F20103BA6812781A6040F25903C1F268
:1037400000034FF000021A70BB6803F10103BB6075
:103750007B6803F1FF337B607B68002BDCD14EE09C
:10376000FB68022B24D11FE000BF4FF40043C4F2DA
:1037700009035B6903F04003002BF6D04FF40043CC
:10378000C4F20903BA6812781A6040F25A03C1F20F
:1037900000034FF000021A70BB6803F10103BB6025
:1037A0007B6803F1FF337B607B68002BDCD126E074
:1037B000FB68032B23D11FE000BF4FF44043C4F24A
:1037C00009035B6903F04003002BF6D04FF440433C
:1037D000C4F20903BA6812781A6040F25B03C1F2BE
:1037E00000034FF000021A70BB6803F10103BB60D5
:1037F0007B6803F1FF337B607B68002BDCD107F132
:103800001407BD4680BC704780B483B000AF034648
:10381000FB7140F2DC03C1F200031B78DBB203F161
:103820000103DAB240F2DC03C1F200031A7040F285
:103830004453C1F200031B78DBB2002B17D1FB7994
:10384000242B14D140F24F53C1F200034FF0010278
:103850001A7040F2B153C1F200034FF000021A7027
:1038600040F2DB03C1F200034FF000021A7040F295
:103870004F53C1F200031B78DBB2002B30D040F273
:10388000B153C1F200031B78DBB21A4640F2D053A9
:10389000C1F20003F979995440F2B053C1F2000328
:1038A0004FF001021A7040F24F53C1F200034FF083
:1038B00000021A7040F24453C1F200034FF00102BB
:1038C0001A7040F2B153C1F200031B78DBB203F16E
:1038D0000103DAB240F2B153C1F200031A7051E0B1
:1038E00040F2B053C1F200031B78DBB2002B49D089
:1038F00040F2B153C1F200031B78DBB21A4640F22A
:10390000D053C1F20003F9799954FB790A2B2BD1DA
:1039100040F2B153C1F200031B78DBB203F1FF3276
:1039200040F2D053C1F200039B5CDBB20D2B1BD1E4
:1039300040F2B153C1F200034FF000021A7040F29E
:10394000B053C1F200034FF000021A7040F244532A
:10395000C1F200034FF001021A7040F2DA03C1F223
:1039600000034FF001021A7040F2B153C1F200039C
:103970001B78DBB203F10103DAB240F2B153C1F2BA
:1039800000031A7007F10C07BD4680BC704700BFEA
:1039900080B584B000AF02460B46FA71BB714FF0A0
:1039A0000003FB7340F25C03C1F200031B78052B9C
:1039B0005FD940F2D003C1F200031B78DBB29C2B2D
:1039C00027D140F25C03C1F200031B78A3F105028A
:1039D00040F29C23C1F20003B979995440F25C0390
:1039E000C1F200031B7803F10103DAB240F25C0379
:1039F000C1F200031A7040F25C03C1F200031B78AD
:103A00000F2B06D140F2D203C1F200034FF00102A6
:103A10001A7040F2D003C1F200031B78DBB2252BF1
:103A200027D140F25C03C1F200031B78A3F1050229
:103A300040F24C03C1F20003B979995440F25C039F
:103A4000C1F200031B7803F10103DAB240F25C0318
:103A5000C1F200031A7040F25C03C1F200031B784C
:103A60000B2B06D140F2D203C1F200034FF001024A
:103A70001A7040F25C03C1F200031B78052B3FD1A2
:103A800040F2D003C1F200031B78DBB29C2B0DD1B6
:103A900040F29C23C1F20003BA791A7040F25C0331
:103AA000C1F200034FF006021A7029E040F2D00381
:103AB000C1F200031B78DBB2252B0DD140F24C0381
:103AC000C1F20003BA791A7040F25C03C1F200033C
:103AD0004FF006021A7013E040F2D203C1F2000365
:103AE0004FF001021A7040F2D103C1F20003BA791B
:103AF0001A7040F25C03C1F200034FF005021A7025
:103B000040F25C03C1F200031B78042B0CD140F29D
:103B1000D003C1F20003BA791A7040F25C03C1F21B
:103B200000034FF005021A7040F25C03C1F200037B
:103B30001B78032B11D1BB79582B07D140F25C03C2
:103B4000C1F200034FF004021A7006E040F25C0379
:103B5000C1F200034FF001021A7040F25C03C1F29F
:103B600000031B78022B11D1BB79452B07D140F202
:103B70005C03C1F200034FF003021A7006E040F24A
:103B80005C03C1F200034FF001021A7040F25C03C3
:103B9000C1F200031B78012B09D1BB794E2B06D152
:103BA00040F25C03C1F200034FF002021A7040F2CF
:103BB000D203C1F200031B78DBB2002B02F01685A2
:103BC00040F2D003C1F200031B78DBB203F1FF33F4
:103BD000FB2B02F2EA8401A252F823F0CD3F000051
:103BE00077400000AB65000021410000CB410000A0
:103BF000D1480000074900003D490000734900001A
:103C0000F54A0000AB650000AB650000AB65000045
:103C1000AB650000AB650000A54D0000E14F000062
:103C20001D520000AB650000AB650000AB650000F5
:103C3000AB650000AB650000AB650000AB65000044
:103C4000AB650000AB650000AB650000AB65000034
:103C5000AB650000AB65000059540000F354000050
:103C60008D55000027560000FB560000355A000015
:103C7000AB650000AB650000AB650000AB65000004
:103C8000AB650000AB650000AB650000AB650000F4
:103C9000AB650000AB650000AB650000AB650000E4
:103CA000AB650000AB650000AB650000AB650000D4
:103CB000AB650000AB650000AB650000AB650000C4
:103CC000AB650000AB650000AB650000AB650000B4
:103CD000AB650000AB650000AB650000AB650000A4
:103CE000AB650000AB650000AB650000AB65000094
:103CF000AB650000AB650000AB650000AB65000084
:103D0000AB650000AB650000AB650000AB65000073
:103D1000AB650000AB650000AB650000AB65000063
:103D2000AB650000AB650000AB650000AB65000053
:103D3000AB650000AB650000AB650000AB65000043
:103D4000AB650000AB650000AB650000AB65000033
:103D5000AB650000AB650000AB650000AB65000023
:103D6000AB650000AB650000AB650000AB65000013
:103D7000AB650000AB650000AB650000AB65000003
:103D8000AB650000AB650000AB650000AB650000F3
:103D9000AB650000AB650000AB650000AB650000E3
:103DA000AB650000AB650000AB650000AB650000D3
:103DB000AB650000AB650000AB650000AB650000C3
:103DC000AB650000AB650000AB650000AB650000B3
:103DD000AB650000AB650000AB650000AB650000A3
:103DE000AB650000AB650000AB650000AB65000093
:103DF000AB650000AB650000AB650000435A0000F6
:103E0000AB650000AB6500006B5A0000AB650000BD
:103E1000AB650000AB6500007D5A0000A55A0000AC
:103E20002B5B0000215C0000175D0000055E0000B8
:103E30001D5E0000355E0000875F0000AD5F000082
:103E400047600000E16000007B610000AB6500009E
:103E5000AB650000AB650000AB650000AB65000022
:103E6000AB650000AB650000AB650000AB65000012
:103E7000AB650000AB650000AB650000AB65000002
:103E8000036300009D630000AB650000AB650000AC
:103E9000AB650000AB650000AB650000AB650000E2
:103EA000AB650000AB650000AB650000AB650000D2
:103EB000AB650000AB650000AB650000AB650000C2
:103EC000AB650000AB650000AB650000AB650000B2
:103ED000AB650000AB650000AB650000AB650000A2
:103EE000AB650000AB650000AB650000AB65000092
:103EF000AB650000AB650000AB650000AB65000082
:103F0000AB650000AB650000AB650000AB65000071
:103F1000AB650000AB650000AB650000AB65000061
:103F2000AB650000AB650000AB650000AB65000051
:103F3000AB650000AB650000AB650000AB65000041
:103F4000AB650000AB650000AB650000AB65000031
:103F5000AB650000AB650000AB650000AB65000021
:103F6000AB650000AB650000AB650000AB65000011
:103F7000AB650000AB650000AB650000AB65000001
:103F8000AB650000AB650000AB650000AB650000F1
:103F9000AB650000AB650000AB650000AB650000E1
:103FA000AB650000AB650000AB650000AB650000D1
:103FB000AB650000AB650000AB650000AB650000C1
:103FC00037640000B36400002F65000040F23843FE
:103FD000C1F200034FF046021A7040F23843C1F2BA
:103FE00000034FF042025A7040F23843C1F200031E
:103FF0004FF044029A7040F2D003C1F200031B78E4
:10400000DAB240F23843C1F20003DA7040F2D10371
:10401000C1F200031B78DAB240F23843C1F2000368
:104020001A7140F2D103C1F200031B78DBB203F135
:10403000FF3240F20003C1F200039A5C40F23843C1
:10404000C1F200035A7140F2D303C1F200034FF0F2
:1040500006021A70FA7940F2D303C1F200031B780A
:10406000DBB2104640F23841C1F200011A46FFF7B8
:1040700021FB02F0ADBA40F23843C1F200034FF029
:1040800046021A7040F23843C1F200034FF0420278
:104090005A7040F23843C1F200034FF044029A7064
:1040A00040F2D003C1F200031B78DAB240F2384389
:1040B000C1F20003DA7040F2D103C1F200031B78B1
:1040C000DAB240F23843C1F200031A7140F2D10370
:1040D000C1F200031B78DBB203F1FF3240F21003A0
:1040E000C1F200039A5C40F23843C1F200035A71F6
:1040F00040F2D303C1F200034FF006021A70FA79BE
:1041000040F2D303C1F200031B78DBB2104640F249
:104110003841C1F200011A46FFF7CCFA02F058BA52
:1041200040F23843C1F200034FF046021A7040F2E9
:104130003843C1F200034FF042025A7040F2384354
:10414000C1F200034FF044029A7040F2D003C1F272
:1041500000031B78DAB240F23843C1F20003DA7090
:1041600040F2D103C1F200031B78DAB240F23843C7
:10417000C1F200031A7140F2D103C1F200031B78AF
:10418000DBB203F1FF3240F20803C1F200039A5C94
:1041900040F23843C1F200035A7140F2D303C1F236
:1041A00000034FF006021A70FA7940F2D303C1F20D
:1041B00000031B78DBB2104640F23841C1F2000127
:1041C0001A46FFF777FA02F003BA40F2D103C1F2C0
:1041D00000031B78DBB2012B5BD140F23843C1F204
:1041E00000034FF046021A7040F23843C1F2000358
:1041F0004FF042025A7040F23843C1F200034FF0D0
:1042000044029A7040F2D003C1F200031B78DAB284
:1042100040F23843C1F20003DA7040F2D103C1F238
:1042200000031B78DAB240F23843C1F200031A717E
:104230004FF00003FB7311E0FB7B03F10502F97BF8
:1042400040F20003C1F20003595C40F23843C1F26E
:1042500000039954FB7B03F10103FB73FB7B072BEA
:10426000EAD940F2D303C1F200034FF00D021A70F5
:10427000FA7940F2D303C1F200031B78DBB2104697
:1042800040F23841C1F200011A46FFF713FA02F07A
:104290009FB940F2D103C1F200031B78DBB2022BBD
:1042A0005BD140F23843C1F200034FF046021A706E
:1042B00040F23843C1F200034FF042025A7040F21C
:1042C0003843C1F200034FF044029A7040F2D00329
:1042D000C1F200031B78DAB240F23843C1F20003A6
:1042E000DA7040F2D103C1F200031B78DAB240F277
:1042F0003843C1F200031A714FF00003FB7311E061
:10430000FB7B03F10502F97B40F21003C1F20003CD
:10431000595C40F23843C1F200039954FB7B03F12E
:104320000103FB73FB7B072BEAD940F2D303C1F2F5
:1043300000034FF00D021A70FA7940F2D303C1F274
:1043400000031B78DBB2104640F23841C1F2000195
:104350001A46FFF7AFF902F03BB940F2D103C1F2C0
:1043600000031B78DBB2042B5BD140F23843C1F26F
:1043700000034FF046021A7040F23843C1F20003C6
:104380004FF042025A7040F23843C1F200034FF03E
:1043900044029A7040F2D003C1F200031B78DAB2F3
:1043A00040F23843C1F20003DA7040F2D103C1F2A7
:1043B00000031B78DAB240F23843C1F200031A71ED
:1043C0004FF00003FB7311E0FB7B03F10502F97B67
:1043D00040F20803C1F20003595C40F23843C1F2D5
:1043E00000039954FB7B03F10103FB73FB7B072B59
:1043F000EAD940F2D303C1F200034FF00D021A7064
:10440000FA7940F2D303C1F200031B78DBB2104605
:1044100040F23841C1F200011A46FFF74BF902F0B1
:10442000D7B840F2D103C1F200031B78DBB2052BF1
:104430005BD140F23843C1F200034FF046021A70DC
:1044400040F23843C1F200034FF042025A7040F28A
:104450003843C1F200034FF044029A7040F2D00397
:10446000C1F200031B78DAB240F23843C1F2000314
:10447000DA7040F2D103C1F200031B78DAB240F2E5
:104480003843C1F200031A714FF00003FB7311E0CF
:10449000FB7B03F10502F97B40F21803C1F2000334
:1044A000595C40F23843C1F200039954FB7B03F19D
:1044B0000103FB73FB7B052BEAD940F2D303C1F266
:1044C00000034FF00B021A70FA7940F2D303C1F2E5
:1044D00000031B78DBB2104640F23841C1F2000104
:1044E0001A46FFF7E7F802F073B840F2D103C1F2C1
:1044F00000031B78DBB2062B5BD140F23843C1F2DC
:1045000000034FF046021A7040F23843C1F2000334
:104510004FF042025A7040F23843C1F200034FF0AC
:1045200044029A7040F2D003C1F200031B78DAB261
:1045300040F23843C1F20003DA7040F2D103C1F215
:1045400000031B78DAB240F23843C1F200031A715B
:104550004FF00003FB7311E0FB7B03F10502F97BD5
:1045600040F22003C1F20003595C40F23843C1F22B
:1045700000039954FB7B03F10103FB73FB7B052BC9
:10458000EAD940F2D303C1F200034FF00B021A70D4
:10459000FA7940F2D303C1F200031B78DBB2104674
:1045A00040F23841C1F200011A46FFF783F802F0E9
:1045B0000FB840F2D103C1F200031B78DBB2072B26
:1045C0005BD140F23843C1F200034FF046021A704B
:1045D00040F23843C1F200034FF042025A7040F2F9
:1045E0003843C1F200034FF044029A7040F2D00306
:1045F000C1F200031B78DAB240F23843C1F2000383
:10460000DA7040F2D103C1F200031B78DAB240F253
:104610003843C1F200031A714FF00003FB7311E03D
:10462000FB7B03F10502F97B40F22803C1F2000392
:10463000595C40F23843C1F200039954FB7B03F10B
:104640000103FB73FB7B052BEAD940F2D303C1F2D4
:1046500000034FF00B021A70FA7940F2D303C1F253
:1046600000031B78DBB2104640F23841C1F2000172
:104670001A46FFF71FF801F0ABBF40F2D103C1F2B9
:1046800000031B78DBB2082B5BD140F23843C1F248
:1046900000034FF046021A7040F23843C1F20003A3
:1046A0004FF042025A7040F23843C1F200034FF01B
:1046B00044029A7040F2D003C1F200031B78DAB2D0
:1046C00040F23843C1F20003DA7040F2D103C1F284
:1046D00000031B78DAB240F23843C1F200031A71CA
:1046E0004FF00003FB7311E0FB7B03F10502F97B44
:1046F00040F23C03C1F20003595C40F23843C1F27E
:1047000000039954FB7B03F10103FB73FB7B0F2B2D
:10471000EAD940F2D303C1F200034FF015021A7038
:10472000FA7940F2D303C1F200031B78DBB21046E2
:1047300040F23841C1F200011A46FEF7BBFF01F01A
:1047400047BF40F2D103C1F200031B78DBB2092B53
:104750005AD140F23843C1F200034FF046021A70BA
:1047600040F23843C1F200034FF042025A7040F267
:104770003843C1F200034FF044029A7040F2D00374
:10478000C1F200031B78DAB240F23843C1F20003F1
:10479000DA7040F2D103C1F200031B78DAB240F2C2
:1047A0003843C1F200031A7140F26003C1F2000302
:1047B0001B68DAB240F23843C1F200035A7140F28A
:1047C0006003C1F200031B684FEA1323DAB240F220
:1047D0003843C1F200039A7140F2D303C1F20003DF
:1047E0004FF007021A70FA7940F2D303C1F20003C6
:1047F0001B78DBB2104640F23841C1F200011A4684
:10480000FEF758FF01F0E4BE40F2D103C1F200030D
:104810001B78DBB20A2B41F0CA8640F23843C1F262
:1048200000034FF046021A7040F23843C1F2000311
:104830004FF042025A7040F23843C1F200034FF089
:1048400044029A7040F2D003C1F200031B78DAB23E
:1048500040F23843C1F20003DA7040F2D103C1F2F2
:1048600000031B78DAB240F23843C1F200031A7138
:1048700040F26403C1F200031B68DAB240F238432D
:10488000C1F200035A7140F26403C1F200031B68D5
:104890004FEA1323DAB240F23843C1F200039A71AF
:1048A00040F2D303C1F200034FF007021A70FA7905
:1048B00040F2D303C1F200031B78DBB2104640F292
:1048C0003841C1F200011A46FEF7F4FE01F080BE45
:1048D00040F2D103C1F200031B78DAB240F27B034D
:1048E000C1F200031A7040F2BC03C1F200034FF0A2
:1048F00001021A7040F2BD03C1F200034FF0010241
:104900001A7001F065BE40F2D103C1F200031B78BA
:10491000DAB240F27C03C1F200031A7040F2BC0329
:10492000C1F200034FF001021A7040F2BD03C1F260
:1049300000034FF002021A7001F04ABE40F2D103A8
:10494000C1F200031B78DAB240F27D03C1F200032A
:104950001A7040F2BC03C1F200034FF001021A705A
:1049600040F2BD03C1F200034FF003021A7001F0E0
:104970002FBE40F2D103C1F200031B78DBB2012B42
:104980000FD140F2B603C1F200034FF001021A70DA
:1049900040F2B903C1F200034FF001021A7001F0B6
:1049A00017BE40F2D103C1F200031B78DBB2022B29
:1049B0000FD140F2B603C1F200034FF001021A70AA
:1049C00040F2B903C1F200034FF000021A7001F087
:1049D000FFBD40F2D103C1F200031B78DBB2032B11
:1049E0000FD140F2B703C1F200034FF001021A7079
:1049F00040F2BA03C1F200034FF001021A7001F055
:104A0000E7BD40F2D103C1F200031B78DBB2042BF7
:104A10000FD140F2B703C1F200034FF001021A7048
:104A200040F2BA03C1F200034FF000021A7001F025
:104A3000CFBD40F2D103C1F200031B78DBB2052BDE
:104A40000FD140F2B803C1F200034FF001021A7017
:104A500040F2BB03C1F200034FF001021A7001F0F3
:104A6000B7BD40F2D103C1F200031B78DBB2062BC5
:104A70000FD140F2B803C1F200034FF001021A70E7
:104A800040F2BB03C1F200034FF000021A7001F0C4
:104A90009FBD40F2D103C1F200031B78DBB2072BAC
:104AA0000FD14CF22003C2F209034FF000529A6179
:104AB00040F26B03C1F200034FF001021A7001F0E3
:104AC00087BD40F2D103C1F200031B78DBB2082B93
:104AD00041F06F854CF22003C2F209034FF00052FF
:104AE000DA6140F26B03C1F200034FF000021A706A
:104AF00001F06EBD40F2D103C1F200031B78DBB2BE
:104B0000012B4DD140F23843C1F200034FF0460271
:104B10001A7040F23843C1F200034FF042025A705B
:104B200040F23843C1F200034FF044029A7040F261
:104B3000D003C1F200031B78DAB240F23843C1F26D
:104B40000003DA7040F2D103C1F200031B78DAB23D
:104B500040F23843C1F200031A7140F2B903C1F2C6
:104B600000031B78DAB240F23843C1F200035A71F5
:104B700040F2D303C1F200034FF006021A70FA7933
:104B800040F2D303C1F200031B78DBB2104640F2BF
:104B90003841C1F200011A46FEF78CFD01F018BD44
:104BA00040F2D103C1F200031B78DBB2022B4DD1DE
:104BB00040F23843C1F200034FF046021A7040F24F
:104BC0003843C1F200034FF042025A7040F23843BA
:104BD000C1F200034FF044029A7040F2D003C1F2D8
:104BE00000031B78DAB240F23843C1F20003DA70F6
:104BF00040F2D103C1F200031B78DAB240F238432D
:104C0000C1F200031A7140F2BA03C1F200031B782B
:104C1000DAB240F23843C1F200035A7140F2D303D2
:104C2000C1F200034FF006021A70FA7940F2D30382
:104C3000C1F200031B78DBB2104640F23841C1F2EA
:104C400000011A46FEF736FD01F0C2BC40F2D10366
:104C5000C1F200031B78DBB2032B4DD140F2384385
:104C6000C1F200034FF046021A7040F23843C1F21D
:104C700000034FF042025A7040F23843C1F2000381
:104C80004FF044029A7040F2D003C1F200031B7847
:104C9000DAB240F23843C1F20003DA7040F2D103D5
:104CA000C1F200031B78DAB240F23843C1F20003CC
:104CB0001A7140F2BB03C1F200031B78DAB240F272
:104CC0003843C1F200035A7140F2D303C1F200032A
:104CD0004FF006021A70FA7940F2D303C1F20003D2
:104CE0001B78DBB2104640F23841C1F200011A468F
:104CF000FEF7E0FC01F06CBC40F2D103C1F200030E
:104D00001B78DBB2042B41F0568440F23843C1F2E9
:104D100000034FF046021A7040F23843C1F200031C
:104D20004FF042025A7040F23843C1F200034FF094
:104D300044029A7040F2D003C1F200031B78DAB249
:104D400040F23843C1F20003DA7040F2D103C1F2FD
:104D500000031B78DAB240F23843C1F200031A7143
:104D600040F26B03C1F200031A7840F23843C1F2FB
:104D700000035A7140F2D303C1F200034FF0060260
:104D80001A70FA7940F2D303C1F200031B78DBB248
:104D9000104640F23841C1F200011A46FEF78AFC83
:104DA00001F016BC40F2D103C1F200031B78DBB264
:104DB000012B56D140F23843C1F200034FF04602B6
:104DC0001A7040F23843C1F200034FF042025A70A9
:104DD00040F23843C1F200034FF044029A7040F2AF
:104DE000D003C1F200031B78DAB240F23843C1F2BB
:104DF0000003DA7040F2D103C1F200031B78DAB28B
:104E000040F23843C1F200031A7140F21803C1F2B4
:104E100000031A7840F23843C1F200035A7140F29D
:104E20001803C1F200035A7840F23843C1F200037C
:104E30009A7140F2D303C1F200034FF007021A70D7
:104E4000FA7940F2D303C1F200031B78DBB21046BB
:104E500040F23841C1F200011A46FEF72BFC01F086
:104E6000B7BB40F2D103C1F200031B78DBB2022BC7
:104E700056D140F23843C1F200034FF046021A7097
:104E800040F23843C1F200034FF042025A7040F240
:104E90003843C1F200034FF044029A7040F2D0034D
:104EA000C1F200031B78DAB240F23843C1F20003CA
:104EB000DA7040F2D103C1F200031B78DAB240F29B
:104EC0003843C1F200031A7140F21803C1F2000323
:104ED0009A7840F23843C1F200035A7140F2180345
:104EE000C1F20003DA7840F23843C1F200039A714C
:104EF00040F2D303C1F200034FF007021A70FA79AF
:104F000040F2D303C1F200031B78DBB2104640F23B
:104F10003841C1F200011A46FEF7CCFB01F058BB44
:104F200040F2D103C1F200031B78DBB2032B41F046
:104F3000448340F23843C1F200034FF046021A7036
:104F400040F23843C1F200034FF042025A7040F27F
:104F50003843C1F200034FF044029A7040F2D0038C
:104F6000C1F200031B78DAB240F23843C1F2000309
:104F7000DA7040F2D103C1F200031B78DAB240F2DA
:104F80003843C1F200031A7140F21803C1F2000362
:104F90001A7940F23843C1F200035A7140F2180303
:104FA000C1F200035A7940F23843C1F200039A710A
:104FB00040F2D303C1F200034FF007021A70FA79EE
:104FC00040F2D303C1F200031B78DBB2104640F27B
:104FD0003841C1F200011A46FEF76CFB01F0F8BA45
:104FE00040F2D103C1F200031B78DBB2012B56D192
:104FF00040F23843C1F200034FF046021A7040F20B
:105000003843C1F200034FF042025A7040F2384375
:10501000C1F200034FF044029A7040F2D003C1F293
:1050200000031B78DAB240F23843C1F20003DA70B1
:1050300040F2D103C1F200031B78DAB240F23843E8
:10504000C1F200031A7140F22003C1F200031A7882
:1050500040F23843C1F200035A7140F22003C1F21A
:1050600000035A7840F23843C1F200039A7140F2CB
:10507000D303C1F200034FF007021A70FA7940F22D
:10508000D303C1F200031B78DBB2104640F2384173
:10509000C1F200011A46FEF70DFB01F099BA40F289
:1050A000D103C1F200031B78DBB2022B56D140F2D0
:1050B0003843C1F200034FF046021A7040F2384301
:1050C000C1F200034FF042025A7040F23843C1F27D
:1050D00000034FF044029A7040F2D003C1F2000383
:1050E0001B78DAB240F23843C1F20003DA7040F2C2
:1050F000D103C1F200031B78DAB240F23843C1F2A7
:1051000000031A7140F22003C1F200039A7840F2C2
:105110003843C1F200035A7140F22003C1F2000388
:10512000DA7840F23843C1F200039A7140F2D303B7
:10513000C1F200034FF007021A70FA7940F2D3036C
:10514000C1F200031B78DBB2104640F23841C1F2D5
:1051500000011A46FEF7AEFA01F03ABA40F2D10366
:10516000C1F200031B78DBB2032B41F0288240F22E
:105170003843C1F200034FF046021A7040F2384340
:10518000C1F200034FF042025A7040F23843C1F2BC
:1051900000034FF044029A7040F2D003C1F20003C2
:1051A0001B78DAB240F23843C1F20003DA7040F201
:1051B000D103C1F200031B78DAB240F23843C1F2E6
:1051C00000031A7140F22003C1F200031A7940F281
:1051D0003843C1F200035A7140F22003C1F20003C8
:1051E0005A7940F23843C1F200039A7140F2D30376
:1051F000C1F200034FF007021A70FA7940F2D303AC
:10520000C1F200031B78DBB2104640F23841C1F214
:1052100000011A46FEF74EFA01F0DAB940F2D10366
:10522000C1F200031B78DBB2012B56D140F23843A8
:10523000C1F200034FF046021A7040F23843C1F247
:1052400000034FF042025A7040F23843C1F20003AB
:105250004FF044029A7040F2D003C1F200031B7871
:10526000DAB240F23843C1F20003DA7040F2D103FF
:10527000C1F200031B78DAB240F23843C1F20003F6
:105280001A7140F22803C1F200031A7840F2384341
:10529000C1F200035A7140F22803C1F200035A78A8
:1052A00040F23843C1F200039A7140F2D303C1F2D5
:1052B00000034FF007021A70FA7940F2D303C1F2EB
:1052C00000031B78DBB2104640F23841C1F2000106
:1052D0001A46FEF7EFF901F07BB940F2D103C1F2B3
:1052E00000031B78DBB2022B56D140F23843C1F2E7
:1052F00000034FF046021A7040F23843C1F2000337
:105300004FF042025A7040F23843C1F200034FF0AE
:1053100044029A7040F2D003C1F200031B78DAB263
:1053200040F23843C1F20003DA7040F2D103C1F217
:1053300000031B78DAB240F23843C1F200031A715D
:1053400040F22803C1F200039A7840F23843C1F2D8
:1053500000035A7140F22803C1F20003DA7840F2E8
:105360003843C1F200039A7140F2D303C1F2000343
:105370004FF007021A70FA7940F2D303C1F200032A
:105380001B78DBB2104640F23841C1F200011A46E8
:10539000FEF790F901F01CB940F2D103C1F200030D
:1053A0001B78DBB2032B41F00C8140F23843C1F291
:1053B00000034FF046021A7040F23843C1F2000376
:1053C0004FF042025A7040F23843C1F200034FF0EE
:1053D00044029A7040F2D003C1F200031B78DAB2A3
:1053E00040F23843C1F20003DA7040F2D103C1F257
:1053F00000031B78DAB240F23843C1F200031A719D
:1054000040F22803C1F200031A7940F23843C1F296
:1054100000035A7140F22803C1F200035A7940F2A6
:105420003843C1F200039A7140F2D303C1F2000382
:105430004FF007021A70FA7940F2D303C1F2000369
:105440001B78DBB2104640F23841C1F200011A4627
:10545000FEF730F901F0BCB840F23843C1F2000366
:105460004FF046021A7040F23843C1F200034FF089
:1054700042025A7040F23843C1F200034FF0440236
:105480009A7040F2D003C1F200031B78DAB240F206
:105490003843C1F20003DA7040F2D103C1F20003D5
:1054A0001B78DAB240F23843C1F200031A7140F2BD
:1054B0003003C1F200031A7840F23843C1F200030E
:1054C0005A7140F2D303C1F200034FF006021A7082
:1054D000FA7940F2D303C1F200031B78DBB2104625
:1054E00040F23841C1F200011A46FEF7E3F801F03C
:1054F0006FB840F23843C1F200034FF046021A7011
:1055000040F23843C1F200034FF042025A7040F2B9
:105510003843C1F200034FF044029A7040F2D003C6
:10552000C1F200031B78DAB240F23843C1F2000343
:10553000DA7040F2D103C1F200031B78DAB240F214
:105540003843C1F200031A7140F23003C1F2000384
:105550005A7840F23843C1F200035A7140F2D30343
:10556000C1F200034FF006021A70FA7940F2D30339
:10557000C1F200031B78DBB2104640F23841C1F2A1
:1055800000011A46FEF796F801F022B840F23843BF
:10559000C1F200034FF046021A7040F23843C1F2E4
:1055A00000034FF042025A7040F23843C1F2000348
:1055B0004FF044029A7040F2D003C1F200031B780E
:1055C000DAB240F23843C1F20003DA7040F2D1039C
:1055D000C1F200031B78DAB240F23843C1F2000393
:1055E0001A7140F23003C1F200039A7840F2384356
:1055F000C1F200035A7140F2D303C1F200034FF02D
:1056000006021A70FA7940F2D303C1F200031B7844
:10561000DBB2104640F23841C1F200011A46FEF7F3
:1056200049F800F0D5BF40F2D103C1F200031B7866
:10563000DBB2002B40F0C78740F23843C1F20003D1
:105640004FF046021A7040F23843C1F200034FF0A7
:1056500042025A7040F23843C1F200034FF0440254
:105660009A7040F2D003C1F200031B78DAB240F224
:105670003843C1F20003DA7040F2D103C1F20003F3
:105680001B78DAB240F23843C1F200031A7140F2DB
:105690003003C1F200031A7840F23843C1F200032C
:1056A0005A7140F23003C1F200035A7840F2384395
:1056B000C1F200039A7140F23003C1F200039A78FC
:1056C00040F23843C1F20003DA7140F2D303C1F271
:1056D00000034FF008021A70FA7940F2D303C1F2C6
:1056E00000031B78DBB2104640F23841C1F20001E2
:1056F0001A46FDF7DFFF00F06BBF40F23843C1F2FE
:1057000000034FF046021A7040F23843C1F2000322
:105710004FF042025A7040F23843C1F200034FF09A
:1057200044029A7040F2D003C1F200031B78DAB24F
:1057300040F23843C1F20003DA7040F2D103C1F203
:1057400000031B78DAB240F23843C1F200031A7149
:105750004FF00003FB7311E0FB7B03F10502F97BC3
:1057600040F20003C1F20003595C40F23843C1F239
:1057700000039954FB7B03F10103FB73FB7B072BB5
:10578000EAD940F2D303C1F200034FF005021A70C8
:105790004FF00003FB7311E0FB7B03F10D02F97B7B
:1057A00040F21003C1F20003595C40F23843C1F2E9
:1057B00000039954FB7B03F10103FB73FB7B072B75
:1057C000EAD940F2D303C1F200031B78DBB203F144
:1057D0000D03DAB240F2D303C1F200031A704FF0A6
:1057E0000003FB7311E0FB7B03F11502F97B40F230
:1057F0000803C1F20003595C40F23843C1F20003D0
:105800009954FB7B03F10103FB73FB7B072BEAD964
:1058100040F2D303C1F200031B78DBB203F115039E
:10582000DAB240F2D303C1F200031A704FF0000362
:10583000FB7311E0FB7B03F11D02F97B40F21803BF
:10584000C1F20003595C40F23843C1F2000399549D
:10585000FB7B03F10103FB73FB7B052BEAD940F2D1
:10586000D303C1F200031B78DBB203F11D03DAB2EC
:1058700040F2D303C1F200031A704FF00003FB7330
:1058800011E0FB7B03F12302F97B40F22003C1F21C
:105890000003595C40F23843C1F200039954FB7B8A
:1058A00003F10103FB73FB7B052BEAD940F2D30321
:1058B000C1F200031B78DBB203F12303DAB240F23A
:1058C000D303C1F200031A704FF00003FB7311E021
:1058D000FB7B03F12902F97B40F22803C1F20003AC
:1058E000595C40F23843C1F200039954FB7B03F149
:1058F0000103FB73FB7B052BEAD940F2D303C1F212
:1059000000031B78DBB203F12903DAB240F2D303C0
:10591000C1F200031A7040F26003C1F200031B6879
:10592000DAB240F23843C1F2000383F82F2040F28C
:105930006003C1F200031B684FEA1323DAB240F29E
:105940003843C1F2000383F8302040F2D303C1F2A0
:1059500000031B78DBB203F12F03DAB240F2D3036A
:10596000C1F200031A7040F26403C1F200031B6825
:10597000DAB240F23843C1F2000383F8312040F23A
:105980006403C1F200031B684FEA1323DAB240F24A
:105990003843C1F2000383F8322040F2D303C1F24E
:1059A00000031B78DBB203F13103DAB240F2D30318
:1059B000C1F200031A704FF00003FB7311E0FB7B90
:1059C00003F13302F97B40F23003C1F20003595C6A
:1059D00040F23843C1F200039954FB7B03F1010309
:1059E000FB73FB7B022BEAD940F2D303C1F2000325
:1059F0001B78DBB203F13303DAB240F2D303C1F216
:105A000000031A7040F2D303C1F200034FF03602D4
:105A10001A70FA7940F2D303C1F200031B78DBB2AB
:105A2000104640F23841C1F200011A46FDF742FE2D
:105A300000F0CEBD40F27A03C1F200034FF0010244
:105A40001A7040F2D103C1F200031B78DAB240F2BF
:105A5000E003C1F200031A7040F26A03C1F20003CE
:105A60004FF001021A7000F0B3BD40F26803C1F2BA
:105A700000034FF001021A7000F0AABD40F2D103FA
:105A8000C1F200031B78DAB240F2E103C1F2000375
:105A90001A7040F26903C1F200034FF001021A705C
:105AA00000F096BD40F23843C1F200034FF04602C9
:105AB0001A7040F23843C1F200034FF042025A70AC
:105AC00040F23843C1F200034FF044029A7040F2B2
:105AD000D003C1F200031B78DAB240F23843C1F2BE
