:100000000080001029010000F5000000F70000004A
:10001000F9000000FB000000FD00000000000000EF
:10002000000000000000000000000000FF000000D1
:1000300001010000000000000301000005010000B4
:100040006901000069010000690100006901000008
:1000500069010000D542000061440000F545000040
:10006000B547000069010000791300002518000061
:10007000E91C00006901000069010000690100003D
:1000800069010000690100006901000069010000C8
:1000900069010000690100006901000069010000B8
:1000A00069010000690100006901000069010000A8
:1000B0006901000069010000690100006901000098
:1000C000690100006901000069010000248400004A
:1000D00000000010600000002484000000C0072021
:1000E0000000000060000010C005000000C00720F4
:1000F00000000000FEE7FEE7FEE7FEE7FEE7FEE7A2
:10010000FEE7FEE7FEE710B5002302E01C585C5056
:1001100004339342FAD310BD002302E000221A50A8
:1001200004338B42FAD3704710B50C4C05E02068BD
:100130006168A2680C34FFF7E6FF094B9C42F6D3D6
:1001400004E0206861680834FFF7E6FF054B9C4235
:10015000F7D300F011FD07F011FEFEE7CC00000020
:10016000E4000000F4000000FEE700BFFFFFFFFF17
:10017000FFFFFFFFFFFFFFFFFFFFFFFFFFFFFFFF8F
:10018000FFFFFFFFFFFFFFFFFFFFFFFFFFFFFFFF7F
:10019000FFFFFFFFFFFFFFFFFFFFFFFFFFFFFFFF6F
:1001A000FFFFFFFFFFFFFFFFFFFFFFFFFFFFFFFF5F
:1001B000FFFFFFFFFFFFFFFFFFFFFFFFFFFFFFFF4F
:1001C000FFFFFFFFFFFFFFFFFFFFFFFFFFFFFFFF3F
:1001D000FFFFFFFFFFFFFFFFFFFFFFFFFFFFFFFF2F
:1001E000FFFFFFFFFFFFFFFFFFFFFFFFFFFFFFFF1F
:1001F000FFFFFFFFFFFFFFFFFFFFFFFFFFFFFFFF0F
:10020000FFFFFFFFFFFFFFFFFFFFFFFFFFFFFFFFFE
:10021000FFFFFFFFFFFFFFFFFFFFFFFFFFFFFFFFEE
:10022000FFFFFFFFFFFFFFFFFFFFFFFFFFFFFFFFDE
:10023000FFFFFFFFFFFFFFFFFFFFFFFFFFFFFFFFCE
:10024000FFFFFFFFFFFFFFFFFFFFFFFFFFFFFFFFBE
:10025000FFFFFFFFFFFFFFFFFFFFFFFFFFFFFFFFAE
:10026000FFFFFFFFFFFFFFFFFFFFFFFFFFFFFFFF9E
:10027000FFFFFFFFFFFFFFFFFFFFFFFFFFFFFFFF8E
:10028000FFFFFFFFFFFFFFFFFFFFFFFFFFFFFFFF7E
:10029000FFFFFFFFFFFFFFFFFFFFFFFFFFFFFFFF6E
:1002A000FFFFFFFFFFFFFFFFFFFFFFFFFFFFFFFF5E
:1002B000FFFFFFFFFFFFFFFFFFFFFFFFFFFFFFFF4E
:1002C000FFFFFFFFFFFFFFFFFFFFFFFFFFFFFFFF3E
:1002D000FFFFFFFFFFFFFFFFFFFFFFFFFFFFFFFF2E
:1002E000FFFFFFFFFFFFFFFFFFFFFFFFFFFFFFFF1E
:1002F000FFFFFFFFFFFFFFFFFFFFFFFFFFFFFFFF0E
:1003000080B400AF4CF22003C2F209031B684CF228
:100310002003C2F209034FF000021A604CF22003DE
:10032000C2F209034CF22002C2F20902126842F042
:10033000F0521A60BD4680BC704700BF80B400AF69
:100340004CF24003C2F209031B684CF24003C2F2B4
:1003500009034FF000021A60BD4680BC704700BF21
:1003600080B500AF00F0B0F84FF002004FF4E1317B
:1003700004F0EAFA02F0FCFE40F2E103C1F20003ED
:100380004FF001021A7040F2E103C1F200031B7842
:10039000DBB2184603F0BAF803F08EF9FFF7B0FFAE
:1003A00000F0C0F8FFF7CAFF4AF22010C0F20700C1
:1003B00000F0F2FD4CF22003C2F209034CF22002DD
:1003C000C2F20902126842F000521A604CF2200395
:1003D000C2F209034FF00052DA6101F0DFFF01F0D1
:1003E00013FF4FF0000001F0E1FE4FF0020040F675
:1003F000F87103F0E5FD02F053F801F061FF4FF0F2
:10040000010001F0D3FE02F02DF902F025FA02F00E
:100410001DFB00F02BF802F023FC4FF003004FF41B
:10042000E13104F091FA4FF000004FF4165104F05E
:100430008BFA4FF001004FF4E13104F085FA80BDF2
:1004400080B483B000AF4FF000037B604FF0000337
:100450007B6003E07B6803F101037B607B68632BB7
:10046000F8D907F10C07BD4680BC704780B485B051
:1004700000AF4FF00003FB604FF00003BB604FF094
:1004800000037B604FF00003BB6014E04FF00003FB
:10049000FB6007E07B6803F101037B60FB6803F10D
:1004A0000103FB60FA684EF65F239A42F2D9BB68FB
:1004B00003F10103BB60BB686D2BE7D907F114079B
:1004C000BD4680BC704700BF80B485B000AF4FF020
:1004D0000003FB604FF00003BB604FF000037B6044
:1004E0004FF00003BB6014E04FF00003FB6007E037
:1004F0007B6803F101037B60FB6803F10103FB6090
:10050000FA684EF65F239A42F2D9BB6803F1010301
:10051000BB60BB680A2BE7D907F11407BD4680BC56
:10052000704700BF80B500AF4CF22003C2F2090350
:100530004FF000729A61FFF7C7FF4CF22003C2F23E
:1005400009034FF00072DA614CF22003C2F2090392
:100550004FF080629A61FFF7B7FF4CF22003C2F2BE
:1005600009034FF08062DA614CF22003C2F2090302
:100570004FF000629A61FFF7A7FF4CF22003C2F22E
:1005800009034FF00062DA614CF22003C2F2090362
:100590004FF080529A61FFF797FF4CF22003C2F2AE
:1005A00009034FF08052DA6180BD00BF80B500AF13
:1005B00040F23000C1F2000000F046FE03F0C6FB3E
:1005C00040F20800C1F2000003F03AFB03F014FB14
:1005D00040F20000C1F2000003F088FA03F060FC72
:1005E00040F21000C1F2000003F0D4FB40F2200002
:1005F000C1F2000002F0B4F840F21800C1F20000AD
:1006000002F0A8F940F22800C1F2000002F0A2FABC
:1006100003F066F903F0E4F840F26803C1F2000366
:100620001B78012B08D102F01DFF40F26803C1F2D4
:1006300000034FF000021A7002F000FE03461A4653
:1006400040F2E803C1F200031A6002F081FE0346A3
:100650001A4640F2E403C1F200031A6040F2690353
:10066000C1F200031B78012B18D140F2E103C1F263
:1006700000031B78DBB2184602F048FF02F07CFF53
:1006800003461A4640F2E103C1F200031A7040F239
:100690006903C1F200034FF000021A7040F26A03CE
:1006A000C1F200031B78012B13D140F2E003C1F229
:1006B00000031B78DBB2012B02D102F05FFD01E0E9
:1006C00002F08CFD40F26A03C1F200034FF0000219
:1006D0001A7040F26C03C1F200031B78012B1ED18B
:1006E00040F27003C1F20003186840F27803C1F2CF
:1006F0000003197840F27403C1F200031A6840F253
:100700007903C1F200031B7849B25BB203F004F92C
:1007100040F26C03C1F200034FF000021A704FF078
:10072000050000F0FDFC024640F26003C1F2000348
:100730001A604FF0010000F0F3FC024640F264033F
:10074000C1F200031A6040F2BC03C1F200031B783F
:10075000DBB2012B3AD140F2BD03C1F200031B789A
:10076000DBB2012B0BD140F27B03C1F200031B78FB
:10077000DBB218464FF0010103F0B6FB26E040F271
:10078000BD03C1F200031B78DBB2022B0BD140F298
:100790007C03C1F200031B78DBB218464FF0020164
:1007A00003F0A2FB12E040F2BD03C1F200031B788C
:1007B000DBB2032B0AD140F27D03C1F200031B78A8
:1007C000DBB218464FF0030103F08EFB4CF24003FE
:1007D000C2F209035B6903F48063002B07D14CF27A
:1007E0002003C2F209034FF000729A6106E04CF256
:1007F0002003C2F209034FF00072DA614CF24003A9
:10080000C2F209035B6903F40063002B07D14CF2C9
:100810002003C2F209034FF080629A6106E04CF2B5
:100820002003C2F209034FF08062DA614CF2400308
:10083000C2F209035B6903F48053002B07D14CF229
:100840002003C2F209034FF000629A6106E04CF205
:100850002003C2F209034FF00062DA614CF2400358
:10086000C2F209035B6903F40053002B07D14CF279
:100870002003C2F209034FF080529A6106E04CF265
:100880002003C2F209034FF08052DA6140F23C00CB
:10089000C1F2000003F006FC80BD00BF00000000B4
:1008A00080B586B000AF4FF000037B61B04B3B6179
:1008B000AF4BFB60AE4BBB60AD4B7B6000F05CF9B7
:1008C00000F04EFAFFF74CFD40F2B603C1F2000310
:1008D0004FF001021A7040F2B903C1F200034FF069
:1008E00000021A7040F2B703C1F200034FF0010298
:1008F0001A7040F2BA03C1F200034FF000021A70FE
:100900004FF001004FF0010102F058FB4FF01400CE
:1009100048F2E031C0F2000102F0E4F94FF00200C9
:100920004FF0100102F04AFB4FF0020048F2F8319C
:10093000C0F2000102F0D6F94FF003004FF01001B1
:1009400002F03CFB4FF0020048F2FC31C0F2000123
:1009500002F0C8F94FF004004FF0100102F02EFB36
:100960004FF0050048F20041C0F2000102F0BAF970
:100970004FF002004FF0070102F020FB4FF004009F
:1009800048F20841C0F2000102F0ACF94FF0030058
:100990004FF0070102F012FB4FF0040048F2104143
:1009A000C0F2000102F09EF900E000BFFFF7FEFD7B
:1009B00040F23003C1F200031B78184607F0F0FC48
:1009C0000346184607F0F0FC02460B46104619464F
:1009D0005FA3D3E9002307F0D3F902460B46104684
:1009E00019464FF000024FF0804303F5101307F053
:1009F000C7F902460B461046194607F081FC03462C
:100A00003B6140F23003C1F200035B78184607F007
:100A1000C7FC0346184607F0C7FC02460B461046C3
:100A200019464DA3D3E9002307F0AAF902460B4665
:100A30004FF000004FF0804101F5802107F0D6FA19
:100A400002460B461046194645A3D3E9002307F09A
:100A50002BFA02460B46104619464FF000024FF0A3
:100A6000804303F5B20307F08BF902460B461046AC
:100A7000194607F045FC0346FB6040F23003C1F223
:100A800000039B78184607F08BFC0346184607F0D6
:100A90008BFC02460B461046194633A3D3E90023CC
:100AA00007F06EF902460B461046194607F028FC7F
:100AB0000346BB607B6903F101037B617B690A2B01
:100AC0007FF473AF386907F045FC03464FF002002E
:100AD0004FF012011A464FF0030302F04BF9F86889
:100AE00007F038FC03464FF003004FF012011A469E
:100AF0004FF0030302F03EF9B86807F02BFC034601
:100B00004FF004004FF012011A464FF0030302F0B9
:100B100031F9786807F01EFC03464FF002004FF0F1
:100B20000B011A464FF0040302F024F940F260036F
:100B3000C1F200031B684FF003004FF00B011A468F
:100B40004FF0040302F016F94FF000037B612DE72C
:100B50005B423EE8D9ACAA3FB37BF2B0506B8A3F10
:100B6000AE47E17A14AEC73FA4703D0AD7A3F43F65
:100B700000000000AFF3008080B483B000AF4FF0FE
:100B800000037B604FF44043C4F20F034FF0200298
:100B9000C3F8A02100BF4FF44043C4F20F03D3F8C1
:100BA000A03103F04003002BF5D04FF44043C4F2D2
:100BB0000F034FF00202C3F804214FF44043C4F284
:100BC0000F034FF00002C3F8A8214FF44043C4F2D2
:100BD0000F034FF00002C3F8AC214FF44043C4F2BE
:100BE0000F034FF00102C3F80C214FF44043C4F24D
:100BF0000F034FF05902C0F20502C3F884204FF4EE
:100C00004043C4F20F034FF00102C3F880204FF4B9
:100C10004043C4F20F034FF0AA02C3F88C204FF4F4
:100C20004043C4F20F034FF05502C3F88C204FF439
:100C30004043C4F20F03D3F80C31022B0BD000BF9A
:100C40004FF44043C4F20F03D3F8883003F08063BD
:100C5000002BF5D00AE04FF000037B6003E07B68D7
:100C600003F101037B607B68642BF8D94FF44043A8
:100C7000C4F20F034FF00302C3F880204FF4404347
:100C8000C4F20F034FF0AA02C3F88C204FF4404384
:100C9000C4F20F034FF05502C3F88C204FF44043C9
:100CA000C4F20F034FF02302C3F8A4204FF44043D3
:100CB000C4F20F034FF00102C3F8A0204FF44043E9
:100CC000C4F20F034FF0AA02C3F8AC204FF4404324
:100CD000C4F20F034FF05502C3F8AC2000BF4FF42D
:100CE0004043C4F20F03D3F8A83003F48063002B11
:100CF000F5D04FF44043C4F20F034FF00302C3F8A2
:100D0000A0204FF44043C4F20F034FF0AA02C3F8EF
:100D1000AC204FF44043C4F20F034FF05502C3F828
:100D2000AC204FF44043C4F20F0348F2DE72C0F22D
:100D30002842C3F8C4204FF44043C4F20F034FF0DD
:100D40000002C3F8C8214FF44043C4F20F0343F23A
:100D50003A021A6007F10C07BD4680BC704700BF1D
:100D600080B400AF4FF44043C4F20F03D3F888308F
:100D70004FEA136303F00303032B40F0B2804FF4F8
:100D80004043C4F20F03D3F80C3103F00303032BE9
:100D900000F2FD8001A252F823F000BFAD0D00006B
:100DA000150E00007F0E0000AD0D00004FF4404313
:100DB000C4F20F03D3F888304FEA43434FEA53435A
:100DC00003F101034FEA43024FF44043C4F20F031F
:100DD000D3F888304FEA134303F0FF0303F1010314
:100DE000B2FBF3F24FF41063C0F23D0303FB02F2D7
:100DF0004FF44043C4F20F03D3F8043103F0FF0370
:100E000003F10103B2FBF3F240F25403C1F2000319
:100E10001A60BDE04FF44043C4F20F03D3F88830AA
:100E20004FEA43434FEA534303F101034FEA4302BE
:100E30004FF44043C4F20F03D3F888304FEA134312
:100E400003F0FF0303F10103B2FBF3F24FF4D853B5
:100E5000C0F2B70303FB02F24FF44043C4F20F03A6
:100E6000D3F8043103F0FF0303F10103B2FBF3F203
:100E700040F25403C1F200031A6000BF88E04FF44F
:100E80004043C4F20F03D3F888304FEA43434FEA9C
:100E9000534303F101034FEA43024FF44043C4F2CA
:100EA0000F03D3F888304FEA134303F0FF0303F135
:100EB0000103B2FBF3F34FF4FA4202FB03F24FF4E7
:100EC0004043C4F20F03D3F8043103F0FF0303F1EE
:100ED0000103B2FBF3F240F25403C1F200031A60C3
:100EE00056E04FF44043C4F20F03D3F80C3103F043
:100EF0000303032B4CD801A252F823F00D0F00007E
:100F0000390F0000650F00000D0F00004FF4404343
:100F1000C4F20F03D3F8043103F0FF0303F101021D
:100F20004FF41063C0F23D03B3FBF2F240F25403FE
:100F3000C1F200031A602BE04FF44043C4F20F03E8
:100F4000D3F8043103F0FF0303F101024FF4D85347
:100F5000C0F2B703B3FBF2F240F25403C1F2000354
:100F60001A6015E04FF44043C4F20F03D3F8043184
:100F700003F0FF0303F101034FF4FA42B2FBF3F273
:100F800040F25403C1F200031A6000BF00E000BF4A
:100F9000BD4680BC704700BF80B487B000AF7860AA
:100FA0004FF44043C4F20F034FF44042C4F20F0227
:100FB000D2F8C42042F48052C3F8C4204FF000039A
:100FC0007B610CE040F2EC03C1F200037A694FF060
:100FD000000143F822107B6903F101037B617B6907
:100FE000052BEFD94FF44043C4F202034FF44042C3
:100FF000C4F20202526822F440325A604FF4404375
:10100000C4F202034FF44042C4F20202526842F4B6
:1010100080325A604FF44043C4F202034FF440421E
:10102000C4F20202526C22F440325A644FF440433C
:10103000C4F202034FF44042C4F20202526C42F482
:1010400000325A644FF44043C4F202034FF440426A
:10105000C4F20202D26842F04042DA604FF44043E8
:10106000C4F202034FF44042C4F20202D26C22F0F6
:101070004042DA644FF44043C4F202034FF440426A
:10108000C4F20202D26C42F00042DA644FF44043F0
:10109000C4F20F03D3F8A8314FEA136303F003033C
:1010A000FB60FB68022B13D0032B1AD0012B08D056
:1010B00040F25403C1F200031B684FEA93033B6103
:1010C00018E040F25403C1F200031B683B6111E0D9
:1010D00040F25403C1F200031B684FEA53033B6123
:1010E00008E040F25403C1F200031B684FEAD30347
:1010F0003B6100BF4FF48043C4F2030339697A684F
:10110000B1FBF2F202F1FF324FEA022242F4001286
:1011100042F001021A6007F11C07BD4680BC70470F
:1011200080B485B000AF0346FB71FB79052B02D973
:101130004FF00003FB714FF48043C4F203034FF4FC
:101140008042C4F20302126822F0FF021A604FF4D8
:101150008043C4F203034FF48042C4F203021268D6
:101160001146FA794FF0010000FA02F241EA020258
:1011700042F080721A6000E000BF4FF48043C4F276
:101180000303FA7902F1040253F82230FB60FB6892
:10119000002BF1DA4FF48043C4F203034FF4804292
:1011A000C4F20302126822F0E0621A60FB6803F0E6
:1011B0008043002B02D04FF0000308E0FB684FEAA9
:1011C00013134FEA03534FEA1353BB60BB6818462F
:1011D00007F11407BD4680BC704700BF80B584B0DE
:1011E00000AF02460B46FA71BB7140F29023C1F288
:1011F00000034FF002025A60BA7940F20413C1F2C0
:1012000000035A6040F2D013C1F200034FF0F8021D
:1012100083F8402040F2D013C1F20003FA7983F83A
:10122000412040F2D013C1F200034FF0F90283F8DD
:1012300042204FF0010001F0B5F9F860FB68184654
:1012400007F11007BD4680BD80B584B000AF78605F
:101250004FF00003FB734FF00003BB6040F210132C
:10126000C1F200034FF0000283F8402040F2101357
:10127000C1F200034FF0000283F8412040F2101346
:10128000C1F200034FF0000283F842204FF031001A
:101290004FF00301FFF7A2FF03460C2B1AD14FF0CA
:1012A0000003FB7310E0FB7B7A68D218F97B40F2F5
:1012B0001013C1F200035B1893F84030DBB21370D7
:1012C000FB7B03F10103FB73FB7B022BEBD94FF09C
:1012D0000103BB60FFF7B4F8BB68184607F11007BD
:1012E000BD4680BD80B483B000AF0346FB714FF4B0
:1012F0006143CEF2000397F907204FEA5212F979C1
:1013000001F01F014FF0010000FA01F143F8221033
:1013100007F10C07BD4680BC704700BF80B483B0A6
:1013200000AF03463960FB7197F90730002B10DAE4
:101330004FF46D43CEF20003FA7902F00F02A2F1EE
:1013400004013A68D2B24FEAC202D2B25B181A76EE
:101350000DE04FF46143CEF2000397F907103A68AD
:10136000D2B24FEAC202D2B25B1883F8002307F16F
:101370000C07BD4680BC704780B483B000AF40F21C
:101380008C03C1F200034FF000021A604FF4404397
:10139000C4F201035B68FB71FB79A3F10803502BD6
:1013A00000F22B8201A252F823F000BFF1140000DA
:1013B000FB170000FB170000FB170000FB170000E5
:1013C000FB170000FB170000FB1700003D15000095
:1013D000FB170000FB170000FB170000FB170000C5
:1013E000FB170000FB170000FB1700008915000029
:1013F000FB170000FB170000FB170000FB170000A5
:10140000FB170000FB170000FB170000CF170000C0
:10141000FB170000FB170000FB170000FB17000084
:10142000FB170000FB170000FB170000F31500007E
:10143000FB170000FB170000FB170000FB17000064
:10144000FB170000FB170000FB17000087160000C9
:10145000FB170000FB170000FB170000FB17000044
:10146000FB170000FB170000FB170000FB17000034
:10147000FB170000FB170000FB170000FB17000024
:10148000FB170000FB170000FB170000B31600005D
:10149000FB170000FB170000FB170000FB17000004
:1014A000FB170000FB170000FB170000CF17000020
:1014B000FB170000FB170000FB170000FB170000E4
:1014C000FB170000FB170000FB170000FD160000D3
:1014D000FB170000FB170000FB170000FB170000C4
:1014E000FB170000FB170000FB170000751700003A
:1014F00040F2A403C1F200034FF000021A604FF45F
:101500004043C4F2010340F2A402C1F20002116898
:1015100040F2D012C1F20002525CD2B29A6001F1E4
:10152000010240F2A403C1F200031A604FF44043E9
:10153000C4F201034FF028029A616DE140F2980372
:10154000C1F200034FF000021A604FF44043C4F2AE
:10155000010340F2A402C1F20002116840F2D0126D
:10156000C1F20002525CD2B29A6001F1010240F273
:10157000A403C1F200031A604FF44043C4F2010314
:101580004FF028029A6147E140F29023C1F2000334
:101590001B68012B0ED14FF44043C4F201034FF0FE
:1015A00010021A6040F28003C1F200034FF00702FC
:1015B0001A6016E04FF44043C4F2010340F2A40263
:1015C000C1F20002116840F2D012C1F20002525C76
:1015D000D2B29A6001F1010240F2A403C1F2000309
:1015E0001A604FF44043C4F201034FF008029A61BD
:1015F00012E140F29023C1F200031B681A4640F248
:10160000A403C1F200031B689A4217D94FF4404368
:10161000C4F2010340F2A402C1F20002116840F2D8
:10162000D012C1F20002525CD2B29A6001F1010202
:1016300040F2A403C1F200031A601CE040F204135C
:10164000C1F200031B68002B07D04FF44043C4F2E3
:1016500001034FF020021A600DE04FF44043C4F242
:1016600001034FF010021A6040F28003C1F2000340
:101670004FF00C021A604FF44043C4F201034FF0E4
:1016800008029A61C8E04FF44043C4F201034FF0EE
:1016900010021A6040F28003C1F200034FF0090209
:1016A0001A604FF44043C4F201034FF008029A61FC
:1016B000B2E040F29803C1F200031B6803F101029B
:1016C00040F20413C1F200031B689A4207D24FF4A0
:1016D0004043C4F201034FF004021A6006E04FF4E5
:1016E0004043C4F201034FF004029A614FF44043B7
:1016F000C4F201034FF008029A618DE040F29803B2
:10170000C1F200031A684FF44043C4F201039B681E
:10171000D9B240F21013C1F20003995402F1010250
:1017200040F29803C1F200031A6040F29803C1F23C
:1017300000031B6803F1010240F20413C1F200032D
:101740001B689A4207D24FF44043C4F201034FF0A2
:1017500004021A6006E04FF44043C4F201034FF064
:1017600004029A614FF44043C4F201034FF00802AF
:101770009A6151E040F29803C1F200031A684FF4F5
:101780004043C4F201039B68D9B240F21013C1F286
:101790000003995402F1010240F29803C1F20003E0
:1017A0001A6040F28003C1F200034FF00C021A608D
:1017B0004FF44043C4F201034FF010021A604FF49B
:1017C0004043C4F201034FF008029A6124E04FF451
:1017D0004043C4F201034FF010021A6040F280034C
:1017E000C1F200034FF008021A604FF44043C4F204
:1017F00001034FF008029A610EE040F28003C1F24B
:1018000000034FF00A021A604FF44043C4F2010390
:101810004FF008029A6100BF07F10C07BD4680BC7B
:10182000704700BF80B483B000AF40F28C03C1F2B8
:1018300000034FF000025A604FF44043C4F2050326
:101840005B68FB71FB79A3F10803502B00F2378230
:1018500001A252F823F000BF9D190000BF1C000038
:10186000BF1C0000BF1C0000BF1C0000BF1C00000C
:10187000BF1C0000BF1C0000ED190000BF1C0000D1
:10188000BF1C0000BF1C0000BF1C0000BF1C0000EC
:10189000BF1C0000BF1C00003D1A0000BF1C000060
:1018A000BF1C0000BF1C0000BF1C0000BF1C0000CC
:1018B000BF1C0000BF1C0000931C0000BF1C0000E8
:1018C000BF1C0000BF1C0000BF1C0000BF1C0000AC
:1018D000BF1C0000BF1C0000AB1A0000BF1C0000B2
:1018E000BF1C0000BF1C0000BF1C0000BF1C00008C
:1018F000BF1C0000BF1C0000431B0000BF1C0000F9
:10190000BF1C0000BF1C0000BF1C0000BF1C00006B
:10191000BF1C0000BF1C0000BF1C0000BF1C00005B
:10192000BF1C0000BF1C0000BF1C0000BF1C00004B
:10193000BF1C0000BF1C00006F1B0000BF1C00008C
:10194000BF1C0000BF1C0000BF1C0000BF1C00002B
:10195000BF1C0000BF1C0000931C0000BF1C000047
:10196000BF1C0000BF1C0000BF1C0000BF1C00000B
:10197000BF1C0000BF1C0000B91B0000BF1C000002
:10198000BF1C0000BF1C0000BF1C0000BF1C0000EB
:10199000BF1C0000BF1C0000351C000040F2A80363
:1019A000C1F200034FF000021A604FF44043C4F24A
:1019B000050340F2A802C1F20002116840F2D01201
:1019C000C1F20002521892F84020D2B29A6001F19E
:1019D000010240F2A803C1F200031A604FF4404331
:1019E000C4F205034FF028029A6177E140F29C03AC
:1019F000C1F200034FF000021A604FF44043C4F2FA
:101A0000050340F2A802C1F20002116840F2D012B0
:101A1000C1F20002521892F84020D2B29A6001F14D
:101A2000010240F2A803C1F200031A604FF44043E0
:101A3000C4F205034FF028029A614FE140F290236F
:101A4000C1F200035B68012B0ED14FF44043C4F296
:101A500005034FF010021A6040F28003C1F2000348
:101A60004FF007025A6018E04FF44043C4F20503F8
:101A700040F2A802C1F20002116840F2D012C1F295
:101A80000002521892F84020D2B29A6001F101028D
:101A900040F2A803C1F200031A604FF44043C4F2BD
:101AA00005034FF008029A6118E140F29023C1F259
:101AB00000035B681A4640F2A803C1F200031B68EA
:101AC0009A4219D94FF44043C4F2050340F2A802E8
:101AD000C1F20002116840F2D012C1F200025218A5
:101AE00092F84020D2B29A6001F1010240F2A803BC
:101AF000C1F200031A601CE040F20413C1F20003BB
:101B00005B68002B07D04FF44043C4F205034FF04D
:101B100020021A600DE04FF44043C4F205034FF079
:101B200010021A6040F28003C1F200034FF00C0271
:101B30005A604FF44043C4F205034FF008029A6123
:101B4000CCE04FF44043C4F205034FF010021A609A
:101B500040F28003C1F200034FF009025A604FF4D3
:101B60004043C4F205034FF008029A61B6E040F228
:101B70009C03C1F200031B6803F1010240F204134D
:101B8000C1F200035B689A4207D24FF44043C4F2AB
:101B900005034FF004021A6006E04FF44043C4F21C
:101BA00005034FF004029A614FF44043C4F2050369
:101BB0004FF008029A6191E040F29C03C1F20003E9
:101BC0001A684FF44043C4F205039B68D9B240F24F
:101BD0001013C1F200039B1883F8401002F10102B8
:101BE00040F29C03C1F200031A6040F29C03C1F270
:101BF00000031B6803F1010240F20413C1F2000369
:101C00005B689A4207D24FF44043C4F205034FF099
:101C100004021A6006E04FF44043C4F205034FF09B
:101C200004029A614FF44043C4F205034FF00802E6
:101C30009A6153E040F29C03C1F200031A684FF42A
:101C40004043C4F205039B68D9B240F21013C1F2BD
:101C500000039B1883F8401002F1010240F29C033C
:101C6000C1F200031A6040F28003C1F200034FF09A
:101C70000C025A604FF44043C4F205034FF01002C7
:101C80001A604FF44043C4F205034FF008029A6112
:101C900024E04FF44043C4F205034FF010021A60F1
:101CA00040F28003C1F200034FF008025A604FF483
:101CB0004043C4F205034FF008029A610EE040F27F
:101CC0008003C1F200034FF00A025A604FF4404310
:101CD000C4F205034FF008029A6100BF07F10C0738
:101CE000BD4680BC704700BF80B483B000AF40F2F7
:101CF0008C03C1F200034FF000029A604FF0000322
:101D0000C4F20A035B68FB71FB79A3F10803502B53
:101D100000F2378201A252F823F000BF611E0000DA
:101D20008321000083210000832100008321000023
:101D3000832100008321000083210000B11E0000E8
:101D40008321000083210000832100008321000003
:101D5000832100008321000083210000011F000077
:101D600083210000832100008321000083210000E3
:101D700083210000832100008321000057210000FF
:101D800083210000832100008321000083210000C3
:101D90008321000083210000832100006F1F0000C9
:101DA00083210000832100008321000083210000A3
:101DB0008321000083210000832100000720000010
:101DC0008321000083210000832100008321000083
:101DD0008321000083210000832100008321000073
:101DE0008321000083210000832100008321000063
:101DF00083210000832100008321000033200000A4
:101E00008321000083210000832100008321000042
:101E1000832100008321000083210000572100005E
:101E20008321000083210000832100008321000022
:101E30008321000083210000832100007D20000019
:101E40008321000083210000832100008321000002
:101E5000832100008321000083210000F92000007D
:101E600040F2AC03C1F200034FF000021A604FF0E1
:101E70000003C4F20A0340F2AC02C1F2000211688E
:101E800040F2D012C1F20002521892F88020D2B271
:101E90009A6001F1010240F2AC03C1F200031A6042
:101EA0004FF00003C4F20A034FF028029A6177E171
:101EB00040F2A003C1F200034FF000021A604FF09D
:101EC0000003C4F20A0340F2AC02C1F2000211683E
:101ED00040F2D012C1F20002521892F88020D2B221
:101EE0009A6001F1010240F2AC03C1F200031A60F2
:101EF0004FF00003C4F20A034FF028029A614FE149
:101F000040F29023C1F200039B68012B0ED14FF0E9
:101F10000003C4F20A034FF010021A6040F280037B
:101F2000C1F200034FF007029A6018E04FF000037F
:101F3000C4F20A0340F2AC02C1F20002116840F29E
:101F4000D012C1F20002521892F88020D2B29A60E8
:101F500001F1010240F2AC03C1F200031A604FF03C
:101F60000003C4F20A034FF008029A6118E140F23C
:101F70009023C1F200039B681A4640F2AC03C1F201
:101F800000031B689A4219D94FF00003C4F20A03F8
:101F900040F2AC02C1F20002116840F2D012C1F26C
:101FA0000002521892F88020D2B29A6001F1010228
:101FB00040F2AC03C1F200031A601CE040F20413CB
:101FC000C1F200039B68002B07D04FF00003C4F25E
:101FD0000A034FF020021A600DE04FF00003C4F234
:101FE0000A034FF010021A6040F28003C1F20003AE
:101FF0004FF00C029A604FF00003C4F20A034FF056
:1020000008029A61CCE04FF00003C4F20A034FF0DB
:1020100010021A6040F28003C1F200034FF009027F
:102020009A604FF00003C4F20A034FF008029A616D
:10203000B6E040F2A003C1F200031B6803F1010205
:1020400040F20413C1F200039B689A4207D24FF09A
:102050000003C4F20A034FF004021A6006E04FF0D6
:102060000003C4F20A034FF004029A614FF0000328
:10207000C4F20A034FF008029A6191E040F2A00313
:10208000C1F200031A684FF00003C4F20A039B6810
:10209000D9B240F21013C1F200039B1883F88010EC
:1020A00002F1010240F2A003C1F200031A6040F203
:1020B000A003C1F200031B6803F1010240F2041304
:1020C000C1F200039B689A4207D24FF00003C4F2AA
:1020D0000A034FF004021A6006E04FF00003C4F256
:1020E0000A034FF004029A614FF00003C4F20A039E
:1020F0004FF008029A6153E040F2A003C1F20003DE
:102100001A684FF00003C4F20A039B68D9B240F288
:102110001013C1F200039B1883F8801002F1010232
:1021200040F2A003C1F200031A6040F28003C1F242
:1021300000034FF00C029A604FF00003C4F20A0350
:102140004FF010021A604FF00003C4F20A034FF080
:1021500008029A6124E04FF00003C4F20A034FF032
:1021600010021A6040F28003C1F200034FF008022F
:102170009A604FF00003C4F20A034FF008029A611C
:102180000EE040F28003C1F200034FF00A029A60B1
:102190004FF00003C4F20A034FF008029A6100BF37
:1021A00007F10C07BD4680BC704700BF80B483B008
:1021B00000AF786048F21843C0F200037A6853F821
:1021C00022304FF010021A6048F21843C0F20003A8
:1021D0007A6853F822304FF008029A6100BF48F243
:1021E0001843C0F200037A6853F822301B6803F0EA
:1021F0001003002BF3D14FF00103184607F10C0731
:10220000BD4680BC704700BF80B500AF4FF440436F
:10221000C4F20F034FF44042C4F20F02D2F8C420BC
:1022200042F08002C3F8C4204FF44043C4F20203DA
:102230004FF44042C4F20202526822F070725A60B7
:102240004FF44043C4F202034FF44042C4F202028E
:10225000526842F0A0725A604FF44043C4F2010346
:102260004FF06C029A614FF44043C4F202034FF402
:102270004042C4F20202D26F22F00502DA674FF444
:102280004043C4F201034FF4A8725A614FF4404333
:10229000C4F201034FF4A8721A614FF00A004FF024
:1022A0000001FFF73BF84FF00A00FFF71BF84FF46F
:1022B0004043C4F201034FF040021A6080BD00BFEA
:1022C00080B500AF4FF44043C4F20F034FF44042D7
:1022D000C4F20F02D2F8C42042F40022C3F8C42092
:1022E0004FF44043C4F202034FF44042C4F20202EE
:1022F000526822F470725A604FF44043C4F20203F1
:102300004FF44042C4F20202526842F470725A60C2
:102310004FF44043C4F202034FF44042C4F20202BD
:10232000526C22F470725A644FF44043C4F20203B8
:102330004FF44042C4F20202526C42F420725A64DA
:102340004FF44043C4F202034FF44042C4F202028D
:10235000926E42F4C0129A664FF44043C4F20503F1
:102360004FF06C029A614FF44043C4F205034FF4FE
:10237000A8725A614FF44043C4F205034FF4A872A7
:102380001A614FF00B00FEF7ADFF4FF44043C4F26B
:1023900005034FF040021A6080BD00BF80B483B0D7
:1023A00000AF4FF000037B604FF44043C2F20903DB
:1023B0004FF44042C2F20902126922F0C0521A617F
:1023C0004FF44043C2F209034FF44042C2F2090203
:1023D000126822F0C0521A604FF44043C2F209035F
:1023E0004FF44042C2F20902126842F080521A6071
:1023F00048E04FF000037B6003E07B6803F10103DA
:102400007B607A6842F20F739A42F6D94FF44043E8
:10241000C2F209034FF080529A614FF000037B60D3
:1024200003E07B6803F101037B607A6840F2E733E5
:102430009A42F6D94FF44043C2F209034FF080525A
:10244000DA614FF000037B6003E07B6803F1010376
:102450007B607A6840F2E7339A42F6D94FF4404302
:10246000C2F209034FF080529A614FF000037B6083
:1024700003E07B6803F101037B607A6842F20F732B
:102480009A42F6D94FF44043C2F209035B6903F064
:102490000063002BADD007F10C07BD4680BC704730
:1024A00080B483B000AF4FF000037B604FF4404333
:1024B000C2F209034FF44042C2F20902126922F447
:1024C000C0121A614FF44043C2F209034FF4404274
:1024D000C2F20902126822F4C0121A604FF440439B
:1024E000C2F209034FF44042C2F20902126842F4F8
:1024F00080121A6048E04FF000037B6003E07B68C5
:1025000003F101037B607A6842F20F739A42F6D9B5
:102510004FF44043C2F209034FF480129A614FF026
:1025200000037B6003E07B6803F101037B607A6852
:1025300040F2E7339A42F6D94FF44043C2F209031E
:102540004FF48012DA614FF000037B6003E07B6898
:1025500003F101037B607A6840F2E7339A42F6D9CF
:102560004FF44043C2F209034FF480129A614FF0D6
:1025700000037B6003E07B6803F101037B607A6802
:1025800042F20F739A42F6D94FF44043C2F2090364
:102590005B6903F40023002BADD007F10C07BD46A7
:1025A00080BC704780B483B000AF786048F21843B5
:1025B000C0F200037A6853F822304FF020021A600C
:1025C00040F28003C1F200037A684FF0060143F83D
:1025D000221027E040F28C03C1F200037A6853F81E
:1025E00022301A464FF6FE73C0F2FF039A4209D911
:1025F00040F28003C1F200037A684FF00B0143F808
:10260000221018E040F28C03C1F200037A6853F8FC
:10261000223003F1010140F28C03C1F200037A6819
:1026200043F8221040F28003C1F200037A6853F8A5
:102630002230062BCED048F21843C0F200037A684D
:1026400053F822304FF020029A6140F28003C1F229
:1026500000037A6853F82230184607F10C07BD468C
:1026600080BC704780B500AF4FF020004FF00F01E5
:1026700000F00AF84FF023004FF0900100F004F84A
:10268000FDF7DEFE80BD00BF80B584B000AF02461E
:102690000B46FA71BB7140F29023C1F200034FF078
:1026A00003025A6040F20413C1F200034FF000022B
:1026B0005A6040F2D013C1F200034FF0D20283F807
:1026C000402040F2D013C1F20003FA7983F8412090
:1026D00040F2D013C1F20003BA7983F842204FF0E0
:1026E0000100FFF75FFFF860FB68184607F110076D
:1026F000BD4680BD80B584B000AF02460B46FA717E
:10270000BB7140F29023C1F200034FF002025A6005
:10271000BA7940F20413C1F200035A6040F2D013B8
:10272000C1F200034FF0D20283F8402040F2D013F0
:10273000C1F20003FA7983F8412040F2D013C1F2CC
:1027400000034FF0D30283F842204FF00100FFF75F
:1027500029FFF860FB68184607F11007BD4680BDE9
:1027600080B584B000AF78604FF00003FB734FF08A
:102770000003BB6040F21013C1F200034FF00002EF
:1027800083F8402040F21013C1F200034FF0000222
:1027900083F8412040F21013C1F200034FF0000211
:1027A00083F8422040F21013C1F200034FF0000200
:1027B00083F8432040F21013C1F200034FF00002EF
:1027C00083F8442040F21013C1F200034FF00002DE
:1027D00083F8452040F21013C1F200034FF00002CD
:1027E00083F846204FF0A7004FF00701FFF782FF64
:1027F00003460C2B27D140F21013C1F2000393F8CB
:102800004030DBB203F00803002B1CD04FF0000374
:10281000FB7312E0FB7B7A68D218FB7B03F10101AA
:1028200040F21013C1F200035B1893F84030DBB2A2
:102830001370FB7B03F10103FB73FB7B052BE9D9D1
:102840004FF00103BB60FDF7FBFDBB68184607F1C5
:102850001007BD4680BD00BF80B500AF4FF020001F
:102860004FF0970100F00AF84FF023004FF0A0015D
:1028700000F004F8FDF7E4FD80BD00BF80B584B032
:1028800000AF02460B46FA71BB7140F29023C1F2D1
:1028900000034FF003025A6040F20413C1F2000338
:1028A0004FF000025A6040F2D013C1F200034FF023
:1028B000320283F8402040F2D013C1F20003FA79CB
:1028C00083F8412040F2D013C1F20003BA7983F8B3
:1028D00042204FF00100FFF765FEF860FB681846E4
:1028E00007F11007BD4680BD80B584B000AF024639
:1028F0000B46FA71BB7140F29023C1F200034FF016
:1029000002025A60BA7940F20413C1F200035A601D
:1029100040F2D013C1F200034FF0320283F840209E
:1029200040F2D013C1F20003FA7983F8412040F25B
:10293000D013C1F200034FF0330283F842204FF06E
:102940000100FFF72FFEF860FB68184607F110073B
:10295000BD4680BD80B584B000AF78604FF0000305
:10296000FB734FF00003BB6040F21013C1F2000391
:102970004FF0000283F8402040F21013C1F2000330
:102980004FF0000283F8412040F21013C1F200031F
:102990004FF0000283F8422040F21013C1F200030E
:1029A0004FF0000283F8432040F21013C1F20003FD
:1029B0004FF0000283F8442040F21013C1F20003EC
:1029C0004FF0000283F8452040F21013C1F20003DB
:1029D0004FF0000283F846204FF0A7004FF00701A8
:1029E000FFF782FF03460C2B27D140F21013C1F2F0
:1029F000000393F84030DBB203F00803002B1CD037
:102A00004FF00003FB7312E0FB7B7A68D218FB7B6C
:102A100003F1010140F21013C1F200035B1893F8B7
:102A20004030DBB21370FB7B03F10103FB73FB7BD4
:102A3000052BE9D94FF00103BB60FDF701FDBB6831
:102A4000184607F11007BD4680BD00BF80B500AF36
:102A50004FF000004FF0100100F010F84FF00100AF
:102A60004FF0200100F00AF84FF002004FF0000193
:102A700000F004F8FDF7E4FC80BD00BF80B584B031
:102A800000AF02460B46FA71BB7140F29023C1F2CF
:102A900000034FF003025A6040F20413C1F2000336
:102AA0004FF000025A6040F2D013C1F200034FF021
:102AB0003C0283F8402040F2D013C1F20003FA79BF
:102AC00083F8412040F2D013C1F20003BA7983F8B1
:102AD00042204FF00100FFF765FDF860FB681846E3
:102AE00007F11007BD4680BD80B584B000AF024637
:102AF0000B46FA71BB7140F29023C1F200034FF014
:102B000002025A60BA7940F20413C1F200035A601B
:102B100040F2D013C1F200034FF03C0283F8402092
:102B200040F2D013C1F20003FA7983F8412040F259
:102B3000D013C1F200034FF03D0283F842204FF062
:102B40000100FFF72FFDF860FB68184607F110073A
:102B5000BD4680BD80B584B000AF78604FF0000303
:102B6000FB734FF00003BB6040F21013C1F200038F
:102B70004FF0000283F8402040F21013C1F200032E
:102B80004FF0000283F8412040F21013C1F200031D
:102B90004FF0000283F8422040F21013C1F200030C
:102BA0004FF0000283F8432040F21013C1F20003FB
:102BB0004FF0000283F8442040F21013C1F20003EA
:102BC0004FF0000283F8452040F21013C1F20003D9
:102BD0004FF0000283F846204FF002004FF007014B
:102BE000FFF782FF03460C2B1CD14FF00003FB7351
:102BF00012E0FB7B7A68D218FB7B03F1010140F203
:102C00001013C1F200035B1893F84030DBB213706D
:102C1000FB7B03F10103FB73FB7B052BE9D94FF031
:102C20000103BB60FDF70CFCBB68184607F11007F9
:102C3000BD4680BD80B483B000AF4FF000037B6021
:102C40004FF000037B6003E07B6803F101037B60CE
:102C50007B68632BF8D907F10C07BD4680BC704731
:102C600080B500AF00F022FAFFF7E4FF4FF001005B
:102C700000F0E2F9FFF7DEFF4FF0040000F004F887
:102C8000FFF7D8FF80BD00BF80B584B000AF03461A
:102C9000FB7140F29023C1F200034FF002025A6030
:102CA00040F20413C1F200034FF000025A6040F2F8
:102CB000D013C1F200034FF0C60283F8402040F267
:102CC000D013C1F20003FA7983F841204FF00100DC
:102CD000FFF768FCF860FB68184607F11007BD466F
:102CE00080BD00BF80B584B000AF03463960FB7182
:102CF0004FF00003FB60FB7903F101031A4640F239
:102D00009023C1F200035A6040F20413C1F20003A1
:102D10004FF000025A6040F2D013C1F200034FF0AE
:102D2000C60283F840204FF00003FB6013E0FB680D
:102D300003F101013B681A7840F2D013C1F200039D
:102D40005B1883F840203B6803F101033B60FB689C
:102D500003F10103FB60FA79FB689A42E7D84FF070
:102D60000100FFF71FFCB860BB68184607F11007A9
:102D7000BD4680BD80B58AB000AFBA600246FA7326
:102D80000A46BA73FB714FF000037B624FF00003F9
:102D9000FB614FF0000387F823304FF0000387F802
:102DA0002230FA7BBB7B1046194600F007F9FB790D
:102DB000052B01D97B6AFCE0FB79052B03D097F842
:102DC0002330012B1DD197F82210BA6841F25973B4
:102DD000CDF2B713A3FB02034FEA5333DBB203F187
:102DE0003003DAB207F12800431803F8182C97F8DB
:102DF000223003F1010387F822304FF0010387F8F6
:102E00002330FB79042B03D097F82330012B2ED1EC
:102E1000BA6844F6D353C1F26203A3FB02134FEA2C
:102E20009313FB6197F82200F9694CF6CD43CCF679
:102E3000CC43A3FB01234FEAD30213464FEA83039B
:102E40009B184FEA4303CA1AD3B203F13003DAB234
:102E500007F128010B1803F8182C97F8223003F11A
:102E6000010387F822304FF0010387F82330FB7904
:102E7000032B03D097F82330012B2ED1BA6848F2E8
:102E80001F53C5F2EB13A3FB02034FEA5313FB617D
:102E900097F82200F9694CF6CD43CCF6CC43A3FB5E
:102EA00001234FEAD30213464FEA83039B184FEAEC
:102EB0004303CA1AD3B203F13003DAB207F128018F
:102EC0000B1803F8182C97F8223003F1010387F848
:102ED00022304FF0010387F82330FB79022B03D017
:102EE00097F82330012B2ED1BA684CF6CD43CCF69F
:102EF000CC43A3FB02034FEAD303FB6197F8220004
:102F0000F9694CF6CD43CCF6CC43A3FB01234FEA41
:102F1000D30213464FEA83039B184FEA4303CA1AAE
:102F2000D3B203F13003DAB207F128010B1803F82A
:102F3000182C97F8223003F1010387F822304FF064
:102F4000010387F82330FB79012B03D097F8233056
:102F5000012B20D197F82200B9684CF6CD43CCF66E
:102F6000CC43A3FB01234FEAD30213464FEA83036A
:102F70009B184FEA4303CA1AD3B203F13003DAB203
:102F800007F128010B1803F8182C97F8223003F1E9
:102F9000010387F82230FA7907F110031046194629
:102FA000FFF7A0FE03460C2B02D14FF001037B621A
:102FB0007B6A184607F12807BD4680BD80B584B0FE
:102FC00000AF02460B46FA71BB7140F29023C1F28A
:102FD00000034FF004025A6040F20413C1F20003F0
:102FE0004FF000025A6040F2D013C1F200034FF0DC
:102FF000C60283F8402040F2D013C1F200034FF024
:10300000030283F8412040F2D013C1F20003FA79A1
:1030100083F8422040F2D013C1F20003BA7983F85A
:1030200043204FF00100FFF7BDFAF860FB68184637
:1030300007F11007BD4680BD80B584B000AF0346E0
:10304000FB7140F29023C1F200034FF002025A607C
:1030500040F20413C1F200034FF000025A6040F244
:10306000D013C1F200034FF0C60283F84020FB7971
:10307000012B08D140F2D013C1F200034FF013022C
:1030800083F8412007E040F2D013C1F200034FF073
:10309000140283F841204FF00100FFF783FAF86033
:1030A000FB68184607F11007BD4680BD80B582B0A9
:1030B00000AF40F29023C1F200034FF002025A60C9
:1030C00040F20413C1F200034FF000025A6040F2D4
:1030D000D013C1F200034FF0C60283F8402040F243
:1030E000D013C1F200034FF00C0283F841204FF0DF
:1030F0000100FFF757FA78607B68184607F1080768
:10310000BD4680BD80B487B000AF78604FF000034B
:103110007B614FF000033B614FF00003FB604FF019
:1031200000033B6114E04FF000037B6107E0FB68A4
:1031300003F10103FB607B6903F101037B617A69A1
:1031400040F2A2239A42F2D93B6903F101033B61A9
:103150007A6813464FEA83039B184FEA43039A1891
:103160003B699A42DFD807F11C07BD4680BC704717
:1031700080B500AF00F0A0F980BD00BF80B500AF02
:1031800040F2BC43C1F200034FF04E021A7040F20D
:10319000BC43C1F200034FF045025A7040F2BC43F9
:1031A000C1F200034FF058029A7040F2BC43C1F2E2
:1031B00000034FF04402DA7040F2BC43C1F2000356
:1031C0004FF001021A714FF0020040F2BC41C1F20F
:1031D00000014FF0050201F031FE80BD80B500AF67
:1031E00040F2BC43C1F200034FF04E021A7040F2AD
:1031F000BC43C1F200034FF045025A7040F2BC4399
:10320000C1F200034FF058029A7040F2BC43C1F281
:1032100000034FF04402DA7040F2BC43C1F20003F5
:103220004FF000021A714FF0020040F2BC41C1F2AF
:1032300000014FF0050201F001FE80BD80B582B0B3
:1032400000AF4FF000037B6040F2A823C1F20003FF
:103250004FF000021A7040F2A823C1F200034FF0B1
:1032600000025A7040F2A823C1F200034FF000029E
:103270009A7040F2A823C1F200034FF00002DA7006
:1032800040F2D903C1F200034FF004021A7040F279
:10329000BC43C1F200034FF04E021A7040F2BC432F
:1032A000C1F200034FF045025A7040F2BC43C1F234
:1032B00000034FF058029A7040F2BC43C1F2000381
:1032C0004FF02302DA704FF0020040F2BC41C1F22D
:1032D00000014FF0040201F0B1FD40F2D903C1F248
:1032E00000031B78DBB21846FFF70CFF40F2A8235F
:1032F000C1F200031B78DBB24FEA03637B6040F24C
:10330000A823C1F200035B78DBB24FEA03437A687B
:1033100042EA03037B6040F2A823C1F200039B78DA
:10332000DBB24FEA03237A6842EA03037B6040F290
:10333000A823C1F20003DB78DBB27A6842EA030318
:103340007B607B68184607F10807BD4680BD00BF5B
:1033500080B582B000AF4FF000037B6040F2A8233D
:10336000C1F200034FF000021A7040F2A823C1F22C
:1033700000034FF000025A7040F2A823C1F200038C
:103380004FF000029A7040F2A823C1F200034FF000
:103390000002DA7040F2D903C1F200034FF00402D8
:1033A0001A7040F2BC43C1F200034FF04E021A7093
:1033B00040F2BC43C1F200034FF045025A7040F2A4
:1033C000BC43C1F200034FF058029A7040F2BC4374
:1033D000C1F200034FF02402DA704FF0020040F215
:1033E000BC41C1F200014FF0040201F027FD40F2A0
:1033F000D903C1F200031B78DBB21846FFF782FE47
:1034000040F2A823C1F200031B78DBB24FEA03634A
:103410007B6040F2A823C1F200035B78DBB24FEA85
:1034200003437A6842EA03037B6040F2A823C1F2B7
:1034300000039B78DBB24FEA03237A6842EA030376
:103440007B6040F2A823C1F20003DB78DBB27A682C
:1034500042EA03037B607B68184607F10807BD4614
:1034600080BD00BF80B500AF40F2BC43C1F2000395
:103470004FF04E021A7040F2BC43C1F200034FF00D
:1034800045025A7040F2BC43C1F200034FF05802AB
:103490009A7040F2BC43C1F200034FF03502DA707B
:1034A0004FF0020040F2BC41C1F200014FF00402B3
:1034B00001F0C4FC80BD00BF80B500AF40F2BC434A
:1034C000C1F200034FF04E021A7040F2BC43C1F249
:1034D00000034FF045025A7040F2BC43C1F20003B2
:1034E0004FF058029A7040F2BC43C1F200034FF013
:1034F0003802DA704FF0020040F2BC41C1F2000124
:103500004FF0040201F09AFC80BD00BF80B582B08C
:1035100000AF0346FB7140F2BC43C1F200034FF021
:103520004E021A7040F2BC43C1F200034FF0450254
:103530005A7040F2BC43C1F200034FF058029A7037
:1035400040F2BC43C1F200034FF03402DA7040F2A3
:10355000BC43C1F20003FA791A714FF0020040F245
:10356000BC41C1F200014FF0050201F067FC07F118
:103570000807BD4680BD00BF80B500AF40F2BC4328
:10358000C1F200034FF04E021A7040F2BC43C1F288
:1035900000034FF045025A7040F2BC43C1F20003F1
:1035A0004FF058029A7040F2BC43C1F200034FF052
:1035B0002B02DA704FF0020040F2BC41C1F2000170
:1035C0004FF0040201F03AFC40F2D903C1F20003CB
:1035D0004FF001021A704FF00100FFF793FD40F227
:1035E000A823C1F200031B78DBB2184680BD00BFE0
:1035F00080B582B000AF02460B46FA71BB7140F253
:10360000BC43C1F200034FF04E021A7040F2BC43BB
:10361000C1F200034FF045025A7040F2BC43C1F2C0
:1036200000034FF058029A7040F2BC43C1F200030D
:103630004FF03202DA7040F2BC43C1F20003BA79B3
:103640001A714FF0020040F2BC41C1F200014FF08C
:10365000050201F0F3FB40F2BC43C1F200034FF05E
:103660004E021A7040F2BC43C1F200034FF0450213
:103670005A7040F2BC43C1F200034FF058029A70F6
:1036800040F2BC43C1F200034FF03102DA7040F265
:10369000BC43C1F20003FA791A714FF0020040F204
:1036A000BC41C1F200014FF0050201F0C7FB07F178
:1036B0000807BD4680BD00BF80B500AF40F2BC43E7
:1036C000C1F200034FF04E021A7040F2BC43C1F247
:1036D00000034FF045025A7040F2BC43C1F20003B0
:1036E0004FF058029A7040F2BC43C1F200034FF011
:1036F0003202DA7040F2BC43C1F200034FF08002A4
:103700001A714FF0020040F2BC41C1F200014FF0CB
:10371000050201F093FB40F2BC43C1F200034FF0FD
:103720004E021A7040F2BC43C1F200034FF0450252
:103730005A7040F2BC43C1F200034FF058029A7035
:1037400040F2BC43C1F200034FF03102DA7040F2A4
:10375000BC43C1F200034FF080021A714FF0020027
:1037600040F2BC41C1F200014FF0050201F066FBDE
:1037700080BD00BF80B582B000AF0346FB7140F250
:10378000BC43C1F200034FF04E021A7040F2BC433A
:10379000C1F200034FF045025A7040F2BC43C1F23F
:1037A00000034FF058029A7040F2BC43C1F200038C
:1037B0004FF03302DA7040F2BC43C1F20003FA79F1
:1037C0001A714FF0020040F2BC41C1F200014FF00B
:1037D000050201F033FB07F10807BD4680BD00BFBD
:1037E00080B500AF40F2B203C1F200031B78DBB238
:1037F000002B74D040F2B303C1F200031B78DBB29C
:1038000003F1FF33052B62D801A252F823F000BF69
:10381000293800004B380000A1380000793800003A
:10382000CF380000C938000040F2B003C1F20003F5
:103830001B78DAB240F2B103C1F200031B78DBB2AD
:1038400010461946FFF7D4FE42E040F2B003C1F241
:1038500000031B78DBB26FEA0303DAB240F2B10374
:10386000C1F200031B78DBB26FEA0303DBB2104640
:103870001946FFF7BDFE2BE040F2B003C1F2000392
:103880001B78DBB26FEA0303DAB240F2B103C1F294
:1038900000031B78DBB210461946FFF7A9FE17E0BC
:1038A00040F2B003C1F200031B78DAB240F2B10378
:1038B000C1F200031B78DBB26FEA0303DBB21046F0
:1038C0001946FFF795FE03E0FFF7F6FE00E000BFA4
:1038D00040F2B203C1F200034FF000021A7080BD43
:1038E00080B500AF40F2B403C1F200031B78DBB235
:1038F000002B0FD040F2B403C1F200034FF00002DE
:103900001A7040F2B503C1F200031B78DBB218460F
:10391000FFF730FF80BD00BF80B584B000AFF86016
:103920007A600A46FA72FB7040F2BC43C1F20003AF
:103930004FF04E021A7040F2BC43C1F200034FF048
:1039400045025A7040F2BC43C1F200034FF05802E6
:103950009A7040F2BC43C1F200034FF04002DA70AB
:10396000FB684FEA2363DAB240F2BC43C1F20003C2
:103970001A71FB684FEA2343DAB240F2BC43C1F24A
:1039800000035A71FB684FEA2323DAB240F2BC43CA
:10399000C1F200039A71FB68DAB240F2BC43C1F293
:1039A0000003DA71FA7A40F2BC43C1F200031A72E2
:1039B0007B684FEA2363DAB240F2BC43C1F20003F2
:1039C0005A727B684FEA2343DAB240F2BC43C1F239
:1039D00000039A727B684FEA2323DAB240F2BC43B9
:1039E000C1F20003DA727B68DAB240F2BC43C1F282
:1039F00000031A73FA7840F2BC43C1F200035A7311
:103A00004FF0020040F2BC41C1F200014FF00E0243
:103A100001F014FA07F11007BD4680BD80B584B0EF
:103A200000AF02460B46FA71BB7140F29023C1F21F
:103A300000034FF003021A6040F20413C1F20003C6
:103A40004FF000021A6040F2D013C1F200034FF0B1
:103A5000E8021A7040F2D013C1F20003FA795A70EA
:103A600040F2D013C1F20003BA799A704FF000000F
:103A7000FEF798FDF860FB68184607F11007BD4691
:103A800080BD00BF80B584B000AF02460B46FA711E
:103A9000BB7140F29023C1F200034FF002021A60A2
:103AA000BA7940F20413C1F200031A6040F2D01355
:103AB000C1F200034FF0E8021A7040F2D013C1F2D5
:103AC0000003FA795A7040F2D013C1F200034FF0AC
:103AD000E9029A704FF00000FEF764FDF860FB68A1
:103AE000184607F11007BD4680BD00BF80B584B001
:103AF00000AF78604FF00003FB734FF00003BB6032
:103B000040F21013C1F200034FF000021A7040F2AD
:103B10001013C1F200034FF000025A7040F210136C
:103B2000C1F200034FF000029A7040F21013C1F28C
:103B300000034FF00002DA7040F21013C1F20003EC
:103B40004FF000021A7140F21013C1F200034FF05F
:103B500000025A7140F21013C1F200034FF000024C
:103B60009A7140F21013C1F200034FF00002DA71B3
:103B70004FF059004FF00801FFF784FF03460C2B6C
:103B800018D14FF00003FB730EE0FB7B7A68D2186C
:103B9000F97B40F21013C1F200035B5CDBB21370DF
:103BA000FB7B03F10103FB73FB7B072BEDD94FF08C
:103BB0000103BB60FCF744FCBB68184607F1100723
:103BC000BD4680BD80B584B000AF0346FB714FF0A9
:103BD0000003FB60FB794FF05B001946FFF71EFF07
:103BE00003460C2B02D14FF00103FB60FB68184623
:103BF00007F11007BD4680BD80B500AF40F2B803A5
:103C0000C1F200031B78DBB2002B18D040F2BB03DB
:103C1000C1F200031B78DBB2012B04D14FF001008D
:103C2000FFF7D0FF0BE040F2BB03C1F200031B78AB
:103C3000DBB2002B03D14FF00000FFF7C3FF80BDC4
:103C400080B584B000AF78604FF00003FB734FF095
:103C50000003BB6040F21013C1F200034FF00002FA
:103C60001A7040F21013C1F200034FF000025A70B4
:103C700040F21013C1F200034FF000029A7040F2BC
:103C80001013C1F200034FF00002DA7040F210137B
:103C9000C1F200034FF000021A7140F21013C1F29A
:103CA00000034FF000025A7140F21013C1F20003FA
:103CB0004FF000029A7140F21013C1F200034FF06E
:103CC0000002DA714FF039004FF00801FFF7DAFE19
:103CD00003460C2B18D14FF00003FB730EE0FB7B67
:103CE0007A68D218F97B40F21013C1F200035B5CD2
:103CF000DBB21370FB7B03F10103FB73FB7B072B30
:103D0000EDD94FF00103BB60FCF79AFBBB68184686
:103D100007F11007BD4680BD80B584B000AF0346F3
:103D2000FB714FF00003FB60FB794FF03B0019463D
:103D3000FFF774FE03460C2B02D14FF00103FB602A
:103D4000FB68184607F11007BD4680BD80B500AF7F
:103D500040F2B703C1F200031B78DBB2002B18D08E
:103D600040F2BA03C1F200031B78DBB2012B04D18D
:103D70004FF00100FFF7D0FF0BE040F2BA03C1F2B1
:103D800000031B78DBB2002B03D14FF00000FFF7DC
:103D9000C3FF80BD80B584B000AF78604FF00003F2
:103DA000FB734FF00003BB6040F21013C1F200033D
:103DB0004FF000021A7040F21013C1F200034FF0EE
:103DC00000025A7040F21013C1F200034FF00002DB
:103DD0009A7040F21013C1F200034FF00002DA7043
:103DE00040F21013C1F200034FF000021A7140F2CA
:103DF0001013C1F200034FF000025A7140F2101389
:103E0000C1F200034FF000029A7140F21013C1F2A8
:103E100000034FF00002DA714FF079004FF0080113
:103E2000FFF730FE03460C2B18D14FF00003FB7355
:103E30000EE0FB7B7A68D218F97B40F21013C1F2D6
:103E400000035B5CDBB21370FB7B03F10103FB73CC
:103E5000FB7B072BEDD94FF00103BB60FCF7F0FAB9
:103E6000BB68184607F11007BD4680BD80B584B019
:103E700000AF0346FB714FF00003FB60FB794FF08E
:103E80007B001946FFF7CAFD03460C2B02D14FF009
:103E90000103FB60FB68184607F11007BD4680BDB3
:103EA00080B500AF40F2B603C1F200031B78DBB26D
:103EB000002B18D040F2B903C1F200031B78DBB22B
:103EC000012B04D14FF00100FFF7D0FF0BE040F2CF
:103ED000B903C1F200031B78DBB2002B03D14FF012
:103EE0000000FFF7C3FF80BD80B584B000AF02467D
:103EF0000B46FA71BB71304BFB60FB79B42B02D9D6
:103F00004FF0B403FB71FB79184604F049FA0346FD
:103F1000184604F049FA02460B461046194624A3F7
:103F2000D3E9002303F0C0FF02460B4610461946B2
:103F30004FF000024FF0804303F5840304F042F990
:103F400002460B461046194604F0DAF90346FB60B8
:103F5000BB79022B0ED0032B17D0012B21D1F8688F
:103F600004F0F8F90346DBB24FF0A1001946FFF761
:103F700055FD17E0F86804F0EDF90346DBB24FF0A9
:103F8000A2001946FFF74AFD0CE0F86804F0E2F9D8
:103F90000346DBB24FF0A3001946FFF73FFD00BF19
:103FA00000E000BF07F11007BD4680BDAFF3008001
:103FB000295C8FC2F528FC3F00000000AFF30080B1
:103FC00080B584B000AF02460B46FA71BB8040F268
:103FD0009023C1F200034FF004021A6040F2041370
:103FE000C1F200034FF000021A6040F2D013C1F298
:103FF00000034FF046021A7040F2D013C1F20003E2
:10400000FA795A70BB884FEA13239BB2DAB240F2B6
:10401000D013C1F200039A70BB88DAB240F2D01319
:10402000C1F20003DA704FF00000FEF7BBFAF8604F
:10403000FB68184607F11007BD4680BD80B584B007
:1040400000AF02460B46FA71BB7140F29023C1F2F9
:1040500000034FF002021A60BA7940F20413C1F271
:1040600000031A6040F2D013C1F200034FF0460281
:104070001A7040F2D013C1F20003FA795A7040F27C
:10408000D013C1F200034FF047029A704FF00000C6
:10409000FEF788FAF860FB68184607F11007BD467E
:1040A00080BD00BF80B584B000AF78604FF00003E2
:1040B000FB734FF00003BB6040F21013C1F200032A
:1040C0004FF000021A7040F21013C1F200034FF0DB
:1040D00000025A7040F21013C1F200034FF00002C8
:1040E0009A7040F21013C1F200034FF00002DA7030
:1040F00040F21013C1F200034FF000021A7140F2B7
:104100001013C1F200034FF000025A7140F2101375
:10411000C1F200034FF000029A7140F21013C1F295
:1041200000034FF00002DA7140F21013C1F20003F5
:104130004FF000021A7240F21013C1F200034FF068
:1041400000025A7240F21013C1F200034FF0000255
:104150009A7240F21013C1F200034FF00002DA72BB
:1041600040F21013C1F200034FF000021A7340F244
:104170001013C1F200034FF000025A7340F2101303
:10418000C1F200034FF000029A7340F21013C1F223
:1041900000034FF00002DA734FF070004FF010018F
:1041A000FFF74CFF03460C2B18D14FF00003FB73B5
:1041B0000EE0FB7B7A68D218F97B40F21013C1F253
:1041C00000035B5CDBB21370FB7B03F10103FB7349
:1041D000FB7B0F2BEDD94FF00103BB60BB6818468A
:1041E00007F11007BD4680BD80B483B000AF034621
:1041F000FB714FF46143CEF2000397F907204FEAB9
:104200005212F97901F01F014FF0010000FA01F19B
:1042100043F8221007F10C07BD4680BC704700BF71
:1042200080B483B000AF03463960FB7197F9073063
:10423000002B10DA4FF46D43CEF20003FA7902F04E
:104240000F02A2F104013A68D2B24FEAC202D2B21E
:104250005B181A760DE04FF46143CEF2000397F934
:1042600007103A68D2B24FEAC202D2B25B1883F8A2
:10427000002307F10C07BD4680BC704780B483B0B3
:1042800000AF0346FB7197F90730002B0FDA4FF4AC
:104290006D43CEF20003FA7902F00F02A2F104029C
:1042A0009B181B7EDBB24FEAD303DBB20CE04FF46A
:1042B0006143CEF2000397F907209B1893F800336F
:1042C000DBB24FEAD303DBB2184607F10C07BD4659
:1042D00080BC704780B582B000AF4FF44043C4F259
:1042E00000039B68BB71BB794FEA5303BB71BB7979
:1042F00003F00703BB71BB79032B4DD14FF440434F
:10430000C4F200035B697B717B7903F09E03002B91
:104310000CD07A7940F23C53C1F200031A604FF49A
:104320004043C4F200031B68FB7194E07B7903F007
:104330000103DBB2002B00F08E804FF44043C4F247
:1043400000031B68DAB240F2F833C1F200031A70BE
:1043500040F2F833C1F200031B78DBB2184600F0DC
:1043600017FE40F2C003C1F200031B6803F1010213
:1043700040F2C003C1F200031A6040F2C003C1F270
:1043800000031B68402B66D140F2C003C1F200035A
:104390004FF000021A605EE0BB79022B2ED14FF481
:1043A0004043C4F200031B68DAB240F2F833C1F2B2
:1043B00000031A7040F2F833C1F200031B78DBB23D
:1043C000184600F0E5FD40F2C003C1F200031B688F
:1043D00003F1010240F2C003C1F200031A6040F28F
:1043E000C003C1F200031B68402B34D140F2C0036C
:1043F000C1F200034FF000021A602CE0BB79062BDB
:104400000CD140F23C53C1F200031B6843F48072AC
:1044100040F23C53C1F200031A601CE0BB79012B4F
:1044200019D14FF44043C4F200035B697B717B797F
:1044300003F02003002B07D040F25803C1F2000321
:104440004FF001021A7006E040F25803C1F2000377
:104450004FF000021A7007F10807BD4680BD00BF8B
:1044600080B582B000AF4FF00003C4F201039B6837
:10447000BB71BB794FEA5303BB71BB7903F00703F0
:10448000BB71BB79032B4FD14FF00003C4F2010382
:104490005B697B717B7903F09E03002B0CD07A79EA
:1044A00040F27843C1F200031A604FF00003C4F2F7
:1044B00001031B68FB7198E07B7903F00103DBB219
:1044C000002B00F092804FF00003C4F201031B6840
:1044D000DAB240F2B033C1F200031A7040F2B033E6
:1044E000C1F200031B78DBB24FF00100194600F067
:1044F00013FE40F2C403C1F200031B6803F1010282
:1045000040F2C403C1F200031A6040F2C403C1F2D6
:1045100000031B68402B68D140F2C403C1F20003C2
:104520004FF000021A6060E0BB79022B30D14FF0EF
:104530000003C4F201031B68DAB240F2B033C1F2E7
:1045400000031A7040F2B033C1F200031B78DBB2F3
:104550004FF00100194600F0DFFD40F2C403C1F244
:1045600000031B6803F1010240F2C403C1F200031F
:104570001A6040F2C403C1F200031B68402B34D11F
:1045800040F2C403C1F200034FF000021A602CE0B5
:10459000BB79062B0CD140F27843C1F200031B68B3
:1045A00043F4807240F27843C1F200031A601CE0C9
:1045B000BB79012B19D14FF00003C4F201035B69F1
:1045C0007B717B7903F02003002B07D040F2590365
:1045D000C1F200034FF001021A7006E040F25903E5
:1045E000C1F200034FF000021A7007F10807BD4640
:1045F00080BD00BF80B483B000AF4FF40043C4F26D
:1046000009039B68BB71BB794FEA5303BB71BB794C
:1046100003F00703BB71BB79032B5AD14FF400435E
:10462000C4F209035B697B717B7903F09E03002B65
:104630000CD07A7940F2F033C1F200031A604FF4E3
:104640000043C4F209031B68FB71ADE07B7903F002
:104650000103DBB2002B00F0A78040F2C803C1F2D7
:1046600000031A684FF40043C4F209031B68D9B26F
:1046700040F2A823C1F20003995402F1010240F272
:10468000C803C1F200031A6040F2D903C1F200036B
:104690001B78DBB21A4640F2C803C1F200031B6864
:1046A0009A4240F0818040F2C803C1F200034FF00B
:1046B00000021A6040F2D903C1F200034FF0000279
:1046C0001A7040F2D803C1F200034FF001021A70D1
:1046D0006AE0BB79022B3AD140F2C803C1F2000371
:1046E0001A684FF40043C4F209031B68D9B240F2C0
:1046F000A823C1F20003995402F1010240F2C80359
:10470000C1F200031A6040F2D903C1F200031B7822
:10471000DBB21A4640F2C803C1F200031B689A429A
:1047200042D140F2C803C1F200034FF000021A6008
:1047300040F2D903C1F200034FF000021A7040F2B8
:10474000D803C1F200034FF001021A702CE0BB79CC
:10475000062B0CD140F2F033C1F200031B6843F486
:10476000807240F2F033C1F200031A601CE0BB79A2
:10477000012B19D14FF40043C4F209035B697B712B
:104780007B7903F02003002B07D040F25A03C1F2DB
:1047900000034FF001021A7006E040F25A03C1F222
:1047A00000034FF000021A7007F10C07BD4680BCF1
:1047B000704700BF80B582B000AF4FF44043C4F2F1
:1047C00009039B68BB71BB794FEA5303BB71BB798B
:1047D00003F00703BB71BB79032B4FD14FF4404368
:1047E000C4F209035B697B717B7903F09E03002BA4
:1047F0000CD07A7940F23C53C1F200031A604FF4B6
:104800004043C4F209031B68FB7198E07B7903F015
:104810000103DBB2002B00F092804FF44043C4F25E
:1048200009031B68DAB240F27C43C1F200031A703C
:1048300040F27C43C1F200031B78DBB24FF003006F
:10484000194600F069FC40F2CC03C1F200031B687A
:1048500003F1010240F2CC03C1F200031A6040F2FE
:10486000CC03C1F200031B68402B68D140F2CC039B
:10487000C1F200034FF000021A6060E0BB79022B26
:1048800030D14FF44043C4F209031B68DAB240F25E
:104890007C43C1F200031A7040F27C43C1F2000372
:1048A0001B78DBB24FF00300194600F035FC40F2F4
:1048B000CC03C1F200031B6803F1010240F2CC03F8
:1048C000C1F200031A6040F2CC03C1F200031B687E
:1048D000402B34D140F2CC03C1F200034FF0000270
:1048E0001A602CE0BB79062B0CD140F2F433C1F2F4
:1048F00000031B6843F4807240F2F433C1F20003FA
:104900001A601CE0BB79012B19D14FF44043C4F26B
:1049100009035B697B717B7903F02003002B07D0CF
:1049200040F25B03C1F200034FF001021A7006E08F
:1049300040F25B03C1F200034FF000021A7007F16E
:104940000807BD4680BD00BF80B586B000AF786067
:1049500039604FF000033B617B68002B40F086809C
:104960004FF44043C4F202034FF44042C4F2020247
:10497000126822F0F0021A604FF44043C4F20203BE
:104980004FF44042C4F20202126842F050021A6030
:104990004FF44043C4F20F03D3F8A8314FEA931306
:1049A00003F00303FB60FB68022B13D0032B1AD028
:1049B000012B08D040F25403C1F200031B684FEAF8
:1049C00093037B6118E040F25403C1F200031B68BB
:1049D0007B6111E040F25403C1F200031B684FEA0F
:1049E00053037B6108E040F25403C1F200031B68EB
:1049F0004FEAD3037B6100BF4FF44043C4F200038E
:104A00004FF08302DA607B694FEA13123B68B2FB16
:104A1000F3F3BB604FF44043C4F20003BA684FEABB
:104A200012225A604FF44043C4F20003BA6802F005
:104A3000FF021A604FF44043C4F200034FF0030238
:104A4000DA604FF44043C4F200034FF007029A606B
:104A50004FF00500FFF7C8FB4FF44043C4F20003DA
:104A60004FF005025A604FF00103E2E17B68012B31
:104A700040F09E804FF44043C4F202034FF44042A2
:104A8000C4F20202126822F040421A604FF440431E
:104A9000C4F202034FF44042C4F20202126842F030
:104AA00080421A604FF44043C4F202034FF4404284
:104AB000C4F20202526822F003025A604FF44043EB
:104AC000C4F202034FF44042C4F20202526842F0C0
:104AD00001025A604FF44043C4F20F03D3F8A831E7
:104AE0004FEA132303F00303FB60FB68022B13D090
:104AF000032B1AD0012B08D040F25403C1F200035B
:104B00001B684FEA93037B6118E040F25403C1F243
:104B100000031B687B6111E040F25403C1F2000303
:104B20001B684FEA53037B6108E040F25403C1F273
:104B300000031B684FEAD3037B6100BF4FF0000303
:104B4000C4F201034FF08302DA607B694FEA13126B
:104B50003B68B2FBF3F3BB604FF00003C4F2010308
:104B6000BA684FEA12225A604FF00003C4F2010300
:104B7000BA6802F0FF021A604FF00003C4F20103AA
:104B80004FF00302DA604FF00003C4F201034FF06C
:104B900007029A604FF00600FFF726FB4FF0000374
:104BA000C4F201034FF005025A604FF0010340E1E7
:104BB0007B68022B40F094804FF44043C4F20F0313
:104BC0004FF44042C4F20F02D2F8C42042F0807287
:104BD000C3F8C4204FF44043C4F202034FF44042F0
:104BE000C4F20202126822F470021A604FF44043C9
:104BF000C4F202034FF44042C4F20202126842F4CB
:104C0000A0021A604FF44043C4F20F03D3F8AC3152
:104C10004FEA134303F00303FB60FB68022B13D03E
:104C2000032B1AD0012B08D040F25403C1F2000329
:104C30001B684FEA93037B6118E040F25403C1F212
:104C400000031B687B6111E040F25403C1F20003D2
:104C50001B684FEA53037B6108E040F25403C1F242
:104C600000031B684FEAD3037B6100BF4FF400438E
:104C7000C4F209034FF08302DA607B694FEA131232
:104C80003B68B2FBF3F3BB604FF40043C4F209038B
:104C9000BA684FEA12225A604FF40043C4F2090383
:104CA000BA6802F0FF021A604FF40043C4F209032D
:104CB0004FF00302DA604FF40043C4F209034FF0EF
:104CC00007029A604FF00700FFF78EFA4FF4004397
:104CD000C4F209034FF005025A604FF00103A8E047
:104CE0007B68032B40F0A3804FF44043C4F20F03D2
:104CF0004FF44042C4F20F02D2F8C42042F00072D6
:104D0000C3F8C4204FF44043C4F202034FF44042BE
:104D1000C4F20202126822F00F021A604FF44043FC
:104D2000C4F202034FF44042C4F20202126842F09D
:104D30000A021A604FF44043C4F20F03D3F8AC31B7
:104D40004FEA934303F00303FB60FB68022B13D08D
:104D5000032B1AD0012B08D040F25403C1F20003F8
:104D60001B684FEA93037B6118E040F25403C1F2E1
:104D700000031B687B6111E040F25403C1F20003A1
:104D80001B684FEA53037B6108E040F25403C1F211
:104D900000031B684FEAD3037B6100BF4FF440431D
:104DA000C4F209034FF08302DA607B694FEA131201
:104DB0003B68B2FBF3F3BB604FF44043C4F209031A
:104DC000BA684FEA12225A604FF44043C4F2090312
:104DD000BA6802F0FF021A604FF44043C4F20903BC
:104DE0004FF00302DA604FF44043C4F209034FF07E
:104DF00007029A604FF00800FFF740FA38614FF061
:104E000008004FF00101FFF70BFA4FF00800FFF721
:104E1000EBF94FF00800FFF7E7F94FF44043C4F215
:104E200009034FF005025A604FF0010301E04FF013
:104E30000003184607F11807BD4680BD80B485B051
:104E400000AFF860B9607A60FB68002B24D11FE0E6
:104E500000BF4FF44043C4F200035B6903F040031A
:104E6000002BF6D04FF44043C4F20003BA68127826
:104E70001A6040F25803C1F200034FF000021A70AA
:104E8000BB6803F10103BB607B6803F1FF337B6008
:104E90007B68002BDCD176E0FB68012B24D11FE07E
:104EA00000BF4FF00003C4F201035B6903F040034D
:104EB000002BF6D04FF00003C4F20103BA68127859
:104EC0001A6040F25903C1F200034FF000021A7059
:104ED000BB6803F10103BB607B6803F1FF337B60B8
:104EE0007B68002BDCD14EE0FB68022B24D11FE055
:104EF00000BF4FF40043C4F209035B6903F04003B1
:104F0000002BF6D04FF40043C4F20903BA681278BC
:104F10001A6040F25A03C1F200034FF000021A7007
:104F2000BB6803F10103BB607B6803F1FF337B6067
:104F30007B68002BDCD126E0FB68032B23D11FE02C
:104F400000BF4FF44043C4F209035B6903F0400320
:104F5000002BF6D04FF44043C4F20903BA6812782C
:104F60001A6040F25B03C1F200034FF000021A70B6
:104F7000BB6803F10103BB607B6803F1FF337B6017
:104F80007B68002BDCD107F11407BD4680BC70475D
:104F900080B483B000AF0346FB7140F2DC03C1F282
:104FA00000031B78DBB203F10103DAB240F2DC0349
:104FB000C1F200031A7040F24453C1F200031B789F
:104FC000DBB2002B17D1FB79242B14D140F24F53C5
:104FD000C1F200034FF001021A7040F2B153C1F266
:104FE00000034FF000021A7040F2DB03C1F200032D
:104FF0004FF000021A7040F24F53C1F200031B78C9
:10500000DBB2002B30D040F2B153C1F200031B7869
:10501000DBB21A4640F2D053C1F20003F979995439
:1050200040F2B053C1F200034FF001021A7040F297
:105030004F53C1F200034FF000021A7040F2445384
:10504000C1F200034FF001021A7040F2B153C1F2F5
:1050500000031B78DBB203F10103DAB240F2B15373
:10506000C1F200031A7051E040F2B053C1F20003E4
:105070001B78DBB2002B49D040F2B153C1F20003E0
:105080001B78DBB21A4640F2D053C1F20003F97923
:105090009954FB790A2B2BD140F2B153C1F2000392
:1050A0001B78DBB203F1FF3240F2D053C1F20003B0
:1050B0009B5CDBB20D2B1BD140F2B153C1F200035C
:1050C0004FF000021A7040F2B053C1F200034FF0EB
:1050D00000021A7040F24453C1F200034FF0010283
:1050E0001A7040F2DA03C1F200034FF001021A70A5
:1050F00040F2B153C1F200031B78DBB203F10103AC
:10510000DAB240F2B153C1F200031A7007F10C0792
:10511000BD4680BC704700BF80B584B000AF02467A
:105120000B46FA71BB714FF00003FB7340F25C0356
:10513000C1F200031B78052B5FD940F2D003C1F206
:1051400000031B78DBB29C2B27D140F25C03C1F239
:1051500000031B78A3F1050240F29C23C1F2000377
:10516000B979995440F25C03C1F200031B7803F152
:105170000103DAB240F25C03C1F200031A7040F29C
:105180005C03C1F200031B780F2B06D140F2D2035F
:10519000C1F200034FF001021A7040F2D003C1F2D5
:1051A00000031B78DBB2252B27D140F25C03C1F250
:1051B00000031B78A3F1050240F24C03C1F2000387
:1051C000B979995440F25C03C1F200031B7803F1F2
:1051D0000103DAB240F25C03C1F200031A7040F23C
:1051E0005C03C1F200031B780B2B06D140F2D20303
:1051F000C1F200034FF001021A7040F25C03C1F2E9
:1052000000031B78052B3FD140F2D003C1F200030D
:105210001B78DBB29C2B0DD140F29C23C1F2000322
:10522000BA791A7040F25C03C1F200034FF0060233
:105230001A7029E040F2D003C1F200031B78DBB200
:10524000252B0DD140F24C03C1F20003BA791A703C
:1052500040F25C03C1F200034FF006021A7013E043
:1052600040F2D203C1F200034FF001021A7040F283
:10527000D103C1F20003BA791A7040F25C03C1F2A3
:1052800000034FF005021A7040F25C03C1F2000304
:105290001B78042B0CD140F2D003C1F20003BA7981
:1052A0001A7040F25C03C1F200034FF005021A705D
:1052B00040F25C03C1F200031B78032B11D1BB79D0
:1052C000582B07D140F25C03C1F200034FF00402F7
:1052D0001A7006E040F25C03C1F200034FF00102D5
:1052E0001A7040F25C03C1F200031B78022B11D14B
:1052F000BB79452B07D140F25C03C1F200034FF0AC
:1053000003021A7006E040F25C03C1F200034FF0A2
:1053100001021A7040F25C03C1F200031B78012BFA
:1053200009D1BB794E2B06D140F25C03C1F20003D8
:105330004FF002021A7040F2D203C1F200031B7850
:10534000DBB2002B02F0168540F2D003C1F200035D
:105350001B78DBB203F1FF33FB2B02F2EA8401A2DC
:1053600052F823F055570000FF570000337D00002E
:10537000A958000053590000596000008F600000D8
:10538000C5600000FB6000007D620000337D00000E
:10539000337D0000337D0000337D0000337D00004D
:1053A0002D65000069670000A5690000337D0000DD
:1053B000337D0000337D0000337D0000337D00002D
:1053C000337D0000337D0000337D0000337D00001D
:1053D000337D0000337D0000337D0000337D00000D
:1053E000E16B00007B6C0000156D0000AF6D0000EC
:1053F000836E0000BD710000337D0000337D00002E
:10540000337D0000337D0000337D0000337D0000DC
:10541000337D0000337D0000337D0000337D0000CC
:10542000337D0000337D0000337D0000337D0000BC
:10543000337D0000337D0000337D0000337D0000AC
:10544000337D0000337D0000337D0000337D00009C
:10545000337D0000337D0000337D0000337D00008C
:10546000337D0000337D0000337D0000337D00007C
:10547000337D0000337D0000337D0000337D00006C
:10548000337D0000337D0000337D0000337D00005C
:10549000337D0000337D0000337D0000337D00004C
:1054A000337D0000337D0000337D0000337D00003C
:1054B000337D0000337D0000337D0000337D00002C
:1054C000337D0000337D0000337D0000337D00001C
:1054D000337D0000337D0000337D0000337D00000C
:1054E000337D0000337D0000337D0000337D0000FC
:1054F000337D0000337D0000337D0000337D0000EC
:10550000337D0000337D0000337D0000337D0000DB
:10551000337D0000337D0000337D0000337D0000CB
:10552000337D0000337D0000337D0000337D0000BB
:10553000337D0000337D0000337D0000337D0000AB
:10554000337D0000337D0000337D0000337D00009B
:10555000337D0000337D0000337D0000337D00008B
:10556000337D0000337D0000337D0000337D00007B
:10557000337D0000337D0000337D0000337D00006B
:10558000337D0000CB710000337D0000337D0000CF
:10559000F3710000337D0000337D0000337D000097
:1055A000057200002D720000B3720000A9730000A4
:1055B0009F7400008D750000A5750000BD7500008A
:1055C0000F77000035770000CF7700006978000082
:1055D00003790000337D0000337D0000337D00003F
:1055E000337D0000337D0000337D0000337D0000FB
:1055F000337D0000337D0000337D0000337D0000EB
:10560000337D0000337D00008B7A0000257B000095
:10561000337D0000337D0000337D0000337D0000CA
:10562000337D0000337D0000337D0000337D0000BA
:10563000337D0000337D0000337D0000337D0000AA
:10564000337D0000337D0000337D0000337D00009A
:10565000337D0000337D0000337D0000337D00008A
:10566000337D0000337D0000337D0000337D00007A
:10567000337D0000337D0000337D0000337D00006A
:10568000337D0000337D0000337D0000337D00005A
:10569000337D0000337D0000337D0000337D00004A
:1056A000337D0000337D0000337D0000337D00003A
:1056B000337D0000337D0000337D0000337D00002A
:1056C000337D0000337D0000337D0000337D00001A
:1056D000337D0000337D0000337D0000337D00000A
:1056E000337D0000337D0000337D0000337D0000FA
:1056F000337D0000337D0000337D0000337D0000EA
:10570000337D0000337D0000337D0000337D0000D9
:10571000337D0000337D0000337D0000337D0000C9
:10572000337D0000337D0000337D0000337D0000B9
:10573000337D0000337D0000337D0000337D0000A9
:10574000337D0000337D0000BF7B00003B7C000008
:10575000B77C000040F23843C1F200034FF046022C
:105760001A7040F23843C1F200034FF042025A70FF
:1057700040F23843C1F200034FF044029A7040F205
:10578000D003C1F200031B78DAB240F23843C1F211
:105790000003DA7040F2D103C1F200031B78DAB2E1
:1057A00040F23843C1F200031A7140F2D103C1F252
:1057B00000031B78DBB203F1FF3240F20003C1F2B9
:1057C00000039A5C40F23843C1F200035A7140F280
:1057D000D303C1F200034FF006021A70FA7940F2C7
:1057E000D303C1F200031B78DBB2104640F238410C
:1057F000C1F200011A46FFF721FB02F0ADBA40F2F8
:105800003843C1F200034FF046021A7040F23843A9
:10581000C1F200034FF042025A7040F23843C1F225
:1058200000034FF044029A7040F2D003C1F200032B
:105830001B78DAB240F23843C1F20003DA7040F26A
:10584000D103C1F200031B78DAB240F23843C1F24F
:1058500000031A7140F2D103C1F200031B78DBB2DE
:1058600003F1FF3240F21003C1F200039A5C40F2F0
:105870003843C1F200035A7140F2D303C1F200036E
:105880004FF006021A70FA7940F2D303C1F2000316
:105890001B78DBB2104640F23841C1F200011A46D3
:1058A000FFF7CCFA02F058BA40F23843C1F20003D5
:1058B0004FF046021A7040F23843C1F200034FF035
:1058C00042025A7040F23843C1F200034FF04402E2
:1058D0009A7040F2D003C1F200031B78DAB240F2B2
:1058E0003843C1F20003DA7040F2D103C1F2000381
:1058F0001B78DAB240F23843C1F200031A7140F269
:10590000D103C1F200031B78DBB203F1FF3240F296
:105910000803C1F200039A5C40F23843C1F200036D
:105920005A7140F2D303C1F200034FF006021A701D
:10593000FA7940F2D303C1F200031B78DBB21046C0
:1059400040F23841C1F200011A46FFF777FA02F03F
:1059500003BA40F2D103C1F200031B78DBB2012B82
:105960005BD140F23843C1F200034FF046021A7097
:1059700040F23843C1F200034FF042025A7040F245
:105980003843C1F200034FF044029A7040F2D00352
:10599000C1F200031B78DAB240F23843C1F20003CF
:1059A000DA7040F2D103C1F200031B78DAB240F2A0
:1059B0003843C1F200031A714FF00003FB7311E08A
:1059C000FB7B03F10502F97B40F20003C1F2000307
:1059D000595C40F23843C1F200039954FB7B03F158
:1059E0000103FB73FB7B072BEAD940F2D303C1F21F
:1059F00000034FF00D021A70FA7940F2D303C1F29E
:105A000000031B78DBB2104640F23841C1F20001BE
:105A10001A46FFF713FA02F09FB940F2D103C1F220
:105A200000031B78DBB2022B5BD140F23843C1F29A
:105A300000034FF046021A7040F23843C1F20003EF
:105A40004FF042025A7040F23843C1F200034FF067
:105A500044029A7040F2D003C1F200031B78DAB21C
:105A600040F23843C1F20003DA7040F2D103C1F2D0
:105A700000031B78DAB240F23843C1F200031A7116
:105A80004FF00003FB7311E0FB7B03F10502F97B90
:105A900040F21003C1F20003595C40F23843C1F2F6
:105AA00000039954FB7B03F10103FB73FB7B072B82
:105AB000EAD940F2D303C1F200034FF00D021A708D
:105AC000FA7940F2D303C1F200031B78DBB210462F
:105AD00040F23841C1F200011A46FFF7AFF902F077
