:100000000080001029010000F5000000F70000004A
:10001000F9000000FB000000FD00000000000000EF
:10002000000000000000000000000000FF000000D1
:1000300001010000000000000301000005010000B4
:100040006901000069010000690100006901000008
:100050006901000025430000B1440000454600004E
:100060000548000069010000711600001D1B00001A
:10007000E11F000069010000690100006901000042
:1000800069010000690100006901000069010000C8
:1000900069010000690100006901000069010000B8
:1000A00069010000690100006901000069010000A8
:1000B0006901000069010000690100006901000098
:1000C0006901000069010000690100001882000058
:1000D00000000010580000001882000000C0072037
:1000E0000000000058000010AC05000000C0072010
:1000F00000000000FEE7FEE7FEE7FEE7FEE7FEE7A2
:10010000FEE7FEE7FEE710B5002302E01C585C5056
:1001100004339342FAD310BD002302E000221A50A8
:1001200004338B42FAD3704710B50C4C05E02068BD
:100130006168A2680C34FFF7E6FF094B9C42F6D3D6
:1001400004E0206861680834FFF7E6FF054B9C4235
:10015000F7D300F08DFE07F06DFDFEE7CC00000048
:10016000E4000000F4000000FEE700BFFFFFFFFF17
:10017000FFFFFFFFFFFFFFFFFFFFFFFFFFFFFFFF8F
:10018000FFFFFFFFFFFFFFFFFFFFFFFFFFFFFFFF7F
:10019000FFFFFFFFFFFFFFFFFFFFFFFFFFFFFFFF6F
:1001A000FFFFFFFFFFFFFFFFFFFFFFFFFFFFFFFF5F
:1001B000FFFFFFFFFFFFFFFFFFFFFFFFFFFFFFFF4F
:1001C000FFFFFFFFFFFFFFFFFFFFFFFFFFFFFFFF3F
:1001D000FFFFFFFFFFFFFFFFFFFFFFFFFFFFFFFF2F
:1001E000FFFFFFFFFFFFFFFFFFFFFFFFFFFFFFFF1F
:1001F000FFFFFFFFFFFFFFFFFFFFFFFFFFFFFFFF0F
:10020000FFFFFFFFFFFFFFFFFFFFFFFFFFFFFFFFFE
:10021000FFFFFFFFFFFFFFFFFFFFFFFFFFFFFFFFEE
:10022000FFFFFFFFFFFFFFFFFFFFFFFFFFFFFFFFDE
:10023000FFFFFFFFFFFFFFFFFFFFFFFFFFFFFFFFCE
:10024000FFFFFFFFFFFFFFFFFFFFFFFFFFFFFFFFBE
:10025000FFFFFFFFFFFFFFFFFFFFFFFFFFFFFFFFAE
:10026000FFFFFFFFFFFFFFFFFFFFFFFFFFFFFFFF9E
:10027000FFFFFFFFFFFFFFFFFFFFFFFFFFFFFFFF8E
:10028000FFFFFFFFFFFFFFFFFFFFFFFFFFFFFFFF7E
:10029000FFFFFFFFFFFFFFFFFFFFFFFFFFFFFFFF6E
:1002A000FFFFFFFFFFFFFFFFFFFFFFFFFFFFFFFF5E
:1002B000FFFFFFFFFFFFFFFFFFFFFFFFFFFFFFFF4E
:1002C000FFFFFFFFFFFFFFFFFFFFFFFFFFFFFFFF3E
:1002D000FFFFFFFFFFFFFFFFFFFFFFFFFFFFFFFF2E
:1002E000FFFFFFFFFFFFFFFFFFFFFFFFFFFFFFFF1E
:1002F000FFFFFFFFFFFFFFFFFFFFFFFFFFFFFFFF0E
:1003000080B400AF4CF22003C2F209031B684CF228
:100310002003C2F209034FF000021A604CF22003DE
:10032000C2F209034CF22002C2F20902126842F042
:10033000F0521A60BD4680BC704700BF80B400AF69
:100340004CF24003C2F209031B684CF24003C2F2B4
:1003500009034FF000021A60BD4680BC704700BF21
:1003600080B500AF00F0A0F84FF002004FF4E1318B
:1003700004F012FB03F078F803F048FAFFF7C0FF2F
:1003800000F0EEF8FFF7DAFF4AF22010C0F20700A3
:1003900000F07EFF4CF22003C2F209034CF220026F
:1003A000C2F20902126842F000521A604CF22003B5
:1003B000C2F209034FF00052DA6102F06BF902F069
:1003C0009FF84FF0000002F06DF84FF0020040F689
:1003D000F87103F01DFE02F0DFF902F0EDF84FF0C6
:1003E000010002F05FF802F0B9FA02F0B1FB02F08E
:1003F000A9FC00F02BF802F0AFFD4FF003004FF422
:10040000E13104F0C9FA4FF000004FF4165104F046
:10041000C3FA4FF001004FF4165104F0BDFA80BD4D
:1004200080B483B000AF4FF000037B604FF0000357
:100430007B6003E07B6803F101037B607B68632BD7
:10044000F8D907F10C07BD4680BC704780B485B071
:1004500000AF4FF00003FB604FF00003BB604FF0B4
:1004600000037B604FF00003BB6014E04FF000031B
:10047000FB6007E07B6803F101037B60FB6803F12D
:100480000103FB60FA684EF65F239A42F2D9BB681B
:1004900003F10103BB60BB686D2BE7D907F11407BB
:1004A000BD4680BC704700BF80B485B000AF4FF040
:1004B0000003FB604FF00003BB604FF000037B6064
:1004C0004FF00003BB6014E04FF00003FB6007E057
:1004D0007B6803F101037B60FB6803F10103FB60B0
:1004E000FA684EF65F239A42F2D9BB6803F1010322
:1004F000BB60BB680A2BE7D907F11407BD4680BC77
:10050000704700BF80B485B000AF4FF00003FB60C0
:100510004FF00003BB604FF000037B604FF000031F
:10052000BB6014E04FF00003FB6007E07B6803F161
:1005300001037B60FB6803F10103FB60FA684EF680
:100540005F239A42F2D9BB6803F10103BB60BB6829
:100550002C2BE7D907F11407BD4680BC704700BFBC
:1005600080B500AF4CF22003C2F209034FF00072D5
:100570009A61FFF799FF4CF22003C2F209034FF092
:100580000072DA614CF22003C2F209034FF080627C
:100590009A61FFF789FF4CF22003C2F209034FF082
:1005A0008062DA614CF22003C2F209034FF000626C
:1005B0009A61FFF779FF4CF22003C2F209034FF072
:1005C0000062DA614CF22003C2F209034FF080525C
:1005D0009A61FFF769FF4CF22003C2F209034FF062
:1005E0008052DA6180BD00BF80B500AF40F23000BC
:1005F000C1F2000000F0A4FF03F0D0FB40F20800BD
:10060000C1F2000003F044FB03F01EFB40F20000C7
:10061000C1F2000003F092FA03F06AFC40F210000D
:10062000C1F2000003F0DEFB40F22000C1F2000046
:1006300002F012FA40F21800C1F2000002F006FBCC
:1006400040F22800C1F2000002F000FC03F0F2F9D1
:1006500003F070F940F26003C1F200031B78012B34
:1006600008D103F01BF840F26003C1F200034FF021
:1006700000021A7002F0FEFE03461A4640F2D8034A
:10068000C1F200031A6002F07FFF03461A4640F2EF
:10069000D403C1F200031A604FF0050000F0BCFE65
:1006A000024640F25803C1F200031A604FF0010005
:1006B00000F0B2FE024640F25C03C1F200031A6091
:1006C00040F2A403C1F200031B78DBB2012B3AD144
:1006D00040F2A503C1F200031B78DBB2012B0BD162
:1006E00040F26303C1F200031B78DBB218464FF0FF
:1006F000010103F021FC26E040F2A503C1F2000352
:100700001B78DBB2022B0BD140F26403C1F2000371
:100710001B78DBB218464FF0020103F00DFC12E02B
:1007200040F2A503C1F200031B78DBB2032B0AD110
:1007300040F26503C1F200031B78DBB218464FF0AC
:10074000030103F0F9FB40F23C00C1F2000003F0AA
:10075000D1FC80BD80B584B000AF4FF000037B605A
:100760004FF00003FB734FF00003BB6000F080FB11
:1007700000F072FCFFF7F4FD40F29E03C1F20003AB
:100780004FF001021A7040F2A103C1F200034FF0D2
:1007900000021A7040F29F03C1F200034FF0010201
:1007A0001A7040F2A203C1F200034FF000021A7067
:1007B0004FF001004FF0010102F07CFD4FF01400FA
:1007C00048F27011C0F2000102F008FC4FF0020084
:1007D0004FF0010102F06EFD4FF0140048F2881155
:1007E000C0F2000102F0FAFBFFF7FEFE4CF24003FC
:1007F000C2F209035B6903F48063002B31D14CF230
:100800002003C2F209034FF000729A614CF22003F8
:10081000C2F209034FF08062DA614CF22003C2F2A7
:1008200009034FF00062DA614CF22003C2F20903BF
:100830004FF08052DA6102F0B5FDFFF7F1FD4FF0A5
:1008400001004FF0010102F035FD4FF0140048F2B5
:10085000A011C0F2000102F0C1FB4FF00103FB73D5
:10086000D9E04CF24003C2F209035B6903F4006370
:10087000002B31D14CF22003C2F209034FF0007279
:10088000DA614CF22003C2F209034FF080629A61F0
:100890004CF22003C2F209034FF00062DA614CF21D
:1008A0002003C2F209034FF08052DA6102F07AFDB0
:1008B000FFF7B6FD4FF001004FF0010102F0FAFC26
:1008C0004FF0140048F2B811C0F2000102F086FBAC
:1008D0004FF00203FB739EE04CF24003C2F20903A7
:1008E0005B6903F48053002B5BD14CF22003C2F20E
:1008F00009034FF00072DA614CF22003C2F20903DF
:100900004FF08062DA614CF22003C2F209034FF02B
:1009100000629A614CF22003C2F209034FF0805248
:10092000DA6102F03FFDFFF77BFD4FF001004FF071
:10093000010102F0BFFC4FF0140048F2D011C0F2E8
:10094000000102F04BFB4FF002004FF0010102F0FA
:10095000B1FC4FF0010048F2E811C0F2000102F0D2
:100960003DFB4FF003004FF0010102F0A3FC4FF0FC
:10097000010048F2EC11C0F2000102F02FFB4FF031
:1009800004004FF0010102F095FC4FF0010048F225
:10099000F011C0F2000102F021FB4FF00303FB73E2
:1009A00039E04CF24003C2F209035B6903F40053DF
:1009B000002B30D14CF22003C2F209034FF0007239
:1009C000DA614CF22003C2F209034FF08062DA616F
:1009D0004CF22003C2F209034FF00062DA614CF2DC
:1009E0002003C2F209034FF080529A6102F0DAFC50
:1009F000FFF716FD4FF001004FF0010102F05AFC25
:100A00004FF0140048F2F411C0F2000102F0E6FACF
:100A10004FF00403FB73FB7B03F1FF33032B00F266
:100A2000258201A252F823F0390A00001B0B0000B6
:100A3000FD0B0000E90D000040F20003C1F20003CD
:100A40001B784FF002004FF001011A464FF00303EC
:100A500002F00CFB40F20003C1F200035B784FF0A0
:100A600003004FF002011A464FF0030302F0FEFAB2
:100A700040F20003C1F200039B784FF004004FF0F6
:100A800003011A464FF0030302F0F0FA40F20003AC
:100A9000C1F20003DB784FF004004FF007011A4663
:100AA0004FF0030302F0E2FA40F20003C1F2000348
:100AB0001B794FF004004FF00B011A464FF003036F
:100AC00002F0D4FA40F20003C1F200035B794FF068
:100AD00004004FF00F011A464FF0030302F0C6FA6C
:100AE00040F20003C1F200039B794FF003004FF086
:100AF00011011A464FF0030302F0B8FA40F2000366
:100B0000C1F20003DB794FF002004FF012011A46E8
:100B10004FF0030302F0AAFAA9E140F20803C1F280
:100B200000031B784FF002004FF001011A464FF00E
:100B3000030302F09BFA40F20803C1F200035B7862
:100B40004FF003004FF002011A464FF0030302F08A
:100B50008DFA40F20803C1F200039B784FF00400C5
:100B60004FF003011A464FF0030302F07FFA40F200
:100B70000803C1F20003DB784FF004004FF00701D7
:100B80001A464FF0030302F071FA40F20803C1F273
:100B900000031B794FF004004FF00B011A464FF091
:100BA000030302F063FA40F20803C1F200035B7929
:100BB0004FF004004FF00F011A464FF0030302F00C
:100BC00055FA40F20803C1F200039B794FF003008D
:100BD0004FF011011A464FF0030302F047FA40F2BA
:100BE0000803C1F20003DB794FF002004FF012015D
:100BF0001A464FF0030302F039FA38E1BB6803F1FB
:100C00000103BB60BB68322B40F0ED8040F218035B
:100C1000C1F200031B787B6040F21803C1F20003AD
:100C20005B784FEA03237A6842EA03037B604FF064
:100C300002004FF004017A684FF0050302F016FA43
:100C400040F21803C1F200039B787B6040F2180366
:100C5000C1F20003DB784FEA03237A6842EA030318
:100C60007B604FF003004FF004017A684FF00503FA
:100C700002F0FCF940F21803C1F200031B797B601B
:100C800040F21803C1F200035B794FEA03237A684C
:100C900042EA03037B604FF004004FF004017A68DE
:100CA0004FF0050302F0E2F940F22003C1F2000325
:100CB0001B787B6040F22003C1F200035B784FEAAF
:100CC00003237A6842EA03037B604FF002004FF08F
:100CD0000A017A684FF0050302F0C8F940F22003D8
:100CE000C1F200039B787B6040F22003C1F2000355
:100CF000DB784FEA03237A6842EA03037B604FF014
:100D000003004FF00A017A684FF0050302F0AEF9D4
:100D100040F22003C1F200031B797B6040F2200304
:100D2000C1F200035B794FEA03237A6842EA0303C6
:100D30007B604FF004004FF00A017A684FF0050322
:100D400002F094F940F22803C1F200035B787B6063
:100D500040F22803C1F200031B784FEA03237A68AC
:100D600042EA03037B604FF002004FF010017A6803
:100D70004FF0050302F07AF940F22803C1F20003B4
:100D8000DB787B6040F22803C1F200039B784FEAD6
:100D900003237A6842EA03037B604FF003004FF0BD
:100DA00010017A684FF0050302F060F940F2280361
:100DB000C1F200035B797B6040F22803C1F20003BB
:100DC0001B794FEA03237A6842EA03037B604FF002
:100DD00004004FF010017A684FF0050302F046F965
:100DE0004FF00003BB6042E04FF023004FF02301BF
:100DF00002F0A8FCFFF72AFB02F008FDFFF726FB34
:100E00004FF0DD004FF0DD0102F09CFCFFF71EFB10
:100E100002F0FCFCFFF71AFB4FF0DD004FF023015E
:100E200002F090FCFFF76EFB02F0F0FCFFF70EFB08
:100E30004FF023004FF0DD0102F084FCFFF762FB6E
:100E4000FFF760FB02F0E2FCFFF700FB4FF0DD0074
:100E50004FF0230102F076FCFFF754FB02F0D6FCC2
:100E6000FFF7F4FA4FF00003FB7300E000BFBBE4B0
:100E700080B483B000AF4FF000037B604FF4404379
:100E8000C4F20F034FF02002C3F8A02100BF4FF4BB
:100E90004043C4F20F03D3F8A03103F04003002B0A
:100EA000F5D04FF44043C4F20F034FF00202C3F8F1
:100EB00004214FF44043C4F20F034FF00002C3F883
:100EC000A8214FF44043C4F20F034FF00002C3F8CF
:100ED000AC214FF44043C4F20F034FF00102C3F8BA
:100EE0000C214FF44043C4F20F034FF05902C0F2FB
:100EF0000502C3F884204FF44043C4F20F034FF0BF
:100F00000102C3F880204FF44043C4F20F034FF0B6
:100F1000AA02C3F88C204FF44043C4F20F034FF0F1
:100F20005502C3F88C204FF44043C4F20F03D3F8AA
:100F30000C31022B0BD000BF4FF44043C4F20F031F
:100F4000D3F8883003F08063002BF5D00AE04FF02F
:100F500000037B6003E07B6803F101037B607B6837
:100F6000642BF8D94FF44043C4F20F034FF003024F
:100F7000C3F880204FF44043C4F20F034FF0AA029D
:100F8000C3F88C204FF44043C4F20F034FF05502D6
:100F9000C3F88C204FF44043C4F20F034FF02302F8
:100FA000C3F8A4204FF44043C4F20F034FF00102F2
:100FB000C3F8A0204FF44043C4F20F034FF0AA023D
:100FC000C3F8AC204FF44043C4F20F034FF0550276
:100FD000C3F8AC2000BF4FF44043C4F20F03D3F872
:100FE000A83003F48063002BF5D04FF44043C4F2E3
:100FF0000F034FF00302C3F8A0204FF44043C4F2A4
:101000000F034FF0AA02C3F8AC204FF44043C4F2E0
:101010000F034FF05502C3F8AC204FF44043C4F225
:101020000F0348F2DE72C0F22842C3F8C4204FF426
:101030004043C4F20F034FF00002C3F8C8214FF43D
:101040004043C4F20F0343F23A021A6007F10C075F
:10105000BD4680BC704700BF80B400AF4FF4404332
:10106000C4F20F03D3F888304FEA136303F003038D
:10107000032B40F0B2804FF44043C4F20F03D3F887
:101080000C3103F00303032B00F2FD8001A252F8A0
:1010900023F000BFA51000000D1100007711000023
:1010A000A51000004FF44043C4F20F03D3F888307A
:1010B0004FEA43434FEA534303F101034FEA43022C
:1010C0004FF44043C4F20F03D3F888304FEA134380
:1010D00003F0FF0303F10103B2FBF3F24FF41063DB
:1010E000C0F23D0303FB02F24FF44043C4F20F038E
:1010F000D3F8043103F0FF0303F10103B2FBF3F271
:1011000040F24C03C1F200031A60BDE04FF44043CB
:10111000C4F20F03D3F888304FEA43434FEA5343F6
:1011200003F101034FEA43024FF44043C4F20F03BB
:10113000D3F888304FEA134303F0FF0303F10103B0
:10114000B2FBF3F24FF4D853C0F2B70303FB02F241
:101150004FF44043C4F20F03D3F8043103F0FF030C
:1011600003F10103B2FBF3F240F24C03C1F20003BE
:101170001A6000BF88E04FF44043C4F20F03D3F875
:1011800088304FEA43434FEA534303F101034FEAE8
:1011900043024FF44043C4F20F03D3F888304FEAC0
:1011A000134303F0FF0303F10103B2FBF3F34FF426
:1011B000FA4202FB03F24FF44043C4F20F03D3F8A8
:1011C000043103F0FF0303F10103B2FBF3F240F239
:1011D0004C03C1F200031A6056E04FF44043C4F2DE
:1011E0000F03D3F80C3103F00303032B4CD801A2F7
:1011F00052F823F005120000311200005D120000C9
:10120000051200004FF44043C4F20F03D3F8043139
:1012100003F0FF0303F101024FF41063C0F23D033A
:10122000B3FBF2F240F24C03C1F200031A602BE070
:101230004FF44043C4F20F03D3F8043103F0FF032B
:1012400003F101024FF4D853C0F2B703B3FBF2F23B
:1012500040F24C03C1F200031A6015E04FF4404322
:10126000C4F20F03D3F8043103F0FF0303F10103C9
:101270004FF4FA42B2FBF3F240F24C03C1F2000326
:101280001A6000BF00E000BFBD4680BC704700BFD1
:1012900080B487B000AF78604FF44043C4F20F03CE
:1012A0004FF44042C4F20F02D2F8C42042F48052FC
:1012B000C3F8C4204FF000037B610CE040F2DC0374
:1012C000C1F200037A694FF0000143F822107B69F4
:1012D00003F101037B617B69052BEFD94FF4404398
:1012E000C4F202034FF44042C4F20202526822F4F4
:1012F00040325A604FF44043C4F202034FF440427C
:10130000C4F20202526842F480325A604FF4404301
:10131000C4F202034FF44042C4F20202526C22F4BF
:1013200040325A644FF44043C4F202034FF4404247
:10133000C4F20202526C42F400325A644FF4404349
:10134000C4F202034FF44042C4F20202D26842F0F7
:101350004042DA604FF44043C4F202034FF440428B
:10136000C4F20202D26C22F04042DA644FF44043ED
:10137000C4F202034FF44042C4F20202D26C42F0C3
:101380000042DA644FF44043C4F20F03D3F8A831AB
:101390004FEA136303F00303FB60FB68022B13D0D7
:1013A000032B1AD0012B08D040F24C03C1F20003EA
:1013B0001B684FEA93033B6118E040F24C03C1F213
:1013C00000031B683B6111E040F24C03C1F20003D3
:1013D0001B684FEA53033B6108E040F24C03C1F243
:1013E00000031B684FEAD3033B6100BF4FF4804307
:1013F000C4F2030339697A68B1FBF2F202F1FF32F9
:101400004FEA022242F4001242F001021A6007F190
:101410001C07BD4680BC704780B485B000AF034652
:10142000FB71FB79052B02D94FF00003FB714FF4E0
:101430008043C4F203034FF48042C4F203021268F3
:1014400022F0FF021A604FF48043C4F203034FF40A
:101450008042C4F2030212681146FA794FF001008B
:1014600000FA02F241EA020242F080721A6000E0E1
:1014700000BF4FF48043C4F20303FA7902F104027F
:1014800053F82230FB60FB68002BF1DA4FF4804305
:10149000C4F203034FF48042C4F20302126822F044
:1014A000E0621A60FB6803F08043002B02D04FF02B
:1014B000000308E0FB684FEA13134FEA03534FEAB7
:1014C0001353BB60BB68184607F11407BD4680BCC8
:1014D000704700BF80B584B000AF02460B46FA717A
:1014E000BB7140F28023C1F200034FF002025A6048
:1014F000BA7940F2F403C1F200035A6040F2C0131B
:10150000C1F200034FF0F80283F8402040F2C0130C
:10151000C1F20003FA7983F8412040F2C013C1F20E
:1015200000034FF0F90283F842204FF0010001F070
:10153000B5F9F860FB68184607F11007BD4680BD95
:1015400080B584B000AF78604FF00003FB734FF0BC
:101550000003BB6040F20013C1F200034FF0000231
:1015600083F8402040F20013C1F200034FF0000264
:1015700083F8412040F20013C1F200034FF0000253
:1015800083F842204FF031004FF00301FFF7A2FF34
:1015900003460C2B1AD14FF00003FB7310E0FB7BCA
:1015A0007A68D218F97B40F20013C1F200035B188D
:1015B00093F84030DBB21370FB7B03F10103FB7344
:1015C000FB7B022BEBD94FF00103BB60FEF728FF3A
:1015D000BB68184607F11007BD4680BD80B483B0D4
:1015E00000AF0346FB714FF46143CEF2000397F95D
:1015F00007204FEA5212F97901F01F014FF0010064
:1016000000FA01F143F8221007F10C07BD4680BC37
:10161000704700BF80B483B000AF03463960FB71F0
:1016200097F90730002B10DA4FF46D43CEF2000328
:10163000FA7902F00F02A2F104013A68D2B24FEA3D
:10164000C202D2B25B181A760DE04FF46143CEF2BB
:10165000000397F907103A68D2B24FEAC202D2B239
:101660005B1883F8002307F10C07BD4680BC704768
:1016700080B483B000AF40F27403C1F200034FF0B6
:1016800000021A604FF44043C4F201035B68FB712F
:10169000FB79A3F10803502B00F22B8201A252F830
:1016A00023F000BFE9170000F31A0000F31A00004E
:1016B000F31A0000F31A0000F31A0000F31A0000F6
:1016C000F31A000035180000F31A0000F31A0000A6
:1016D000F31A0000F31A0000F31A0000F31A0000D6
:1016E000F31A000081180000F31A0000F31A00003A
:1016F000F31A0000F31A0000F31A0000F31A0000B6
:10170000F31A0000C71A0000F31A0000F31A0000D1
:10171000F31A0000F31A0000F31A0000F31A000095
:10172000F31A0000EB180000F31A0000F31A00008F
:10173000F31A0000F31A0000F31A0000F31A000075
:10174000F31A00007F190000F31A0000F31A0000DA
:10175000F31A0000F31A0000F31A0000F31A000055
:10176000F31A0000F31A0000F31A0000F31A000045
:10177000F31A0000F31A0000F31A0000F31A000035
:10178000F31A0000AB190000F31A0000F31A00006E
:10179000F31A0000F31A0000F31A0000F31A000015
:1017A000F31A0000C71A0000F31A0000F31A000031
:1017B000F31A0000F31A0000F31A0000F31A0000F5
:1017C000F31A0000F5190000F31A0000F31A0000E4
:1017D000F31A0000F31A0000F31A0000F31A0000D5
:1017E000F31A00006D1A000040F28C03C1F20003EE
:1017F0004FF000021A604FF44043C4F2010340F27C
:101800008C02C1F20002116840F2C012C1F2000263
:10181000525CD2B29A6001F1010240F28C03C1F233
:1018200000031A604FF44043C4F201034FF0280252
:101830009A616DE140F28003C1F200034FF00002B3
:101840001A604FF44043C4F2010340F28C02C1F22B
:101850000002116840F2C012C1F20002525CD2B222
:101860009A6001F1010240F28C03C1F200031A6098
:101870004FF44043C4F201034FF028029A6147E15C
:1018800040F28023C1F200031B68012B0ED14FF4FC
:101890004043C4F201034FF010021A6040F26803A3
:1018A000C1F200034FF007021A6016E04FF4404304
:1018B000C4F2010340F28C02C1F20002116840F24E
:1018C000C012C1F20002525CD2B29A6001F1010270
:1018D00040F28C03C1F200031A604FF44043C4F29B
:1018E00001034FF008029A6112E140F28023C1F235
:1018F00000031B681A4640F28C03C1F200031B6808
:101900009A4217D94FF44043C4F2010340F28C02CB
:10191000C1F20002116840F2C012C1F20002525C32
:10192000D2B29A6001F1010240F28C03C1F20003CD
:101930001A601CE040F2F403C1F200031B68002BA4
:1019400007D04FF44043C4F201034FF020021A6065
:101950000DE04FF44043C4F201034FF010021A604F
:1019600040F26803C1F200034FF00C021A604FF41A
:101970004043C4F201034FF008029A61C8E04FF4FB
:101980004043C4F201034FF010021A6040F26803B2
:10199000C1F200034FF009021A604FF44043C4F251
:1019A00001034FF008029A61B2E040F28003C1F2F5
:1019B00000031B6803F1010240F2F403C1F20003CB
:1019C0001B689A4207D24FF44043C4F201034FF020
:1019D00004021A6006E04FF44043C4F201034FF0E2
:1019E00004029A614FF44043C4F201034FF008022D
:1019F0009A618DE040F28003C1F200031A684FF44F
:101A00004043C4F201039B68D9B240F20013C1F213
:101A10000003995402F1010240F28003C1F2000375
:101A20001A6040F28003C1F200031B6803F1010257
:101A300040F2F403C1F200031B689A4207D24FF44C
:101A40004043C4F201034FF004021A6006E04FF471
:101A50004043C4F201034FF004029A614FF4404343
:101A6000C4F201034FF008029A6151E040F2800392
:101A7000C1F200031A684FF44043C4F201039B68AB
:101A8000D9B240F20013C1F20003995402F10102ED
:101A900040F28003C1F200031A6040F26803C1F211
:101AA00000034FF00C021A604FF44043C4F20103EC
:101AB0004FF010021A604FF44043C4F201034FF09C
:101AC00008029A6124E04FF44043C4F201034FF04E
:101AD00010021A6040F26803C1F200034FF00802DE
:101AE0001A604FF44043C4F201034FF008029A61B8
:101AF0000EE040F26803C1F200034FF00A021A60E0
:101B00004FF44043C4F201034FF008029A6100BF52
:101B100007F10C07BD4680BC704700BF80B483B09E
:101B200000AF40F27403C1F200034FF000025A60AC
:101B30004FF44043C4F205035B68FB71FB79A3F1EA
:101B40000803502B00F2378201A252F823F000BFA5
:101B5000951C0000B71F0000B71F0000B71F000052
:101B6000B71F0000B71F0000B71F0000B71F00001D
:101B7000E51C0000B71F0000B71F0000B71F0000E2
:101B8000B71F0000B71F0000B71F0000B71F0000FD
:101B9000351D0000B71F0000B71F0000B71F000071
:101BA000B71F0000B71F0000B71F0000B71F0000DD
:101BB0008B1F0000B71F0000B71F0000B71F0000F9
:101BC000B71F0000B71F0000B71F0000B71F0000BD
:101BD000A31D0000B71F0000B71F0000B71F0000C3
:101BE000B71F0000B71F0000B71F0000B71F00009D
:101BF0003B1E0000B71F0000B71F0000B71F00000A
:101C0000B71F0000B71F0000B71F0000B71F00007C
:101C1000B71F0000B71F0000B71F0000B71F00006C
:101C2000B71F0000B71F0000B71F0000B71F00005C
:101C3000671E0000B71F0000B71F0000B71F00009D
:101C4000B71F0000B71F0000B71F0000B71F00003C
:101C50008B1F0000B71F0000B71F0000B71F000058
:101C6000B71F0000B71F0000B71F0000B71F00001C
:101C7000B11E0000B71F0000B71F0000B71F000013
:101C8000B71F0000B71F0000B71F0000B71F0000FC
:101C90002D1F000040F29003C1F200034FF000023C
:101CA0001A604FF44043C4F2050340F29002C1F2BF
:101CB0000002116840F2C012C1F20002521892F8FC
:101CC0004020D2B29A6001F1010240F29003C1F2C9
:101CD00000031A604FF44043C4F205034FF028029A
:101CE0009A6177E140F28403C1F200034FF00002F1
:101CF0001A604FF44043C4F2050340F29002C1F26F
:101D00000002116840F2C012C1F20002521892F8AB
:101D10004020D2B29A6001F1010240F29003C1F278
:101D200000031A604FF44043C4F205034FF0280249
:101D30009A614FE140F28023C1F200035B68012BFE
:101D40000ED14FF44043C4F205034FF010021A6065
:101D500040F26803C1F200034FF007025A6018E036
:101D60004FF44043C4F2050340F29002C1F2000276
:101D7000116840F2C012C1F20002521892F84020DD
:101D8000D2B29A6001F1010240F29003C1F2000365
:101D90001A604FF44043C4F205034FF008029A6101
:101DA00018E140F28023C1F200035B681A4640F25A
:101DB0009003C1F200031B689A4219D94FF44043C3
:101DC000C4F2050340F29002C1F20002116840F231
:101DD000C012C1F20002521892F84020D2B29A60AA
:101DE00001F1010240F29003C1F200031A601CE00D
:101DF00040F2F403C1F200035B68002B07D04FF4FC
:101E00004043C4F205034FF020021A600DE04FF486
:101E10004043C4F205034FF010021A6040F2680319
:101E2000C1F200034FF00C025A604FF44043C4F279
:101E300005034FF008029A61CCE04FF44043C4F22E
:101E400005034FF010021A6040F26803C1F200036C
:101E50004FF009025A604FF44043C4F205034FF0BB
:101E600008029A61B6E040F28403C1F200031B68E5
:101E700003F1010240F2F403C1F200035B689A42ED
:101E800007D24FF44043C4F205034FF004021A6036
:101E900006E04FF44043C4F205034FF004029A6198
:101EA0004FF44043C4F205034FF008029A6191E0F9
:101EB00040F28403C1F200031A684FF44043C4F2B5
:101EC00005039B68D9B240F20013C1F200039B18CE
:101ED00083F8401002F1010240F28403C1F20003D2
:101EE0001A6040F28403C1F200031B6803F101028F
:101EF00040F2F403C1F200035B689A4207D24FF448
:101F00004043C4F205034FF004021A6006E04FF4A8
:101F10004043C4F205034FF004029A614FF440437A
:101F2000C4F205034FF008029A6153E040F28403C3
:101F3000C1F200031A684FF44043C4F205039B68E2
:101F4000D9B240F20013C1F200039B1883F840108D
:101F500002F1010240F28403C1F200031A6040F270
:101F60006803C1F200034FF00C025A604FF4404383
:101F7000C4F205034FF010021A604FF44043C4F25C
:101F800005034FF008029A6124E04FF44043C4F285
:101F900005034FF010021A6040F26803C1F200031B
:101FA0004FF008025A604FF44043C4F205034FF06B
:101FB00008029A610EE040F26803C1F200034FF09C
:101FC0000A025A604FF44043C4F205034FF008027E
:101FD0009A6100BF07F10C07BD4680BC704700BF87
:101FE00080B483B000AF40F27403C1F200034FF03D
:101FF00000029A604FF00003C4F20A035B68FB71B1
:10200000FB79A3F10803502B00F2378201A252F8AA
:1020100023F000BF592100007B2400007B24000036
:102020007B2400007B2400007B2400007B24000034
:102030007B240000A92100007B2400007B240000F9
:102040007B2400007B2400007B2400007B24000014
:102050007B240000F92100007B2400007B24000089
:102060007B2400007B2400007B2400007B240000F4
:102070007B2400004F2400007B2400007B24000010
:102080007B2400007B2400007B2400007B240000D4
:102090007B240000672200007B2400007B240000DA
:1020A0007B2400007B2400007B2400007B240000B4
:1020B0007B240000FF2200007B2400007B24000022
:1020C0007B2400007B2400007B2400007B24000094
:1020D0007B2400007B2400007B2400007B24000084
:1020E0007B2400007B2400007B2400007B24000074
:1020F0007B2400002B2300007B2400007B240000B5
:102100007B2400007B2400007B2400007B24000053
:102110007B2400004F2400007B2400007B2400006F
:102120007B2400007B2400007B2400007B24000033
:102130007B240000752300007B2400007B2400002A
:102140007B2400007B2400007B2400007B24000013
:102150007B240000F123000040F29403C1F200034D
:102160004FF000021A604FF00003C4F20A0340F27D
:102170009402C1F20002116840F2C012C1F20002E2
:10218000521892F88020D2B29A6001F1010240F216
:102190009403C1F200031A604FF00003C4F20A0373
:1021A0004FF028029A6177E140F28803C1F2000300
:1021B0004FF000021A604FF00003C4F20A0340F22D
:1021C0009402C1F20002116840F2C012C1F2000292
:1021D000521892F88020D2B29A6001F1010240F2C6
:1021E0009403C1F200031A604FF00003C4F20A0323
:1021F0004FF028029A614FE140F28023C1F20003C0
:102200009B68012B0ED14FF00003C4F20A034FF07C
:1022100010021A6040F26803C1F200034FF0070297
:102220009A6018E04FF00003C4F20A0340F29402EF
:10223000C1F20002116840F2C012C1F2000252184D
:1022400092F88020D2B29A6001F1010240F2940328
:10225000C1F200031A604FF00003C4F20A034FF00A
:1022600008029A6118E140F28023C1F200039B68E2
:102270001A4640F29403C1F200031B689A4219D92E
:102280004FF00003C4F20A0340F29402C1F20002CC
:10229000116840F2C012C1F20002521892F8802078
:1022A000D2B29A6001F1010240F29403C1F200033C
:1022B0001A601CE040F2F403C1F200039B68002B9B
:1022C00007D04FF00003C4F20A034FF020021A6057
:1022D0000DE04FF00003C4F20A034FF010021A6041
:1022E00040F26803C1F200034FF00C029A604FF015
:1022F0000003C4F20A034FF008029A61CCE04FF0E9
:102300000003C4F20A034FF010021A6040F268039F
:10231000C1F200034FF009029A604FF00003C4F2CB
:102320000A034FF008029A61B6E040F28803C1F256
:1023300000031B6803F1010240F2F403C1F2000341
:102340009B689A4207D24FF00003C4F20A034FF091
:1023500004021A6006E04FF00003C4F20A034FF0D3
:1023600004029A614FF00003C4F20A034FF008021E
:102370009A6191E040F28803C1F200031A684FF0BD
:102380000003C4F20A039B68D9B240F20013C1F201
:1023900000039B1883F8801002F1010240F28803C9
:1023A000C1F200031A6040F28803C1F200031B6807
:1023B00003F1010240F2F403C1F200039B689A4268
:1023C00007D24FF00003C4F20A034FF004021A6070
:1023D00006E04FF00003C4F20A034FF004029A61D2
:1023E0004FF00003C4F20A034FF008029A6153E071
:1023F00040F28803C1F200031A684FF00003C4F2F0
:102400000A039B68D9B240F20013C1F200039B1883
:1024100083F8801002F1010240F28803C1F2000348
:102420001A6040F26803C1F200034FF00C029A6098
:102430004FF00003C4F20A034FF010021A604FF08D
:102440000003C4F20A034FF008029A6124E04FF03F
:102450000003C4F20A034FF010021A6040F268034E
:10246000C1F200034FF008029A604FF00003C4F27B
:102470000A034FF008029A610EE040F26803C1F2CD
:1024800000034FF00A029A604FF00003C4F20A03FF
:102490004FF008029A6100BF07F10C07BD4680BCEF
:1024A000704700BF80B483B000AF786048F20C235F
:1024B000C0F200037A6853F822304FF010021A601D
:1024C00048F20C23C0F200037A6853F822304FF030
:1024D00008029A6100BF48F20C23C0F200037A6838
:1024E00053F822301B6803F01003002BF3D14FF098
:1024F0000103184607F10C07BD4680BC704700BFBA
:1025000080B500AF4FF44043C4F20F034FF4404294
:10251000C4F20F02D2F8C42042F08002C3F8C420F3
:102520004FF44043C4F202034FF44042C4F20202AB
:10253000526822F070725A604FF44043C4F20203B2
:102540004FF44042C4F20202526842F0A0725A6054
:102550004FF44043C4F201034FF06C029A614FF410
:102560004043C4F202034FF44042C4F20202D26F6D
:1025700022F00502DA674FF44043C4F201034FF43E
:10258000A8725A614FF44043C4F201034FF4A87299
:102590001A614FF00A004FF00001FFF73BF84FF0CF
:1025A0000A00FFF71BF84FF44043C4F201034FF059
:1025B00040021A6080BD00BF80B500AF4FF44043B9
:1025C000C4F20F034FF44042C4F20F02D2F8C42009
:1025D00042F40022C3F8C4204FF44043C4F2020383
:1025E0004FF44042C4F20202526822F470725A6000
:1025F0004FF44043C4F202034FF44042C4F20202DB
:10260000526842F470725A604FF44043C4F20203BD
:102610004FF44042C4F20202526C22F470725A64C7
:102620004FF44043C4F202034FF44042C4F20202AA
:10263000526C42F420725A644FF44043C4F20203D5
:102640004FF44042C4F20202926E42F4C0129A6603
:102650004FF44043C4F205034FF06C029A614FF40B
:102660004043C4F205034FF4A8725A614FF440434B
:10267000C4F205034FF4A8721A614FF00B00FEF785
:10268000ADFF4FF44043C4F205034FF040021A601F
:1026900080BD00BF80B483B000AF4FF000037B600B
:1026A0004FF44043C2F209034FF44042C2F2090220
:1026B000126922F0C0521A614FF44043C2F209037A
:1026C0004FF44042C2F20902126822F0C0521A606E
:1026D0004FF44043C2F209034FF44042C2F20902F0
:1026E000126842F080521A6048E04FF000037B60AD
:1026F00003E07B6803F101037B607A6842F20F73A9
:102700009A42F6D94FF44043C2F209034FF0805287
:102710009A614FF000037B6003E07B6803F10103E3
:102720007B607A6840F2E7339A42F6D94FF440432F
:10273000C2F209034FF08052DA614FF000037B6070
:1027400003E07B6803F101037B607A6840F2E733C2
:102750009A42F6D94FF44043C2F209034FF0805237
:102760009A614FF000037B6003E07B6803F1010393
:102770007B607A6842F20F739A42F6D94FF4404375
:10278000C2F209035B6903F00063002BADD007F1CF
:102790000C07BD4680BC704780B483B000AF4FF0DB
:1027A00000037B604FF44043C2F209034FF4404200
:1027B000C2F20902126922F4C0121A614FF44043B6
:1027C000C2F209034FF44042C2F20902126822F435
:1027D000C0121A604FF44043C2F209034FF4404262
:1027E000C2F20902126842F480121A6048E04FF007
:1027F00000037B6003E07B6803F101037B607A6880
:1028000042F20F739A42F6D94FF44043C2F20903E1
:102810004FF480129A614FF000037B6003E07B6805
:1028200003F101037B607A6840F2E7339A42F6D9FC
:102830004FF44043C2F209034FF48012DA614FF0C3
:1028400000037B6003E07B6803F101037B607A682F
:1028500040F2E7339A42F6D94FF44043C2F20903FB
:102860004FF480129A614FF000037B6003E07B68B5
:1028700003F101037B607A6842F20F739A42F6D942
:102880004FF44043C2F209035B6903F40023002BB9
:10289000ADD007F10C07BD4680BC704780B483B053
:1028A00000AF786048F20C23C0F200037A6853F856
:1028B00022304FF020021A6040F26803C1F2000398
:1028C0007A684FF0060143F8221027E040F27403C3
:1028D000C1F200037A6853F822301A464FF6FE73AD
:1028E000C0F2FF039A4209D940F26803C1F2000323
:1028F0007A684FF00B0143F8221018E040F274039D
:10290000C1F200037A6853F8223003F1010140F26A
:102910007403C1F200037A6843F8221040F268039E
:10292000C1F200037A6853F82230062BCED048F269
:102930000C23C0F200037A6853F822304FF02002D3
:102940009A6140F26803C1F200037A6853F82230BA
:10295000184607F10C07BD4680BC704780B500AF34
:102960004FF020004FF00F0100F00AF84FF0230065
:102970004FF0900100F004F8FDF752FD80BD00BF5C
:1029800080B584B000AF02460B46FA71BB7140F2CD
:102990008023C1F200034FF003025A6040F2F403B7
:1029A000C1F200034FF000025A6040F2C013C1F2BE
:1029B00000034FF0D20283F8402040F2C013C1F26E
:1029C0000003FA7983F8412040F2C013C1F20003FA
:1029D000BA7983F842204FF00100FFF75FFFF860FB
:1029E000FB68184607F11007BD4680BD80B584B06E
:1029F00000AF02460B46FA71BB7140F28023C1F270
:102A000000034FF002025A60BA7940F2F403C1F2B7
:102A100000035A6040F2C013C1F200034FF0D2022B
:102A200083F8402040F2C013C1F20003FA7983F822
:102A3000412040F2C013C1F200034FF0D30283F8EB
:102A400042204FF00100FFF729FFF860FB681846AD
:102A500007F11007BD4680BD80B584B000AF786037
:102A60004FF00003FB734FF00003BB6040F2001314
:102A7000C1F200034FF0000283F8402040F200133F
:102A8000C1F200034FF0000283F8412040F200132E
:102A9000C1F200034FF0000283F8422040F200131D
:102AA000C1F200034FF0000283F8432040F200130C
:102AB000C1F200034FF0000283F8442040F20013FB
:102AC000C1F200034FF0000283F8452040F20013EA
:102AD000C1F200034FF0000283F846204FF0A70038
:102AE0004FF00701FFF782FF03460C2B27D140F27E
:102AF0000013C1F2000393F84030DBB203F0080387
:102B0000002B1CD04FF00003FB7312E0FB7B7A68B4
:102B1000D218FB7B03F1010140F20013C1F2000364
:102B20005B1893F84030DBB21370FB7B03F10103B9
:102B3000FB73FB7B052BE9D94FF00103BB60FDF76D
:102B40006FFCBB68184607F11007BD4680BD00BF8B
:102B500080B500AF4FF020004FF0970100F00AF869
:102B60004FF023004FF0A00100F004F8FDF758FCEF
:102B700080BD00BF80B584B000AF02460B46FA713D
:102B8000BB7140F28023C1F200034FF003025A6090
:102B900040F2F403C1F200034FF000025A6040F229
:102BA000C013C1F200034FF0320283F8402040F21C
:102BB000C013C1F20003FA7983F8412040F2C01338
:102BC000C1F20003BA7983F842204FF00100FFF709
:102BD00065FEF860FB68184607F11007BD4680BD2A
:102BE00080B584B000AF02460B46FA71BB7140F26B
:102BF0008023C1F200034FF002025A60BA7940F21A
:102C0000F403C1F200035A6040F2C013C1F20003A2
:102C10004FF0320283F8402040F2C013C1F20003AB
:102C2000FA7983F8412040F2C013C1F200034FF05B
:102C3000330283F842204FF00100FFF72FFEF860C7
:102C4000FB68184607F11007BD4680BD80B584B00B
:102C500000AF78604FF00003FB734FF00003BB60E0
:102C600040F20013C1F200034FF0000283F840204D
:102C700040F20013C1F200034FF0000283F841203C
:102C800040F20013C1F200034FF0000283F842202B
:102C900040F20013C1F200034FF0000283F843201A
:102CA00040F20013C1F200034FF0000283F8442009
:102CB00040F20013C1F200034FF0000283F84520F8
:102CC00040F20013C1F200034FF0000283F84620E7
:102CD0004FF0A7004FF00701FFF782FF03460C2BD0
:102CE00027D140F20013C1F2000393F84030DBB269
:102CF00003F00803002B1CD04FF00003FB7312E01D
:102D0000FB7B7A68D218FB7B03F1010140F20013D0
:102D1000C1F200035B1893F84030DBB21370FB7B09
:102D200003F10103FB73FB7B052BE9D94FF0010392
:102D3000BB60FDF775FBBB68184607F11007BD4681
:102D400080BD00BF80B500AF4FF000004FF0100114
:102D500000F010F84FF001004FF0200100F00AF8E9
:102D60004FF002004FF0000100F004F8FDF758FBAF
:102D700080BD00BF80B584B000AF02460B46FA713B
:102D8000BB7140F28023C1F200034FF003025A608E
:102D900040F2F403C1F200034FF000025A6040F227
:102DA000C013C1F200034FF03C0283F8402040F210
:102DB000C013C1F20003FA7983F8412040F2C01336
:102DC000C1F20003BA7983F842204FF00100FFF707
:102DD00065FDF860FB68184607F11007BD4680BD29
:102DE00080B584B000AF02460B46FA71BB7140F269
:102DF0008023C1F200034FF002025A60BA7940F218
:102E0000F403C1F200035A6040F2C013C1F20003A0
:102E10004FF03C0283F8402040F2C013C1F200039F
:102E2000FA7983F8412040F2C013C1F200034FF059
:102E30003D0283F842204FF00100FFF72FFDF860BC
:102E4000FB68184607F11007BD4680BD80B584B009
:102E500000AF78604FF00003FB734FF00003BB60DE
:102E600040F20013C1F200034FF0000283F840204B
:102E700040F20013C1F200034FF0000283F841203A
:102E800040F20013C1F200034FF0000283F8422029
:102E900040F20013C1F200034FF0000283F8432018
:102EA00040F20013C1F200034FF0000283F8442007
:102EB00040F20013C1F200034FF0000283F84520F6
:102EC00040F20013C1F200034FF0000283F84620E5
:102ED0004FF002004FF00701FFF782FF03460C2B73
:102EE0001CD14FF00003FB7312E0FB7B7A68D21811
:102EF000FB7B03F1010140F20013C1F200035B18F8
:102F000093F84030DBB21370FB7B03F10103FB73DA
:102F1000FB7B052BE9D94FF00103BB60FDF780FA7D
:102F2000BB68184607F11007BD4680BD80B483B06A
:102F300000AF4FF000037B604FF000037B6003E0C5
:102F40007B6803F101037B607B68632BF8D907F191
:102F50000C07BD4680BC704780B500AF00F022FA78
:102F6000FFF7E4FF4FF0010000F0E2F9FFF7DEFFAA
:102F70004FF0040000F004F8FFF7D8FF80BD00BF59
:102F800080B584B000AF0346FB7140F28023C1F2EC
:102F900000034FF002025A6040F2F403C1F2000352
:102FA0004FF000025A6040F2C013C1F200034FF02C
:102FB000C60283F8402040F2C013C1F20003FA7940
:102FC00083F841204FF00100FFF768FCF860FB68D0
:102FD000184607F11007BD4680BD00BF80B584B01C
:102FE00000AF03463960FB714FF00003FB60FB79D3
:102FF00003F101031A4640F28023C1F200035A6034
:1030000040F2F403C1F200034FF000025A6040F2B4
:10301000C013C1F200034FF0C60283F840204FF006
:103020000003FB6013E0FB6803F101013B681A78C1
:1030300040F2C013C1F200035B1883F840203B68E4
:1030400003F101033B60FB6803F10103FB60FA79C4
:10305000FB689A42E7D84FF00100FFF71FFCB86009
:10306000BB68184607F11007BD4680BD80B58AB021
:1030700000AFBA600246FA730A46BA73FB714FF0AA
:1030800000037B624FF00003FB614FF0000387F801
:1030900023304FF0000387F82230FA7BBB7B1046C9
:1030A000194600F007F9FB79052B01D97B6AFCE092
:1030B000FB79052B03D097F82330012B1DD197F80E
:1030C0002210BA6841F25973CDF2B713A3FB020381
:1030D0004FEA5333DBB203F13003DAB207F12800D1
:1030E000431803F8182C97F8223003F1010387F8EE
:1030F00022304FF0010387F82330FB79042B03D0F3
:1031000097F82330012B2ED1BA6844F6D353C1F27D
:103110006203A3FB02134FEA9313FB6197F82200AB
:10312000F9694CF6CD43CCF6CC43A3FB01234FEA1F
:10313000D30213464FEA83039B184FEA4303CA1A8C
:10314000D3B203F13003DAB207F128010B1803F808
:10315000182C97F8223003F1010387F822304FF042
:10316000010387F82330FB79032B03D097F8233032
:10317000012B2ED1BA6848F21F53C5F2EB13A3FB03
:1031800002034FEA5313FB6197F82200F9694CF6EA
:10319000CD43CCF6CC43A3FB01234FEAD302134625
:1031A0004FEA83039B184FEA4303CA1AD3B203F1D1
:1031B0003003DAB207F128010B1803F8182C97F83E
:1031C000223003F1010387F822304FF0010387F822
:1031D0002330FB79022B03D097F82330012B2ED11B
:1031E000BA684CF6CD43CCF6CC43A3FB02034FEABE
:1031F000D303FB6197F82200F9694CF6CD43CCF676
:10320000CC43A3FB01234FEAD30213464FEA8303C7
:103210009B184FEA4303CA1AD3B203F13003DAB260
:1032200007F128010B1803F8182C97F8223003F146
:10323000010387F822304FF0010387F82330FB7930
:10324000012B03D097F82330012B20D197F82200CF
:10325000B9684CF6CD43CCF6CC43A3FB01234FEA2F
:10326000D30213464FEA83039B184FEA4303CA1A5B
:10327000D3B203F13003DAB207F128010B1803F8D7
:10328000182C97F8223003F1010387F82230FA79DD
:1032900007F1100310461946FFF7A0FE03460C2B5A
:1032A00002D14FF001037B627B6A184607F12807C1
:1032B000BD4680BD80B584B000AF02460B46FA71B2
:1032C000BB7140F28023C1F200034FF004025A6048
:1032D00040F2F403C1F200034FF000025A6040F2E2
:1032E000C013C1F200034FF0C60283F8402040F241
:1032F000C013C1F200034FF0030283F8412040F2F3
:10330000C013C1F20003FA7983F8422040F2C013DF
:10331000C1F20003BA7983F843204FF00100FFF7B0
:10332000BDFAF860FB68184607F11007BD4680BD7E
:1033300080B584B000AF0346FB7140F28023C1F238
:1033400000034FF002025A6040F2F403C1F200039E
:103350004FF000025A6040F2C013C1F200034FF078
:10336000C60283F84020FB79012B08D140F2C0133C
:10337000C1F200034FF0130283F8412007E040F24E
:10338000C013C1F200034FF0140283F841204FF044
:103390000100FFF783FAF860FB68184607F1100791
:1033A000BD4680BD80B582B000AF40F28023C1F23F
:1033B00000034FF002025A6040F2F403C1F200032E
:1033C0004FF000025A6040F2C013C1F200034FF008
:1033D000C60283F8402040F2C013C1F200034FF050
:1033E0000C0283F841204FF00100FFF757FA786094
:1033F0007B68184607F10807BD4680BD80B487B0DA
:1034000000AF78604FF000037B614FF000033B6139
:103410004FF00003FB604FF000033B6114E04FF0FE
:1034200000037B6107E0FB6803F10103FB607B693C
:1034300003F101037B617A6940F2A2239A42F2D937
:103440003B6903F101033B617A6813464FEA83034A
:103450009B184FEA43039A183B699A42DFD807F159
:103460001C07BD4680BC704780B500AF00F040F936
:1034700080BD00BF80B582B000AF4FF000037B601D
:1034800040F28C23C1F200034FF000021A7040F2A8
:103490008C23C1F200034FF000025A7040F28C23DB
:1034A000C1F200034FF000029A7040F28C23C1F287
:1034B00000034FF00002DA7040F2C903C1F20003CA
:1034C0004FF004021A7040F2A043C1F200034FF023
:1034D0004E021A7040F2A043C1F200034FF04502C1
:1034E0005A7040F2A043C1F200034FF058029A70A4
:1034F00040F2A043C1F200034FF02302DA704FF014
:10350000020040F2A041C1F200014FF0040201F0BC
:10351000BDFC40F2C903C1F200031B78DBB21846C0
:10352000FFF76CFF40F28C23C1F200031B78DBB283
:103530004FEA03637B6040F28C23C1F200035B78A7
:10354000DBB24FEA03437A6842EA03037B6040F24E
:103550008C23C1F200039B78DBB24FEA03237A6825
:1035600042EA03037B6040F28C23C1F20003DB7864
:10357000DBB27A6842EA03037B607B68184607F196
:103580000807BD4680BD00BF80B582B000AF4FF0D8
:1035900000037B6040F28C23C1F200034FF0000275
:1035A0001A7040F28C23C1F200034FF000025A70EF
:1035B00040F28C23C1F200034FF000029A7040F2F7
:1035C0008C23C1F200034FF00002DA7040F2C9030D
:1035D000C1F200034FF004021A7040F2A043C1F29E
:1035E00000034FF04E021A7040F2A043C1F20003F4
:1035F0004FF045025A7040F2A043C1F200034FF071
:1036000058029A7040F2A043C1F200034FF0240226
:10361000DA704FF0020040F2A041C1F200014FF019
:10362000040201F033FC40F2C903C1F200031B782D
:10363000DBB21846FFF7E2FE40F28C23C1F2000332
:103640001B78DBB24FEA03637B6040F28C23C1F24C
:1036500000035B78DBB24FEA03437A6842EA030374
:103660007B6040F28C23C1F200039B78DBB24FEA0F
:1036700003237A6842EA03037B6040F28C23C1F2A1
:103680000003DB78DBB27A6842EA03037B607B6885
:10369000184607F10807BD4680BD00BF80B500AFE2
:1036A00040F2A043C1F200034FF04E021A7040F204
:1036B000A043C1F200034FF045025A7040F2A0430C
:1036C000C1F200034FF058029A7040F2A043C1F2D9
:1036D00000034FF03502DA704FF0020040F2A041D3
:1036E000C1F200014FF0040201F0D0FB80BD00BF29
:1036F00080B500AF40F2A043C1F200034FF04E028C
:103700001A7040F2A043C1F200034FF045025A7014
:1037100040F2A043C1F200034FF058029A7040F209
:10372000A043C1F200034FF03802DA704FF00200FC
:1037300040F2A041C1F200014FF0040201F0A6FBEB
:1037400080BD00BF80B582B000AF02460B46FA7163
:10375000BB7140F2A043C1F200034FF04E021A7059
:1037600040F2A043C1F200034FF045025A7040F20C
:10377000A043C1F200034FF058029A7040F2A043F8
:10378000C1F200034FF03102DA7040F2A043C1F2FF
:103790000003FA791A714FF0020040F2A041C1F221
:1037A00000014FF0050201F071FB40F2A043C1F2AD
:1037B00000034FF04E021A7040F2A043C1F2000322
:1037C0004FF045025A7040F2A043C1F200034FF09F
:1037D00058029A7040F2A043C1F200034FF0320247
:1037E000DA7040F2A043C1F20003BA791A714FF0C7
:1037F000020040F2A041C1F200014FF0050201F0C9
:1038000045FB07F10807BD4680BD00BF80B500AF8E
:1038100040F2A043C1F200034FF04E021A7040F292
:10382000A043C1F200034FF045025A7040F2A0439A
:10383000C1F200034FF058029A7040F2A043C1F267
:1038400000034FF03102DA7040F2A043C1F20003EE
:103850004FF080021A714FF0020040F2A041C1F215
:1038600000014FF0050201F011FB40F2A043C1F24C
:1038700000034FF04E021A7040F2A043C1F2000361
:103880004FF045025A7040F2A043C1F200034FF0DE
:1038900058029A7040F2A043C1F200034FF0320286
:1038A000DA7040F2A043C1F200034FF080021A71B7
:1038B0004FF0020040F2A041C1F200014FF00502BA
:1038C00001F0E4FA80BD00BF80B582B000AF0346CE
:1038D000FB7140F2A043C1F200034FF04E021A7098
:1038E00040F2A043C1F200034FF045025A7040F28B
:1038F000A043C1F200034FF058029A7040F2A04377
:10390000C1F200034FF03302DA7040F2A043C1F27B
:103910000003FA791A714FF0020040F2A041C1F29F
:1039200000014FF0050201F0B1FA07F10807BD46AA
:1039300080BD00BF80B500AF40F29A03C1F2000322
:103940001B78DBB2002B74D040F29B03C1F2000362
:103950001B78DBB203F1FF33052B62D801A252F8CA
:1039600023F000BF7D3900009F390000F5390000C9
:10397000CD390000233A00001D3A000040F29803C0
:10398000C1F200031B78DAB240F29903C1F20003DE
:103990001B78DBB210461946FFF7D4FE42E040F236
:1039A0009803C1F200031B78DBB26FEA0303DAB2BB
:1039B00040F29903C1F200031B78DBB26FEA030304
:1039C000DBB210461946FFF7BDFE2BE040F298032C
:1039D000C1F200031B78DBB26FEA0303DAB240F2F4
:1039E0009903C1F200031B78DBB210461946FFF7BA
:1039F000A9FE17E040F29803C1F200031B78DAB287
:103A000040F29903C1F200031B78DBB26FEA0303B3
:103A1000DBB210461946FFF795FE03E0FFF7F6FE0E
:103A200000E000BF40F29A03C1F200034FF0000231
:103A30001A7080BD80B500AF40F29C03C1F2000354
:103A40001B78DBB2002B0FD040F29C03C1F20003C5
:103A50004FF000021A7040F29D03C1F200031B7880
:103A6000DBB21846FFF730FF80BD00BF80B584B0E1
:103A700000AF02460B46FA71BB7140F28023C1F2DF
:103A800000034FF003021A6040F2F403C1F2000396
:103A90004FF000021A6040F2C013C1F200034FF071
:103AA000E8021A7040F2C013C1F20003FA795A70AA
:103AB00040F2C013C1F20003BA799A704FF00000CF
:103AC000FEF7ECFEF860FB68184607F11007BD46EC
:103AD00080BD00BF80B584B000AF02460B46FA71CE
:103AE000BB7140F28023C1F200034FF002021A6062
:103AF000BA7940F2F403C1F200031A6040F2C01335
:103B0000C1F200034FF0E8021A7040F2C013C1F294
:103B10000003FA795A7040F2C013C1F200034FF06B
:103B2000E9029A704FF00000FEF7B8FEF860FB68FB
:103B3000184607F11007BD4680BD00BF80B584B0B0
:103B400000AF78604FF00003FB734FF00003BB60E1
:103B500040F20013C1F200034FF000021A7040F26D
:103B60000013C1F200034FF000025A7040F200133C
:103B7000C1F200034FF000029A7040F20013C1F24C
:103B800000034FF00002DA7040F20013C1F20003AC
:103B90004FF000021A7140F20013C1F200034FF01F
:103BA00000025A7140F20013C1F200034FF000020C
:103BB0009A7140F20013C1F200034FF00002DA7173
:103BC0004FF059004FF00801FFF784FF03460C2B1C
:103BD00018D14FF00003FB730EE0FB7B7A68D2181C
:103BE000F97B40F20013C1F200035B5CDBB213709F
:103BF000FB7B03F10103FB73FB7B072BEDD94FF03C
:103C00000103BB60FCF70CFCBB68184607F110070A
:103C1000BD4680BD80B584B000AF0346FB714FF058
:103C20000003FB60FB794FF05B001946FFF71EFFB6
:103C300003460C2B02D14FF00103FB60FB681846D2
:103C400007F11007BD4680BD80B500AF40F2A0036C
:103C5000C1F200031B78DBB2002B18D040F2A303A3
:103C6000C1F200031B78DBB2012B04D14FF001003D
:103C7000FFF7D0FF0BE040F2A303C1F200031B7873
:103C8000DBB2002B03D14FF00000FFF7C3FF80BD74
:103C900080B584B000AF78604FF00003FB734FF045
:103CA0000003BB6040F20013C1F200034FF00002BA
:103CB0001A7040F20013C1F200034FF000025A7074
:103CC00040F20013C1F200034FF000029A7040F27C
:103CD0000013C1F200034FF00002DA7040F200134B
:103CE000C1F200034FF000021A7140F20013C1F25A
:103CF00000034FF000025A7140F20013C1F20003BA
:103D00004FF000029A7140F20013C1F200034FF02D
:103D10000002DA714FF039004FF00801FFF7DAFEC8
:103D200003460C2B18D14FF00003FB730EE0FB7B16
:103D30007A68D218F97B40F20013C1F200035B5C91
:103D4000DBB21370FB7B03F10103FB73FB7B072BDF
:103D5000EDD94FF00103BB60FCF762FBBB6818466E
:103D600007F11007BD4680BD80B584B000AF0346A3
:103D7000FB714FF00003FB60FB794FF03B001946ED
:103D8000FFF774FE03460C2B02D14FF00103FB60DA
:103D9000FB68184607F11007BD4680BD80B500AF2F
:103DA00040F29F03C1F200031B78DBB2002B18D056
:103DB00040F2A203C1F200031B78DBB2012B04D155
:103DC0004FF00100FFF7D0FF0BE040F2A203C1F279
:103DD00000031B78DBB2002B03D14FF00000FFF78C
:103DE000C3FF80BD80B584B000AF78604FF00003A2
:103DF000FB734FF00003BB6040F20013C1F20003FD
:103E00004FF000021A7040F20013C1F200034FF0AD
:103E100000025A7040F20013C1F200034FF000029A
:103E20009A7040F20013C1F200034FF00002DA7002
:103E300040F20013C1F200034FF000021A7140F289
:103E40000013C1F200034FF000025A7140F2001358
:103E5000C1F200034FF000029A7140F20013C1F268
:103E600000034FF00002DA714FF079004FF00801C3
:103E7000FFF730FE03460C2B18D14FF00003FB7305
:103E80000EE0FB7B7A68D218F97B40F20013C1F296
:103E900000035B5CDBB21370FB7B03F10103FB737C
:103EA000FB7B072BEDD94FF00103BB60FCF7B8FAA1
:103EB000BB68184607F11007BD4680BD80B584B0C9
:103EC00000AF0346FB714FF00003FB60FB794FF03E
:103ED0007B001946FFF7CAFD03460C2B02D14FF0B9
:103EE0000103FB60FB68184607F11007BD4680BD63
:103EF00080B500AF40F29E03C1F200031B78DBB235
:103F0000002B18D040F2A103C1F200031B78DBB2F2
:103F1000012B04D14FF00100FFF7D0FF0BE040F27E
:103F2000A103C1F200031B78DBB2002B03D14FF0D9
:103F30000000FFF7C3FF80BD80B584B000AF02462C
:103F40000B46FA71BB71304BFB60FB79B42B02D985
:103F50004FF0B403FB71FB79184604F0E9F803460F
:103F6000184604F0E9F802460B461046194624A309
:103F7000D3E9002303F060FE02460B4610461946C3
:103F80004FF000024FF0804303F5840303F0E2FF9B
:103F900002460B461046194604F07AF80346FB60C9
:103FA000BB79022B0ED0032B17D0012B21D1F8683F
:103FB00004F098F80346DBB24FF0A1001946FFF772
:103FC00055FD17E0F86804F08DF80346DBB24FF0BA
:103FD000A2001946FFF74AFD0CE0F86804F082F8E9
:103FE0000346DBB24FF0A3001946FFF73FFD00BFC9
:103FF00000E000BF07F11007BD4680BDAFF30080B1
:10400000295C8FC2F528FC3F00000000AFF3008060
:1040100080B584B000AF02460B46FA71BB8040F217
:104020008023C1F200034FF004021A6040F2F4034F
:10403000C1F200034FF000021A6040F2C013C1F257
:1040400000034FF046021A7040F2C013C1F20003A1
:10405000FA795A70BB884FEA13239BB2DAB240F266
:10406000C013C1F200039A70BB88DAB240F2C013E9
:10407000C1F20003DA704FF00000FEF70FFCF860A9
:10408000FB68184607F11007BD4680BD80B584B0B7
:1040900000AF02460B46FA71BB7140F28023C1F2B9
:1040A00000034FF002021A60BA7940F2F403C1F241
:1040B00000031A6040F2C013C1F200034FF0460241
:1040C0001A7040F2C013C1F20003FA795A7040F23C
:1040D000C013C1F200034FF047029A704FF0000086
:1040E000FEF7DCFBF860FB68184607F11007BD46D9
:1040F00080BD00BF80B584B000AF78604FF0000392
:10410000FB734FF00003BB6040F20013C1F20003E9
:104110004FF000021A7040F20013C1F200034FF09A
:1041200000025A7040F20013C1F200034FF0000287
:104130009A7040F20013C1F200034FF00002DA70EF
:1041400040F20013C1F200034FF000021A7140F276
:104150000013C1F200034FF000025A7140F2001345
:10416000C1F200034FF000029A7140F20013C1F255
:1041700000034FF00002DA7140F20013C1F20003B5
:104180004FF000021A7240F20013C1F200034FF028
:1041900000025A7240F20013C1F200034FF0000215
:1041A0009A7240F20013C1F200034FF00002DA727B
:1041B00040F20013C1F200034FF000021A7340F204
:1041C0000013C1F200034FF000025A7340F20013D3
:1041D000C1F200034FF000029A7340F20013C1F2E3
:1041E00000034FF00002DA734FF070004FF010013F
:1041F000FFF74CFF03460C2B18D14FF00003FB7365
:104200000EE0FB7B7A68D218F97B40F20013C1F212
:1042100000035B5CDBB21370FB7B03F10103FB73F8
:10422000FB7B0F2BEDD94FF00103BB60BB68184639
:1042300007F11007BD4680BD80B483B000AF0346D0
:10424000FB714FF46143CEF2000397F907204FEA68
:104250005212F97901F01F014FF0010000FA01F14B
:1042600043F8221007F10C07BD4680BC704700BF21
:1042700080B483B000AF03463960FB7197F9073013
:10428000002B10DA4FF46D43CEF20003FA7902F0FE
:104290000F02A2F104013A68D2B24FEAC202D2B2CE
:1042A0005B181A760DE04FF46143CEF2000397F9E4
:1042B00007103A68D2B24FEAC202D2B25B1883F852
:1042C000002307F10C07BD4680BC704780B483B063
:1042D00000AF0346FB7197F90730002B0FDA4FF45C
:1042E0006D43CEF20003FA7902F00F02A2F104024C
:1042F0009B181B7EDBB24FEAD303DBB20CE04FF41A
:104300006143CEF2000397F907209B1893F800331E
:10431000DBB24FEAD303DBB2184607F10C07BD4608
:1043200080BC704780B582B000AF4FF44043C4F208
:1043300000039B68BB71BB794FEA5303BB71BB7928
:1043400003F00703BB71BB79032B4DD14FF44043FE
:10435000C4F200035B697B717B7903F09E03002B41
:104360000CD07A7940F22053C1F200031A604FF466
:104370004043C4F200031B68FB7194E07B7903F0B7
:104380000103DBB2002B00F08E804FF44043C4F2F7
:1043900000031B68DAB240F2DC33C1F200031A708A
:1043A00040F2DC33C1F200031B78DBB2184600F0A8
:1043B00017FE40F2A803C1F200031B6803F10102DB
:1043C00040F2A803C1F200031A6040F2A803C1F250
:1043D00000031B68402B66D140F2A803C1F2000322
:1043E0004FF000021A605EE0BB79022B2ED14FF431
:1043F0004043C4F200031B68DAB240F2DC33C1F27E
:1044000000031A7040F2DC33C1F200031B78DBB208
:10441000184600F0E5FD40F2A803C1F200031B6856
:1044200003F1010240F2A803C1F200031A6040F256
:10443000A803C1F200031B68402B34D140F2A8034B
:10444000C1F200034FF000021A602CE0BB79062B8A
:104450000CD140F22053C1F200031B6843F4807278
:1044600040F22053C1F200031A601CE0BB79012B1B
:1044700019D14FF44043C4F200035B697B717B792F
:1044800003F02003002B07D040F25003C1F20003D9
:104490004FF001021A7006E040F25003C1F200032F
:1044A0004FF000021A7007F10807BD4680BD00BF3B
:1044B00080B582B000AF4FF00003C4F201039B68E7
:1044C000BB71BB794FEA5303BB71BB7903F00703A0
:1044D000BB71BB79032B4FD14FF00003C4F2010332
:1044E0005B697B717B7903F09E03002B0CD07A799A
:1044F00040F25C43C1F200031A604FF00003C4F2C3
:1045000001031B68FB7198E07B7903F00103DBB2C8
:10451000002B00F092804FF00003C4F201031B68EF
:10452000DAB240F29433C1F200031A7040F29433CD
:10453000C1F200031B78DBB24FF00100194600F016
:1045400013FE40F2AC03C1F200031B6803F1010249
:1045500040F2AC03C1F200031A6040F2AC03C1F2B6
:1045600000031B68402B68D140F2AC03C1F200038A
:104570004FF000021A6060E0BB79022B30D14FF09F
:104580000003C4F201031B68DAB240F29433C1F2B3
:1045900000031A7040F29433C1F200031B78DBB2BF
:1045A0004FF00100194600F0DFFD40F2AC03C1F20C
:1045B00000031B6803F1010240F2AC03C1F20003E7
:1045C0001A6040F2AC03C1F200031B68402B34D1E7
:1045D00040F2AC03C1F200034FF000021A602CE07D
:1045E000BB79062B0CD140F25C43C1F200031B687F
:1045F00043F4807240F25C43C1F200031A601CE095
:10460000BB79012B19D14FF00003C4F201035B69A0
:104610007B717B7903F02003002B07D040F251031C
:10462000C1F200034FF001021A7006E040F251039C
:10463000C1F200034FF000021A7007F10807BD46EF
:1046400080BD00BF80B483B000AF4FF40043C4F21C
:1046500009039B68BB71BB794FEA5303BB71BB79FC
:1046600003F00703BB71BB79032B5AD14FF400430E
:10467000C4F209035B697B717B7903F09E03002B15
:104680000CD07A7940F2D433C1F200031A604FF4AF
:104690000043C4F209031B68FB71ADE07B7903F0B2
:1046A0000103DBB2002B00F0A78040F2B003C1F29F
:1046B00000031A684FF40043C4F209031B68D9B21F
:1046C00040F28C23C1F20003995402F1010240F23E
:1046D000B003C1F200031A6040F2C903C1F2000343
:1046E0001B78DBB21A4640F2B003C1F200031B682C
:1046F0009A4240F0818040F2B003C1F200034FF0D3
:1047000000021A6040F2C903C1F200034FF0000238
:104710001A7040F2C803C1F200034FF001021A7090
:104720006AE0BB79022B3AD140F2B003C1F2000338
:104730001A684FF40043C4F209031B68D9B240F26F
:104740008C23C1F20003995402F1010240F2B0033C
:10475000C1F200031A6040F2C903C1F200031B78E2
:10476000DBB21A4640F2B003C1F200031B689A4262
:1047700042D140F2B003C1F200034FF000021A60D0
:1047800040F2C903C1F200034FF000021A7040F278
:10479000C803C1F200034FF001021A702CE0BB798C
:1047A000062B0CD140F2D433C1F200031B6843F452
:1047B000807240F2D433C1F200031A601CE0BB796E
:1047C000012B19D14FF40043C4F209035B697B71DB
:1047D0007B7903F02003002B07D040F25203C1F293
:1047E00000034FF001021A7006E040F25203C1F2DA
:1047F00000034FF000021A7007F10C07BD4680BCA1
:10480000704700BF80B582B000AF4FF44043C4F2A0
:1048100009039B68BB71BB794FEA5303BB71BB793A
:1048200003F00703BB71BB79032B4FD14FF4404317
:10483000C4F209035B697B717B7903F09E03002B53
:104840000CD07A7940F22053C1F200031A604FF481
:104850004043C4F209031B68FB7198E07B7903F0C5
:104860000103DBB2002B00F092804FF44043C4F20E
:1048700009031B68DAB240F26043C1F200031A7008
:1048800040F26043C1F200031B78DBB24FF003003B
:10489000194600F069FC40F2B403C1F200031B6842
:1048A00003F1010240F2B403C1F200031A6040F2C6
:1048B000B403C1F200031B68402B68D140F2B4037B
:1048C000C1F200034FF000021A6060E0BB79022BD6
:1048D00030D14FF44043C4F209031B68DAB240F20E
:1048E0006043C1F200031A7040F26043C1F200035A
:1048F0001B78DBB24FF00300194600F035FC40F2A4
:10490000B403C1F200031B6803F1010240F2B403D7
:10491000C1F200031A6040F2B403C1F200031B6845
:10492000402B34D140F2B403C1F200034FF0000237
:104930001A602CE0BB79062B0CD140F2D833C1F2BF
:1049400000031B6843F4807240F2D833C1F20003C5
:104950001A601CE0BB79012B19D14FF44043C4F21B
:1049600009035B697B717B7903F02003002B07D07F
:1049700040F25303C1F200034FF001021A7006E047
:1049800040F25303C1F200034FF000021A7007F126
:104990000807BD4680BD00BF80B586B000AF786017
:1049A00039604FF000033B617B68002B40F086804C
:1049B0004FF44043C4F202034FF44042C4F20202F7
:1049C000126822F0F0021A604FF44043C4F202036E
:1049D0004FF44042C4F20202126842F050021A60E0
:1049E0004FF44043C4F20F03D3F8A8314FEA9313B6
:1049F00003F00303FB60FB68022B13D0032B1AD0D8
:104A0000012B08D040F24C03C1F200031B684FEAAF
:104A100093037B6118E040F24C03C1F200031B6872
:104A20007B6111E040F24C03C1F200031B684FEAC6
:104A300053037B6108E040F24C03C1F200031B68A2
:104A40004FEAD3037B6100BF4FF44043C4F200033D
:104A50004FF08302DA607B694FEA13123B68B2FBC6
:104A6000F3F3BB604FF44043C4F20003BA684FEA6B
:104A700012225A604FF44043C4F20003BA6802F0B5
:104A8000FF021A604FF44043C4F200034FF00302E8
:104A9000DA604FF44043C4F200034FF007029A601B
:104AA0004FF00500FFF7C8FB4FF44043C4F200038A
:104AB0004FF005025A604FF00103E2E17B68012BE1
:104AC00040F09E804FF44043C4F202034FF4404252
:104AD000C4F20202126822F040421A604FF44043CE
:104AE000C4F202034FF44042C4F20202126842F0E0
:104AF00080421A604FF44043C4F202034FF4404234
:104B0000C4F20202526822F003025A604FF440439A
:104B1000C4F202034FF44042C4F20202526842F06F
:104B200001025A604FF44043C4F20F03D3F8A83196
:104B30004FEA132303F00303FB60FB68022B13D03F
:104B4000032B1AD0012B08D040F24C03C1F2000312
:104B50001B684FEA93037B6118E040F24C03C1F2FB
:104B600000031B687B6111E040F24C03C1F20003BB
:104B70001B684FEA53037B6108E040F24C03C1F22B
:104B800000031B684FEAD3037B6100BF4FF00003B3
:104B9000C4F201034FF08302DA607B694FEA13121B
:104BA0003B68B2FBF3F3BB604FF00003C4F20103B8
:104BB000BA684FEA12225A604FF00003C4F20103B0
:104BC000BA6802F0FF021A604FF00003C4F201035A
:104BD0004FF00302DA604FF00003C4F201034FF01C
:104BE00007029A604FF00600FFF726FB4FF0000324
:104BF000C4F201034FF005025A604FF0010340E197
:104C00007B68022B40F094804FF44043C4F20F03C2
:104C10004FF44042C4F20F02D2F8C42042F0807236
:104C2000C3F8C4204FF44043C4F202034FF440429F
:104C3000C4F20202126822F470021A604FF4404378
:104C4000C4F202034FF44042C4F20202126842F47A
:104C5000A0021A604FF44043C4F20F03D3F8AC3102
:104C60004FEA134303F00303FB60FB68022B13D0EE
:104C7000032B1AD0012B08D040F24C03C1F20003E1
:104C80001B684FEA93037B6118E040F24C03C1F2CA
:104C900000031B687B6111E040F24C03C1F200038A
:104CA0001B684FEA53037B6108E040F24C03C1F2FA
:104CB00000031B684FEAD3037B6100BF4FF400433E
:104CC000C4F209034FF08302DA607B694FEA1312E2
:104CD0003B68B2FBF3F3BB604FF40043C4F209033B
:104CE000BA684FEA12225A604FF40043C4F2090333
:104CF000BA6802F0FF021A604FF40043C4F20903DD
:104D00004FF00302DA604FF40043C4F209034FF09E
:104D100007029A604FF00700FFF78EFA4FF4004346
:104D2000C4F209034FF005025A604FF00103A8E0F6
:104D30007B68032B40F0A3804FF44043C4F20F0381
:104D40004FF44042C4F20F02D2F8C42042F0007285
:104D5000C3F8C4204FF44043C4F202034FF440426E
:104D6000C4F20202126822F00F021A604FF44043AC
:104D7000C4F202034FF44042C4F20202126842F04D
:104D80000A021A604FF44043C4F20F03D3F8AC3167
:104D90004FEA934303F00303FB60FB68022B13D03D
:104DA000032B1AD0012B08D040F24C03C1F20003B0
:104DB0001B684FEA93037B6118E040F24C03C1F299
:104DC00000031B687B6111E040F24C03C1F2000359
:104DD0001B684FEA53037B6108E040F24C03C1F2C9
:104DE00000031B684FEAD3037B6100BF4FF44043CD
:104DF000C4F209034FF08302DA607B694FEA1312B1
:104E00003B68B2FBF3F3BB604FF44043C4F20903C9
:104E1000BA684FEA12225A604FF44043C4F20903C1
:104E2000BA6802F0FF021A604FF44043C4F209036B
:104E30004FF00302DA604FF44043C4F209034FF02D
:104E400007029A604FF00800FFF740FA38614FF010
:104E500008004FF00101FFF70BFA4FF00800FFF7D1
:104E6000EBF94FF00800FFF7E7F94FF44043C4F2C5
:104E700009034FF005025A604FF0010301E04FF0C3
:104E80000003184607F11807BD4680BD80B485B001
:104E900000AFF860B9607A60FB68002B24D11FE096
:104EA00000BF4FF44043C4F200035B6903F04003CA
:104EB000002BF6D04FF44043C4F20003BA681278D6
:104EC0001A6040F25003C1F200034FF000021A7062
:104ED000BB6803F10103BB607B6803F1FF337B60B8
:104EE0007B68002BDCD176E0FB68012B24D11FE02E
:104EF00000BF4FF00003C4F201035B6903F04003FD
:104F0000002BF6D04FF00003C4F20103BA68127808
:104F10001A6040F25103C1F200034FF000021A7010
:104F2000BB6803F10103BB607B6803F1FF337B6067
:104F30007B68002BDCD14EE0FB68022B24D11FE004
:104F400000BF4FF40043C4F209035B6903F0400360
:104F5000002BF6D04FF40043C4F20903BA6812786C
:104F60001A6040F25203C1F200034FF000021A70BF
:104F7000BB6803F10103BB607B6803F1FF337B6017
:104F80007B68002BDCD126E0FB68032B23D11FE0DC
:104F900000BF4FF44043C4F209035B6903F04003D0
:104FA000002BF6D04FF44043C4F20903BA681278DC
:104FB0001A6040F25303C1F200034FF000021A706E
:104FC000BB6803F10103BB607B6803F1FF337B60C7
:104FD0007B68002BDCD107F11407BD4680BC70470D
:104FE00080B483B000AF0346FB7140F2CC03C1F242
:104FF00000031B78DBB203F10103DAB240F2CC0309
:10500000C1F200031A7040F22853C1F200031B786A
:10501000DBB2002B17D1FB79242B14D140F2335390
:10502000C1F200034FF001021A7040F29553C1F231
:1050300000034FF000021A7040F2CB03C1F20003EC
:105040004FF000021A7040F23353C1F200031B7894
:10505000DBB2002B30D040F29553C1F200031B7835
:10506000DBB21A4640F2B453C1F20003F979995405
:1050700040F29453C1F200034FF001021A7040F263
:105080003353C1F200034FF000021A7040F228536C
:10509000C1F200034FF001021A7040F29553C1F2C1
:1050A00000031B78DBB203F10103DAB240F295533F
:1050B000C1F200031A7051E040F29453C1F20003B0
:1050C0001B78DBB2002B49D040F29553C1F20003AC
:1050D0001B78DBB21A4640F2B453C1F20003F979EF
:1050E0009954FB790A2B2BD140F29553C1F200035E
:1050F0001B78DBB203F1FF3240F2B453C1F200037C
:105100009B5CDBB20D2B1BD140F29553C1F2000327
:105110004FF000021A7040F29453C1F200034FF0B6
:1051200000021A7040F22853C1F200034FF001024E
:105130001A7040F2CA03C1F200034FF001021A7064
:1051400040F29553C1F200031B78DBB203F1010377
:10515000DAB240F29553C1F200031A7007F10C075E
:10516000BD4680BC704700BF80B584B000AF02462A
:105170000B46FA71BB714FF00003FB7340F254030E
:10518000C1F200031B78092B0CD140F2BD03C1F220
:105190000003BA791A7040F2BF03C1F200034FF066
:1051A00001021A7040F25403C1F200031B78082B6D
:1051B0000CD140F2BC03C1F20003BA791A7040F27C
:1051C0005403C1F200034FF009021A7040F2540375
:1051D000C1F200031B78072B0CD140F2BB03C1F2D4
:1051E0000003BA791A7040F25403C1F200034FF081
:1051F00008021A7040F25403C1F200031B78062B18
:105200000CD140F2BA03C1F20003BA791A7040F22D
:105210005403C1F200034FF007021A7040F2540326
:10522000C1F200031B78052B6CD140F2B803C1F228
:1052300000031B78DBB21E2B1BD1BB79002B18D0CF
:10524000BB79202B15D840F2BE03C1F200031B78B6
:10525000DBB2002B0DD140F2BA03C1F20003BA79E0
:105260001A7040F2BE03C1F200034FF001021A703F
:1052700048E040F2BE03C1F200031B78DBB2012B11
:105280000ED140F25403C1F200034FF001021A7034
:1052900040F2BE03C1F200034FF000021A7031E089
:1052A00040F2B803C1F200031B78DBB2812B07D0B8
:1052B00040F2B803C1F200031B78DBB2822B0DD1A0
:1052C00040F2B903C1F20003BA791A7040F25403F4
:1052D000C1F200034FF006021A7013E040F2BF0360
:1052E000C1F200034FF001021A7040F2B903C1F29B
:1052F0000003BA791A7040F25403C1F200034FF070
:1053000005021A7040F25403C1F200031B78042B0B
:105310000CD140F2B803C1F20003BA791A7040F21E
:105320005403C1F200034FF005021A7040F2540317
:10533000C1F200031B78032B11D1BB79582B07D185
:1053400040F25403C1F200034FF004021A7006E069
:1053500040F25403C1F200034FF001021A7040F210
:105360005403C1F200031B78022B11D1BB79452BEA
:1053700007D140F25403C1F200034FF003021A7048
:1053800006E040F25403C1F200034FF001021A702C
:1053900040F25403C1F200031B78012B09D1BB7901
:1053A0004E2B06D140F25403C1F200034FF002022B
:1053B0001A7040F2BF03C1F200031B78DBB2002B6E
:1053C00002F0338440F2B803C1F200031B78DBB271
:1053D00003F1FF33FB2B02F2078401A252F823F002
:1053E000D15700007B580000E97B000025590000E0
:1053F000CF590000D56000000B6100004161000042
:1054000077610000F9620000E97B0000E97B0000A1
:10541000E97B0000E97B0000E97B0000A965000052
:10542000E5670000216A0000E97B0000E97B0000DD
:10543000E97B0000E97B0000E97B0000E97B0000DC
:10544000E97B0000E97B0000E97B0000E97B0000CC
:10545000E97B0000E97B0000E97B00005D6C000057
:10546000F76C0000916D00002B6E0000FF6E0000D5
:10547000E97B0000E97B0000E97B0000E97B00009C
:10548000E97B0000E97B0000E97B0000E97B00008C
:10549000E97B0000E97B0000E97B0000E97B00007C
:1054A000E97B0000E97B0000E97B0000E97B00006C
:1054B000E97B0000E97B0000E97B0000E97B00005C
:1054C000E97B0000E97B0000E97B0000E97B00004C
:1054D000E97B0000E97B0000E97B0000E97B00003C
:1054E000E97B0000E97B0000E97B0000E97B00002C
:1054F000E97B0000E97B0000E97B0000E97B00001C
:10550000E97B0000E97B0000E97B0000E97B00000B
:10551000E97B0000E97B0000E97B0000E97B0000FB
:10552000E97B0000E97B0000E97B0000E97B0000EB
:10553000E97B0000E97B0000E97B0000E97B0000DB
:10554000E97B0000E97B0000E97B0000E97B0000CB
:10555000E97B0000E97B0000E97B0000E97B0000BB
:10556000E97B0000E97B0000E97B0000E97B0000AB
:10557000E97B0000E97B0000E97B0000E97B00009B
:10558000E97B0000E97B0000E97B0000E97B00008B
:10559000E97B0000E97B0000E97B0000E97B00007B
:1055A000E97B0000E97B0000E97B0000E97B00006B
:1055B000E97B0000E97B0000E97B0000E97B00005B
:1055C000E97B0000E97B0000E97B0000E97B00004B
:1055D000E97B0000E97B0000E97B0000E97B00003B
:1055E000E97B0000E97B0000E97B0000E97B00002B
:1055F000E97B0000E97B0000E97B0000E97B00001B
:10560000E97B0000E97B0000E97B000039720000C3
:10561000E97B0000E97B0000E97B00004B720000A1
:1056200073720000F9720000EF730000E374000071
:10563000CB750000E3750000FB7500004D7700009E
:10564000737700000D780000A7780000E97B000068
:10565000E97B0000E97B0000E97B0000E97B0000BA
:10566000E97B0000E97B0000E97B0000E97B0000AA
:10567000E97B0000E97B0000E97B0000E97B00009A
:10568000E97B000041790000DB790000E97B000044
:10569000E97B0000E97B0000E97B0000E97B00007A
:1056A000E97B0000E97B0000E97B0000E97B00006A
:1056B000E97B0000E97B0000E97B0000E97B00005A
:1056C000E97B0000E97B0000E97B0000E97B00004A
:1056D000E97B0000E97B0000E97B0000E97B00003A
:1056E000E97B0000E97B0000E97B0000E97B00002A
:1056F000E97B0000E97B0000E97B0000E97B00001A
:10570000E97B0000E97B0000E97B0000E97B000009
:10571000E97B0000E97B0000E97B0000E97B0000F9
:10572000E97B0000E97B0000E97B0000E97B0000E9
:10573000E97B0000E97B0000E97B0000E97B0000D9
:10574000E97B0000E97B0000E97B0000E97B0000C9
:10575000E97B0000E97B0000E97B0000E97B0000B9
:10576000E97B0000E97B0000E97B0000E97B0000A9
:10577000E97B0000E97B0000E97B0000E97B000099
:10578000E97B0000E97B0000E97B0000E97B000089
:10579000E97B0000E97B0000E97B0000E97B000079
:1057A000E97B0000E97B0000E97B0000E97B000069
:1057B000E97B0000E97B0000E97B0000E97B000059
:1057C000E97B0000757A0000F17A00006D7B000033
:1057D00040F21C43C1F200034FF046021A7040F23F
:1057E0001C43C1F200034FF042025A7040F21C43C6
:1057F000C1F200034FF044029A7040F2B803C1F2C4
:1058000000031B78DAB240F21C43C1F20003DA70E5
:1058100040F2B903C1F200031B78DAB240F21C4334
:10582000C1F200031A7140F2B903C1F200031B7800
:10583000DBB203F1FF3240F20003C1F200039A5CD5
:1058400040F21C43C1F200035A7140F2C003C1F29E
:1058500000034FF006021A70FA7940F2C003C1F259
:1058600000031B78DBB2104640F21C41C1F200017C
:105870001A46FFF70BFB02F0CAB940F21C43C1F213
:1058800000034FF046021A7040F21C43C1F20003BD
:105890004FF042025A7040F21C43C1F200034FF035
:1058A00044029A7040F2B803C1F200031B78DAB2E6
:1058B00040F21C43C1F20003DA7040F2B903C1F2B6
:1058C00000031B78DAB240F21C43C1F200031A71E4
:1058D00040F2B903C1F200031B78DBB203F1FF32DF
:1058E00040F21003C1F200039A5C40F21C43C1F283
:1058F00000035A7140F2C003C1F200034FF00602E8
:105900001A70FA7940F2C003C1F200031B78DBB2CF
:10591000104640F21C41C1F200011A46FFF7B6FAE8
:1059200002F075B940F21C43C1F200034FF0460289
:105930001A7040F21C43C1F200034FF042025A7049
:1059400040F21C43C1F200034FF044029A7040F24F
:10595000B803C1F200031B78DAB240F21C43C1F273
:105960000003DA7040F2B903C1F200031B78DAB227
:1059700040F21C43C1F200031A7140F2B903C1F2B4
:1059800000031B78DBB203F1FF3240F20803C1F2DF
:1059900000039A5C40F21C43C1F200035A7140F2CA
:1059A000C003C1F200034FF006021A70FA7940F208
:1059B000C003C1F200031B78DBB2104640F21C4169
:1059C000C1F200011A46FFF761FA02F020B940F275
:1059D000B903C1F200031B78DBB2012B5BD140F2AB
:1059E0001C43C1F200034FF046021A7040F21C4300
:1059F000C1F200034FF042025A7040F21C43C1F260
:105A000000034FF044029A7040F2B803C1F2000361
:105A10001B78DAB240F21C43C1F20003DA7040F2A4
:105A2000B903C1F200031B78DAB240F21C43C1F2A1
:105A300000031A714FF00003FB7311E0FB7B03F1CD
:105A40000502F97B40F20003C1F20003595C40F209
:105A50001C43C1F200039954FB7B03F10103FB7368
:105A6000FB7B072BEAD940F2C003C1F200034FF0E1
:105A70000D021A70FA7940F2C003C1F200031B78DC
:105A8000DBB2104640F21C41C1F200011A46FFF79A
:105A9000FDF902F0BCB840F2B903C1F200031B7873
:105AA000DBB2022B5BD140F21C43C1F200034FF08A
:105AB00046021A7040F21C43C1F200034FF042024A
:105AC0005A7040F21C43C1F200034FF044029A7036
:105AD00040F2B803C1F200031B78DAB240F21C4373
