:100000000080001029010000F5000000F70000004A
:10001000F9000000FB000000FD00000000000000EF
:10002000000000000000000000000000FF000000D1
:1000300001010000000000000301000005010000B4
:100040006901000069010000690100006901000008
:1000500069010000791B0000E11C00006D1E00001A
:100060002D2000006901000039030000E5070000B1
:10007000A90C00006901000069010000690100008D
:1000800069010000690100006901000069010000C8
:1000900069010000690100006901000069010000B8
:1000A00069010000690100006901000069010000A8
:1000B0006901000069010000690100006901000098
:1000C0006901000069010000690100002C5800006E
:1000D000000000105C0000002C58000000C0072049
:1000E000000000005C000010A804000000C0072011
:1000F00000000000FEE7FEE7FEE7FEE7FEE7FEE7A2
:10010000FEE7FEE7FEE710B5002302E01C585C5056
:1001100004339342FAD310BD002302E000221A50A8
:1001200004338B42FAD3704710B50C4C05E02068BD
:100130006168A2680C34FFF7E6FF094B9C42F6D3D6
:1001400004E0206861680834FFF7E6FF054B9C4235
:10015000F7D305F047F905F055FBFEE7CC000000AA
:10016000E4000000F4000000FEE700BFFFFFFFFF17
:10017000FFFFFFFFFFFFFFFFFFFFFFFFFFFFFFFF8F
:10018000FFFFFFFFFFFFFFFFFFFFFFFFFFFFFFFF7F
:10019000FFFFFFFFFFFFFFFFFFFFFFFFFFFFFFFF6F
:1001A000FFFFFFFFFFFFFFFFFFFFFFFFFFFFFFFF5F
:1001B000FFFFFFFFFFFFFFFFFFFFFFFFFFFFFFFF4F
:1001C000FFFFFFFFFFFFFFFFFFFFFFFFFFFFFFFF3F
:1001D000FFFFFFFFFFFFFFFFFFFFFFFFFFFFFFFF2F
:1001E000FFFFFFFFFFFFFFFFFFFFFFFFFFFFFFFF1F
:1001F000FFFFFFFFFFFFFFFFFFFFFFFFFFFFFFFF0F
:10020000FFFFFFFFFFFFFFFFFFFFFFFFFFFFFFFFFE
:10021000FFFFFFFFFFFFFFFFFFFFFFFFFFFFFFFFEE
:10022000FFFFFFFFFFFFFFFFFFFFFFFFFFFFFFFFDE
:10023000FFFFFFFFFFFFFFFFFFFFFFFFFFFFFFFFCE
:10024000FFFFFFFFFFFFFFFFFFFFFFFFFFFFFFFFBE
:10025000FFFFFFFFFFFFFFFFFFFFFFFFFFFFFFFFAE
:10026000FFFFFFFFFFFFFFFFFFFFFFFFFFFFFFFF9E
:10027000FFFFFFFFFFFFFFFFFFFFFFFFFFFFFFFF8E
:10028000FFFFFFFFFFFFFFFFFFFFFFFFFFFFFFFF7E
:10029000FFFFFFFFFFFFFFFFFFFFFFFFFFFFFFFF6E
:1002A000FFFFFFFFFFFFFFFFFFFFFFFFFFFFFFFF5E
:1002B000FFFFFFFFFFFFFFFFFFFFFFFFFFFFFFFF4E
:1002C000FFFFFFFFFFFFFFFFFFFFFFFFFFFFFFFF3E
:1002D000FFFFFFFFFFFFFFFFFFFFFFFFFFFFFFFF2E
:1002E000FFFFFFFFFFFFFFFFFFFFFFFFFFFFFFFF1E
:1002F000FFFFFFFFFFFFFFFFFFFFFFFFFFFFFFFF0E
:1003000080B483B000AF0346FB714FF46143CEF27B
:10031000000397F907204FEA5212F97901F01F0103
:100320004FF0010000FA01F143F8221007F10C0729
:10033000BD4680BC704700BF80B483B000AF40F2C0
:100340006803C1F200034FF000021A604FF440430B
:10035000C4F201035B68FB71FB79A3F10803502B26
:1003600000F22B8201A252F823F000BFB10400007A
:10037000BB070000BB070000BB070000BB07000075
:10038000BB070000BB070000BB070000FD04000026
:10039000BB070000BB070000BB070000BB07000055
:1003A000BB070000BB070000BB07000049050000B9
:1003B000BB070000BB070000BB070000BB07000035
:1003C000BB070000BB070000BB0700008F07000051
:1003D000BB070000BB070000BB070000BB07000015
:1003E000BB070000BB070000BB070000B30500000F
:1003F000BB070000BB070000BB070000BB070000F5
:10040000BB070000BB070000BB0700004706000059
:10041000BB070000BB070000BB070000BB070000D4
:10042000BB070000BB070000BB070000BB070000C4
:10043000BB070000BB070000BB070000BB070000B4
:10044000BB070000BB070000BB07000073060000ED
:10045000BB070000BB070000BB070000BB07000094
:10046000BB070000BB070000BB0700008F070000B0
:10047000BB070000BB070000BB070000BB07000074
:10048000BB070000BB070000BB070000BD06000063
:10049000BB070000BB070000BB070000BB07000054
:1004A000BB070000BB070000BB07000035070000CA
:1004B00040F28003C1F200034FF000021A604FF4D3
:1004C0004043C4F2010340F28002C1F2000211680D
:1004D00040F29812C1F20002525CD2B29A6001F16D
:1004E000010240F28003C1F200031A604FF440435E
:1004F000C4F201034FF028029A616DE140F27403E7
:10050000C1F200034FF000021A604FF44043C4F2FE
:10051000010340F28002C1F20002116840F2981219
:10052000C1F20002525CD2B29A6001F1010240F2C3
:100530008003C1F200031A604FF44043C4F2010388
:100540004FF028029A6147E140F25823C1F20003BC
:100550001B68012B0ED14FF44043C4F201034FF04E
:1005600010021A6040F25C03C1F200034FF0070270
:100570001A6016E04FF44043C4F2010340F28002D7
:10058000C1F20002116840F29812C1F20002525CFE
:10059000D2B29A6001F1010240F28003C1F200037D
:1005A0001A604FF44043C4F201034FF008029A610D
:1005B00012E140F25823C1F200031B681A4640F2D0
:1005C0008003C1F200031B689A4217D94FF44043DD
:1005D000C4F2010340F28002C1F20002116840F24D
:1005E0009812C1F20002525CD2B29A6001F101028B
:1005F00040F28003C1F200031A601CE040F2CC0319
:10060000C1F200031B68002B07D04FF44043C4F233
:1006100001034FF020021A600DE04FF44043C4F292
:1006200001034FF010021A6040F25C03C1F20003B4
:100630004FF00C021A604FF44043C4F201034FF034
:1006400008029A61C8E04FF44043C4F201034FF03E
:1006500010021A6040F25C03C1F200034FF009027D
:100660001A604FF44043C4F201034FF008029A614C
:10067000B2E040F27403C1F200031B6803F101020F
:1006800040F2CC03C1F200031B689A4207D24FF438
:100690004043C4F201034FF004021A6006E04FF435
:1006A0004043C4F201034FF004029A614FF4404307
:1006B000C4F201034FF008029A618DE040F2740326
:1006C000C1F200031A684FF44043C4F201039B686F
:1006D000D9B240F2D803C1F20003995402F10102E9
:1006E00040F27403C1F200031A6040F27403C1F2D5
:1006F00000031B6803F1010240F2CC03C1F20003C6
:100700001B689A4207D24FF44043C4F201034FF0F2
:1007100004021A6006E04FF44043C4F201034FF0B4
:1007200004029A614FF44043C4F201034FF00802FF
:100730009A6151E040F27403C1F200031A684FF469
:100740004043C4F201039B68D9B240F2D803C1F21E
:100750000003995402F1010240F27403C1F2000354
:100760001A6040F25C03C1F200034FF00C021A6001
:100770004FF44043C4F201034FF010021A604FF4EB
:100780004043C4F201034FF008029A6124E04FF4A1
:100790004043C4F201034FF010021A6040F25C03C0
:1007A000C1F200034FF008021A604FF44043C4F254
:1007B00001034FF008029A610EE040F25C03C1F2BF
:1007C00000034FF00A021A604FF44043C4F20103E1
:1007D0004FF008029A6100BF07F10C07BD4680BCCC
:1007E000704700BF80B483B000AF40F26803C1F22D
:1007F00000034FF000025A604FF44043C4F2050377
:100800005B68FB71FB79A3F10803502B00F2378280
:1008100001A252F823F000BF5D0900007F0C000028
:100820007F0C00007F0C00007F0C00007F0C00009C
:100830007F0C00007F0C0000AD0900007F0C000061
:100840007F0C00007F0C00007F0C00007F0C00007C
:100850007F0C00007F0C0000FD0900007F0C0000F1
:100860007F0C00007F0C00007F0C00007F0C00005C
:100870007F0C00007F0C0000530C00007F0C000078
:100880007F0C00007F0C00007F0C00007F0C00003C
:100890007F0C00007F0C00006B0A00007F0C000042
:1008A0007F0C00007F0C00007F0C00007F0C00001C
:1008B0007F0C00007F0C0000030B00007F0C000089
:1008C0007F0C00007F0C00007F0C00007F0C0000FC
:1008D0007F0C00007F0C00007F0C00007F0C0000EC
:1008E0007F0C00007F0C00007F0C00007F0C0000DC
:1008F0007F0C00007F0C00002F0B00007F0C00001D
:100900007F0C00007F0C00007F0C00007F0C0000BB
:100910007F0C00007F0C0000530C00007F0C0000D7
:100920007F0C00007F0C00007F0C00007F0C00009B
:100930007F0C00007F0C0000790B00007F0C000092
:100940007F0C00007F0C00007F0C00007F0C00007B
:100950007F0C00007F0C0000F50B000040F28403C8
:10096000C1F200034FF000021A604FF44043C4F29A
:10097000050340F28402C1F20002116840F29812AD
:10098000C1F20002521892F84020D2B29A6001F1EE
:10099000010240F28403C1F200031A604FF44043A5
:1009A000C4F205034FF028029A6177E140F2780320
:1009B000C1F200034FF000021A604FF44043C4F24A
:1009C000050340F28402C1F20002116840F298125D
:1009D000C1F20002521892F84020D2B29A6001F19E
:1009E000010240F28403C1F200031A604FF4404355
:1009F000C4F205034FF028029A614FE140F25823F8
:100A0000C1F200035B68012B0ED14FF44043C4F2E6
:100A100005034FF010021A6040F25C03C1F20003BC
:100A20004FF007025A6018E04FF44043C4F2050348
:100A300040F28402C1F20002116840F29812C1F241
:100A40000002521892F84020D2B29A6001F10102DD
:100A500040F28403C1F200031A604FF44043C4F231
:100A600005034FF008029A6118E140F25823C1F2E1
:100A700000035B681A4640F28403C1F200031B685E
:100A80009A4219D94FF44043C4F2050340F284025C
:100A9000C1F20002116840F29812C1F2000252182D
:100AA00092F84020D2B29A6001F1010240F2840330
:100AB000C1F200031A601CE040F2CC03C1F2000353
:100AC0005B68002B07D04FF44043C4F205034FF09E
:100AD00020021A600DE04FF44043C4F205034FF0CA
:100AE00010021A6040F25C03C1F200034FF00C02E6
:100AF0005A604FF44043C4F205034FF008029A6174
:100B0000CCE04FF44043C4F205034FF010021A60EA
:100B100040F25C03C1F200034FF009025A604FF447
:100B20004043C4F205034FF008029A61B6E040F278
:100B30007803C1F200031B6803F1010240F2CC0309
:100B4000C1F200035B689A4207D24FF44043C4F2FB
:100B500005034FF004021A6006E04FF44043C4F26C
:100B600005034FF004029A614FF44043C4F20503B9
:100B70004FF008029A6191E040F27803C1F200035D
:100B80001A684FF44043C4F205039B68D9B240F29F
:100B9000D803C1F200039B1883F8401002F1010250
:100BA00040F27803C1F200031A6040F27803C1F208
:100BB00000031B6803F1010240F2CC03C1F2000301
:100BC0005B689A4207D24FF44043C4F205034FF0EA
:100BD00004021A6006E04FF44043C4F205034FF0EC
:100BE00004029A614FF44043C4F205034FF0080237
:100BF0009A6153E040F27803C1F200031A684FF49F
:100C00004043C4F205039B68D9B240F2D803C1F255
:100C100000039B1883F8401002F1010240F27803B0
:100C2000C1F200031A6040F25C03C1F200034FF00E
:100C30000C025A604FF44043C4F205034FF0100217
:100C40001A604FF44043C4F205034FF008029A6162
:100C500024E04FF44043C4F205034FF010021A6041
:100C600040F25C03C1F200034FF008025A604FF4F7
:100C70004043C4F205034FF008029A610EE040F2CF
:100C80005C03C1F200034FF00A025A604FF4404384
:100C9000C4F205034FF008029A6100BF07F10C0788
:100CA000BD4680BC704700BF80B483B000AF40F247
:100CB0006803C1F200034FF000029A604FF0000396
:100CC000C4F20A035B68FB71FB79A3F10803502BA4
:100CD00000F2378201A252F823F000BF210E00007B
:100CE00043110000431100004311000043110000B4
:100CF000431100004311000043110000710E000079
:100D00004311000043110000431100004311000093
:100D1000431100004311000043110000C10E000008
:100D20004311000043110000431100004311000073
:100D3000431100004311000043110000171100008F
:100D40004311000043110000431100004311000053
:100D50004311000043110000431100002F0F000059
:100D60004311000043110000431100004311000033
:100D7000431100004311000043110000C70F0000A1
:100D80004311000043110000431100004311000013
:100D90004311000043110000431100004311000003
:100DA00043110000431100004311000043110000F3
:100DB000431100004311000043110000F30F000035
:100DC00043110000431100004311000043110000D3
:100DD00043110000431100004311000017110000EF
:100DE00043110000431100004311000043110000B3
:100DF0004311000043110000431100003D100000AA
:100E00004311000043110000431100004311000092
:100E1000431100004311000043110000B91000000D
:100E200040F28803C1F200034FF000021A604FF055
:100E30000003C4F20A0340F28802C1F20002116802
:100E400040F29812C1F20002521892F88020D2B2F9
:100E50009A6001F1010240F28803C1F200031A60B6
:100E60004FF00003C4F20A034FF028029A6177E1C1
:100E700040F27C03C1F200034FF000021A604FF011
:100E80000003C4F20A0340F28802C1F200021168B2
:100E900040F29812C1F20002521892F88020D2B2A9
:100EA0009A6001F1010240F28803C1F200031A6066
:100EB0004FF00003C4F20A034FF028029A614FE199
:100EC00040F25823C1F200039B68012B0ED14FF072
:100ED0000003C4F20A034FF010021A6040F25C03F0
:100EE000C1F200034FF007029A6018E04FF00003D0
:100EF000C4F20A0340F28802C1F20002116840F213
:100F00009812C1F20002521892F88020D2B29A6070
:100F100001F1010240F28803C1F200031A604FF0B0
:100F20000003C4F20A034FF008029A6118E140F28C
:100F30005823C1F200039B681A4640F28803C1F2AD
:100F400000031B689A4219D94FF00003C4F20A0348
:100F500040F28802C1F20002116840F29812C1F218
:100F60000002521892F88020D2B29A6001F1010278
:100F700040F28803C1F200031A601CE040F2CC0387
:100F8000C1F200039B68002B07D04FF00003C4F2AE
:100F90000A034FF020021A600DE04FF00003C4F284
:100FA0000A034FF010021A6040F25C03C1F2000322
:100FB0004FF00C029A604FF00003C4F20A034FF0A6
:100FC00008029A61CCE04FF00003C4F20A034FF02C
:100FD00010021A6040F25C03C1F200034FF00902F4
:100FE0009A604FF00003C4F20A034FF008029A61BE
:100FF000B6E040F27C03C1F200031B6803F101027A
:1010000040F2CC03C1F200039B689A4207D24FF032
:101010000003C4F20A034FF004021A6006E04FF026
:101020000003C4F20A034FF004029A614FF0000378
:10103000C4F20A034FF008029A6191E040F27C0387
:10104000C1F200031A684FF00003C4F20A039B6860
:10105000D9B240F2D803C1F200039B1883F8801084
:1010600002F1010240F27C03C1F200031A6040F277
:101070007C03C1F200031B6803F1010240F2CC03C0
:10108000C1F200039B689A4207D24FF00003C4F2FA
:101090000A034FF004021A6006E04FF00003C4F2A6
:1010A0000A034FF004029A614FF00003C4F20A03EE
:1010B0004FF008029A6153E040F27C03C1F2000352
:1010C0001A684FF00003C4F20A039B68D9B240F2D9
:1010D000D803C1F200039B1883F8801002F10102CB
:1010E00040F27C03C1F200031A6040F25C03C1F2DB
:1010F00000034FF00C029A604FF00003C4F20A03A1
:101100004FF010021A604FF00003C4F20A034FF0D0
:1011100008029A6124E04FF00003C4F20A034FF082
:1011200010021A6040F25C03C1F200034FF00802A3
:101130009A604FF00003C4F20A034FF008029A616C
:101140000EE040F25C03C1F200034FF00A029A6025
:101150004FF00003C4F20A034FF008029A6100BF87
:1011600007F10C07BD4680BC704700BF80B500AFDB
:101170004FF44043C4F20F034FF44042C4F20F0255
:10118000D2F8C42042F40022C3F8C4204FF44043F4
:10119000C4F202034FF44042C4F20202526822F445
:1011A00070725A604FF44043C4F202034FF440425D
:1011B000C4F20202526842F470725A604FF4404323
:1011C000C4F202034FF44042C4F20202526C22F411
:1011D00070725A644FF44043C4F202034FF4404229
:1011E000C4F20202526C42F420725A644FF440433B
:1011F000C4F202034FF44042C4F20202926E42F47F
:10120000C0129A664FF44043C4F205034FF06C02DB
:101210009A614FF44043C4F205034FF4A8725A6137
:101220004FF44043C4F205034FF4A8721A614FF023
:101230000B00FFF765F84FF44043C4F205034FF08D
:1012400040021A6080BD00BF80B483B000AF4FF091
:1012500000037B604FF44043C2F209034FF4404265
:10126000C2F20902126922F4C0121A614FF440431B
:10127000C2F209034FF44042C2F20902126822F49A
:10128000C0121A604FF44043C2F209034FF44042C7
:10129000C2F20902126842F480121A6048E04FF06C
:1012A00000037B6003E07B6803F101037B607A68E5
:1012B00042F20F739A42F6D94FF44043C2F2090347
:1012C0004FF480129A614FF000037B6003E07B686B
:1012D00003F101037B607A6840F2E7339A42F6D962
:1012E0004FF44043C2F209034FF48012DA614FF029
:1012F00000037B6003E07B6803F101037B607A6895
:1013000040F2E7339A42F6D94FF44043C2F2090360
:101310004FF480129A614FF000037B6003E07B681A
:1013200003F101037B607A6842F20F739A42F6D9A7
:101330004FF44043C2F209035B6903F40023002B1E
:10134000ADD007F10C07BD4680BC704780B483B0B8
:1013500000AF786045F60803C0F200037A6853F8DE
:1013600022304FF020021A6040F25C03C1F2000309
:101370007A684FF0060143F8221027E040F2680334
:10138000C1F200037A6853F822301A464FF6FE7312
:10139000C0F2FF039A4209D940F25C03C1F2000394
:1013A0007A684FF00B0143F8221018E040F268030E
:1013B000C1F200037A6853F8223003F1010140F2D0
:1013C0006803C1F200037A6843F8221040F25C031C
:1013D000C1F200037A6853F82230062BCED045F6CE
:1013E0000803C0F200037A6853F822304FF020025D
:1013F0009A6140F25C03C1F200037A6853F822302C
:10140000184607F10C07BD4680BC704780B500AF99
:1014100000F01EF900F082F94FF0010000F0D6F85C
:1014200000F07CF94FF0040000F004F800F076F9C9
:1014300080BD00BF80B584B000AF0346FB7140F2B1
:101440005823C1F200034FF003025A6040F2CC036C
:10145000C1F200034FF000025A6040F29813C1F24B
:1014600000034FF0C60283F8402040F29813C1F207
:1014700000034FF0000283F8412040F29813C1F2BC
:101480000003FA7983F842204FF00100FFF75EFF76
:10149000F860FB68184607F11007BD4680BD00BF25
:1014A00080B584B000AF03463960FB714FF0000394
:1014B000FB60FB7903F102031A4640F25823C1F2A4
:1014C00000035A6040F2CC03C1F200034FF0000267
:1014D0005A6040F29813C1F200034FF0C60283F83D
:1014E000402040F29813C1F200034FF0000283F84D
:1014F00041204FF00003FB6013E0FB6803F10201A1
:101500003B681A7840F29813C1F200035B1883F825
:1015100040203B6803F101033B60FB6803F10103DA
:10152000FB60FA79FB689A42E7D84FF00100FFF7B9
:101530000DFFB860BB68184607F11007BD4680BDB7
:1015400080B584B000AF02460B46FA71BB7140F221
:101550005823C1F200034FF005025A6040F2CC0359
:10156000C1F200034FF000025A6040F29813C1F23A
:1015700000034FF0C60283F8402040F29813C1F2F6
:1015800000034FF0000283F8412040F29813C1F2AB
:1015900000034FF0030283F8422040F29813C1F297
:1015A0000003FA7983F8432040F29813C1F2000354
:1015B000BA7983F844204FF00100FFF7C7FEF860C6
:1015C000FB68184607F11007BD4680BD80B584B0A2
:1015D00000AF0346FB7140F25823C1F200034FF005
:1015E00003025A6040F2CC03C1F200034FF0000244
:1015F0005A6040F29813C1F200034FF0C60283F81C
:10160000402040F29813C1F200034FF0000283F82B
:101610004120FB79012B08D140F29813C1F200035D
:101620004FF0130283F8422007E040F29813C1F212
:1016300000034FF0140283F842204FF00100FFF73F
:1016400085FEF860FB68184607F11007BD4680BDAF
:1016500080B582B000AF40F25823C1F200034FF0D2
:1016600003025A6040F2CC03C1F200034FF00002C3
:101670005A6040F29813C1F200034FF0C60283F89B
:10168000402040F29813C1F200034FF0000283F8AB
:10169000412040F29813C1F200034FF00C0283F88E
:1016A00042204FF00100FFF751FE78607B6818463A
:1016B00007F10807BD4680BD80B582B000AF4FF08E
:1016C00000037B604FF000037B6005E000F026F82C
:1016D0007B6803F101037B607A6840F2E7339A424A
:1016E000F4DD4FF002004FF4E13100F069FD00F04D
:1016F00075F800F009F9FFF7A7FDFFF737FD4FF088
:1017000001004FF4165100F05BFD00F01DF8FFF7EB
:101710007DFE07F10807BD4680BD00BF80B483B0E1
:1017200000AF4FF000037B604FF000037B6003E0ED
:101730007B6803F101037B607B68632BF8D907F1B9
:101740000C07BD4680BC704780B485B000AF4FF039
:101750000003FB604FF00003BB604FF000037B60B1
:101760004FF00003BB6014E04FF00003FB6007E0A4
:101770007B6803F101037B60FB6803F10103FB60FD
:10178000FA684EF65F239A42F2D9BB6803F101036F
:10179000BB60BB686D2BE7D907F11407BD4680BC61
:1017A000704700BF80B500AF03F01CFE03F00EFFD2
:1017B000FFF782FFFFF7C8FF4FF001004FF0010174
:1017C000FFF7BEFE4FF0140045F61401C0F2000111
:1017D000FFF766FE00F0DAF8FCE700BF80B500AF67
:1017E00000F006F84FF0000000F01EF880BD00BFCA
:1017F00080B500AF40F27843C1F200034FF0000221
:101800001A7040F27843C1F200034FF038025A7068
:101810004FF0020040F27841C1F200014FF00202A5
:1018200000F048FF80BD00BF80B582B000AF034626
:10183000FB7140F27843C1F200034FF000021A70CE
:1018400040F27843C1F200034FF034025A7040F284
:101850007843C1F20003FA799A704FF0020040F227
:101860007841C1F200014FF0030200F023FF07F1BD
:101870000807BD4680BD00BF80B582B000AF0246FC
:101880000B46FA71BB7140F27843C1F200034FF08E
:1018900000021A7040F27843C1F200034FF03102A7
:1018A0005A7040F27843C1F20003FA799A704FF00F
:1018B000020040F27841C1F200014FF0030200F053
:1018C000F9FE40F27843C1F200034FF000021A70B3
:1018D00040F27843C1F200034FF032025A7040F2F6
:1018E0007843C1F20003BA799A704FF0020040F2D7
:1018F0007841C1F200014FF0030200F0DBFE07F176
:101900000807BD4680BD00BF80B500AF40F27843F8
:10191000C1F200034FF000021A7040F27843C1F2A6
:1019200000034FF031025A7040F27843C1F20003D5
:101930004FF080029A704FF0020040F27841C1F2FD
:1019400000014FF0030200F0B5FE40F27843C1F20F
:1019500000034FF000021A7040F27843C1F2000316
:101960004FF032025A7040F27843C1F200034FF058
:1019700080029A704FF0020040F27841C1F20001FB
:101980004FF0030200F096FE80BD00BF80B500AFAF
:1019900040F28C03C1F200031B78DBB2002B74D041
:1019A00040F28D03C1F200031B78DBB203F1FF3379
:1019B000052B62D801A252F823F000BFD519000010
:1019C000F71900004D1A0000251A00007B1A0000CC
:1019D000751A000040F20003C1F200031B78DAB26E
:1019E00040F20103C1F200031B78DBB21046194636
:1019F000FFF742FF42E040F20003C1F200031B7810
:101A0000DBB26FEA0303DAB240F20103C1F2000372
:101A10001B78DBB26FEA0303DBB210461946FFF70F
:101A20002BFF2BE040F20003C1F200031B78DAB277
:101A300040F20103C1F200031B78DBB26FEA03033B
:101A4000DBB210461946FFF717FF17E040F200031C
:101A5000C1F200031B78DBB26FEA0303DAB240F293
:101A60000103C1F200031B78DBB210461946FFF7F1
:101A700003FF03E0FFF748FF00E000BF40F28C03E4
:101A8000C1F200034FF000021A7080BD80B483B031
:101A900000AF0346FB714FF46143CEF2000397F9A8
:101AA00007204FEA5212F97901F01F014FF00100AF
:101AB00000FA01F143F8221007F10C07BD4680BC83
:101AC000704700BF80B483B000AF03463960FB713C
:101AD00097F90730002B10DA4FF46D43CEF2000374
:101AE000FA7902F00F02A2F104013A68D2B24FEA89
:101AF000C202D2B25B181A760DE04FF46143CEF207
:101B0000000397F907103A68D2B24FEAC202D2B284
:101B10005B1883F8002307F10C07BD4680BC7047B3
:101B200080B483B000AF0346FB7197F90730002BF8
:101B30000FDA4FF46D43CEF20003FA7902F00F0290
:101B4000A2F104029B181B7EDBB24FEAD303DBB287
:101B50000CE04FF46143CEF2000397F907209B1885
:101B600093F80033DBB24FEAD303DBB2184607F138
:101B70000C07BD4680BC704780B483B000AF4FF403
:101B80004043C4F200039B68BB71BB794FEA530327
:101B9000BB71BB7903F00703BB71BB79032B43D146
:101BA0004FF44043C4F200035B697B717B7903F01F
:101BB0009E03002B0CD07A7940F20053C1F200034F
:101BC0001A604FF44043C4F200031B68FB7181E0CC
:101BD0007B7903F00103DBB2002B7BD04FF4404351
:101BE000C4F200031B68DAB240F2B433C1F200035E
:101BF0001A7040F29803C1F200031B6803F101025E
:101C000040F29803C1F200031A6040F29803C1F257
:101C100000031B68402B5DD140F29803C1F2000322
:101C20004FF000021A6055E0BB79022B25D14FF42A
:101C30004043C4F200031B68DAB240F2B433C1F28D
:101C400000031A7040F29803C1F200031B6803F10D
:101C5000010240F29803C1F200031A6040F29803B7
:101C6000C1F200031B68402B34D140F29803C1F24B
:101C700000034FF000021A602CE0BB79062B0CD158
:101C800040F20053C1F200031B6843F4807240F23B
:101C90000053C1F200031A601CE0BB79012B19D17B
:101CA0004FF44043C4F200035B697B717B7903F01E
:101CB0002003002B07D040F20203C1F200034FF0D3
:101CC00001021A7006E040F20203C1F200034FF075
:101CD00000021A7007F10C07BD4680BC704700BFB8
:101CE00080B582B000AF4FF00003C4F201039B68DF
:101CF000BB71BB794FEA5303BB71BB7903F0070398
:101D0000BB71BB79032B4DD14FF00003C4F201032B
:101D10005B697B717B7903F09E03002B0CD07A7991
:101D200040F23443C1F200031A604FF00003C4F2E2
:101D300001031B68FB7194E07B7903F00103DBB2C4
:101D4000002B00F08E804FF00003C4F201031B68EB
:101D5000DAB240F26C33C1F200031A7040F26C3315
:101D6000C1F200031B78DBB2184600F04DFD40F2D3
:101D70009C03C1F200031B6803F1010240F29C03C3
:101D8000C1F200031A6040F29C03C1F200031B6819
:101D9000402B66D140F29C03C1F200034FF00002D9
:101DA0001A605EE0BB79022B2ED14FF00003C4F223
:101DB00001031B68DAB240F26C33C1F200031A70FF
:101DC00040F26C33C1F200031B78DBB2184600F01E
:101DD0001BFD40F29C03C1F200031B6803F10102EA
:101DE00040F29C03C1F200031A6040F29C03C1F26E
:101DF00000031B68402B34D140F29C03C1F2000366
:101E00004FF000021A602CE0BB79062B0CD140F297
:101E10003443C1F200031B6843F4807240F2344340
:101E2000C1F200031A601CE0BB79012B19D14FF0FD
:101E30000003C4F201035B697B717B7903F020032B
:101E4000002B07D040F20303C1F200034FF0010260
:101E50001A7006E040F20303C1F200034FF00002E3
:101E60001A7007F10807BD4680BD00BF80B483B07B
:101E700000AF4FF40043C4F209039B68BB71BB7908
:101E80004FEA5303BB71BB7903F00703BB71BB7906
:101E9000032B5AD14FF40043C4F209035B697B71F1
:101EA0007B7903F09E03002B0CD07A7940F2AC339F
:101EB000C1F200031A604FF40043C4F209031B6827
:101EC000FB71ADE07B7903F00103DBB2002B00F086
:101ED000A78040F2A003C1F200031A684FF4004348
:101EE000C4F209031B68D9B240F26423C1F20003B3
:101EF000995402F1010240F2A003C1F200031A60FA
:101F000040F2B903C1F200031B78DBB21A4640F27B
:101F1000A003C1F200031B689A4240F0818040F2A6
:101F2000A003C1F200034FF000021A6040F2B903AF
:101F3000C1F200034FF000021A7040F2B803C1F280
:101F400000034FF001021A706AE0BB79022B3AD10C
:101F500040F2A003C1F200031A684FF40043C4F238
:101F600009031B68D9B240F26423C1F200039954FB
:101F700002F1010240F2A003C1F200031A6040F234
:101F8000B903C1F200031B78DBB21A4640F2A0038A
:101F9000C1F200031B689A4242D140F2A003C1F291
:101FA00000034FF000021A6040F2B903C1F20003CF
:101FB0004FF000021A7040F2B803C1F200034FF074
:101FC00001021A702CE0BB79062B0CD140F2AC3325
:101FD000C1F200031B6843F4807240F2AC33C1F2DB
:101FE00000031A601CE0BB79012B19D14FF40043A8
:101FF000C4F209035B697B717B7903F02003002B3A
:1020000007D040F20403C1F200034FF001021A703E
:1020100006E040F20403C1F200034FF000021A7020
:1020200007F10C07BD4680BC704700BF80B582B089
:1020300000AF4FF44043C4F209039B68BB71BB7906
:102040004FEA5303BB71BB7903F00703BB71BB7944
:10205000032B4FD14FF44043C4F209035B697B71FA
:102060007B7903F09E03002B0CD07A7940F2005369
:10207000C1F200031A604FF44043C4F209031B6825
:10208000FB7198E07B7903F00103DBB2002B00F0D9
:1020900092804FF44043C4F209031B68DAB240F265
:1020A0003843C1F200031A7040F23843C1F2000312
:1020B0001B78DBB24FF00300194600F085FC40F2BC
:1020C000A403C1F200031B6803F1010240F2A40360
:1020D000C1F200031A6040F2A403C1F200031B68BE
:1020E000402B68D140F2A403C1F200034FF000027C
:1020F0001A6060E0BB79022B30D14FF44043C4F248
:1021000009031B68DAB240F23843C1F200031A70C7
:1021100040F23843C1F200031B78DBB24FF00300FA
:10212000194600F051FC40F2A403C1F200031B6801
:1021300003F1010240F2A403C1F200031A6040F26D
:10214000A403C1F200031B68402B34D140F2A40366
:10215000C1F200034FF000021A602CE0BB79062B9D
:102160000CD140F2B033C1F200031B6843F480721B
:1021700040F2B033C1F200031A601CE0BB79012BBE
:1021800019D14FF44043C4F209035B697B717B7939
:1021900003F02003002B07D040F20503C1F2000337
:1021A0004FF001021A7006E040F20503C1F200038D
:1021B0004FF000021A7007F10807BD4680BD00BF4E
:1021C00080B586B000AF786039604FF000033B61A6
:1021D0007B68002B40F086804FF44043C4F202033A
:1021E0004FF44042C4F20202126822F0F0021A6078
:1021F0004FF44043C4F202034FF44042C4F20202DF
:10220000126842F050021A604FF44043C4F20F03C8
:10221000D3F8A8314FEA931303F00303FB60FB6884
:10222000022B13D0032B1AD0012B08D040F25803F5
:10223000C1F200031B684FEA93037B6118E040F290
:102240005803C1F200031B687B6111E040F25803A0
:10225000C1F200031B684FEA53037B6108E040F2C0
:102260005803C1F200031B684FEAD3037B6100BF30
:102270004FF44043C4F200034FF08302DA607B69FD
:102280004FEA13123B68B2FBF3F3BB604FF44043D9
:10229000C4F20003BA684FEA12225A604FF4404376
:1022A000C4F20003BA6802F0FF021A604FF4404320
:1022B000C4F200034FF00302DA604FF44043C4F26B
:1022C00000034FF007029A604FF00500FFF7DEFBB6
:1022D0004FF44043C4F200034FF005025A604FF040
:1022E0000103E2E17B68012B40F09E804FF4404304
:1022F000C4F202034FF44042C4F20202126822F018
:1023000040421A604FF44043C4F202034FF440428B
:10231000C4F20202126842F080421A604FF4404355
:10232000C4F202034FF44042C4F20202526822F0A7
:1023300003025A604FF44043C4F202034FF4404298
:10234000C4F20202526842F001025A604FF4404364
:10235000C4F20F03D3F8A8314FEA132303F00303A9
:10236000FB60FB68022B13D0032B1AD0012B08D083
:1023700040F25803C1F200031B684FEA93037B61EC
:1023800018E040F25803C1F200031B687B6111E0C2
:1023900040F25803C1F200031B684FEA53037B610C
:1023A00008E040F25803C1F200031B684FEAD30370
:1023B0007B6100BF4FF00003C4F201034FF08302C2
:1023C000DA607B694FEA13123B68B2FBF3F3BB6040
:1023D0004FF00003C4F20103BA684FEA12225A60B8
:1023E0004FF00003C4F20103BA6802F0FF021A6062
:1023F0004FF00003C4F201034FF00302DA604FF024
:102400000003C4F201034FF007029A604FF0060088
:10241000FFF73CFB4FF00003C4F201034FF005024D
:102420005A604FF0010340E17B68022B40F094803A
:102430004FF44043C4F20F034FF44042C4F20F0282
:10244000D2F8C42042F08072C3F8C4204FF4404355
:10245000C4F202034FF44042C4F20202126822F4B2
:1024600070021A604FF44043C4F202034FF440423A
:10247000C4F20202126842F4A0021A604FF4404310
:10248000C4F20F03D3F8AC314FEA134303F0030354
:10249000FB60FB68022B13D0032B1AD0012B08D052
:1024A00040F25803C1F200031B684FEA93037B61BB
:1024B00018E040F25803C1F200031B687B6111E091
:1024C00040F25803C1F200031B684FEA53037B61DB
:1024D00008E040F25803C1F200031B684FEAD3033F
:1024E0007B6100BF4FF40043C4F209034FF0830245
:1024F000DA607B694FEA13123B68B2FBF3F3BB600F
:102500004FF40043C4F20903BA684FEA12225A603A
:102510004FF40043C4F20903BA6802F0FF021A60E4
:102520004FF40043C4F209034FF00302DA604FF4A2
:102530000043C4F209034FF007029A604FF007000E
:10254000FFF7A4FA4FF40043C4F209034FF0050269
:102550005A604FF00103A8E07B68032B40F0A38092
:102560004FF44043C4F20F034FF44042C4F20F0251
:10257000D2F8C42042F00072C3F8C4204FF44043A4
:10258000C4F202034FF44042C4F20202126822F085
:102590000F021A604FF44043C4F202034FF440426A
:1025A000C4F20202126842F00A021A604FF4404379
:1025B000C4F20F03D3F8AC314FEA934303F00303A3
:1025C000FB60FB68022B13D0032B1AD0012B08D021
:1025D00040F25803C1F200031B684FEA93037B618A
:1025E00018E040F25803C1F200031B687B6111E060
:1025F00040F25803C1F200031B684FEA53037B61AA
:1026000008E040F25803C1F200031B684FEAD3030D
:102610007B6100BF4FF44043C4F209034FF08302D3
:10262000DA607B694FEA13123B68B2FBF3F3BB60DD
:102630004FF44043C4F20903BA684FEA12225A60C9
:102640004FF44043C4F20903BA6802F0FF021A6073
:102650004FF44043C4F209034FF00302DA604FF431
:102660004043C4F209034FF007029A604FF008009C
:10267000FFF756FA38614FF008004FF00101FFF7FD
:1026800021FA4FF00800FFF701FA4FF00800FFF7BA
:10269000FDF94FF44043C4F209034FF005025A60BC
:1026A0004FF0010301E04FF00003184607F118074F
:1026B000BD4680BD80B485B000AFF860B9607A6077
:1026C000FB68002B24D11FE000BF4FF44043C4F24D
:1026D00000035B6903F04003002BF6D04FF4404346
:1026E000C4F20003BA6812781A6040F20203C1F221
:1026F00000034FF000021A70BB6803F10103BB60D6
:102700007B6803F1FF337B607B68002BDCD176E0D4
:10271000FB68012B24D11FE000BF4FF00003C4F27F
:1027200001035B6903F04003002BF6D04FF0000378
:10273000C4F20103BA6812781A6040F20303C1F2CE
:1027400000034FF000021A70BB6803F10103BB6085
:102750007B6803F1FF337B607B68002BDCD14EE0AC
:10276000FB68022B24D11FE000BF4FF40043C4F2EA
:1027700009035B6903F04003002BF6D04FF40043DC
:10278000C4F20903BA6812781A6040F20403C1F275
:1027900000034FF000021A70BB6803F10103BB6035
:1027A0007B6803F1FF337B607B68002BDCD126E084
:1027B000FB68032B23D11FE000BF4FF44043C4F25A
:1027C00009035B6903F04003002BF6D04FF440434C
:1027D000C4F20903BA6812781A6040F20503C1F224
:1027E00000034FF000021A70BB6803F10103BB60E5
:1027F0007B6803F1FF337B607B68002BDCD107F142
:102800001407BD4680BC704780B483B000AF034658
:10281000FB71FB79202B40F0B68040F2A423C1F27B
:1028200000031B78DBB24E2B40F0828040F2A423E1
:10283000C1F200035B78DBB2452B79D140F2A423CF
:10284000C1F200039B78DBB2582B71D140F2A42374
:10285000C1F20003DB78DBB2A3F13003042B58D8BC
:1028600001A252F823F000BFF52800007D280000E7
:102870009B280000B9280000D728000040F28D03F3
:10288000C1F200034FF001021A7040F28C03C1F252
:1028900000034FF001021A704AE040F28D03C1F2CA
:1028A00000034FF002021A7040F28C03C1F20003E1
:1028B0004FF001021A703BE040F28D03C1F20003B9
:1028C0004FF004021A7040F28C03C1F200034FF083
:1028D00001021A702CE040F28D03C1F200034FF0A8
:1028E00003021A7040F28C03C1F200034FF00102A0
:1028F0001A701DE040F28D03C1F200034FF0060292
:102900001A7040F28C03C1F200034FF001021A70FA
:102910000EE040F28D03C1F200034FF006021A7080
:1029200040F28C03C1F200034FF001021A7000BFA5
:1029300040F2A423C1F200034FF000021A7040F2EB
:10294000A423C1F200034FF000025A7040F2A42306
:10295000C1F200034FF000029A7040F2A423C1F2CA
:1029600000034FF00002DA7040F2A423C1F200032A
:102970004FF000021A7140F2C903C1F200034FF098
:1029800000021A701AE040F2C903C1F200031B787A
:10299000DBB21A4640F2A423C1F20003F97999543C
:1029A00040F2C903C1F200031B78DBB203F101035B
:1029B000DAB240F2C903C1F200031A7007F10C0742
:1029C000BD4680BC704700BF80B584B000AF0246F2
:1029D0000B46FA71BB714FF00003FB7340F25403D6
:1029E000C1F200031B78092B0CD140F2AD03C1F2F8
:1029F0000003BA791A7040F2AF03C1F200034FF03E
:102A000001021A7040F25403C1F200031B78082B34
:102A10000CD140F2AC03C1F20003BA791A7040F253
:102A20005403C1F200034FF009021A7040F254033C
:102A3000C1F200031B78072B0CD140F2AB03C1F2AB
:102A40000003BA791A7040F25403C1F200034FF048
:102A500008021A7040F25403C1F200031B78062BDF
:102A60000CD140F2AA03C1F20003BA791A7040F205
:102A70005403C1F200034FF007021A7040F25403EE
:102A8000C1F200031B78052B6CD140F2A803C1F200
:102A900000031B78DBB21E2B1BD1BB79002B18D097
:102AA000BB79202B15D840F2AE03C1F200031B788E
:102AB000DBB2002B0DD140F2AA03C1F20003BA79B8
:102AC0001A7040F2AE03C1F200034FF001021A7017
:102AD00048E040F2AE03C1F200031B78DBB2012BE9
:102AE0000ED140F25403C1F200034FF001021A70FC
:102AF00040F2AE03C1F200034FF000021A7031E061
:102B000040F2A803C1F200031B78DBB2812B07D08F
:102B100040F2A803C1F200031B78DBB2822B0DD177
:102B200040F2A903C1F20003BA791A7040F25403CB
:102B3000C1F200034FF006021A7013E040F2AF0337
:102B4000C1F200034FF001021A7040F2A903C1F272
:102B50000003BA791A7040F25403C1F200034FF037
:102B600005021A7040F25403C1F200031B78042BD3
:102B70000CD140F2A803C1F20003BA791A7040F2F6
:102B80005403C1F200034FF005021A7040F25403DF
:102B9000C1F200031B78032B11D1BB79582B07D14D
:102BA00040F25403C1F200034FF004021A7006E031
:102BB00040F25403C1F200034FF001021A7040F2D8
:102BC0005403C1F200031B78022B11D1BB79452BB2
:102BD00007D140F25403C1F200034FF003021A7010
:102BE00006E040F25403C1F200034FF001021A70F4
:102BF00040F25403C1F200031B78012B09D1BB79C9
:102C00004E2B06D140F25403C1F200034FF00202F2
:102C10001A7040F2AF03C1F200031B78DBB2002B45
:102C200002F0DC8340F2A803C1F200031B78DBB2A0
:102C300003F1FF33FB2B02F2B08301A252F823F021
:102C400031300000DB3000009B5300008531000074
:102C50002F320000353900006B390000A139000027
:102C6000D7390000593B00009B5300009B530000E4
:102C70009B5300009B5300009B530000093E000043
:102C800045400000814200009B5300009B53000020
:102C90009B5300009B5300009B5300009B5300007C
:102CA0009B5300009B5300009B5300009B5300006C
:102CB0009B5300009B5300009B530000BD44000049
:102CC00057450000F14500008B4600005F470000BB
:102CD0009B5300009B5300009B5300009B5300003C
:102CE0009B5300009B5300009B5300009B5300002C
:102CF0009B5300009B5300009B5300009B5300001C
:102D00009B5300009B5300009B5300009B5300000B
:102D10009B5300009B5300009B5300009B530000FB
:102D20009B5300009B5300009B5300009B530000EB
:102D30009B5300009B5300009B5300009B530000DB
:102D40009B5300009B5300009B5300009B530000CB
:102D50009B5300009B5300009B5300009B530000BB
:102D60009B5300009B5300009B5300009B530000AB
:102D70009B5300009B5300009B5300009B5300009B
:102D80009B5300009B5300009B5300009B5300008B
:102D90009B5300009B5300009B5300009B5300007B
:102DA0009B5300009B5300009B5300009B5300006B
:102DB0009B5300009B5300009B5300009B5300005B
:102DC0009B5300009B5300009B5300009B5300004B
:102DD0009B5300009B5300009B5300009B5300003B
:102DE0009B5300009B5300009B5300009B5300002B
:102DF0009B5300009B5300009B5300009B5300001B
:102E00009B5300009B5300009B5300009B5300000A
:102E10009B5300009B5300009B5300009B530000FA
:102E20009B5300009B5300009B5300009B530000EA
:102E30009B5300009B5300009B5300009B530000DA
:102E40009B5300009B5300009B5300009B530000CA
:102E50009B5300009B5300009B5300009B530000BA
:102E60009B5300009B5300009B530000994A0000B5
:102E70009B5300009B5300009B5300009B5300009A
:102E80009B530000AB4A0000A14B0000954C000092
:102E90007D4D0000954D0000AD4D0000FF4E00003F
:102EA000254F0000BF4F0000595000009B53000009
:102EB0009B5300009B5300009B5300009B5300005A
:102EC0009B5300009B5300009B5300009B5300004A
:102ED0009B5300009B5300009B5300009B5300003A
:102EE0009B530000F35000008D5100009B530000E5
:102EF0009B5300009B5300009B5300009B5300001A
:102F00009B5300009B5300009B5300009B53000009
:102F10009B5300009B5300009B5300009B530000F9
:102F20009B5300009B5300009B5300009B530000E9
:102F30009B5300009B5300009B5300009B530000D9
:102F40009B5300009B5300009B5300009B530000C9
:102F50009B5300009B5300009B5300009B530000B9
:102F60009B5300009B5300009B5300009B530000A9
:102F70009B5300009B5300009B5300009B53000099
:102F80009B5300009B5300009B5300009B53000089
:102F90009B5300009B5300009B5300009B53000079
:102FA0009B5300009B5300009B5300009B53000069
:102FB0009B5300009B5300009B5300009B53000059
:102FC0009B5300009B5300009B5300009B53000049
:102FD0009B5300009B5300009B5300009B53000039
:102FE0009B5300009B5300009B5300009B53000029
:102FF0009B5300009B5300009B5300009B53000019
:103000009B5300009B5300009B5300009B53000008
:103010009B5300009B5300009B5300009B530000F8
:103020009B53000027520000A35200001F530000D2
:1030300040F2F433C1F200034FF046021A7040F23E
:10304000F433C1F200034FF042025A7040F2F433FD
:10305000C1F200034FF044029A7040F2A803C1F29B
:1030600000031B78DAB240F2F433C1F20003DA70E5
:1030700040F2A903C1F200031B78DAB240F2F43344
:10308000C1F200031A7140F2A903C1F200031B78D8
:10309000DBB203F1FF3240F20803C1F200039A5C95
:1030A00040F2F433C1F200035A7140F2B003C1F2AE
:1030B00000034FF006021A70FA7940F2B003C1F231
:1030C00000031B78DBB2104640F2F431C1F200017C
:1030D0001A46FFF7EFFA02F073B940F2F433C1F287
:1030E00000034FF046021A7040F2F433C1F20003BD
:1030F0004FF042025A7040F2F433C1F200034FF035
:1031000044029A7040F2A803C1F200031B78DAB2BD
:1031100040F2F433C1F20003DA7040F2A903C1F2C5
:1031200000031B78DAB240F2F433C1F200031A71E3
:1031300040F2A903C1F200031B78DBB203F1FF32B6
:1031400040F21803C1F200039A5C40F2F433C1F27A
:1031500000035A7140F2B003C1F200034FF00602BF
:103160001A70FA7940F2B003C1F200031B78DBB2A7
:10317000104640F2F431C1F200011A46FFF79AFA04
:1031800002F01EB940F2F433C1F200034FF04602E0
:103190001A7040F2F433C1F200034FF042025A7049
:1031A00040F2F433C1F200034FF044029A7040F24F
:1031B000A803C1F200031B78DAB240F2F433C1F283
:1031C0000003DA7040F2A903C1F200031B78DAB2FF
:1031D00040F2F433C1F200031A7140F2A903C1F2C4
:1031E00000031B78DBB203F1FF3240F21003C1F29F
:1031F00000039A5C40F2F433C1F200035A7140F2CA
:10320000B003C1F200034FF006021A70FA7940F2DF
:10321000B003C1F200031B78DBB2104640F2F43178
:10322000C1F200011A46FFF745FA02F0C9B840F2B0
:10323000A903C1F200031B78DBB2012B5BD140F282
:10324000F433C1F200034FF046021A7040F2F43337
:10325000C1F200034FF042025A7040F2F433C1F25F
:1032600000034FF044029A7040F2A803C1F2000339
:103270001B78DAB240F2F433C1F20003DA7040F2A4
:10328000A903C1F200031B78DAB240F2F433C1F2B1
:1032900000031A714FF00003FB7311E0FB7B03F195
:1032A0000502F97B40F20803C1F20003595C40F2C9
:1032B000F433C1F200039954FB7B03F10103FB7368
:1032C000FB7B072BEAD940F2B003C1F200034FF0B9
:1032D0000D021A70FA7940F2B003C1F200031B78B4
:1032E000DBB2104640F2F431C1F200011A46FFF79A
:1032F000E1F902F065B840F2A903C1F200031B78BE
:10330000DBB2022B5BD140F2F433C1F200034FF089
:1033100046021A7040F2F433C1F200034FF0420249
:103320005A7040F2F433C1F200034FF044029A7035
:1033300040F2A803C1F200031B78DAB240F2F43382
:10334000C1F20003DA7040F2A903C1F200031B7856
:10335000DAB240F2F433C1F200031A714FF0000305
:10336000FB7311E0FB7B03F10502F97B40F21803CC
:10337000C1F20003595C40F2F433C1F200039954E6
:10338000FB7B03F10103FB73FB7B072BEAD940F2C4
:10339000B003C1F200034FF00D021A70FA7940F247
:1033A000B003C1F200031B78DBB2104640F2F431E7
:1033B000C1F200011A46FFF77DF902F001B840F2B0
:1033C000A903C1F200031B78DBB2042B5BD140F2EE
:1033D000F433C1F200034FF046021A7040F2F433A6
:1033E000C1F200034FF042025A7040F2F433C1F2CE
:1033F00000034FF044029A7040F2A803C1F20003A8
:103400001B78DAB240F2F433C1F20003DA7040F212
:10341000A903C1F200031B78DAB240F2F433C1F21F
:1034200000031A714FF00003FB7311E0FB7B03F103
:103430000502F97B40F21003C1F20003595C40F22F
:10344000F433C1F200039954FB7B03F10103FB73D6
:10345000FB7B072BEAD940F2B003C1F200034FF027
:103460000D021A70FA7940F2B003C1F200031B7822
:10347000DBB2104640F2F431C1F200011A46FFF708
:1034800019F901F09DBF40F2A903C1F200031B78B6
:10349000DBB2052B5BD140F2F433C1F200034FF0F5
:1034A00046021A7040F2F433C1F200034FF04202B8
:1034B0005A7040F2F433C1F200034FF044029A70A4
:1034C00040F2A803C1F200031B78DAB240F2F433F1
:1034D000C1F20003DA7040F2A903C1F200031B78C5
:1034E000DAB240F2F433C1F200031A714FF0000374
:1034F000FB7311E0FB7B03F10502F97B40F2200333
:10350000C1F20003595C40F2F433C1F20003995454
:10351000FB7B03F10103FB73FB7B052BEAD940F234
:10352000B003C1F200034FF00B021A70FA7940F2B7
:10353000B003C1F200031B78DBB2104640F2F43155
:10354000C1F200011A46FFF7B5F801F039BF40F2A9
:10355000A903C1F200031B78DBB2062B5BD140F25A
:10356000F433C1F200034FF046021A7040F2F43314
:10357000C1F200034FF042025A7040F2F433C1F23C
:1035800000034FF044029A7040F2A803C1F2000316
:103590001B78DAB240F2F433C1F20003DA7040F281
:1035A000A903C1F200031B78DAB240F2F433C1F28E
:1035B00000031A714FF00003FB7311E0FB7B03F172
:1035C0000502F97B40F22803C1F20003595C40F286
:1035D000F433C1F200039954FB7B03F10103FB7345
:1035E000FB7B052BEAD940F2B003C1F200034FF098
:1035F0000B021A70FA7940F2B003C1F200031B7893
:10360000DBB2104640F2F431C1F200011A46FFF776
:1036100051F801F0D5BE40F2A903C1F200031B78B6
:10362000DBB2072B5BD140F2F433C1F200034FF061
:1036300046021A7040F2F433C1F200034FF0420226
:103640005A7040F2F433C1F200034FF044029A7012
:1036500040F2A803C1F200031B78DAB240F2F4335F
:10366000C1F20003DA7040F2A903C1F200031B7833
:10367000DAB240F2F433C1F200031A714FF00003E2
:10368000FB7311E0FB7B03F10502F97B40F2300391
:10369000C1F20003595C40F2F433C1F200039954C3
:1036A000FB7B03F10103FB73FB7B052BEAD940F2A3
:1036B000B003C1F200034FF00B021A70FA7940F226
:1036C000B003C1F200031B78DBB2104640F2F431C4
:1036D000C1F200011A46FEF7EDFF01F071BE40F2A3
:1036E000A903C1F200031B78DBB2082B5BD140F2C7
:1036F000F433C1F200034FF046021A7040F2F43383
:10370000C1F200034FF042025A7040F2F433C1F2AA
:1037100000034FF044029A7040F2A803C1F2000384
:103720001B78DAB240F2F433C1F20003DA7040F2EF
:10373000A903C1F200031B78DAB240F2F433C1F2FC
:1037400000031A714FF00003FB7311E0FB7B03F1E0
:103750000502F97B40F24403C1F20003595C40F2D8
:10376000F433C1F200039954FB7B03F10103FB73B3
:10377000FB7B0F2BEAD940F2B003C1F200034FF0FC
:1037800015021A70FA7940F2B003C1F200031B78F7
:10379000DBB2104640F2F431C1F200011A46FEF7E6
:1037A00089FF01F00DBE40F2A903C1F200031B78AE
:1037B000DBB2092B5AD140F2F433C1F200034FF0CF
:1037C00046021A7040F2F433C1F200034FF0420295
:1037D0005A7040F2F433C1F200034FF044029A7081
:1037E00040F2A803C1F200031B78DAB240F2F433CE
:1037F000C1F20003DA7040F2A903C1F200031B78A2
:10380000DAB240F2F433C1F200031A7140F2BC03A1
:10381000C1F200031B68DAB240F2F433C1F20003D4
:103820005A7140F2BC03C1F200031B684FEA132334
:10383000DAB240F2F433C1F200039A7140F2B003FD
:10384000C1F200034FF007021A70FA7940F2B00398
:10385000C1F200031B78DBB2104640F2F431C1F232
:1038600000011A46FEF726FF01F0AABD40F2A903A7
:10387000C1F200031B78DBB20A2B41F0908540F2C5
:10388000F433C1F200034FF046021A7040F2F433F1
:10389000C1F200034FF042025A7040F2F433C1F219
:1038A00000034FF044029A7040F2A803C1F20003F3
:1038B0001B78DAB240F2F433C1F20003DA7040F25E
:1038C000A903C1F200031B78DAB240F2F433C1F26B
:1038D00000031A7140F2C003C1F200031B68DAB2A0
:1038E00040F2F433C1F200035A7140F2C003C1F256
:1038F00000031B684FEA1323DAB240F2F433C1F23B
:1039000000039A7140F2B003C1F200034FF00702C6
:103910001A70FA7940F2B003C1F200031B78DBB2EF
:10392000104640F2F431C1F200011A46FEF7C2FE21
:1039300001F046BD40F2A903C1F200031B78DAB2E0
:1039400040F2C803C1F200031A7040F29603C1F2BC
:1039500000034FF001021A7040F29703C1F2000316
:103960004FF003021A7001F02BBD40F2A903C1F21F
:1039700000031B78DAB240F2C703C1F200031A70E9
:1039800040F29603C1F200034FF001021A7040F2B8
:103990009703C1F200034FF002021A7001F010BD4C
:1039A00040F2A903C1F200031B78DAB240F2C60369
:1039B000C1F200031A7040F29603C1F200034FF007
:1039C00001021A7040F29703C1F200034FF00102A6
:1039D0001A7001F0F5BC40F2A903C1F200031B7894
:1039E000DBB2012B0FD140F29003C1F200034FF084
:1039F00001021A7040F29303C1F200034FF001027A
:103A00001A7001F0DDBC40F2A903C1F200031B787B
:103A1000DBB2022B0FD140F29003C1F200034FF052
:103A200001021A7040F29303C1F200034FF000024A
:103A30001A7001F0C5BC40F2A903C1F200031B7863
:103A4000DBB2032B0FD140F29103C1F200034FF020
:103A500001021A7040F29403C1F200034FF0010218
:103A60001A7001F0ADBC40F2A903C1F200031B784B
:103A7000DBB2042B0FD140F29103C1F200034FF0EF
:103A800001021A7040F29403C1F200034FF00002E9
:103A90001A7001F095BC40F2A903C1F200031B7833
:103AA000DBB2052B0FD140F29203C1F200034FF0BD
:103AB00001021A7040F29503C1F200034FF00102B7
:103AC0001A7001F07DBC40F2A903C1F200031B781B
:103AD000DBB2062B0FD140F29203C1F200034FF08C
:103AE00001021A7040F29503C1F200034FF0000288
:103AF0001A7001F065BC40F2A903C1F200031B7803
:103B0000DBB2072B0FD14CF22003C2F209034FF0B6
:103B100000529A6140F2C503C1F200034FF0010266
:103B20001A7001F04DBC40F2A903C1F200031B78EA
:103B3000DBB2082B41F035844CF22003C2F20903BA
:103B40004FF00052DA6140F2C503C1F200034FF0BA
:103B500000021A7001F034BC40F2A903C1F2000364
:103B60001B78DBB2012B4DD140F2F433C1F20003DC
:103B70004FF046021A7040F2F433C1F200034FF0E6
:103B800042025A7040F2F433C1F200034FF0440293
:103B90009A7040F2A803C1F200031B78DAB240F237
:103BA000F433C1F20003DA7040F2A903C1F200035A
:103BB0001B78DAB240F2F433C1F200031A7140F21A
:103BC0009303C1F200031B78DAB240F2F433C1F27E
:103BD00000035A7140F2B003C1F200034FF0060235
:103BE0001A70FA7940F2B003C1F200031B78DBB21D
:103BF000104640F2F431C1F200011A46FEF75AFDB8
:103C000001F0DEBB40F2A903C1F200031B78DBB276
:103C1000022B4DD140F2F433C1F200034FF04602C3
:103C20001A7040F2F433C1F200034FF042025A70AE
:103C300040F2F433C1F200034FF044029A7040F2B4
:103C4000A803C1F200031B78DAB240F2F433C1F2E8
:103C50000003DA7040F2A903C1F200031B78DAB264
:103C600040F2F433C1F200031A7140F29403C1F23E
:103C700000031B78DAB240F2F433C1F200035A7148
:103C800040F2B003C1F200034FF006021A70FA7955
:103C900040F2B003C1F200031B78DBB2104640F2E1
:103CA000F431C1F200011A46FEF704FD01F088BBB1
:103CB00040F2A903C1F200031B78DBB2032B4DD104
:103CC00040F2F433C1F200034FF046021A7040F2A2
:103CD000F433C1F200034FF042025A7040F2F43361
:103CE000C1F200034FF044029A7040F2A803C1F2FF
:103CF00000031B78DAB240F2F433C1F20003DA7049
:103D000040F2A903C1F200031B78DAB240F2F433A7
:103D1000C1F200031A7140F29503C1F200031B784F
:103D2000DAB240F2F433C1F200035A7140F2B00348
:103D3000C1F200034FF006021A70FA7940F2B003A4
:103D4000C1F200031B78DBB2104640F2F431C1F23D
:103D500000011A46FEF7AEFC01F032BB40F2A903A7
:103D6000C1F200031B78DBB2042B41F01C8340F24C
:103D7000F433C1F200034FF046021A7040F2F433FC
:103D8000C1F200034FF042025A7040F2F433C1F224
:103D900000034FF044029A7040F2A803C1F20003FE
:103DA0001B78DAB240F2F433C1F20003DA7040F269
:103DB000A903C1F200031B78DAB240F2F433C1F276
:103DC00000031A7140F2C503C1F200031A7840F2F1
:103DD000F433C1F200035A7140F2B003C1F20003A0
:103DE0004FF006021A70FA7940F2B003C1F20003F4
:103DF0001B78DBB2104640F2F431C1F200011A46E2
:103E0000FEF758FC01F0DCBA40F2A903C1F200034E
:103E10001B78DBB2012B56D140F2F433C1F2000320
:103E20004FF046021A7040F2F433C1F200034FF033
:103E300042025A7040F2F433C1F200034FF04402E0
:103E40009A7040F2A803C1F200031B78DAB240F284
:103E5000F433C1F20003DA7040F2A903C1F20003A7
:103E60001B78DAB240F2F433C1F200031A7140F267
:103E70002003C1F200031A7840F2F433C1F20003C8
:103E80005A7140F22003C1F200035A7840F2F43331
:103E9000C1F200039A7140F2B003C1F200034FF087
:103EA00007021A70FA7940F2B003C1F200031B78DE
:103EB000DBB2104640F2F431C1F200011A46FEF7BF
:103EC000F9FB01F07DBA40F2A903C1F200031B78AF
:103ED000DBB2022B56D140F2F433C1F200034FF0B3
:103EE00046021A7040F2F433C1F200034FF042026E
:103EF0005A7040F2F433C1F200034FF044029A705A
:103F000040F2A803C1F200031B78DAB240F2F433A6
:103F1000C1F20003DA7040F2A903C1F200031B787A
:103F2000DAB240F2F433C1F200031A7140F2200316
:103F3000C1F200039A7840F2F433C1F200035A71DF
:103F400040F22003C1F20003DA7840F2F433C1F208
:103F500000039A7140F2B003C1F200034FF0070270
:103F60001A70FA7940F2B003C1F200031B78DBB299
:103F7000104640F2F431C1F200011A46FEF79AFBF6
:103F800001F01EBA40F2A903C1F200031B78DBB2B4
:103F9000032B41F00A8240F2F433C1F200034FF0E8
:103FA00046021A7040F2F433C1F200034FF04202AD
:103FB0005A7040F2F433C1F200034FF044029A7099
:103FC00040F2A803C1F200031B78DAB240F2F433E6
:103FD000C1F20003DA7040F2A903C1F200031B78BA
:103FE000DAB240F2F433C1F200031A7140F2200356
:103FF000C1F200031A7940F2F433C1F200035A719E
:1040000040F22003C1F200035A7940F2F433C1F2C6
:1040100000039A7140F2B003C1F200034FF00702AF
:104020001A70FA7940F2B003C1F200031B78DBB2D8
:10403000104640F2F431C1F200011A46FEF73AFB95
:1040400001F0BEB940F2A903C1F200031B78DBB254
:10405000012B56D140F2F433C1F200034FF0460277
:104060001A7040F2F433C1F200034FF042025A706A
:1040700040F2F433C1F200034FF044029A7040F270
:10408000A803C1F200031B78DAB240F2F433C1F2A4
:104090000003DA7040F2A903C1F200031B78DAB220
:1040A00040F2F433C1F200031A7140F22803C1F266
:1040B00000031A7840F2F433C1F200035A7140F25F
:1040C0002803C1F200035A7840F2F433C1F200032E
:1040D0009A7140F2B003C1F200034FF007021A7068
:1040E000FA7940F2B003C1F200031B78DBB210464C
:1040F00040F2F431C1F200011A46FEF7DBFA01F09A
:104100005FB940F2A903C1F200031B78DBB2022BB6
:1041100056D140F2F433C1F200034FF046021A7058
:1041200040F2F433C1F200034FF042025A7040F201
:10413000F433C1F200034FF044029A7040F2A80336
:10414000C1F200031B78DAB240F2F433C1F200038B
:10415000DA7040F2A903C1F200031B78DAB240F230
:10416000F433C1F200031A7140F22803C1F20003D4
:104170009A7840F2F433C1F200035A7140F22803F6
:10418000C1F20003DA7840F2F433C1F200039A710D
:1041900040F2B003C1F200034FF007021A70FA793F
:1041A00040F2B003C1F200031B78DBB2104640F2CC
:1041B000F431C1F200011A46FEF77CFA01F000B9B1
:1041C00040F2A903C1F200031B78DBB2032B41F0DC
:1041D000EE8040F2F433C1F200034FF046021A7051
:1041E00040F2F433C1F200034FF042025A7040F241
:1041F000F433C1F200034FF044029A7040F2A80376
:10420000C1F200031B78DAB240F2F433C1F20003CA
:10421000DA7040F2A903C1F200031B78DAB240F26F
:10422000F433C1F200031A7140F22803C1F2000313
:104230001A7940F2F433C1F200035A7140F22803B4
:10424000C1F200035A7940F2F433C1F200039A71CB
:1042500040F2B003C1F200034FF007021A70FA797E
:1042600040F2B003C1F200031B78DBB2104640F20B
:10427000F431C1F200011A46FEF71CFA01F0A0B8B1
:1042800040F2A903C1F200031B78DBB2012B56D127
:1042900040F2F433C1F200034FF046021A7040F2CC
:1042A000F433C1F200034FF042025A7040F2F4338B
:1042B000C1F200034FF044029A7040F2A803C1F229
:1042C00000031B78DAB240F2F433C1F20003DA7073
:1042D00040F2A903C1F200031B78DAB240F2F433D2
:1042E000C1F200031A7140F23003C1F200031A78E0
:1042F00040F2F433C1F200035A7140F23003C1F2CC
:1043000000035A7840F2F433C1F200039A7140F28C
:10431000B003C1F200034FF007021A70FA7940F2BD
:10432000B003C1F200031B78DBB2104640F2F43157
:10433000C1F200011A46FEF7BDF901F041B840F2A2
:10434000A903C1F200031B78DBB2022B56D140F265
:10435000F433C1F200034FF046021A7040F2F43316
:10436000C1F200034FF042025A7040F2F433C1F23E
:1043700000034FF044029A7040F2A803C1F2000318
:104380001B78DAB240F2F433C1F20003DA7040F283
:10439000A903C1F200031B78DAB240F2F433C1F290
:1043A00000031A7140F23003C1F200031A7940F29F
:1043B000F433C1F200035A7140F23003C1F200033A
:1043C0005A7940F2F433C1F200039A7140F2B0031B
:1043D000C1F200034FF007021A70FA7940F2B003FD
:1043E000C1F200031B78DBB2104640F2F431C1F297
:1043F00000011A46FEF75EF900F0E2BF40F2A903A1
:10440000C1F200031B78DBB2032B40F0D28740F2ED
:10441000F433C1F200034FF046021A7040F2F43355
:10442000C1F200034FF042025A7040F2F433C1F27D
:1044300000034FF044029A7040F2A803C1F2000357
:104440001B78DAB240F2F433C1F20003DA7040F2C2
:10445000A903C1F200031B78DAB240F2F433C1F2CF
:1044600000031A7140F23003C1F200031A7940F2DE
:10447000F433C1F200035A7140F23003C1F2000379
:104480005A7940F2F433C1F200039A7140F2B0035A
:10449000C1F200034FF007021A70FA7940F2B0033C
:1044A000C1F200031B78DBB2104640F2F431C1F2D6
:1044B00000011A46FEF7FEF800F082BF40F2F43326
:1044C000C1F200034FF046021A7040F2F433C1F219
:1044D00000034FF042025A7040F2F433C1F200037D
:1044E0004FF044029A7040F2A803C1F200031B7817
:1044F000DAB240F2F433C1F20003DA7040F2A903F9
:10450000C1F200031B78DAB240F2F433C1F20003C7
:104510001A7140F23803C1F200031A7840F2F43302
:10452000C1F200035A7140F2B003C1F200034FF030
:1045300006021A70FA7940F2B003C1F200031B7848
:10454000DBB2104640F2F431C1F200011A46FEF728
:10455000B1F800F035BF40F2F433C1F200034FF080
:1045600046021A7040F2F433C1F200034FF04202E7
:104570005A7040F2F433C1F200034FF044029A70D3
:1045800040F2A803C1F200031B78DAB240F2F43320
:10459000C1F20003DA7040F2A903C1F200031B78F4
:1045A000DAB240F2F433C1F200031A7140F2380378
:1045B000C1F200035A7840F2F433C1F200035A7199
:1045C00040F2B003C1F200034FF006021A70FA790C
:1045D00040F2B003C1F200031B78DBB2104640F298
:1045E000F431C1F200011A46FEF764F800F0E8BEAB
:1045F00040F2F433C1F200034FF046021A7040F269
:10460000F433C1F200034FF042025A7040F2F43327
:10461000C1F200034FF044029A7040F2A803C1F2C5
:1046200000031B78DAB240F2F433C1F20003DA700F
:1046300040F2A903C1F200031B78DAB240F2F4336E
:10464000C1F200031A7140F23803C1F200039A78F4
:1046500040F2F433C1F200035A7140F2B003C1F2E8
:1046600000034FF006021A70FA7940F2B003C1F26B
:1046700000031B78DBB2104640F2F431C1F20001B6
:104680001A46FEF717F800F09BBE40F2A903C1F2EC
:1046900000031B78DBB2002B40F08D8640F2F43330
:1046A000C1F200034FF046021A7040F2F433C1F237
:1046B00000034FF042025A7040F2F433C1F200039B
:1046C0004FF044029A7040F2A803C1F200031B7835
:1046D000DAB240F2F433C1F20003DA7040F2A90317
:1046E000C1F200031B78DAB240F2F433C1F20003E6
:1046F0001A7140F23803C1F200031A7840F2F43321
:10470000C1F200035A7140F23803C1F200035A7833
:1047100040F2F433C1F200039A7140F23803C1F25F
:1047200000039A7840F2F433C1F20003DA7140F2E8
:10473000B003C1F200034FF008021A70FA7940F298
:10474000B003C1F200031B78DBB2104640F2F43133
:10475000C1F200011A46FDF7ADFF00F031BE40F294
:10476000F433C1F200034FF046021A7040F2F43302
:10477000C1F200034FF042025A7040F2F433C1F22A
:1047800000034FF044029A7040F2A803C1F2000304
:104790001B78DAB240F2F433C1F20003DA7040F26F
:1047A000A903C1F200031B78DAB240F2F433C1F27C
:1047B00000031A714FF00003FB7311E0FB7B03F160
:1047C0000502F97B40F20803C1F20003595C40F294
:1047D000F433C1F200039954FB7B03F10103FB7333
:1047E000FB7B072BEAD940F2B003C1F200034FF084
:1047F00005021A704FF00003FB7311E0FB7B03F11D
:104800000D02F97B40F21803C1F20003595C40F23B
:10481000F433C1F200039954FB7B03F10103FB73F2
:10482000FB7B072BEAD940F2B003C1F200031B78EF
:10483000DBB203F10D03DAB240F2B003C1F20003C0
:104840001A704FF00003FB7311E0FB7B03F11502BC
:10485000F97B40F21003C1F20003595C40F2F433DB
:10486000C1F200039954FB7B03F10103FB73FB7B53
:10487000072BEAD940F2B003C1F200031B78DBB288
:1048800003F11503DAB240F2B003C1F200031A706B
:104890004FF00003FB7311E0FB7B03F11D02F97B7A
:1048A00040F22003C1F20003595C40F2F433C1F23C
:1048B00000039954FB7B03F10103FB73FB7B052B86
:1048C000EAD940F2B003C1F200031B78DBB203F176
:1048D0001D03DAB240F2B003C1F200031A704FF0C8
:1048E0000003FB7311E0FB7B03F12302F97B40F231
:1048F0002803C1F20003595C40F2F433C1F2000313
:104900009954FB7B03F10103FB73FB7B052BEAD975
:1049100040F2B003C1F200031B78DBB203F12303C2
:10492000DAB240F2B003C1F200031A704FF0000394
:10493000FB7311E0FB7B03F12902F97B40F23003AA
:10494000C1F20003595C40F2F433C1F20003995400
:10495000FB7B03F10103FB73FB7B052BEAD940F2E0
:10496000B003C1F200031B78DBB203F12903DAB212
:1049700040F2B003C1F200031A7040F2BC03C1F26E
:1049800000031B68DAB240F2F433C1F2000383F88B
:104990002F2040F2BC03C1F200031B684FEA13232F
:1049A000DAB240F2F433C1F2000383F8302040F26F
:1049B000B003C1F200031B78DBB203F12F03DAB2BC
:1049C00040F2B003C1F200031A7040F2C003C1F21A
:1049D00000031B68DAB240F2F433C1F2000383F83B
:1049E000312040F2C003C1F200031B684FEA1323D9
:1049F000DAB240F2F433C1F2000383F8322040F21D
:104A0000B003C1F200031B78DBB203F13103DAB269
:104A100040F2B003C1F200031A704FF00003FB73C1
:104A200011E0FB7B03F13302F97B40F23803C1F262
:104A30000003595C40F2F433C1F200039954FB7B4C
:104A400003F10103FB73FB7B022BEAD940F2B003B5
:104A5000C1F200031B78DBB203F13303DAB240F298
:104A6000B003C1F200031A7040F2B003C1F20003B8
:104A70004FF036021A70FA7940F2B003C1F2000327
:104A80001B78DBB2104640F2F431C1F200011A4645
:104A9000FDF710FE00F094BC40F2C403C1F2000325
:104AA0004FF001021A7000F08BBC40F2FC43C1F2DF
:104AB00000031A6840F2B403C1F200031A6040F226
:104AC000F433C1F200034FF046021A7040F2F4339F
:104AD000C1F200034FF042025A7040F2F433C1F2C7
:104AE00000034FF044029A7040F2A803C1F20003A1
:104AF0001B78DAB240F2F433C1F20003DA7040F20C
:104B0000B403C1F200031B684FEA1363DAB240F248
:104B1000F433C1F200031A7140F2B403C1F200038E
:104B20001B684FEA2343DAB240F2F433C1F20003C8
:104B30005A7140F2B403C1F200031B684FEA232309
:104B4000DAB240F2F433C1F200039A7140F2B403D6
:104B5000C1F200031B68DAB240F2F433C1F2000381
:104B6000DA7140F2F433C1F200034FF000021A721E
:104B700040F2B003C1F200034FF009021A70FA7953
:104B800040F2B003C1F200031B78DBB2104640F2E2
:104B9000F431C1F200011A46FDF78CFD00F010BCA3
:104BA00040F2F843C1F200031A6840F2B403C1F2C4
:104BB00000031A6040F2F433C1F200034FF04602E2
:104BC0001A7040F2F433C1F200034FF042025A70FF
:104BD00040F2F433C1F200034FF044029A7040F205
:104BE000A803C1F200031B78DAB240F2F433C1F239
:104BF0000003DA7040F2B403C1F200031B684FEA0D
:104C00001363DAB240F2F433C1F200031A7140F2D6
:104C1000B403C1F200031B684FEA2343DAB240F247
:104C2000F433C1F200035A7140F2B403C1F200033D
:104C30001B684FEA2323DAB240F2F433C1F20003D7
:104C40009A7140F2B403C1F200031B68DAB240F279
:104C5000F433C1F20003DA7140F2F433C1F200031D
:104C60004FF000021A7240F2B003C1F200034FF09D
:104C700009021A70FA7940F2B003C1F200031B78FE
:104C8000DBB2104640F2F431C1F200011A46FDF7E2
:104C900011FD95E340F2A903C1F200031B78DBB2DA
:104CA000012B0ED140F28D03C1F200034FF001023F
:104CB0001A7040F28C03C1F200034FF001021A7027
:104CC0007EE340F2A903C1F200031B78DBB2022BA2
:104CD0000ED140F28D03C1F200034FF002021A70B0
:104CE00040F28C03C1F200034FF001021A7067E337
:104CF00040F2A903C1F200031B78DBB2032B0ED1F3
:104D000040F28D03C1F200034FF004021A7040F22A
:104D10008C03C1F200034FF001021A7050E340F21D
:104D2000A903C1F200031B78DBB2042B0ED140F2C1
:104D30008D03C1F200034FF003021A7040F28C039E
:104D4000C1F200034FF001021A7039E340F2A903E7
:104D5000C1F200031B78DBB2062B40F02E8340F239
:104D60008D03C1F200034FF006021A7040F28C036B
:104D7000C1F200034FF001021A7021E340F2A903CF
:104D8000C1F200031B78DAB240F20003C1F2000363
:104D90001A7015E340F2A903C1F200031B78DAB2DE
:104DA00040F20103C1F200031A7009E340F2A903C3
:104DB000C1F200031B78DBB2012B4BD140F2F4337C
:104DC000C1F200034FF046021A7040F2F433C1F210
:104DD00000034FF042025A7040F2F433C1F2000374
:104DE0004FF044029A7040F2A803C1F200031B780E
:104DF000DAB240F2F433C1F20003DA7040F2A903F0
:104E0000C1F200031B78DAB240F2F433C1F20003BE
:104E10001A7140F24003C1F200031A7840F2F433F1
:104E2000C1F200035A7140F2B003C1F200034FF027
:104E300006021A70FA7940F2B003C1F200031B783F
:104E4000DBB2104640F2F431C1F200011A46FDF720
:104E500031FCB5E240F2A903C1F200031B78DBB2DA
:104E6000022B40F0AC8240F2F433C1F200034FF069
:104E700046021A7040F2F433C1F200034FF04202CE
:104E80005A7040F2F433C1F200034FF044029A70BA
:104E900040F2A803C1F200031B78DAB240F2F43307
:104EA000C1F20003DA7040F2A903C1F200031B78DB
:104EB000DAB240F2F433C1F200031A7140F2410356
:104EC000C1F200031A7840F2F433C1F200035A71C0
:104ED00040F2B003C1F200034FF006021A70FA79F3
:104EE00040F2B003C1F200031B78DBB2104640F27F
:104EF000F431C1F200011A46FDF7DCFB60E240F23A
:104F00008E03C1F200034FF001021A7040F2A903B0
:104F1000C1F200031B78DAB240F28F03C1F2000342
:104F20001A704DE240F2F433C1F200034FF0460232
:104F30001A7040F2F433C1F200034FF042025A708B
:104F400040F2F433C1F200034FF044029A7040F291
:104F5000A803C1F200031B78DAB240F2F433C1F2C5
:104F60000003DA7040F2A903C1F200031B78DAB241
:104F700040F2F433C1F200031A7140F28F03C1F220
:104F800000031B78DAB240F2F433C1F200035A7125
:104F900040F2B003C1F200034FF006021A70FA7932
:104FA00040F2B003C1F200031B78DBB2104640F2BE
:104FB000F431C1F200011A46FDF77CFB00E240F239
:104FC000F433C1F200034FF046021A7040F2F4339A
:104FD000C1F200034FF042025A7040F2F433C1F2C2
:104FE00000034FF044029A7040F2A803C1F200039C
:104FF0001B78DAB240F2F433C1F20003DA7040F207
:10500000A903C1F200031B78DAB240F2F433C1F213
:1050100000031A7140F20003C1F200031B78DAB2F8
:1050200040F2F433C1F200035A7140F2B003C1F20E
:1050300000034FF006021A70FA7940F2B003C1F291
:1050400000031B78DBB2104640F2F431C1F20001DC
:105050001A46FDF72FFBB3E140F2F433C1F200032F
:105060004FF046021A7040F2F433C1F200034FF0E1
:1050700042025A7040F2F433C1F200034FF044028E
:105080009A7040F2A803C1F200031B78DAB240F232
:10509000F433C1F20003DA7040F2A903C1F2000355
:1050A0001B78DAB240F2F433C1F200031A7140F215
:1050B0000103C1F200031B78DAB240F2F433C1F20B
:1050C00000035A7140F2B003C1F200034FF0060230
:1050D0001A70FA7940F2B003C1F200031B78DBB218
:1050E000104640F2F431C1F200011A46FDF7E2FA2F
:1050F00066E140F2F433C1F200034FF046021A7049
:1051000040F2F433C1F200034FF042025A7040F211
:10511000F433C1F200034FF044029A7040F2A80346
:10512000C1F200031B78DAB240F2F433C1F200039B
:10513000DA7040F2A903C1F200031B78DAB240F240
:10514000F433C1F200031A7140F2C603C1F2000346
:105150001B78DAB240F2F433C1F200035A7140F224
:10516000B003C1F200034FF006021A70FA7940F260
:10517000B003C1F200031B78DBB2104640F2F431F9
:10518000C1F200011A46FDF795FA19E140F2F43335
:10519000C1F200034FF046021A7040F2F433C1F23C
:1051A00000034FF042025A7040F2F433C1F20003A0
:1051B0004FF044029A7040F2A803C1F200031B783A
:1051C000DAB240F2F433C1F20003DA7040F2A9031C
:1051D000C1F200031B78DAB240F2F433C1F20003EB
:1051E0001A7140F2C703C1F200031B78DAB240F231
:1051F000F433C1F200035A7140F2B003C1F200036C
:105200004FF006021A70FA7940F2B003C1F20003BF
:105210001B78DBB2104640F2F431C1F200011A46AD
:10522000FDF748FACCE040F2F433C1F200034FF04E
:1052300046021A7040F2F433C1F200034FF042020A
:105240005A7040F2F433C1F200034FF044029A70F6
:1052500040F2A803C1F200031B78DAB240F2F43343
:10526000C1F20003DA7040F2F433C1F200034FF0F0
:1052700080021A7140F2B003C1F200034FF0050240
:105280001A70FA7940F2B003C1F200031B78DBB266
:10529000104640F2F431C1F200011A46FDF70AFA55
:1052A0008EE040F2F433C1F200034FF046021A7070
:1052B00040F2F433C1F200034FF042025A7040F260
:1052C000F433C1F200034FF044029A7040F2A80395
:1052D000C1F200031B78DAB240F2F433C1F20003EA
:1052E000DA7040F2F433C1F200034FF001021A7198
:1052F00040F2B003C1F200034FF005021A70FA79D0
:1053000040F2B003C1F200031B78DBB2104640F25A
:10531000F431C1F200011A46FDF7CCF950E040F239
:10532000F433C1F200034FF046021A7040F2F43336
:10533000C1F200034FF042025A7040F2F433C1F25E
:1053400000034FF044029A7040F2A803C1F2000338
:105350001B78DAB240F2F433C1F20003DA7040F2A3
:10536000F433C1F200034FF001021A7140F2B003AE
:10537000C1F200034FF005021A70FA7940F2B0034F
:10538000C1F200031B78DBB2104640F2F431C1F2E7
:1053900000011A46FDF78EF912E000BF10E000BFD1
:1053A0000EE000BF0CE000BF0AE000BF08E000BF55
:1053B00006E000BF04E000BF02E000BF00E000BF65
:1053C00040F2AF03C1F200034FF000021A7040F246
:1053D0005403C1F200034FF001021A7007F11007E5
:1053E000BD4680BD80B483B000AF4FF000037B604A
:1053F0004FF44043C4F20F034FF02002C3F8A02142
:1054000000BF4FF44043C4F20F03D3F8A03103F0C0
:105410004003002BF5D04FF44043C4F20F034FF08C
:105420000202C3F804214FF44043C4F20F034FF0CB
:105430000002C3F8A8214FF44043C4F20F034FF019
:105440000002C3F8AC214FF44043C4F20F034FF005
:105450000102C3F80C214FF44043C4F20F034FF094
:105460005902C0F20502C3F884204FF44043C4F24D
:105470000F034FF00102C3F880204FF44043C4F201
:105480000F034FF0AA02C3F88C204FF44043C4F23C
:105490000F034FF05502C3F88C204FF44043C4F281
:1054A0000F03D3F80C31022B0BD000BF4FF4404355
:1054B000C4F20F03D3F8883003F08063002BF5D0DB
:1054C0000AE04FF000037B6003E07B6803F1010317
:1054D0007B607B68642BF8D94FF44043C4F20F0320
:1054E0004FF00302C3F880204FF44043C4F20F038F
:1054F0004FF0AA02C3F88C204FF44043C4F20F03CC
:105500004FF05502C3F88C204FF44043C4F20F0310
:105510004FF02302C3F8A4204FF44043C4F20F031A
:105520004FF00102C3F8A0204FF44043C4F20F0330
:105530004FF0AA02C3F8AC204FF44043C4F20F036B
:105540004FF05502C3F8AC2000BF4FF44043C4F203
:105550000F03D3F8A83003F48063002BF5D04FF489
:105560004043C4F20F034FF00302C3F8A0204FF4EE
:105570004043C4F20F034FF0AA02C3F8AC204FF42B
:105580004043C4F20F034FF05502C3F8AC204FF470
:105590004043C4F20F0348F2DE72C0F22842C3F85F
:1055A000C4204FF44043C4F20F034FF00002C3F88D
:1055B000C8214FF44043C4F20F0343F23A021A6089
:1055C00007F10C07BD4680BC704700BF80B400AF38
:1055D0004FF44043C4F20F03D3F888304FEA13630B
:1055E00003F00303032B40F0B2804FF44043C4F2B6
:1055F0000F03D3F80C3103F00303032B00F2FD80FB
:1056000001A252F823F000BF195600008156000095
:10561000EB560000195600004FF44043C4F20F034C
:10562000D3F888304FEA43434FEA534303F1010371
:105630004FEA43024FF44043C4F20F03D3F88830DB
:105640004FEA134303F0FF0303F10103B2FBF3F24C
:105650004FF41063C0F23D0303FB02F24FF44043EA
:10566000C4F20F03D3F8043103F0FF0303F1010385
:10567000B2FBF3F240F25803C1F200031A60BDE03E
:105680004FF44043C4F20F03D3F888304FEA43434A
:105690004FEA534303F101034FEA43024FF44043FF
:1056A000C4F20F03D3F888304FEA134303F0FF032B
:1056B00003F10103B2FBF3F24FF4D853C0F2B70386
:1056C00003FB02F24FF44043C4F20F03D3F804315A
:1056D00003F0FF0303F10103B2FBF3F240F25803BE
:1056E000C1F200031A6000BF88E04FF44043C4F2E7
:1056F0000F03D3F888304FEA43434FEA534303F193
:1057000001034FEA43024FF44043C4F20F03D3F8BE
:1057100088304FEA134303F0FF0303F10103B2FBA8
:10572000F3F34FF4FA4202FB03F24FF44043C4F2A6
:105730000F03D3F8043103F0FF0303F10103B2FBBD
:10574000F3F240F25803C1F200031A6056E04FF43E
:105750004043C4F20F03D3F80C3103F00303032BCF
:105760004CD801A252F823F079570000A557000049
:10577000D1570000795700004FF44043C4F20F03A3
:10578000D3F8043103F0FF0303F101024FF4106377
:10579000C0F23D03B3FBF2F240F25803C1F2000342
:1057A0001A602BE04FF44043C4F20F03D3F80431E6
:1057B00003F0FF0303F101024FF4D853C0F2B70323
:1057C000B3FBF2F240F25803C1F200031A6015E095
:1057D0004FF44043C4F20F03D3F8043103F0FF0346
:1057E00003F101034FF4FA42B2FBF3F240F2580323
:1057F000C1F200031A6000BF00E000BFBD4680BCDC
:10580000704700BFFBF7CEBF00C0014000C005409D
:1058100000000A40202020202057494649204445C6
:0C5820004D4F2020202020200000000020
:10582C006464010101010000A1A2A3A4A5A6A7A87C
:10583C00B1B2B3B4B5B6B7B8C1C2C3C4C5C6C7C894
:10584C00D1D2D3D4D5D60000E1E2E3E4E5E6000002
:10585C00F1F2F3F4F5F60000AAABAC000000000086
:10586C0064640000717273747576787900000000BE
:0C587C000000000001000000001BB7004D
:0400000300000129CF
:00000001FF
